{"contracts/LandRegistry.sol":{"LandRegistry":{"abi":[{"inputs":[],"stateMutability":"nonpayable","type":"constructor"},{"inputs":[],"name":"AccessControlBadConfirmation","type":"error"},{"inputs":[{"internalType":"address","name":"account","type":"address"},{"internalType":"bytes32","name":"neededRole","type":"bytes32"}],"name":"AccessControlUnauthorizedAccount","type":"error"},{"inputs":[{"internalType":"address","name":"sender","type":"address"},{"internalType":"uint256","name":"tokenId","type":"uint256"},{"internalType":"address","name":"owner","type":"address"}],"name":"ERC721IncorrectOwner","type":"error"},{"inputs":[{"internalType":"address","name":"operator","type":"address"},{"internalType":"uint256","name":"tokenId","type":"uint256"}],"name":"ERC721InsufficientApproval","type":"error"},{"inputs":[{"internalType":"address","name":"approver","type":"address"}],"name":"ERC721InvalidApprover","type":"error"},{"inputs":[{"internalType":"address","name":"operator","type":"address"}],"name":"ERC721InvalidOperator","type":"error"},{"inputs":[{"internalType":"address","name":"owner","type":"address"}],"name":"ERC721InvalidOwner","type":"error"},{"inputs":[{"internalType":"address","name":"receiver","type":"address"}],"name":"ERC721InvalidReceiver","type":"error"},{"inputs":[{"internalType":"address","name":"sender","type":"address"}],"name":"ERC721InvalidSender","type":"error"},{"inputs":[{"internalType":"uint256","name":"tokenId","type":"uint256"}],"name":"ERC721NonexistentToken","type":"error"},{"anonymous":false,"inputs":[{"indexed":true,"internalType":"address","name":"owner","type":"address"},{"indexed":true,"internalType":"address","name":"approved","type":"address"},{"indexed":true,"internalType":"uint256","name":"tokenId","type":"uint256"}],"name":"Approval","type":"event"},{"anonymous":false,"inputs":[{"indexed":true,"internalType":"address","name":"owner","type":"address"},{"indexed":true,"internalType":"address","name":"operator","type":"address"},{"indexed":false,"internalType":"bool","name":"approved","type":"bool"}],"name":"ApprovalForAll","type":"event"},{"anonymous":false,"inputs":[{"indexed":false,"internalType":"uint256","name":"_fromTokenId","type":"uint256"},{"indexed":false,"internalType":"uint256","name":"_toTokenId","type":"uint256"}],"name":"BatchMetadataUpdate","type":"event"},{"anonymous":false,"inputs":[{"indexed":true,"internalType":"uint256","name":"tokenId","type":"uint256"},{"indexed":false,"internalType":"bool","name":"hasDispute","type":"bool"},{"indexed":false,"internalType":"string","name":"details","type":"string"}],"name":"DisputeStatusUpdated","type":"event"},{"anonymous":false,"inputs":[{"indexed":true,"internalType":"address","name":"to","type":"address"},{"indexed":true,"internalType":"uint256","name":"tokenId","type":"uint256"},{"indexed":false,"internalType":"string","name":"surveyNumber","type":"string"}],"name":"LandMinted","type":"event"},{"anonymous":false,"inputs":[{"indexed":true,"internalType":"address","name":"from","type":"address"},{"indexed":true,"internalType":"address","name":"to","type":"address"},{"indexed":true,"internalType":"uint256","name":"tokenId","type":"uint256"}],"name":"LandTransferred","type":"event"},{"anonymous":false,"inputs":[{"indexed":true,"internalType":"uint256","name":"tokenId","type":"uint256"},{"indexed":false,"internalType":"uint256","name":"oldValue","type":"uint256"},{"indexed":false,"internalType":"uint256","name":"newValue","type":"uint256"},{"indexed":false,"internalType":"uint256","name":"timestamp","type":"uint256"}],"name":"MarketValueUpdated","type":"event"},{"anonymous":false,"inputs":[{"indexed":false,"internalType":"uint256","name":"_tokenId","type":"uint256"}],"name":"MetadataUpdate","type":"event"},{"anonymous":false,"inputs":[{"indexed":true,"internalType":"bytes32","name":"role","type":"bytes32"},{"indexed":true,"internalType":"bytes32","name":"previousAdminRole","type":"bytes32"},{"indexed":true,"internalType":"bytes32","name":"newAdminRole","type":"bytes32"}],"name":"RoleAdminChanged","type":"event"},{"anonymous":false,"inputs":[{"indexed":true,"internalType":"bytes32","name":"role","type":"bytes32"},{"indexed":true,"internalType":"address","name":"account","type":"address"},{"indexed":true,"internalType":"address","name":"sender","type":"address"}],"name":"RoleGranted","type":"event"},{"anonymous":false,"inputs":[{"indexed":true,"internalType":"bytes32","name":"role","type":"bytes32"},{"indexed":true,"internalType":"address","name":"account","type":"address"},{"indexed":true,"internalType":"address","name":"sender","type":"address"}],"name":"RoleRevoked","type":"event"},{"anonymous":false,"inputs":[{"indexed":true,"internalType":"address","name":"from","type":"address"},{"indexed":true,"internalType":"address","name":"to","type":"address"},{"indexed":true,"internalType":"uint256","name":"tokenId","type":"uint256"}],"name":"Transfer","type":"event"},{"inputs":[],"name":"AUTHORITY_ROLE","outputs":[{"internalType":"bytes32","name":"","type":"bytes32"}],"stateMutability":"view","type":"function"},{"inputs":[],"name":"DEFAULT_ADMIN_ROLE","outputs":[{"internalType":"bytes32","name":"","type":"bytes32"}],"stateMutability":"view","type":"function"},{"inputs":[],"name":"MAX_AREA","outputs":[{"internalType":"uint256","name":"","type":"uint256"}],"stateMutability":"view","type":"function"},{"inputs":[],"name":"MIN_AREA","outputs":[{"internalType":"uint256","name":"","type":"uint256"}],"stateMutability":"view","type":"function"},{"inputs":[{"internalType":"address","name":"to","type":"address"},{"internalType":"uint256","name":"tokenId","type":"uint256"}],"name":"approve","outputs":[],"stateMutability":"nonpayable","type":"function"},{"inputs":[{"internalType":"address","name":"owner","type":"address"}],"name":"balanceOf","outputs":[{"internalType":"uint256","name":"","type":"uint256"}],"stateMutability":"view","type":"function"},{"inputs":[{"components":[{"internalType":"address","name":"recipient","type":"address"},{"internalType":"string","name":"metadataURI","type":"string"},{"internalType":"string","name":"location","type":"string"},{"internalType":"string","name":"surveyNumber","type":"string"},{"internalType":"uint256","name":"area","type":"uint256"},{"internalType":"string","name":"propertyType","type":"string"},{"internalType":"uint256","name":"marketValue","type":"uint256"}],"internalType":"struct LandRegistry.BatchMintParams[]","name":"params","type":"tuple[]"}],"name":"batchMintLand","outputs":[{"internalType":"uint256[]","name":"","type":"uint256[]"}],"stateMutability":"nonpayable","type":"function"},{"inputs":[{"internalType":"address[]","name":"froms","type":"address[]"},{"internalType":"address[]","name":"tos","type":"address[]"},{"internalType":"uint256[]","name":"tokenIds","type":"uint256[]"}],"name":"batchTransferLand","outputs":[],"stateMutability":"nonpayable","type":"function"},{"inputs":[{"internalType":"uint256[]","name":"tokenIds","type":"uint256[]"},{"internalType":"uint256[]","name":"newValues","type":"uint256[]"}],"name":"batchUpdateMarketValue","outputs":[],"stateMutability":"nonpayable","type":"function"},{"inputs":[{"internalType":"uint256","name":"tokenId","type":"uint256"}],"name":"getApproved","outputs":[{"internalType":"address","name":"","type":"address"}],"stateMutability":"view","type":"function"},{"inputs":[{"internalType":"uint256","name":"tokenId","type":"uint256"}],"name":"getCurrentMarketValue","outputs":[{"internalType":"uint256","name":"","type":"uint256"}],"stateMutability":"view","type":"function"},{"inputs":[{"internalType":"uint256","name":"tokenId","type":"uint256"}],"name":"getLandParcel","outputs":[{"components":[{"internalType":"string","name":"location","type":"string"},{"internalType":"string","name":"surveyNumber","type":"string"},{"internalType":"uint256","name":"area","type":"uint256"},{"internalType":"string","name":"propertyType","type":"string"},{"internalType":"uint256","name":"marketValue","type":"uint256"},{"internalType":"bool","name":"hasDispute","type":"bool"},{"internalType":"string","name":"disputeDetails","type":"string"},{"internalType":"uint256","name":"lastTransferDate","type":"uint256"},{"internalType":"string","name":"ownershipHistory","type":"string"},{"internalType":"string","name":"valueHistory","type":"string"}],"internalType":"struct LandRegistry.LandParcel","name":"","type":"tuple"}],"stateMutability":"view","type":"function"},{"inputs":[{"internalType":"uint256","name":"tokenId","type":"uint256"}],"name":"getOwnershipHistory","outputs":[{"internalType":"string","name":"","type":"string"}],"stateMutability":"view","type":"function"},{"inputs":[{"internalType":"bytes32","name":"role","type":"bytes32"}],"name":"getRoleAdmin","outputs":[{"internalType":"bytes32","name":"","type":"bytes32"}],"stateMutability":"view","type":"function"},{"inputs":[],"name":"getTotalLands","outputs":[{"internalType":"uint256","name":"","type":"uint256"}],"stateMutability":"view","type":"function"},{"inputs":[{"internalType":"uint256","name":"tokenId","type":"uint256"}],"name":"getValueHistory","outputs":[{"internalType":"string","name":"","type":"string"}],"stateMutability":"view","type":"function"},{"inputs":[{"internalType":"bytes32","name":"role","type":"bytes32"},{"internalType":"address","name":"account","type":"address"}],"name":"grantRole","outputs":[],"stateMutability":"nonpayable","type":"function"},{"inputs":[{"internalType":"uint256","name":"tokenId","type":"uint256"}],"name":"hasActiveDispute","outputs":[{"internalType":"bool","name":"","type":"bool"}],"stateMutability":"view","type":"function"},{"inputs":[{"internalType":"bytes32","name":"role","type":"bytes32"},{"internalType":"address","name":"account","type":"address"}],"name":"hasRole","outputs":[{"internalType":"bool","name":"","type":"bool"}],"stateMutability":"view","type":"function"},{"inputs":[{"internalType":"address","name":"owner","type":"address"},{"internalType":"address","name":"operator","type":"address"}],"name":"isApprovedForAll","outputs":[{"internalType":"bool","name":"","type":"bool"}],"stateMutability":"view","type":"function"},{"inputs":[{"internalType":"uint256","name":"","type":"uint256"}],"name":"landParcels","outputs":[{"internalType":"string","name":"location","type":"string"},{"internalType":"string","name":"surveyNumber","type":"string"},{"internalType":"uint256","name":"area","type":"uint256"},{"internalType":"string","name":"propertyType","type":"string"},{"internalType":"uint256","name":"marketValue","type":"uint256"},{"internalType":"bool","name":"hasDispute","type":"bool"},{"internalType":"string","name":"disputeDetails","type":"string"},{"internalType":"uint256","name":"lastTransferDate","type":"uint256"},{"internalType":"string","name":"ownershipHistory","type":"string"},{"internalType":"string","name":"valueHistory","type":"string"}],"stateMutability":"view","type":"function"},{"inputs":[{"internalType":"address","name":"to","type":"address"},{"internalType":"string","name":"metadataURI","type":"string"},{"internalType":"string","name":"location","type":"string"},{"internalType":"string","name":"surveyNumber","type":"string"},{"internalType":"uint256","name":"area","type":"uint256"},{"internalType":"string","name":"propertyType","type":"string"},{"internalType":"uint256","name":"marketValue","type":"uint256"}],"name":"mintLand","outputs":[{"internalType":"uint256","name":"","type":"uint256"}],"stateMutability":"nonpayable","type":"function"},{"inputs":[],"name":"name","outputs":[{"internalType":"string","name":"","type":"string"}],"stateMutability":"view","type":"function"},{"inputs":[{"internalType":"uint256","name":"tokenId","type":"uint256"}],"name":"ownerOf","outputs":[{"internalType":"address","name":"","type":"address"}],"stateMutability":"view","type":"function"},{"inputs":[{"internalType":"bytes32","name":"role","type":"bytes32"},{"internalType":"address","name":"callerConfirmation","type":"address"}],"name":"renounceRole","outputs":[],"stateMutability":"nonpayable","type":"function"},{"inputs":[{"internalType":"bytes32","name":"role","type":"bytes32"},{"internalType":"address","name":"account","type":"address"}],"name":"revokeRole","outputs":[],"stateMutability":"nonpayable","type":"function"},{"inputs":[{"internalType":"address","name":"from","type":"address"},{"internalType":"address","name":"to","type":"address"},{"internalType":"uint256","name":"tokenId","type":"uint256"}],"name":"safeTransferFrom","outputs":[],"stateMutability":"nonpayable","type":"function"},{"inputs":[{"internalType":"address","name":"from","type":"address"},{"internalType":"address","name":"to","type":"address"},{"internalType":"uint256","name":"tokenId","type":"uint256"},{"internalType":"bytes","name":"data","type":"bytes"}],"name":"safeTransferFrom","outputs":[],"stateMutability":"nonpayable","type":"function"},{"inputs":[{"internalType":"address","name":"operator","type":"address"},{"internalType":"bool","name":"approved","type":"bool"}],"name":"setApprovalForAll","outputs":[],"stateMutability":"nonpayable","type":"function"},{"inputs":[{"internalType":"bytes4","name":"interfaceId","type":"bytes4"}],"name":"supportsInterface","outputs":[{"internalType":"bool","name":"","type":"bool"}],"stateMutability":"view","type":"function"},{"inputs":[],"name":"symbol","outputs":[{"internalType":"string","name":"","type":"string"}],"stateMutability":"view","type":"function"},{"inputs":[{"internalType":"uint256","name":"tokenId","type":"uint256"}],"name":"tokenURI","outputs":[{"internalType":"string","name":"","type":"string"}],"stateMutability":"view","type":"function"},{"inputs":[{"internalType":"address","name":"from","type":"address"},{"internalType":"address","name":"to","type":"address"},{"internalType":"uint256","name":"tokenId","type":"uint256"}],"name":"transferFrom","outputs":[],"stateMutability":"nonpayable","type":"function"},{"inputs":[{"internalType":"address","name":"from","type":"address"},{"internalType":"address","name":"to","type":"address"},{"internalType":"uint256","name":"tokenId","type":"uint256"}],"name":"transferLand","outputs":[],"stateMutability":"nonpayable","type":"function"},{"inputs":[{"internalType":"uint256","name":"tokenId","type":"uint256"},{"internalType":"bool","name":"hasDispute","type":"bool"},{"internalType":"string","name":"details","type":"string"}],"name":"updateDisputeStatus","outputs":[],"stateMutability":"nonpayable","type":"function"},{"inputs":[{"internalType":"uint256","name":"tokenId","type":"uint256"},{"internalType":"uint256","name":"newValue","type":"uint256"}],"name":"updateMarketValue","outputs":[],"stateMutability":"nonpayable","type":"function"}],"evm":{"bytecode":{"linkReferences":{},"object":"60806040523461033c57604080519081016001600160401b03811182821017610249576040908152600c82526b4c616e64526567697374727960a01b602083015280519081016001600160401b038111828210176102495760405260048152631310539160e21b602082015281516001600160401b03811161024957600054600181811c91168015610332575b602082101461022957601f81116102ce575b50602092601f821160011461026a579281929360009261025f575b50508160011b916000199060031b1c1916176000555b80516001600160401b03811161024957600154600181811c9116801561023f575b602082101461022957601f81116101c4575b50602091601f821160011461016057918192600092610155575b50508160011b916000199060031b1c1916176001555b61013b33610341565b50610145336103bd565b5060405161403690816104568239f35b01519050388061011c565b601f198216926001600052806000209160005b8581106101ac57508360019510610193575b505050811b01600155610132565b015160001960f88460031b161c19169055388080610185565b91926020600181928685015181550194019201610173565b60016000527fb10e2d527612073b26eecdfd717e6a320cf44b4afac2b0732d9fcbe2b7fa0cf6601f830160051c8101916020841061021f575b601f0160051c01905b8181106102135750610102565b60008155600101610206565b90915081906101fd565b634e487b7160e01b600052602260045260246000fd5b90607f16906100f0565b634e487b7160e01b600052604160045260246000fd5b0151905038806100b9565b601f1982169360008052806000209160005b8681106102b6575083600195961061029d575b505050811b016000556100cf565b015160001960f88460031b161c1916905538808061028f565b9192602060018192868501518155019401920161027c565b600080527f290decd9548b62a8d60345a988386fc84ba6bc95484008f6362f93160ef3e563601f830160051c81019160208410610328575b601f0160051c01905b81811061031c575061009e565b6000815560010161030f565b9091508190610306565b90607f169061008c565b600080fd5b6001600160a01b03811660009081526000805160206144cc833981519152602052604090205460ff166103b7576001600160a01b031660008181526000805160206144cc83398151915260205260408120805460ff1916600117905533919060008051602061448c8339815191528180a4600190565b50600090565b6001600160a01b03811660009081526000805160206144ac833981519152602052604090205460ff166103b7576001600160a01b031660008181526000805160206144ac83398151915260205260408120805460ff191660011790553391907fd565e3fc066df348a5cbc05a8d6323e00552838041cea2d84cc59876ba37735d9060008051602061448c8339815191529080a460019056fe61018080604052600436101561001457600080fd5b60003560e01c90816301ffc9a714612dfc5750806306fdde0314612d57578063081812fc14612d39578063095ea7b314612c4a578063168fc89814612c2c57806320e7c6d414612b1e57806323b872dd14612b07578063248a9ca314612ad25780632f2ff15d14612a9257806336568abe14612a4c57806338fe18501461288c57806342842e0e1461285c5780634a3fba0e146128215780636352211e146127f157806370a082311461279b578063731f3629146119aa5780638388e2ba1461198e578063842e7dba1461197057806390169f9714610d0257806391d1485414610cb557806395d89b4114610be8578063a217fddf14610bcc578063a22cb46514610b25578063a762c34214610b0e578063ab279a8e14610acb578063b4e63495146108bd578063b88d4fde14610852578063c4b1c73514610771578063c87b56dd14610752578063cf62664a1461053c578063d547741f146104f5578063dd6055c8146104b2578063e7feff2e146102b7578063e985e9c51461025c578063f1bd7439146102145763f1dbaccb146101ac57600080fd5b3461020f57602036600319011261020f576004356101dc6001600160a01b036101d4836138e5565b1615156132f3565b600052600960205261020b6101f76008604060002001612f86565b604051918291602083526020830190612ebe565b0390f35b600080fd5b3461020f57602036600319011261020f5760043561023c6001600160a01b036101d4836138e5565b6000526009602052602060ff600560406000200154166040519015158152f35b3461020f57604036600319011261020f57610275612ee3565b61027d612ef9565b9060018060a01b0316600052600560205260406000209060018060a01b0316600052602052602060ff604060002054166040519015158152f35b3461020f57602036600319011261020f576004356040516102d781612f49565b6060808252602082018190526000604083018190528282018290526080830181905260a0830181905260c0830182905260e08301526101008201819052610120909101526001600160a01b0361032c826138e5565b161515610338906132f3565b6000526009602052604060002060405161035181612f49565b61035a82612f86565b815261036860018301612f86565b91602082019283526002810154604083019081526003820161038990612f86565b9160608401928352600481015460808501908152600582015460ff1660a086019015158152600683016103bb90612f86565b9060c0870191825260078401549460e08801958652600885016103dd90612f86565b9461010089019586526009016103f290612f86565b966101208901978852604051998a9960208b525160208b0161014090526101608b0161041d91612ebe565b90518a8203601f190160408c01526104359190612ebe565b915160608a015251888203601f190160808a01526104539190612ebe565b925160a088015251151560c087015251858203601f190160e08701526104799190612ebe565b915161010085015251838203601f19016101208501526104999190612ebe565b9051828203601f190161014084015261020b9190612ebe565b3461020f57602036600319011261020f576004356104da6001600160a01b036101d4836138e5565b60005260096020526020600460406000200154604051908152f35b3461020f57604036600319011261020f5761053a600435610514612ef9565b9061053561053082600052600760205260016040600020015490565b613a5c565b613b28565b005b3461020f57604036600319011261020f5760043560243561055b6139ea565b61056f6001600160a01b036101d4846138e5565b61057a811515613462565b60008281526009602081905260409091206004810180549084905592916105c8916106229160059101600e6105ae86613bbf565b6105b742613bbf565b9060405196879460208601906134d3565b6d016102ab83230ba32b2103a379d160951b81526105ef8251809360208785019101612e9b565b016401030ba1d160dd1b83820152610611825180936020601385019101612e9b565b01010301601f198101835282612f65565b8360005260096020526009604060002001908051906001600160401b03821161073c57610659826106538554612f0f565b85613336565b602090601f83116001146106c1578260609593600080516020613fe183398151915297959361069f936000926106b6575b50508160011b916000199060031b1c19161790565b90555b6040519182526020820152426040820152a2005b01519050898061068a565b90601f1983169184600052816000209260005b818110610724575092600192859260609896600080516020613fe18339815191529a98961061070b575b505050811b0190556106a2565b015160001960f88460031b161c191690558880806106fe565b929360206001819287860151815501950193016106d4565b634e487b7160e01b600052604160045260246000fd5b3461020f57602036600319011261020f5761020b6101f76004356138b2565b3461020f57606036600319011261020f576004356001600160401b03811161020f576107a19036906004016130a0565b6024356001600160401b03811161020f576107c09036906004016130a0565b906044356001600160401b03811161020f576107e09036906004016130a0565b9483851480610849575b6107f39061385d565b6107fe8515156133a9565b60005b85811061080a57005b8061084361082361081e6001948a876138a2565b61341c565b61083161081e848a8a6138a2565b61083c848c896138a2565b3591613541565b01610801565b508486146107ea565b3461020f57608036600319011261020f5761086b612ee3565b610873612ef9565b90604435606435926001600160401b03841161020f573660238501121561020f576108ab61053a9436906024816004013591016130eb565b926108b7838383613147565b33613ef9565b3461020f57604036600319011261020f576004356001600160401b03811161020f576108ed9036906004016130a0565b6024356001600160401b03811161020f5761090c9036906004016130a0565b9190926109176139ea565b61092283831461385d565b61092d8215156133a9565b60005b82811061093957005b6109448184846138a2565b356109508286886138a2565b356109596139ea565b61096d6001600160a01b036101d4846138e5565b610978811515613462565b60008281526009602081905260409091206004810180549084905592916105c8916109ac9160059101600e6105ae86613bbf565b8360005260096020526009604060002001908051906001600160401b03821161073c576109dd826106538554612f0f565b602090601f8311600114610a4c5792610a2683600199989794600080516020613fe18339815191529794606097600092610a415750508160011b916000199060031b1c19161790565b90555b6040519182526020820152426040820152a201610930565b015190508f8061068a565b90601f1983169184600052816000209260005b818110610ab3575093600080516020613fe183398151915296936060969360019b9a999693838d9510610a9a575b505050811b019055610a29565b015160001960f88460031b161c191690558e8080610a8d565b92936020600181928786015181550195019301610a5f565b3461020f57602036600319011261020f57600435610af36001600160a01b036101d4836138e5565b600052600960205261020b6101f76009604060002001612f86565b3461020f5761053a610b1f3661302a565b91613541565b3461020f57604036600319011261020f57610b3e612ee3565b610b46613064565b6001600160a01b03909116908115610bb757336000526005602052604060002082600052602052610b878160406000209060ff801983541691151516179055565b60405190151581527f17307eab39ab6107e8899845ad3d59bd9653f200f220920489ca2b5937696c3160203392a3005b50630b61174360e31b60005260045260246000fd5b3461020f57600036600319011261020f57602060405160008152f35b3461020f57600036600319011261020f576040516000600154610c0a81612f0f565b8084529060018116908115610c915750600114610c32575b61020b836101f781850382612f65565b600160009081527fb10e2d527612073b26eecdfd717e6a320cf44b4afac2b0732d9fcbe2b7fa0cf6939250905b808210610c77575090915081016020016101f7610c22565b919260018160209254838588010152019101909291610c5f565b60ff191660208086019190915291151560051b840190910191506101f79050610c22565b3461020f57604036600319011261020f57610cce612ef9565b600435600052600760205260406000209060018060a01b0316600052602052602060ff604060002054166040519015158152f35b3461020f5760e036600319011261020f57610d1b612ee3565b6024356001600160401b03811161020f57610d3a903690600401613073565b91906044356001600160401b03811161020f57610d5b903690600401613073565b926064356001600160401b03811161020f57610d7b903690600401613073565b92909460a4356001600160401b03811161020f57610d9d903690600401613073565b90600093610da96139ea565b6001600160a01b0386161561192f5783156118ef5786156118aa57600160843510158061189b575b1561186257821561181d57610de960c4351515613462565b610df46008546134ae565b978860085560209a604051610e098d82612f65565b8781526001600160a01b03610e1e8c8b61391c565b166118095790610e34610e3b93928c8b33613db5565b36916130eb565b88865260068b5260408620908051906001600160401b0382116117f55791818d93610e6b8d946106538554612f0f565b84908a601f84116001146117555786610f3296610f559996610ed387610f149f9e9d9b9698602f98610f259a7ff8e1a15aba9398e019f0b49df1a4fde98ee17ae345cb5f6b5e2c27f5033e8ce7989261174a5750508160011b916000199060031b1c19161790565b90555b604051908152a1610ee860c435613bbf565b6040519a826e024b734ba34b0b6103b30b63ab29d1608d1b8d9485015282519283918686019101612e9b565b81010301601f198101895288612f65565b60405195610e3487612f49565b8452610f3f36898c6130eb565b928b8501938452608435604086015236916130eb565b606083015260c43560808301528360a0830152604051610f758a82612f65565b84815260c08301524260e0830152604051610f908a82612f65565b848152610100830152604051610fa68a82612f65565b848152610120830152868452600989526040842090825180516001600160401b03811161156a57610fe181610fdb8654612f0f565b86613336565b8b8c601f83116001146116e45750819061101093899261157e5750508160011b916000199060031b1c19161790565b82555b518051906001600160401b0382116116655761103f826110366001860154612f0f565b60018601613336565b8a90601f83116001146116795761106d92918791836115ef5750508160011b916000199060031b1c19161790565b60018201555b6040820151600282015560608201518051906001600160401b038211611665576110ad826110a46003860154612f0f565b60038601613336565b8a90601f83116001146115fa576110db92918791836115ef5750508160011b916000199060031b1c19161790565b60038201555b6080820151600482015561110a60a08301511515600583019060ff801983541691151516179055565b6006810160c083015180516001600160401b03811161156a57611131816106538554612f0f565b8b8c601f83116001146115895750819061116093899261157e5750508160011b916000199060031b1c19161790565b90555b60e08201516007820155600881016101008301518051906001600160401b03821161156a57611196826106538554612f0f565b8b908c601f84116001146114fd5750826101209593600995936111ce938b92610a415750508160011b916000199060031b1c19161790565b90555b019101518051906001600160401b038211611486576111f4826106538554612f0f565b8990601f831160011461149a57611222929186918361137c5750508160011b916000199060031b1c19161790565b90555b61122e83613c83565b61126f602b60405180936a026b4b73a32b2103a379d160ad1b8c83015261125e8c82519283918686019101612e9b565b81010301601f198101835282612f65565b8583526009885260086040842001908051906001600160401b0382116114865761129d826106538554612f0f565b8990601f8311600114611423576112cb929186918361137c5750508160011b916000199060031b1c19161790565b90555b8482526009875260096040832001918151916001600160401b03831161140f576112fc83610fdb8654612f0f565b8891601f841160011461138757928088999593611350937fb145eb58c4ce95ea8ebb64f9ec4c2c5ff09c2aeb40afca8cee50367dfec496e698969261137c5750508160011b916000199060031b1c19161790565b90555b61137160405192839289845260018060a01b03169589840191613388565b0390a3604051908152f35b015190508b8061068a565b9190601f1984168584528a8420935b8b8282106113f95750509260019285927fb145eb58c4ce95ea8ebb64f9ec4c2c5ff09c2aeb40afca8cee50367dfec496e698968b9c9896106113e0575b505050811b019055611353565b015160001960f88460031b161c191690558a80806113d3565b6001859682939686015181550195019301611396565b634e487b7160e01b82526041600452602482fd5b8386528a86209190601f198416875b8d828210611470575050908460019594939210611457575b505050811b0190556112ce565b015160001960f88460031b161c191690558a808061144a565b6001859682939686015181550195019301611432565b634e487b7160e01b85526041600452602485fd5b8386528a86209190601f198416875b8d8282106114e75750509084600195949392106114ce575b505050811b019055611225565b015160001960f88460031b161c191690558a80806114c1565b60018596829396860151815501950193016114a9565b9190601f198416858a52838a20938a905b82821061155257505092600192859261012098966009989610611539575b505050811b0190556111d1565b015160001960f88460031b161c191690558e808061152c565b8060018697829497870151815501960194019061150e565b634e487b7160e01b87526041600452602487fd5b015190508d8061068a565b9192601f198416858a52838a20938a905b8282106115d75750509084600195949392106115be575b505050811b019055611163565b015160001960f88460031b161c191690558c80806115b1565b8060018697829497870151815501960194019061159a565b015190508c8061068a565b6003840187528b87209190601f198416888e5b82821061164d575050908460019594939210611634575b505050811b0160038201556110e1565b015160001960f88460031b161c191690558b8080611624565b8060018697829497870151815501960194019061160d565b634e487b7160e01b86526041600452602486fd5b6001840187528b87209190601f198416888e5b8282106116cc5750509084600195949392106116b3575b505050811b016001820155611073565b015160001960f88460031b161c191690558b80806116a3565b8060018697829497870151815501960194019061168c565b9192601f198416868a52838a20938a905b828210611732575050908460019594939210611719575b505050811b018255611013565b015160001960f88460031b161c191690558c808061170c565b806001869782949787015181550196019401906116f5565b01519050388061068a565b849052858b2091908b5b601f19851681106117db575086610f3296610f559996600187610f149f9e9d9b9697602f987ff8e1a15aba9398e019f0b49df1a4fde98ee17ae345cb5f6b5e2c27f5033e8ce797610f259b601f198116106117c2575b505050811b019055610ed6565b015160001960f88460031b161c191690553880806117b5565b8183015184558f965060019093019291870191870161175f565b634e487b7160e01b88526041600452602488fd5b6339e3563760e11b88526004889052602488fd5b60405162461bcd60e51b815260206004820152601d60248201527f50726f706572747920747970652063616e6e6f7420626520656d7074790000006044820152606490fd5b60405162461bcd60e51b8152602060048201526011602482015270496e76616c696420617265612073697a6560781b6044820152606490fd5b50629896806084351115610dd1565b60405162461bcd60e51b815260206004820152601d60248201527f537572766579206e756d6265722063616e6e6f7420626520656d7074790000006044820152606490fd5b60405162461bcd60e51b81526020600482015260186024820152774c6f636174696f6e2063616e6e6f7420626520656d70747960401b6044820152606490fd5b60405162461bcd60e51b8152602060048201526019602482015278496e76616c696420726563697069656e74206164647265737360381b6044820152606490fd5b3461020f57600036600319011261020f576020600854604051908152f35b3461020f57600036600319011261020f57602060405160018152f35b3461020f57602036600319011261020f576004356001600160401b03811161020f576119da9036906004016130a0565b6101005260e0526119e96139ea565b6119f76101005115156133a9565b611a16611a06610100516133e3565b6040516101205261012051612f65565b610100516101205152611a2b610100516133e3565b601f1901366020610120510137600060a0526020610140525b6101005160a05110611aa1576040518061014051810161014051825261012051518091526040820190602061012051019060005b818110611a86575050500390f35b82518452610140518695509384019390920191600101611a78565b611ab661081e60a0516101005160e0516133fa565b611ad7611acb60a0516101005160e0516133fa565b61014051810190613430565b6101605290611afb611af160a0516101005160e0516133fa565b6040810190613430565b9092611b1c611b1260a0516101005160e0516133fa565b6060810190613430565b608052916080611b3460a0516101005160e0516133fa565b0135611b55611b4b60a0516101005160e0516133fa565b60a0810190613430565b60c0611b6960a0516101005160e0516133fa565b013592600095611b776139ea565b6001600160a01b0389161561275857851561271657608051156126cf576001821015806126c2575b1561268757821561264057611bb5851515613462565b611bc06008546134ae565b60c05260c051600855604051611bd96101405182612f65565b87815260c0516001600160a01b0390611bf2908c61391c565b166118095790611c09611c149260c0518c33613db5565b6101605136916130eb565b60c05187526006610140515260408720908051906001600160401b03821161262c57611c44826106538554612f0f565b6101405190601f83116001146125ba579180611c7d92611d3698979695948c926125af5750508160011b916000199060031b1c19161790565b90555b7ff8e1a15aba9398e019f0b49df1a4fde98ee17ae345cb5f6b5e2c27f5033e8ce760405160c05181526101405190a1611d14611cbb86613bbf565b9a611d07602f604051809e6e024b734ba34b0b6103b30b63ab29d1608d1b61014051830152611cf581518092858501906101405101612e9b565b810103018d601f19820190528d612f65565b60405197610e3489612f49565b8652611d23366080518a6130eb565b61014051870152604086015236916130eb565b606083015260808201528160a0820152604051611d566101405182612f65565b82815260c08201524260e0820152604051611d746101405182612f65565b828152610100820152604051611d8d6101405182612f65565b82815261012082015260c051825260096101405152604082209080518051906001600160401b03821161148657611dc882610fdb8654612f0f565b6101405190601f831160011461254257611df992918691836106b65750508160011b916000199060031b1c19161790565b82555b610140518101518051906001600160401b03821161148657611e2e82611e256001870154612f0f565b60018701613336565b6101405190601f83116001146124cf57611e5f92918691836106b65750508160011b916000199060031b1c19161790565b60018301555b6040810151600283015560608101518051906001600160401b03821161148657611e9f82611e966003870154612f0f565b60038701613336565b6101405190601f831160011461245c57611ed092918691836106b65750508160011b916000199060031b1c19161790565b60038301555b60808101516004830155611eff60a08201511515600584019060ff801983541691151516179055565b60c08101518051906001600160401b03821161148657611f2f82611f266006870154612f0f565b60068701613336565b6101405190601f83116001146123e957611f6092918691836106b65750508160011b916000199060031b1c19161790565b60068301555b60e081015160078301556101008101518051906001600160401b03821161148657611fa182611f986008870154612f0f565b60088701613336565b6101405190601f8311600114612374579180611fd792610120959488926123695750508160011b916000199060031b1c19161790565b60088401555b01518051906001600160401b0382116122e45761200a826120016009860154612f0f565b60098601613336565b6101405190601f83116001146122f857918061203e9260099487926106b65750508160011b916000199060031b1c19161790565b9101555b61204b83613c83565b612080602b60405180936a026b4b73a32b2103a379d160ad1b6101405183015261125e81518092858501906101405101612e9b565b60c05182526009610140515260086040832001908051906001600160401b0382116122e4576120b3826106538554612f0f565b6101405190601f8311600114612277576120e4929185918361226c5750508160011b916000199060031b1c19161790565b90555b60c05181526009610140515260096040822001908451906001600160401b0382116122585761211a826106538554612f0f565b6101405190601f83116001146121ee579061214c93949596836121e35750508160011b916000199060031b1c19161790565b90555b7fb145eb58c4ce95ea8ebb64f9ec4c2c5ff09c2aeb40afca8cee50367dfec496e66040516101405181528061219a60c0519560018060a01b0316946101405183019060805190613388565b0390a3610120515160a05110156121cd5760c0516101405160a05160051b61012051010152600160a0510160a052611a44565b634e487b7160e01b600052603260045260246000fd5b01519050868061068a565b90838252610140518220915b601f198416811061223e575060019394959683601f19811610612225575b505050811b01905561214f565b015160001960f88460031b161c19169055858080612218565b8782015183556101405160019093019291820191016121fa565b634e487b7160e01b81526041600452602490fd5b01519050888061068a565b91908385526101405185209085935b601f19841685106122c7576001945083601f198116106122ae575b505050811b0190556120e7565b015160001960f88460031b161c191690558780806122a1565b818101518355610140519485019460019093019290910190612286565b634e487b7160e01b84526041600452602484fd5b9060098401855261014051852091855b601f198516811061234f5750918391600193600995601f19811610612336575b505050811b01910155612042565b015160001960f88460031b161c19169055888080612328565b818301518455610140516001909401939283019201612308565b015190508a8061068a565b9060088501865261014051862091865b601f19851681106123cf57509183916001936101209695601f198116106123b6575b505050811b016008840155611fdd565b015160001960f88460031b161c191690558980806123a6565b818301518455610140516001909401939283019201612384565b91906006850186526101405186209086935b601f198416851061243f576001945083601f19811610612426575b505050811b016006830155611f66565b015160001960f88460031b161c19169055888080612416565b8181015183556101405194850194600190930192909101906123fb565b91906003850186526101405186209086935b601f19841685106124b2576001945083601f19811610612499575b505050811b016003830155611ed6565b015160001960f88460031b161c19169055888080612489565b81810151835561014051948501946001909301929091019061246e565b91906001850186526101405186209086935b601f1984168510612525576001945083601f1981161061250c575b505050811b016001830155611e65565b015160001960f88460031b161c191690558880806124fc565b8181015183556101405194850194600190930192909101906124e1565b91908486526101405186209086935b601f1984168510612592576001945083601f19811610612579575b505050811b018255611dfc565b015160001960f88460031b161c1916905588808061256c565b818101518355610140519485019460019093019290910190612551565b015190508e8061068a565b90838a52610140518a20918a5b601f19851681106126125750918391600193611d369998979695601f198116106125f9575b505050811b019055611c80565b015160001960f88460031b161c191690558d80806125ec565b8183015184556101405160019094019392830192016125c7565b634e487b7160e01b89526041600452602489fd5b60405162461bcd60e51b8152610140516004820152601d60248201527f50726f706572747920747970652063616e6e6f7420626520656d7074790000006044820152606490fd5b60405162461bcd60e51b81526101405160048201526011602482015270496e76616c696420617265612073697a6560781b6044820152606490fd5b5062989680821115611b9f565b60405162461bcd60e51b8152610140516004820152601d60248201527f537572766579206e756d6265722063616e6e6f7420626520656d7074790000006044820152606490fd5b60405162461bcd60e51b815261014051600482015260186024820152774c6f636174696f6e2063616e6e6f7420626520656d70747960401b6044820152606490fd5b60405162461bcd60e51b81526101405160048201526019602482015278496e76616c696420726563697069656e74206164647265737360381b6044820152606490fd5b3461020f57602036600319011261020f576001600160a01b036127bc612ee3565b1680156127db5760005260036020526020604060002054604051908152f35b6322718ad960e21b600052600060045260246000fd5b3461020f57602036600319011261020f57602061280f6004356138e5565b6040516001600160a01b039091168152f35b3461020f57600036600319011261020f5760206040517fd565e3fc066df348a5cbc05a8d6323e00552838041cea2d84cc59876ba37735d8152f35b3461020f5761053a61286d3661302a565b906040519261287d602085612f65565b600084526108b7838383613147565b3461020f57606036600319011261020f576004356128a8613064565b906044356001600160401b03811161020f576128c8903690600401613073565b90926128d26139ea565b6128e66001600160a01b036101d4856138e5565b82600052600960205261290c8160056040600020019060ff801983541691151516179055565b82600052600960205260066040600020016001600160401b03831161073c5761293f836129398354612f0f565b83613336565b6000601f84116001146129c357946129b39161299585807f98e3861fadae44426bb5e7cf935f71a3a8910e85895fdc86ff0366e562a05cbb98996000916129b8575b508160011b916000199060031b1c19161790565b90555b60405193849315158452604060208501526040840191613388565b0390a2005b90508401358a612981565b8181526020812090601f198516815b818110612a345750916129b39391867f98e3861fadae44426bb5e7cf935f71a3a8910e85895fdc86ff0366e562a05cbb98999410612a1a575b5050600185811b019055612998565b830135600019600388901b60f8161c191690558780612a0b565b9192602060018192868c0135815501940192016129d2565b3461020f57604036600319011261020f57612a65612ef9565b336001600160a01b03821603612a815761053a90600435613b28565b63334bd91960e11b60005260046000fd5b3461020f57604036600319011261020f5761053a600435612ab1612ef9565b90612acd61053082600052600760205260016040600020015490565b613a99565b3461020f57602036600319011261020f576020612aff600435600052600760205260016040600020015490565b604051908152f35b3461020f5761053a612b183661302a565b91613147565b3461020f57602036600319011261020f5760043560005260096020526040600020612b4881612f86565b612b5460018301612f86565b60028301549092612b6760038201612f86565b6004820154600583015460ff1690612b8160068501612f86565b9160078501549360088601612b9590612f86565b95600901612ba290612f86565b96604051998a996101408b526101408b01612bbc91612ebe565b8a810360208c0152612bcd91612ebe565b9060408a015288810360608a0152612be491612ebe565b916080880152151560a087015285810360c0870152612c0291612ebe565b9060e0850152838103610100850152612c1a91612ebe565b82810361012084015261020b91612ebe565b3461020f57600036600319011261020f576020604051629896808152f35b3461020f57604036600319011261020f57612c63612ee3565b602435612c6f816138e5565b33151580612d26575b80612cf8575b612ce35781906001600160a01b0384811691167f8c5be1e5ebec7d5bd14f71427d1e84f3dd0314c0f7b2291e5b200ac8c7c3b925600080a4600090815260046020526040902080546001600160a01b0319166001600160a01b03909216919091179055005b63a9fbf51f60e01b6000523360045260246000fd5b506001600160a01b038116600090815260056020908152604080832033845290915290205460ff1615612c7e565b506001600160a01b038116331415612c78565b3461020f57602036600319011261020f57602061280f600435613122565b3461020f57600036600319011261020f5760405160008054612d7881612f0f565b8084529060018116908115610c915750600114612d9f5761020b836101f781850382612f65565b60008080527f290decd9548b62a8d60345a988386fc84ba6bc95484008f6362f93160ef3e563939250905b808210612de2575090915081016020016101f7610c22565b919260018160209254838588010152019101909291612dca565b3461020f57602036600319011261020f576004359063ffffffff60e01b821680920361020f57602091637965db0b60e01b8114908115612e3e575b5015158152f35b632483248360e11b811491508115612e58575b5083612e37565b6380ac58cd60e01b811491508115612e8a575b8115612e79575b5083612e51565b6301ffc9a760e01b14905083612e72565b635b5e139f60e01b81149150612e6b565b60005b838110612eae5750506000910152565b8181015183820152602001612e9e565b90602091612ed781518092818552858086019101612e9b565b601f01601f1916010190565b600435906001600160a01b038216820361020f57565b602435906001600160a01b038216820361020f57565b90600182811c92168015612f3f575b6020831014612f2957565b634e487b7160e01b600052602260045260246000fd5b91607f1691612f1e565b61014081019081106001600160401b0382111761073c57604052565b90601f801991011681019081106001600160401b0382111761073c57604052565b9060405191826000825492612f9a84612f0f565b80845293600181169081156130085750600114612fc1575b50612fbf92500383612f65565b565b90506000929192526020600020906000915b818310612fec575050906020612fbf9282010138612fb2565b6020919350806001915483858901015201910190918492612fd3565b905060209250612fbf94915060ff191682840152151560051b82010138612fb2565b606090600319011261020f576004356001600160a01b038116810361020f57906024356001600160a01b038116810361020f579060443590565b60243590811515820361020f57565b9181601f8401121561020f578235916001600160401b03831161020f576020838186019501011161020f57565b9181601f8401121561020f578235916001600160401b03831161020f576020808501948460051b01011161020f57565b6001600160401b03811161073c57601f01601f191660200190565b9291926130f7826130d0565b916131056040519384612f65565b82948184528183011161020f578281602093846000960137010152565b61312b816138e5565b506000908152600460205260409020546001600160a01b031690565b6001600160a01b03909116919082156132dd576000828152600260205260408120546001600160a01b0316938391859033151580613245575b507fddf252ad1be2c89b69c2b068fc378daa952ba7f163c4a11628f55a4df523b3ef9082613210575b83815260036020526040812060018154019055848152600260205260408120846bffffffffffffffffffffffff60a01b82541617905580a46001600160a01b03168083036131f657505050565b6364283d7b60e01b60005260045260245260445260646000fd5b600085815260046020526040902080546001600160a01b031916905582815260036020526040812080546000190190556131a9565b91509192508061328e575b1561325f579084849238613180565b83908561327857602491637e27328960e01b8252600452fd5b60449163177e802f60e01b825233600452602452fd5b5033851480156132bc575b806132505750838152600460205260408120546001600160a01b03163314613250565b5084815260056020908152604080832033845290915281205460ff16613299565b633250574960e11b600052600060045260246000fd5b156132fa57565b60405162461bcd60e51b8152602060048201526014602482015273151bdad95b88191bd95cc81b9bdd08195e1a5cdd60621b6044820152606490fd5b601f821161334357505050565b6000526020600020906020601f840160051c8301931061337e575b601f0160051c01905b818110613372575050565b60008155600101613367565b909150819061335e565b908060209392818452848401376000828201840152601f01601f1916010190565b156133b057565b60405162461bcd60e51b815260206004820152600b60248201526a08adae0e8f240c4c2e8c6d60ab1b6044820152606490fd5b6001600160401b03811161073c5760051b60200190565b91908110156121cd5760051b8101359060de198136030182121561020f570190565b356001600160a01b038116810361020f5790565b903590601e198136030182121561020f57018035906001600160401b03821161020f5760200191813603831361020f57565b1561346957565b60405162461bcd60e51b815260206004820152601d60248201527f4d61726b65742076616c7565206d75737420626520706f7369746976650000006044820152606490fd5b60001981146134bd5760010190565b634e487b7160e01b600052601160045260246000fd5b600092918154916134e383612f0f565b926001811690811561352e57506001146134fc57505050565b909192935060005260206000206000905b83821061351a5750500190565b60018160209254848601520191019061350d565b60ff191683525050811515909102019150565b82600052600960205260ff6005604060002001541661381857613563836138e5565b6001600160a01b0316331480156137fe575b156137c1576001600160a01b0382169182156132dd576001600160a01b0361359d858361391c565b16806135b85784637e27328960e01b60005260045260246000fd5b6001600160a01b0383168082036137a55750506136aa603461368f928660005260096020524260076040600020015561366a60056135fe6135f888613c83565b93613c83565b604051948591602083019573016102a3930b739b332b93932b210333937b69d160651b87526136368151809260208688019101612e9b565b8301640103a379d160dd1b83820152613659825180936020603985019101612e9b565b01010301601f198101845283612f65565b86600052600960205260086040600020019161369b60405195869460208601906134d3565b92839251938491612e9b565b0103601f198101835282612f65565b8360005260096020526008604060002001908051906001600160401b03821161073c576136db826106538554612f0f565b602090601f831160011461373e5761370b92916000918361174a5750508160011b916000199060031b1c19161790565b90555b6001600160a01b03167f268ae1851d13f9cd87a82ee6fc73474b3694d779b7bf6f66d86fd346f09511ed600080a4565b90601f1983169184600052816000209260005b81811061378d5750908460019594939210613774575b505050811b01905561370e565b015160001960f88460031b161c19169055388080613767565b92936020600181928786015181550195019301613751565b85906364283d7b60e01b60005260045260245260445260646000fd5b60405162461bcd60e51b81526020600482015260156024820152742737ba1030b8383937bb32b21037b91037bbb732b960591b6044820152606490fd5b50336001600160a01b0361381185613122565b1614613575565b60405162461bcd60e51b815260206004820152601a60248201527f4c616e642068617320616e2061637469766520646973707574650000000000006044820152606490fd5b1561386457565b60405162461bcd60e51b8152602060048201526016602482015275082e4e4c2f240d8cadccee8d0e640dad2e6dac2e8c6d60531b6044820152606490fd5b91908110156121cd5760051b0190565b6138bb816138e5565b5060005260066020526138d16040600020612f86565b60006040516138e1602082612f65565b5290565b6000818152600260205260409020546001600160a01b0316908115613908575090565b637e27328960e01b60005260045260246000fd5b6000828152600260205260409020546001600160a01b03169190826139b3575b6001600160a01b031680613999575b8160005260026020526040600020816bffffffffffffffffffffffff60a01b825416179055827fddf252ad1be2c89b69c2b068fc378daa952ba7f163c4a11628f55a4df523b3ef600080a490565b80600052600360205260406000206001815401905561394b565b600082815260046020526040902080546001600160a01b03191690558260005260036020526040600020600019815401905561393c565b3360009081527f2b60f1d89544223e54444a02bca21c7ecfe977aa3064fc5a5ce775922be1f017602052604090205460ff1615613a2357565b63e2517d3f60e01b600052336004527fd565e3fc066df348a5cbc05a8d6323e00552838041cea2d84cc59876ba37735d60245260446000fd5b600081815260076020908152604080832033845290915290205460ff1615613a815750565b63e2517d3f60e01b6000523360045260245260446000fd5b60008181526007602090815260408083206001600160a01b038616845290915290205460ff16613b215760008181526007602090815260408083206001600160a01b0395909516808452949091528120805460ff19166001179055339291907f2f8788117e7eff1d82e926ec794901d17c78024a50270940304540a733656f0d9080a4600190565b5050600090565b60008181526007602090815260408083206001600160a01b038616845290915290205460ff1615613b215760008181526007602090815260408083206001600160a01b0395909516808452949091528120805460ff19169055339291907ff6391f5c32d9c69d2a47ea670b442974b53935d1edc7fd64eb21e047a839171b9080a4600190565b9081518110156121cd570160200190565b8015613c635780816000925b613c4d5750613bd9826130d0565b91613be76040519384612f65565b80835281601f19613bf7836130d0565b013660208601375b613c0857505090565b60001981019081116134bd578091600a810660300191826030116134bd57600a9260f81b6001600160f81b03191660001a90613c449086613bae565b53049081613bff565b9091613c5a600a916134ae565b92910480613bcb565b50604051613c72604082612f65565b60018152600360fc1b602082015290565b60018060a01b03166040805190613c9a8183612f65565b601082526f181899199a1a9b1b9c1cb0b131b232b360811b60208301525191613cc4606084612f65565b602a83526020830160403682378351156121cd57603090538251600110156121cd576078602184015360005b60148110613cfe5750505090565b600c81018082116134bd5760208110156121cd5782901a6001600160f81b0319613d2f600483901c600f1686613bae565b51168260011b90838204600214841517156134bd578160020190816002116134bd57613d5f9060001a9188613bae565b536000916001600160f81b031990613d7a90600f1687613bae565b5116906003019182600311613da1576001939291613d9a911a9187613bae565b5301613cf0565b634e487b7160e01b81526011600452602490fd5b9291813b613dc4575b50505050565b604051630a85bd0160e11b81526001600160a01b039485166004820152600060248201526044810191909152608060648201529216919060209082908190613e10906084830190612ebe565b03816000865af18091600091613eaf575b5090613e7a57503d15613e73573d613e38816130d0565b90613e466040519283612f65565b81523d6000602083013e5b80519081613e6e5782633250574960e11b60005260045260246000fd5b602001fd5b6060613e51565b6001600160e01b03191663757a42ff60e11b01613e9b575038808080613dbe565b633250574960e11b60005260045260246000fd5b6020813d602011613ef1575b81613ec860209383612f65565b81010312613eed5751906001600160e01b031982168203613eea575038613e21565b80fd5b5080fd5b3d9150613ebb565b823b613f07575b5050505050565b604051630a85bd0160e11b81526001600160a01b039182166004820152918116602483015260448201939093526080606482015291169160209082908190613f53906084830190612ebe565b03816000865af18091600091613f9d575b5090613f7b57503d15613e73573d613e38816130d0565b6001600160e01b03191663757a42ff60e11b01613e9b57503880808080613f00565b6020813d602011613fd8575b81613fb660209383612f65565b81010312613eed5751906001600160e01b031982168203613eea575038613f64565b3d9150613fa956fe7568affeab53e08d035c844db6a2a63ec1f609d48a48abea4fba7dc04817e402a26469706673582212208a2067d9c1739d33cd7afacd6586b6085bf84c21f1a87ced15680c4d9723c1d064736f6c634300081c00332f8788117e7eff1d82e926ec794901d17c78024a50270940304540a733656f0d2b60f1d89544223e54444a02bca21c7ecfe977aa3064fc5a5ce775922be1f0176d5257204ebe7d88fd91ae87941cb2dd9d8062b64ae5a2bd2d28ec40b9fbf6df","opcodes":"PUSH1 0x80 PUSH1 0x40 MSTORE CALLVALUE PUSH2 0x33C JUMPI PUSH1 0x40 DUP1 MLOAD SWAP1 DUP2 ADD PUSH1 0x1 PUSH1 0x1 PUSH1 0x40 SHL SUB DUP2 GT DUP3 DUP3 LT OR PUSH2 0x249 JUMPI PUSH1 0x40 SWAP1 DUP2 MSTORE PUSH1 0xC DUP3 MSTORE PUSH12 0x4C616E645265676973747279 PUSH1 0xA0 SHL PUSH1 0x20 DUP4 ADD MSTORE DUP1 MLOAD SWAP1 DUP2 ADD PUSH1 0x1 PUSH1 0x1 PUSH1 0x40 SHL SUB DUP2 GT DUP3 DUP3 LT OR PUSH2 0x249 JUMPI PUSH1 0x40 MSTORE PUSH1 0x4 DUP2 MSTORE PUSH4 0x13105391 PUSH1 0xE2 SHL PUSH1 0x20 DUP3 ADD MSTORE DUP2 MLOAD PUSH1 0x1 PUSH1 0x1 PUSH1 0x40 SHL SUB DUP2 GT PUSH2 0x249 JUMPI PUSH1 0x0 SLOAD PUSH1 0x1 DUP2 DUP2 SHR SWAP2 AND DUP1 ISZERO PUSH2 0x332 JUMPI JUMPDEST PUSH1 0x20 DUP3 LT EQ PUSH2 0x229 JUMPI PUSH1 0x1F DUP2 GT PUSH2 0x2CE JUMPI JUMPDEST POP PUSH1 0x20 SWAP3 PUSH1 0x1F DUP3 GT PUSH1 0x1 EQ PUSH2 0x26A JUMPI SWAP3 DUP2 SWAP3 SWAP4 PUSH1 0x0 SWAP3 PUSH2 0x25F JUMPI JUMPDEST POP POP DUP2 PUSH1 0x1 SHL SWAP2 PUSH1 0x0 NOT SWAP1 PUSH1 0x3 SHL SHR NOT AND OR PUSH1 0x0 SSTORE JUMPDEST DUP1 MLOAD PUSH1 0x1 PUSH1 0x1 PUSH1 0x40 SHL SUB DUP2 GT PUSH2 0x249 JUMPI PUSH1 0x1 SLOAD PUSH1 0x1 DUP2 DUP2 SHR SWAP2 AND DUP1 ISZERO PUSH2 0x23F JUMPI JUMPDEST PUSH1 0x20 DUP3 LT EQ PUSH2 0x229 JUMPI PUSH1 0x1F DUP2 GT PUSH2 0x1C4 JUMPI JUMPDEST POP PUSH1 0x20 SWAP2 PUSH1 0x1F DUP3 GT PUSH1 0x1 EQ PUSH2 0x160 JUMPI SWAP2 DUP2 SWAP3 PUSH1 0x0 SWAP3 PUSH2 0x155 JUMPI JUMPDEST POP POP DUP2 PUSH1 0x1 SHL SWAP2 PUSH1 0x0 NOT SWAP1 PUSH1 0x3 SHL SHR NOT AND OR PUSH1 0x1 SSTORE JUMPDEST PUSH2 0x13B CALLER PUSH2 0x341 JUMP JUMPDEST POP PUSH2 0x145 CALLER PUSH2 0x3BD JUMP JUMPDEST POP PUSH1 0x40 MLOAD PUSH2 0x4036 SWAP1 DUP2 PUSH2 0x456 DUP3 CODECOPY RETURN JUMPDEST ADD MLOAD SWAP1 POP CODESIZE DUP1 PUSH2 0x11C JUMP JUMPDEST PUSH1 0x1F NOT DUP3 AND SWAP3 PUSH1 0x1 PUSH1 0x0 MSTORE DUP1 PUSH1 0x0 KECCAK256 SWAP2 PUSH1 0x0 JUMPDEST DUP6 DUP2 LT PUSH2 0x1AC JUMPI POP DUP4 PUSH1 0x1 SWAP6 LT PUSH2 0x193 JUMPI JUMPDEST POP POP POP DUP2 SHL ADD PUSH1 0x1 SSTORE PUSH2 0x132 JUMP JUMPDEST ADD MLOAD PUSH1 0x0 NOT PUSH1 0xF8 DUP5 PUSH1 0x3 SHL AND SHR NOT AND SWAP1 SSTORE CODESIZE DUP1 DUP1 PUSH2 0x185 JUMP JUMPDEST SWAP2 SWAP3 PUSH1 0x20 PUSH1 0x1 DUP2 SWAP3 DUP7 DUP6 ADD MLOAD DUP2 SSTORE ADD SWAP5 ADD SWAP3 ADD PUSH2 0x173 JUMP JUMPDEST PUSH1 0x1 PUSH1 0x0 MSTORE PUSH32 0xB10E2D527612073B26EECDFD717E6A320CF44B4AFAC2B0732D9FCBE2B7FA0CF6 PUSH1 0x1F DUP4 ADD PUSH1 0x5 SHR DUP2 ADD SWAP2 PUSH1 0x20 DUP5 LT PUSH2 0x21F JUMPI JUMPDEST PUSH1 0x1F ADD PUSH1 0x5 SHR ADD SWAP1 JUMPDEST DUP2 DUP2 LT PUSH2 0x213 JUMPI POP PUSH2 0x102 JUMP JUMPDEST PUSH1 0x0 DUP2 SSTORE PUSH1 0x1 ADD PUSH2 0x206 JUMP JUMPDEST SWAP1 SWAP2 POP DUP2 SWAP1 PUSH2 0x1FD JUMP JUMPDEST PUSH4 0x4E487B71 PUSH1 0xE0 SHL PUSH1 0x0 MSTORE PUSH1 0x22 PUSH1 0x4 MSTORE PUSH1 0x24 PUSH1 0x0 REVERT JUMPDEST SWAP1 PUSH1 0x7F AND SWAP1 PUSH2 0xF0 JUMP JUMPDEST PUSH4 0x4E487B71 PUSH1 0xE0 SHL PUSH1 0x0 MSTORE PUSH1 0x41 PUSH1 0x4 MSTORE PUSH1 0x24 PUSH1 0x0 REVERT JUMPDEST ADD MLOAD SWAP1 POP CODESIZE DUP1 PUSH2 0xB9 JUMP JUMPDEST PUSH1 0x1F NOT DUP3 AND SWAP4 PUSH1 0x0 DUP1 MSTORE DUP1 PUSH1 0x0 KECCAK256 SWAP2 PUSH1 0x0 JUMPDEST DUP7 DUP2 LT PUSH2 0x2B6 JUMPI POP DUP4 PUSH1 0x1 SWAP6 SWAP7 LT PUSH2 0x29D JUMPI JUMPDEST POP POP POP DUP2 SHL ADD PUSH1 0x0 SSTORE PUSH2 0xCF JUMP JUMPDEST ADD MLOAD PUSH1 0x0 NOT PUSH1 0xF8 DUP5 PUSH1 0x3 SHL AND SHR NOT AND SWAP1 SSTORE CODESIZE DUP1 DUP1 PUSH2 0x28F JUMP JUMPDEST SWAP2 SWAP3 PUSH1 0x20 PUSH1 0x1 DUP2 SWAP3 DUP7 DUP6 ADD MLOAD DUP2 SSTORE ADD SWAP5 ADD SWAP3 ADD PUSH2 0x27C JUMP JUMPDEST PUSH1 0x0 DUP1 MSTORE PUSH32 0x290DECD9548B62A8D60345A988386FC84BA6BC95484008F6362F93160EF3E563 PUSH1 0x1F DUP4 ADD PUSH1 0x5 SHR DUP2 ADD SWAP2 PUSH1 0x20 DUP5 LT PUSH2 0x328 JUMPI JUMPDEST PUSH1 0x1F ADD PUSH1 0x5 SHR ADD SWAP1 JUMPDEST DUP2 DUP2 LT PUSH2 0x31C JUMPI POP PUSH2 0x9E JUMP JUMPDEST PUSH1 0x0 DUP2 SSTORE PUSH1 0x1 ADD PUSH2 0x30F JUMP JUMPDEST SWAP1 SWAP2 POP DUP2 SWAP1 PUSH2 0x306 JUMP JUMPDEST SWAP1 PUSH1 0x7F AND SWAP1 PUSH2 0x8C JUMP JUMPDEST PUSH1 0x0 DUP1 REVERT JUMPDEST PUSH1 0x1 PUSH1 0x1 PUSH1 0xA0 SHL SUB DUP2 AND PUSH1 0x0 SWAP1 DUP2 MSTORE PUSH1 0x0 DUP1 MLOAD PUSH1 0x20 PUSH2 0x44CC DUP4 CODECOPY DUP2 MLOAD SWAP2 MSTORE PUSH1 0x20 MSTORE PUSH1 0x40 SWAP1 KECCAK256 SLOAD PUSH1 0xFF AND PUSH2 0x3B7 JUMPI PUSH1 0x1 PUSH1 0x1 PUSH1 0xA0 SHL SUB AND PUSH1 0x0 DUP2 DUP2 MSTORE PUSH1 0x0 DUP1 MLOAD PUSH1 0x20 PUSH2 0x44CC DUP4 CODECOPY DUP2 MLOAD SWAP2 MSTORE PUSH1 0x20 MSTORE PUSH1 0x40 DUP2 KECCAK256 DUP1 SLOAD PUSH1 0xFF NOT AND PUSH1 0x1 OR SWAP1 SSTORE CALLER SWAP2 SWAP1 PUSH1 0x0 DUP1 MLOAD PUSH1 0x20 PUSH2 0x448C DUP4 CODECOPY DUP2 MLOAD SWAP2 MSTORE DUP2 DUP1 LOG4 PUSH1 0x1 SWAP1 JUMP JUMPDEST POP PUSH1 0x0 SWAP1 JUMP JUMPDEST PUSH1 0x1 PUSH1 0x1 PUSH1 0xA0 SHL SUB DUP2 AND PUSH1 0x0 SWAP1 DUP2 MSTORE PUSH1 0x0 DUP1 MLOAD PUSH1 0x20 PUSH2 0x44AC DUP4 CODECOPY DUP2 MLOAD SWAP2 MSTORE PUSH1 0x20 MSTORE PUSH1 0x40 SWAP1 KECCAK256 SLOAD PUSH1 0xFF AND PUSH2 0x3B7 JUMPI PUSH1 0x1 PUSH1 0x1 PUSH1 0xA0 SHL SUB AND PUSH1 0x0 DUP2 DUP2 MSTORE PUSH1 0x0 DUP1 MLOAD PUSH1 0x20 PUSH2 0x44AC DUP4 CODECOPY DUP2 MLOAD SWAP2 MSTORE PUSH1 0x20 MSTORE PUSH1 0x40 DUP2 KECCAK256 DUP1 SLOAD PUSH1 0xFF NOT AND PUSH1 0x1 OR SWAP1 SSTORE CALLER SWAP2 SWAP1 PUSH32 0xD565E3FC066DF348A5CBC05A8D6323E00552838041CEA2D84CC59876BA37735D SWAP1 PUSH1 0x0 DUP1 MLOAD PUSH1 0x20 PUSH2 0x448C DUP4 CODECOPY DUP2 MLOAD SWAP2 MSTORE SWAP1 DUP1 LOG4 PUSH1 0x1 SWAP1 JUMP INVALID PUSH2 0x180 DUP1 PUSH1 0x40 MSTORE PUSH1 0x4 CALLDATASIZE LT ISZERO PUSH2 0x14 JUMPI PUSH1 0x0 DUP1 REVERT JUMPDEST PUSH1 0x0 CALLDATALOAD PUSH1 0xE0 SHR SWAP1 DUP2 PUSH4 0x1FFC9A7 EQ PUSH2 0x2DFC JUMPI POP DUP1 PUSH4 0x6FDDE03 EQ PUSH2 0x2D57 JUMPI DUP1 PUSH4 0x81812FC EQ PUSH2 0x2D39 JUMPI DUP1 PUSH4 0x95EA7B3 EQ PUSH2 0x2C4A JUMPI DUP1 PUSH4 0x168FC898 EQ PUSH2 0x2C2C JUMPI DUP1 PUSH4 0x20E7C6D4 EQ PUSH2 0x2B1E JUMPI DUP1 PUSH4 0x23B872DD EQ PUSH2 0x2B07 JUMPI DUP1 PUSH4 0x248A9CA3 EQ PUSH2 0x2AD2 JUMPI DUP1 PUSH4 0x2F2FF15D EQ PUSH2 0x2A92 JUMPI DUP1 PUSH4 0x36568ABE EQ PUSH2 0x2A4C JUMPI DUP1 PUSH4 0x38FE1850 EQ PUSH2 0x288C JUMPI DUP1 PUSH4 0x42842E0E EQ PUSH2 0x285C JUMPI DUP1 PUSH4 0x4A3FBA0E EQ PUSH2 0x2821 JUMPI DUP1 PUSH4 0x6352211E EQ PUSH2 0x27F1 JUMPI DUP1 PUSH4 0x70A08231 EQ PUSH2 0x279B JUMPI DUP1 PUSH4 0x731F3629 EQ PUSH2 0x19AA JUMPI DUP1 PUSH4 0x8388E2BA EQ PUSH2 0x198E JUMPI DUP1 PUSH4 0x842E7DBA EQ PUSH2 0x1970 JUMPI DUP1 PUSH4 0x90169F97 EQ PUSH2 0xD02 JUMPI DUP1 PUSH4 0x91D14854 EQ PUSH2 0xCB5 JUMPI DUP1 PUSH4 0x95D89B41 EQ PUSH2 0xBE8 JUMPI DUP1 PUSH4 0xA217FDDF EQ PUSH2 0xBCC JUMPI DUP1 PUSH4 0xA22CB465 EQ PUSH2 0xB25 JUMPI DUP1 PUSH4 0xA762C342 EQ PUSH2 0xB0E JUMPI DUP1 PUSH4 0xAB279A8E EQ PUSH2 0xACB JUMPI DUP1 PUSH4 0xB4E63495 EQ PUSH2 0x8BD JUMPI DUP1 PUSH4 0xB88D4FDE EQ PUSH2 0x852 JUMPI DUP1 PUSH4 0xC4B1C735 EQ PUSH2 0x771 JUMPI DUP1 PUSH4 0xC87B56DD EQ PUSH2 0x752 JUMPI DUP1 PUSH4 0xCF62664A EQ PUSH2 0x53C JUMPI DUP1 PUSH4 0xD547741F EQ PUSH2 0x4F5 JUMPI DUP1 PUSH4 0xDD6055C8 EQ PUSH2 0x4B2 JUMPI DUP1 PUSH4 0xE7FEFF2E EQ PUSH2 0x2B7 JUMPI DUP1 PUSH4 0xE985E9C5 EQ PUSH2 0x25C JUMPI DUP1 PUSH4 0xF1BD7439 EQ PUSH2 0x214 JUMPI PUSH4 0xF1DBACCB EQ PUSH2 0x1AC JUMPI PUSH1 0x0 DUP1 REVERT JUMPDEST CALLVALUE PUSH2 0x20F JUMPI PUSH1 0x20 CALLDATASIZE PUSH1 0x3 NOT ADD SLT PUSH2 0x20F JUMPI PUSH1 0x4 CALLDATALOAD PUSH2 0x1DC PUSH1 0x1 PUSH1 0x1 PUSH1 0xA0 SHL SUB PUSH2 0x1D4 DUP4 PUSH2 0x38E5 JUMP JUMPDEST AND ISZERO ISZERO PUSH2 0x32F3 JUMP JUMPDEST PUSH1 0x0 MSTORE PUSH1 0x9 PUSH1 0x20 MSTORE PUSH2 0x20B PUSH2 0x1F7 PUSH1 0x8 PUSH1 0x40 PUSH1 0x0 KECCAK256 ADD PUSH2 0x2F86 JUMP JUMPDEST PUSH1 0x40 MLOAD SWAP2 DUP3 SWAP2 PUSH1 0x20 DUP4 MSTORE PUSH1 0x20 DUP4 ADD SWAP1 PUSH2 0x2EBE JUMP JUMPDEST SUB SWAP1 RETURN JUMPDEST PUSH1 0x0 DUP1 REVERT JUMPDEST CALLVALUE PUSH2 0x20F JUMPI PUSH1 0x20 CALLDATASIZE PUSH1 0x3 NOT ADD SLT PUSH2 0x20F JUMPI PUSH1 0x4 CALLDATALOAD PUSH2 0x23C PUSH1 0x1 PUSH1 0x1 PUSH1 0xA0 SHL SUB PUSH2 0x1D4 DUP4 PUSH2 0x38E5 JUMP JUMPDEST PUSH1 0x0 MSTORE PUSH1 0x9 PUSH1 0x20 MSTORE PUSH1 0x20 PUSH1 0xFF PUSH1 0x5 PUSH1 0x40 PUSH1 0x0 KECCAK256 ADD SLOAD AND PUSH1 0x40 MLOAD SWAP1 ISZERO ISZERO DUP2 MSTORE RETURN JUMPDEST CALLVALUE PUSH2 0x20F JUMPI PUSH1 0x40 CALLDATASIZE PUSH1 0x3 NOT ADD SLT PUSH2 0x20F JUMPI PUSH2 0x275 PUSH2 0x2EE3 JUMP JUMPDEST PUSH2 0x27D PUSH2 0x2EF9 JUMP JUMPDEST SWAP1 PUSH1 0x1 DUP1 PUSH1 0xA0 SHL SUB AND PUSH1 0x0 MSTORE PUSH1 0x5 PUSH1 0x20 MSTORE PUSH1 0x40 PUSH1 0x0 KECCAK256 SWAP1 PUSH1 0x1 DUP1 PUSH1 0xA0 SHL SUB AND PUSH1 0x0 MSTORE PUSH1 0x20 MSTORE PUSH1 0x20 PUSH1 0xFF PUSH1 0x40 PUSH1 0x0 KECCAK256 SLOAD AND PUSH1 0x40 MLOAD SWAP1 ISZERO ISZERO DUP2 MSTORE RETURN JUMPDEST CALLVALUE PUSH2 0x20F JUMPI PUSH1 0x20 CALLDATASIZE PUSH1 0x3 NOT ADD SLT PUSH2 0x20F JUMPI PUSH1 0x4 CALLDATALOAD PUSH1 0x40 MLOAD PUSH2 0x2D7 DUP2 PUSH2 0x2F49 JUMP JUMPDEST PUSH1 0x60 DUP1 DUP3 MSTORE PUSH1 0x20 DUP3 ADD DUP2 SWAP1 MSTORE PUSH1 0x0 PUSH1 0x40 DUP4 ADD DUP2 SWAP1 MSTORE DUP3 DUP3 ADD DUP3 SWAP1 MSTORE PUSH1 0x80 DUP4 ADD DUP2 SWAP1 MSTORE PUSH1 0xA0 DUP4 ADD DUP2 SWAP1 MSTORE PUSH1 0xC0 DUP4 ADD DUP3 SWAP1 MSTORE PUSH1 0xE0 DUP4 ADD MSTORE PUSH2 0x100 DUP3 ADD DUP2 SWAP1 MSTORE PUSH2 0x120 SWAP1 SWAP2 ADD MSTORE PUSH1 0x1 PUSH1 0x1 PUSH1 0xA0 SHL SUB PUSH2 0x32C DUP3 PUSH2 0x38E5 JUMP JUMPDEST AND ISZERO ISZERO PUSH2 0x338 SWAP1 PUSH2 0x32F3 JUMP JUMPDEST PUSH1 0x0 MSTORE PUSH1 0x9 PUSH1 0x20 MSTORE PUSH1 0x40 PUSH1 0x0 KECCAK256 PUSH1 0x40 MLOAD PUSH2 0x351 DUP2 PUSH2 0x2F49 JUMP JUMPDEST PUSH2 0x35A DUP3 PUSH2 0x2F86 JUMP JUMPDEST DUP2 MSTORE PUSH2 0x368 PUSH1 0x1 DUP4 ADD PUSH2 0x2F86 JUMP JUMPDEST SWAP2 PUSH1 0x20 DUP3 ADD SWAP3 DUP4 MSTORE PUSH1 0x2 DUP2 ADD SLOAD PUSH1 0x40 DUP4 ADD SWAP1 DUP2 MSTORE PUSH1 0x3 DUP3 ADD PUSH2 0x389 SWAP1 PUSH2 0x2F86 JUMP JUMPDEST SWAP2 PUSH1 0x60 DUP5 ADD SWAP3 DUP4 MSTORE PUSH1 0x4 DUP2 ADD SLOAD PUSH1 0x80 DUP6 ADD SWAP1 DUP2 MSTORE PUSH1 0x5 DUP3 ADD SLOAD PUSH1 0xFF AND PUSH1 0xA0 DUP7 ADD SWAP1 ISZERO ISZERO DUP2 MSTORE PUSH1 0x6 DUP4 ADD PUSH2 0x3BB SWAP1 PUSH2 0x2F86 JUMP JUMPDEST SWAP1 PUSH1 0xC0 DUP8 ADD SWAP2 DUP3 MSTORE PUSH1 0x7 DUP5 ADD SLOAD SWAP5 PUSH1 0xE0 DUP9 ADD SWAP6 DUP7 MSTORE PUSH1 0x8 DUP6 ADD PUSH2 0x3DD SWAP1 PUSH2 0x2F86 JUMP JUMPDEST SWAP5 PUSH2 0x100 DUP10 ADD SWAP6 DUP7 MSTORE PUSH1 0x9 ADD PUSH2 0x3F2 SWAP1 PUSH2 0x2F86 JUMP JUMPDEST SWAP7 PUSH2 0x120 DUP10 ADD SWAP8 DUP9 MSTORE PUSH1 0x40 MLOAD SWAP10 DUP11 SWAP10 PUSH1 0x20 DUP12 MSTORE MLOAD PUSH1 0x20 DUP12 ADD PUSH2 0x140 SWAP1 MSTORE PUSH2 0x160 DUP12 ADD PUSH2 0x41D SWAP2 PUSH2 0x2EBE JUMP JUMPDEST SWAP1 MLOAD DUP11 DUP3 SUB PUSH1 0x1F NOT ADD PUSH1 0x40 DUP13 ADD MSTORE PUSH2 0x435 SWAP2 SWAP1 PUSH2 0x2EBE JUMP JUMPDEST SWAP2 MLOAD PUSH1 0x60 DUP11 ADD MSTORE MLOAD DUP9 DUP3 SUB PUSH1 0x1F NOT ADD PUSH1 0x80 DUP11 ADD MSTORE PUSH2 0x453 SWAP2 SWAP1 PUSH2 0x2EBE JUMP JUMPDEST SWAP3 MLOAD PUSH1 0xA0 DUP9 ADD MSTORE MLOAD ISZERO ISZERO PUSH1 0xC0 DUP8 ADD MSTORE MLOAD DUP6 DUP3 SUB PUSH1 0x1F NOT ADD PUSH1 0xE0 DUP8 ADD MSTORE PUSH2 0x479 SWAP2 SWAP1 PUSH2 0x2EBE JUMP JUMPDEST SWAP2 MLOAD PUSH2 0x100 DUP6 ADD MSTORE MLOAD DUP4 DUP3 SUB PUSH1 0x1F NOT ADD PUSH2 0x120 DUP6 ADD MSTORE PUSH2 0x499 SWAP2 SWAP1 PUSH2 0x2EBE JUMP JUMPDEST SWAP1 MLOAD DUP3 DUP3 SUB PUSH1 0x1F NOT ADD PUSH2 0x140 DUP5 ADD MSTORE PUSH2 0x20B SWAP2 SWAP1 PUSH2 0x2EBE JUMP JUMPDEST CALLVALUE PUSH2 0x20F JUMPI PUSH1 0x20 CALLDATASIZE PUSH1 0x3 NOT ADD SLT PUSH2 0x20F JUMPI PUSH1 0x4 CALLDATALOAD PUSH2 0x4DA PUSH1 0x1 PUSH1 0x1 PUSH1 0xA0 SHL SUB PUSH2 0x1D4 DUP4 PUSH2 0x38E5 JUMP JUMPDEST PUSH1 0x0 MSTORE PUSH1 0x9 PUSH1 0x20 MSTORE PUSH1 0x20 PUSH1 0x4 PUSH1 0x40 PUSH1 0x0 KECCAK256 ADD SLOAD PUSH1 0x40 MLOAD SWAP1 DUP2 MSTORE RETURN JUMPDEST CALLVALUE PUSH2 0x20F JUMPI PUSH1 0x40 CALLDATASIZE PUSH1 0x3 NOT ADD SLT PUSH2 0x20F JUMPI PUSH2 0x53A PUSH1 0x4 CALLDATALOAD PUSH2 0x514 PUSH2 0x2EF9 JUMP JUMPDEST SWAP1 PUSH2 0x535 PUSH2 0x530 DUP3 PUSH1 0x0 MSTORE PUSH1 0x7 PUSH1 0x20 MSTORE PUSH1 0x1 PUSH1 0x40 PUSH1 0x0 KECCAK256 ADD SLOAD SWAP1 JUMP JUMPDEST PUSH2 0x3A5C JUMP JUMPDEST PUSH2 0x3B28 JUMP JUMPDEST STOP JUMPDEST CALLVALUE PUSH2 0x20F JUMPI PUSH1 0x40 CALLDATASIZE PUSH1 0x3 NOT ADD SLT PUSH2 0x20F JUMPI PUSH1 0x4 CALLDATALOAD PUSH1 0x24 CALLDATALOAD PUSH2 0x55B PUSH2 0x39EA JUMP JUMPDEST PUSH2 0x56F PUSH1 0x1 PUSH1 0x1 PUSH1 0xA0 SHL SUB PUSH2 0x1D4 DUP5 PUSH2 0x38E5 JUMP JUMPDEST PUSH2 0x57A DUP2 ISZERO ISZERO PUSH2 0x3462 JUMP JUMPDEST PUSH1 0x0 DUP3 DUP2 MSTORE PUSH1 0x9 PUSH1 0x20 DUP2 SWAP1 MSTORE PUSH1 0x40 SWAP1 SWAP2 KECCAK256 PUSH1 0x4 DUP2 ADD DUP1 SLOAD SWAP1 DUP5 SWAP1 SSTORE SWAP3 SWAP2 PUSH2 0x5C8 SWAP2 PUSH2 0x622 SWAP2 PUSH1 0x5 SWAP2 ADD PUSH1 0xE PUSH2 0x5AE DUP7 PUSH2 0x3BBF JUMP JUMPDEST PUSH2 0x5B7 TIMESTAMP PUSH2 0x3BBF JUMP JUMPDEST SWAP1 PUSH1 0x40 MLOAD SWAP7 DUP8 SWAP5 PUSH1 0x20 DUP7 ADD SWAP1 PUSH2 0x34D3 JUMP JUMPDEST PUSH14 0x16102AB83230BA32B2103A379D1 PUSH1 0x95 SHL DUP2 MSTORE PUSH2 0x5EF DUP3 MLOAD DUP1 SWAP4 PUSH1 0x20 DUP8 DUP6 ADD SWAP2 ADD PUSH2 0x2E9B JUMP JUMPDEST ADD PUSH5 0x1030BA1D1 PUSH1 0xDD SHL DUP4 DUP3 ADD MSTORE PUSH2 0x611 DUP3 MLOAD DUP1 SWAP4 PUSH1 0x20 PUSH1 0x13 DUP6 ADD SWAP2 ADD PUSH2 0x2E9B JUMP JUMPDEST ADD ADD SUB ADD PUSH1 0x1F NOT DUP2 ADD DUP4 MSTORE DUP3 PUSH2 0x2F65 JUMP JUMPDEST DUP4 PUSH1 0x0 MSTORE PUSH1 0x9 PUSH1 0x20 MSTORE PUSH1 0x9 PUSH1 0x40 PUSH1 0x0 KECCAK256 ADD SWAP1 DUP1 MLOAD SWAP1 PUSH1 0x1 PUSH1 0x1 PUSH1 0x40 SHL SUB DUP3 GT PUSH2 0x73C JUMPI PUSH2 0x659 DUP3 PUSH2 0x653 DUP6 SLOAD PUSH2 0x2F0F JUMP JUMPDEST DUP6 PUSH2 0x3336 JUMP JUMPDEST PUSH1 0x20 SWAP1 PUSH1 0x1F DUP4 GT PUSH1 0x1 EQ PUSH2 0x6C1 JUMPI DUP3 PUSH1 0x60 SWAP6 SWAP4 PUSH1 0x0 DUP1 MLOAD PUSH1 0x20 PUSH2 0x3FE1 DUP4 CODECOPY DUP2 MLOAD SWAP2 MSTORE SWAP8 SWAP6 SWAP4 PUSH2 0x69F SWAP4 PUSH1 0x0 SWAP3 PUSH2 0x6B6 JUMPI JUMPDEST POP POP DUP2 PUSH1 0x1 SHL SWAP2 PUSH1 0x0 NOT SWAP1 PUSH1 0x3 SHL SHR NOT AND OR SWAP1 JUMP JUMPDEST SWAP1 SSTORE JUMPDEST PUSH1 0x40 MLOAD SWAP2 DUP3 MSTORE PUSH1 0x20 DUP3 ADD MSTORE TIMESTAMP PUSH1 0x40 DUP3 ADD MSTORE LOG2 STOP JUMPDEST ADD MLOAD SWAP1 POP DUP10 DUP1 PUSH2 0x68A JUMP JUMPDEST SWAP1 PUSH1 0x1F NOT DUP4 AND SWAP2 DUP5 PUSH1 0x0 MSTORE DUP2 PUSH1 0x0 KECCAK256 SWAP3 PUSH1 0x0 JUMPDEST DUP2 DUP2 LT PUSH2 0x724 JUMPI POP SWAP3 PUSH1 0x1 SWAP3 DUP6 SWAP3 PUSH1 0x60 SWAP9 SWAP7 PUSH1 0x0 DUP1 MLOAD PUSH1 0x20 PUSH2 0x3FE1 DUP4 CODECOPY DUP2 MLOAD SWAP2 MSTORE SWAP11 SWAP9 SWAP7 LT PUSH2 0x70B JUMPI JUMPDEST POP POP POP DUP2 SHL ADD SWAP1 SSTORE PUSH2 0x6A2 JUMP JUMPDEST ADD MLOAD PUSH1 0x0 NOT PUSH1 0xF8 DUP5 PUSH1 0x3 SHL AND SHR NOT AND SWAP1 SSTORE DUP9 DUP1 DUP1 PUSH2 0x6FE JUMP JUMPDEST SWAP3 SWAP4 PUSH1 0x20 PUSH1 0x1 DUP2 SWAP3 DUP8 DUP7 ADD MLOAD DUP2 SSTORE ADD SWAP6 ADD SWAP4 ADD PUSH2 0x6D4 JUMP JUMPDEST PUSH4 0x4E487B71 PUSH1 0xE0 SHL PUSH1 0x0 MSTORE PUSH1 0x41 PUSH1 0x4 MSTORE PUSH1 0x24 PUSH1 0x0 REVERT JUMPDEST CALLVALUE PUSH2 0x20F JUMPI PUSH1 0x20 CALLDATASIZE PUSH1 0x3 NOT ADD SLT PUSH2 0x20F JUMPI PUSH2 0x20B PUSH2 0x1F7 PUSH1 0x4 CALLDATALOAD PUSH2 0x38B2 JUMP JUMPDEST CALLVALUE PUSH2 0x20F JUMPI PUSH1 0x60 CALLDATASIZE PUSH1 0x3 NOT ADD SLT PUSH2 0x20F JUMPI PUSH1 0x4 CALLDATALOAD PUSH1 0x1 PUSH1 0x1 PUSH1 0x40 SHL SUB DUP2 GT PUSH2 0x20F JUMPI PUSH2 0x7A1 SWAP1 CALLDATASIZE SWAP1 PUSH1 0x4 ADD PUSH2 0x30A0 JUMP JUMPDEST PUSH1 0x24 CALLDATALOAD PUSH1 0x1 PUSH1 0x1 PUSH1 0x40 SHL SUB DUP2 GT PUSH2 0x20F JUMPI PUSH2 0x7C0 SWAP1 CALLDATASIZE SWAP1 PUSH1 0x4 ADD PUSH2 0x30A0 JUMP JUMPDEST SWAP1 PUSH1 0x44 CALLDATALOAD PUSH1 0x1 PUSH1 0x1 PUSH1 0x40 SHL SUB DUP2 GT PUSH2 0x20F JUMPI PUSH2 0x7E0 SWAP1 CALLDATASIZE SWAP1 PUSH1 0x4 ADD PUSH2 0x30A0 JUMP JUMPDEST SWAP5 DUP4 DUP6 EQ DUP1 PUSH2 0x849 JUMPI JUMPDEST PUSH2 0x7F3 SWAP1 PUSH2 0x385D JUMP JUMPDEST PUSH2 0x7FE DUP6 ISZERO ISZERO PUSH2 0x33A9 JUMP JUMPDEST PUSH1 0x0 JUMPDEST DUP6 DUP2 LT PUSH2 0x80A JUMPI STOP JUMPDEST DUP1 PUSH2 0x843 PUSH2 0x823 PUSH2 0x81E PUSH1 0x1 SWAP5 DUP11 DUP8 PUSH2 0x38A2 JUMP JUMPDEST PUSH2 0x341C JUMP JUMPDEST PUSH2 0x831 PUSH2 0x81E DUP5 DUP11 DUP11 PUSH2 0x38A2 JUMP JUMPDEST PUSH2 0x83C DUP5 DUP13 DUP10 PUSH2 0x38A2 JUMP JUMPDEST CALLDATALOAD SWAP2 PUSH2 0x3541 JUMP JUMPDEST ADD PUSH2 0x801 JUMP JUMPDEST POP DUP5 DUP7 EQ PUSH2 0x7EA JUMP JUMPDEST CALLVALUE PUSH2 0x20F JUMPI PUSH1 0x80 CALLDATASIZE PUSH1 0x3 NOT ADD SLT PUSH2 0x20F JUMPI PUSH2 0x86B PUSH2 0x2EE3 JUMP JUMPDEST PUSH2 0x873 PUSH2 0x2EF9 JUMP JUMPDEST SWAP1 PUSH1 0x44 CALLDATALOAD PUSH1 0x64 CALLDATALOAD SWAP3 PUSH1 0x1 PUSH1 0x1 PUSH1 0x40 SHL SUB DUP5 GT PUSH2 0x20F JUMPI CALLDATASIZE PUSH1 0x23 DUP6 ADD SLT ISZERO PUSH2 0x20F JUMPI PUSH2 0x8AB PUSH2 0x53A SWAP5 CALLDATASIZE SWAP1 PUSH1 0x24 DUP2 PUSH1 0x4 ADD CALLDATALOAD SWAP2 ADD PUSH2 0x30EB JUMP JUMPDEST SWAP3 PUSH2 0x8B7 DUP4 DUP4 DUP4 PUSH2 0x3147 JUMP JUMPDEST CALLER PUSH2 0x3EF9 JUMP JUMPDEST CALLVALUE PUSH2 0x20F JUMPI PUSH1 0x40 CALLDATASIZE PUSH1 0x3 NOT ADD SLT PUSH2 0x20F JUMPI PUSH1 0x4 CALLDATALOAD PUSH1 0x1 PUSH1 0x1 PUSH1 0x40 SHL SUB DUP2 GT PUSH2 0x20F JUMPI PUSH2 0x8ED SWAP1 CALLDATASIZE SWAP1 PUSH1 0x4 ADD PUSH2 0x30A0 JUMP JUMPDEST PUSH1 0x24 CALLDATALOAD PUSH1 0x1 PUSH1 0x1 PUSH1 0x40 SHL SUB DUP2 GT PUSH2 0x20F JUMPI PUSH2 0x90C SWAP1 CALLDATASIZE SWAP1 PUSH1 0x4 ADD PUSH2 0x30A0 JUMP JUMPDEST SWAP2 SWAP1 SWAP3 PUSH2 0x917 PUSH2 0x39EA JUMP JUMPDEST PUSH2 0x922 DUP4 DUP4 EQ PUSH2 0x385D JUMP JUMPDEST PUSH2 0x92D DUP3 ISZERO ISZERO PUSH2 0x33A9 JUMP JUMPDEST PUSH1 0x0 JUMPDEST DUP3 DUP2 LT PUSH2 0x939 JUMPI STOP JUMPDEST PUSH2 0x944 DUP2 DUP5 DUP5 PUSH2 0x38A2 JUMP JUMPDEST CALLDATALOAD PUSH2 0x950 DUP3 DUP7 DUP9 PUSH2 0x38A2 JUMP JUMPDEST CALLDATALOAD PUSH2 0x959 PUSH2 0x39EA JUMP JUMPDEST PUSH2 0x96D PUSH1 0x1 PUSH1 0x1 PUSH1 0xA0 SHL SUB PUSH2 0x1D4 DUP5 PUSH2 0x38E5 JUMP JUMPDEST PUSH2 0x978 DUP2 ISZERO ISZERO PUSH2 0x3462 JUMP JUMPDEST PUSH1 0x0 DUP3 DUP2 MSTORE PUSH1 0x9 PUSH1 0x20 DUP2 SWAP1 MSTORE PUSH1 0x40 SWAP1 SWAP2 KECCAK256 PUSH1 0x4 DUP2 ADD DUP1 SLOAD SWAP1 DUP5 SWAP1 SSTORE SWAP3 SWAP2 PUSH2 0x5C8 SWAP2 PUSH2 0x9AC SWAP2 PUSH1 0x5 SWAP2 ADD PUSH1 0xE PUSH2 0x5AE DUP7 PUSH2 0x3BBF JUMP JUMPDEST DUP4 PUSH1 0x0 MSTORE PUSH1 0x9 PUSH1 0x20 MSTORE PUSH1 0x9 PUSH1 0x40 PUSH1 0x0 KECCAK256 ADD SWAP1 DUP1 MLOAD SWAP1 PUSH1 0x1 PUSH1 0x1 PUSH1 0x40 SHL SUB DUP3 GT PUSH2 0x73C JUMPI PUSH2 0x9DD DUP3 PUSH2 0x653 DUP6 SLOAD PUSH2 0x2F0F JUMP JUMPDEST PUSH1 0x20 SWAP1 PUSH1 0x1F DUP4 GT PUSH1 0x1 EQ PUSH2 0xA4C JUMPI SWAP3 PUSH2 0xA26 DUP4 PUSH1 0x1 SWAP10 SWAP9 SWAP8 SWAP5 PUSH1 0x0 DUP1 MLOAD PUSH1 0x20 PUSH2 0x3FE1 DUP4 CODECOPY DUP2 MLOAD SWAP2 MSTORE SWAP8 SWAP5 PUSH1 0x60 SWAP8 PUSH1 0x0 SWAP3 PUSH2 0xA41 JUMPI POP POP DUP2 PUSH1 0x1 SHL SWAP2 PUSH1 0x0 NOT SWAP1 PUSH1 0x3 SHL SHR NOT AND OR SWAP1 JUMP JUMPDEST SWAP1 SSTORE JUMPDEST PUSH1 0x40 MLOAD SWAP2 DUP3 MSTORE PUSH1 0x20 DUP3 ADD MSTORE TIMESTAMP PUSH1 0x40 DUP3 ADD MSTORE LOG2 ADD PUSH2 0x930 JUMP JUMPDEST ADD MLOAD SWAP1 POP DUP16 DUP1 PUSH2 0x68A JUMP JUMPDEST SWAP1 PUSH1 0x1F NOT DUP4 AND SWAP2 DUP5 PUSH1 0x0 MSTORE DUP2 PUSH1 0x0 KECCAK256 SWAP3 PUSH1 0x0 JUMPDEST DUP2 DUP2 LT PUSH2 0xAB3 JUMPI POP SWAP4 PUSH1 0x0 DUP1 MLOAD PUSH1 0x20 PUSH2 0x3FE1 DUP4 CODECOPY DUP2 MLOAD SWAP2 MSTORE SWAP7 SWAP4 PUSH1 0x60 SWAP7 SWAP4 PUSH1 0x1 SWAP12 SWAP11 SWAP10 SWAP7 SWAP4 DUP4 DUP14 SWAP6 LT PUSH2 0xA9A JUMPI JUMPDEST POP POP POP DUP2 SHL ADD SWAP1 SSTORE PUSH2 0xA29 JUMP JUMPDEST ADD MLOAD PUSH1 0x0 NOT PUSH1 0xF8 DUP5 PUSH1 0x3 SHL AND SHR NOT AND SWAP1 SSTORE DUP15 DUP1 DUP1 PUSH2 0xA8D JUMP JUMPDEST SWAP3 SWAP4 PUSH1 0x20 PUSH1 0x1 DUP2 SWAP3 DUP8 DUP7 ADD MLOAD DUP2 SSTORE ADD SWAP6 ADD SWAP4 ADD PUSH2 0xA5F JUMP JUMPDEST CALLVALUE PUSH2 0x20F JUMPI PUSH1 0x20 CALLDATASIZE PUSH1 0x3 NOT ADD SLT PUSH2 0x20F JUMPI PUSH1 0x4 CALLDATALOAD PUSH2 0xAF3 PUSH1 0x1 PUSH1 0x1 PUSH1 0xA0 SHL SUB PUSH2 0x1D4 DUP4 PUSH2 0x38E5 JUMP JUMPDEST PUSH1 0x0 MSTORE PUSH1 0x9 PUSH1 0x20 MSTORE PUSH2 0x20B PUSH2 0x1F7 PUSH1 0x9 PUSH1 0x40 PUSH1 0x0 KECCAK256 ADD PUSH2 0x2F86 JUMP JUMPDEST CALLVALUE PUSH2 0x20F JUMPI PUSH2 0x53A PUSH2 0xB1F CALLDATASIZE PUSH2 0x302A JUMP JUMPDEST SWAP2 PUSH2 0x3541 JUMP JUMPDEST CALLVALUE PUSH2 0x20F JUMPI PUSH1 0x40 CALLDATASIZE PUSH1 0x3 NOT ADD SLT PUSH2 0x20F JUMPI PUSH2 0xB3E PUSH2 0x2EE3 JUMP JUMPDEST PUSH2 0xB46 PUSH2 0x3064 JUMP JUMPDEST PUSH1 0x1 PUSH1 0x1 PUSH1 0xA0 SHL SUB SWAP1 SWAP2 AND SWAP1 DUP2 ISZERO PUSH2 0xBB7 JUMPI CALLER PUSH1 0x0 MSTORE PUSH1 0x5 PUSH1 0x20 MSTORE PUSH1 0x40 PUSH1 0x0 KECCAK256 DUP3 PUSH1 0x0 MSTORE PUSH1 0x20 MSTORE PUSH2 0xB87 DUP2 PUSH1 0x40 PUSH1 0x0 KECCAK256 SWAP1 PUSH1 0xFF DUP1 NOT DUP4 SLOAD AND SWAP2 ISZERO ISZERO AND OR SWAP1 SSTORE JUMP JUMPDEST PUSH1 0x40 MLOAD SWAP1 ISZERO ISZERO DUP2 MSTORE PUSH32 0x17307EAB39AB6107E8899845AD3D59BD9653F200F220920489CA2B5937696C31 PUSH1 0x20 CALLER SWAP3 LOG3 STOP JUMPDEST POP PUSH4 0xB611743 PUSH1 0xE3 SHL PUSH1 0x0 MSTORE PUSH1 0x4 MSTORE PUSH1 0x24 PUSH1 0x0 REVERT JUMPDEST CALLVALUE PUSH2 0x20F JUMPI PUSH1 0x0 CALLDATASIZE PUSH1 0x3 NOT ADD SLT PUSH2 0x20F JUMPI PUSH1 0x20 PUSH1 0x40 MLOAD PUSH1 0x0 DUP2 MSTORE RETURN JUMPDEST CALLVALUE PUSH2 0x20F JUMPI PUSH1 0x0 CALLDATASIZE PUSH1 0x3 NOT ADD SLT PUSH2 0x20F JUMPI PUSH1 0x40 MLOAD PUSH1 0x0 PUSH1 0x1 SLOAD PUSH2 0xC0A DUP2 PUSH2 0x2F0F JUMP JUMPDEST DUP1 DUP5 MSTORE SWAP1 PUSH1 0x1 DUP2 AND SWAP1 DUP2 ISZERO PUSH2 0xC91 JUMPI POP PUSH1 0x1 EQ PUSH2 0xC32 JUMPI JUMPDEST PUSH2 0x20B DUP4 PUSH2 0x1F7 DUP2 DUP6 SUB DUP3 PUSH2 0x2F65 JUMP JUMPDEST PUSH1 0x1 PUSH1 0x0 SWAP1 DUP2 MSTORE PUSH32 0xB10E2D527612073B26EECDFD717E6A320CF44B4AFAC2B0732D9FCBE2B7FA0CF6 SWAP4 SWAP3 POP SWAP1 JUMPDEST DUP1 DUP3 LT PUSH2 0xC77 JUMPI POP SWAP1 SWAP2 POP DUP2 ADD PUSH1 0x20 ADD PUSH2 0x1F7 PUSH2 0xC22 JUMP JUMPDEST SWAP2 SWAP3 PUSH1 0x1 DUP2 PUSH1 0x20 SWAP3 SLOAD DUP4 DUP6 DUP9 ADD ADD MSTORE ADD SWAP2 ADD SWAP1 SWAP3 SWAP2 PUSH2 0xC5F JUMP JUMPDEST PUSH1 0xFF NOT AND PUSH1 0x20 DUP1 DUP7 ADD SWAP2 SWAP1 SWAP2 MSTORE SWAP2 ISZERO ISZERO PUSH1 0x5 SHL DUP5 ADD SWAP1 SWAP2 ADD SWAP2 POP PUSH2 0x1F7 SWAP1 POP PUSH2 0xC22 JUMP JUMPDEST CALLVALUE PUSH2 0x20F JUMPI PUSH1 0x40 CALLDATASIZE PUSH1 0x3 NOT ADD SLT PUSH2 0x20F JUMPI PUSH2 0xCCE PUSH2 0x2EF9 JUMP JUMPDEST PUSH1 0x4 CALLDATALOAD PUSH1 0x0 MSTORE PUSH1 0x7 PUSH1 0x20 MSTORE PUSH1 0x40 PUSH1 0x0 KECCAK256 SWAP1 PUSH1 0x1 DUP1 PUSH1 0xA0 SHL SUB AND PUSH1 0x0 MSTORE PUSH1 0x20 MSTORE PUSH1 0x20 PUSH1 0xFF PUSH1 0x40 PUSH1 0x0 KECCAK256 SLOAD AND PUSH1 0x40 MLOAD SWAP1 ISZERO ISZERO DUP2 MSTORE RETURN JUMPDEST CALLVALUE PUSH2 0x20F JUMPI PUSH1 0xE0 CALLDATASIZE PUSH1 0x3 NOT ADD SLT PUSH2 0x20F JUMPI PUSH2 0xD1B PUSH2 0x2EE3 JUMP JUMPDEST PUSH1 0x24 CALLDATALOAD PUSH1 0x1 PUSH1 0x1 PUSH1 0x40 SHL SUB DUP2 GT PUSH2 0x20F JUMPI PUSH2 0xD3A SWAP1 CALLDATASIZE SWAP1 PUSH1 0x4 ADD PUSH2 0x3073 JUMP JUMPDEST SWAP2 SWAP1 PUSH1 0x44 CALLDATALOAD PUSH1 0x1 PUSH1 0x1 PUSH1 0x40 SHL SUB DUP2 GT PUSH2 0x20F JUMPI PUSH2 0xD5B SWAP1 CALLDATASIZE SWAP1 PUSH1 0x4 ADD PUSH2 0x3073 JUMP JUMPDEST SWAP3 PUSH1 0x64 CALLDATALOAD PUSH1 0x1 PUSH1 0x1 PUSH1 0x40 SHL SUB DUP2 GT PUSH2 0x20F JUMPI PUSH2 0xD7B SWAP1 CALLDATASIZE SWAP1 PUSH1 0x4 ADD PUSH2 0x3073 JUMP JUMPDEST SWAP3 SWAP1 SWAP5 PUSH1 0xA4 CALLDATALOAD PUSH1 0x1 PUSH1 0x1 PUSH1 0x40 SHL SUB DUP2 GT PUSH2 0x20F JUMPI PUSH2 0xD9D SWAP1 CALLDATASIZE SWAP1 PUSH1 0x4 ADD PUSH2 0x3073 JUMP JUMPDEST SWAP1 PUSH1 0x0 SWAP4 PUSH2 0xDA9 PUSH2 0x39EA JUMP JUMPDEST PUSH1 0x1 PUSH1 0x1 PUSH1 0xA0 SHL SUB DUP7 AND ISZERO PUSH2 0x192F JUMPI DUP4 ISZERO PUSH2 0x18EF JUMPI DUP7 ISZERO PUSH2 0x18AA JUMPI PUSH1 0x1 PUSH1 0x84 CALLDATALOAD LT ISZERO DUP1 PUSH2 0x189B JUMPI JUMPDEST ISZERO PUSH2 0x1862 JUMPI DUP3 ISZERO PUSH2 0x181D JUMPI PUSH2 0xDE9 PUSH1 0xC4 CALLDATALOAD ISZERO ISZERO PUSH2 0x3462 JUMP JUMPDEST PUSH2 0xDF4 PUSH1 0x8 SLOAD PUSH2 0x34AE JUMP JUMPDEST SWAP8 DUP9 PUSH1 0x8 SSTORE PUSH1 0x20 SWAP11 PUSH1 0x40 MLOAD PUSH2 0xE09 DUP14 DUP3 PUSH2 0x2F65 JUMP JUMPDEST DUP8 DUP2 MSTORE PUSH1 0x1 PUSH1 0x1 PUSH1 0xA0 SHL SUB PUSH2 0xE1E DUP13 DUP12 PUSH2 0x391C JUMP JUMPDEST AND PUSH2 0x1809 JUMPI SWAP1 PUSH2 0xE34 PUSH2 0xE3B SWAP4 SWAP3 DUP13 DUP12 CALLER PUSH2 0x3DB5 JUMP JUMPDEST CALLDATASIZE SWAP2 PUSH2 0x30EB JUMP JUMPDEST DUP9 DUP7 MSTORE PUSH1 0x6 DUP12 MSTORE PUSH1 0x40 DUP7 KECCAK256 SWAP1 DUP1 MLOAD SWAP1 PUSH1 0x1 PUSH1 0x1 PUSH1 0x40 SHL SUB DUP3 GT PUSH2 0x17F5 JUMPI SWAP2 DUP2 DUP14 SWAP4 PUSH2 0xE6B DUP14 SWAP5 PUSH2 0x653 DUP6 SLOAD PUSH2 0x2F0F JUMP JUMPDEST DUP5 SWAP1 DUP11 PUSH1 0x1F DUP5 GT PUSH1 0x1 EQ PUSH2 0x1755 JUMPI DUP7 PUSH2 0xF32 SWAP7 PUSH2 0xF55 SWAP10 SWAP7 PUSH2 0xED3 DUP8 PUSH2 0xF14 SWAP16 SWAP15 SWAP14 SWAP12 SWAP7 SWAP9 PUSH1 0x2F SWAP9 PUSH2 0xF25 SWAP11 PUSH32 0xF8E1A15ABA9398E019F0B49DF1A4FDE98EE17AE345CB5F6B5E2C27F5033E8CE7 SWAP9 SWAP3 PUSH2 0x174A JUMPI POP POP DUP2 PUSH1 0x1 SHL SWAP2 PUSH1 0x0 NOT SWAP1 PUSH1 0x3 SHL SHR NOT AND OR SWAP1 JUMP JUMPDEST SWAP1 SSTORE JUMPDEST PUSH1 0x40 MLOAD SWAP1 DUP2 MSTORE LOG1 PUSH2 0xEE8 PUSH1 0xC4 CALLDATALOAD PUSH2 0x3BBF JUMP JUMPDEST PUSH1 0x40 MLOAD SWAP11 DUP3 PUSH15 0x24B734BA34B0B6103B30B63AB29D1 PUSH1 0x8D SHL DUP14 SWAP5 DUP6 ADD MSTORE DUP3 MLOAD SWAP3 DUP4 SWAP2 DUP7 DUP7 ADD SWAP2 ADD PUSH2 0x2E9B JUMP JUMPDEST DUP2 ADD SUB ADD PUSH1 0x1F NOT DUP2 ADD DUP10 MSTORE DUP9 PUSH2 0x2F65 JUMP JUMPDEST PUSH1 0x40 MLOAD SWAP6 PUSH2 0xE34 DUP8 PUSH2 0x2F49 JUMP JUMPDEST DUP5 MSTORE PUSH2 0xF3F CALLDATASIZE DUP10 DUP13 PUSH2 0x30EB JUMP JUMPDEST SWAP3 DUP12 DUP6 ADD SWAP4 DUP5 MSTORE PUSH1 0x84 CALLDATALOAD PUSH1 0x40 DUP7 ADD MSTORE CALLDATASIZE SWAP2 PUSH2 0x30EB JUMP JUMPDEST PUSH1 0x60 DUP4 ADD MSTORE PUSH1 0xC4 CALLDATALOAD PUSH1 0x80 DUP4 ADD MSTORE DUP4 PUSH1 0xA0 DUP4 ADD MSTORE PUSH1 0x40 MLOAD PUSH2 0xF75 DUP11 DUP3 PUSH2 0x2F65 JUMP JUMPDEST DUP5 DUP2 MSTORE PUSH1 0xC0 DUP4 ADD MSTORE TIMESTAMP PUSH1 0xE0 DUP4 ADD MSTORE PUSH1 0x40 MLOAD PUSH2 0xF90 DUP11 DUP3 PUSH2 0x2F65 JUMP JUMPDEST DUP5 DUP2 MSTORE PUSH2 0x100 DUP4 ADD MSTORE PUSH1 0x40 MLOAD PUSH2 0xFA6 DUP11 DUP3 PUSH2 0x2F65 JUMP JUMPDEST DUP5 DUP2 MSTORE PUSH2 0x120 DUP4 ADD MSTORE DUP7 DUP5 MSTORE PUSH1 0x9 DUP10 MSTORE PUSH1 0x40 DUP5 KECCAK256 SWAP1 DUP3 MLOAD DUP1 MLOAD PUSH1 0x1 PUSH1 0x1 PUSH1 0x40 SHL SUB DUP2 GT PUSH2 0x156A JUMPI PUSH2 0xFE1 DUP2 PUSH2 0xFDB DUP7 SLOAD PUSH2 0x2F0F JUMP JUMPDEST DUP7 PUSH2 0x3336 JUMP JUMPDEST DUP12 DUP13 PUSH1 0x1F DUP4 GT PUSH1 0x1 EQ PUSH2 0x16E4 JUMPI POP DUP2 SWAP1 PUSH2 0x1010 SWAP4 DUP10 SWAP3 PUSH2 0x157E JUMPI POP POP DUP2 PUSH1 0x1 SHL SWAP2 PUSH1 0x0 NOT SWAP1 PUSH1 0x3 SHL SHR NOT AND OR SWAP1 JUMP JUMPDEST DUP3 SSTORE JUMPDEST MLOAD DUP1 MLOAD SWAP1 PUSH1 0x1 PUSH1 0x1 PUSH1 0x40 SHL SUB DUP3 GT PUSH2 0x1665 JUMPI PUSH2 0x103F DUP3 PUSH2 0x1036 PUSH1 0x1 DUP7 ADD SLOAD PUSH2 0x2F0F JUMP JUMPDEST PUSH1 0x1 DUP7 ADD PUSH2 0x3336 JUMP JUMPDEST DUP11 SWAP1 PUSH1 0x1F DUP4 GT PUSH1 0x1 EQ PUSH2 0x1679 JUMPI PUSH2 0x106D SWAP3 SWAP2 DUP8 SWAP2 DUP4 PUSH2 0x15EF JUMPI POP POP DUP2 PUSH1 0x1 SHL SWAP2 PUSH1 0x0 NOT SWAP1 PUSH1 0x3 SHL SHR NOT AND OR SWAP1 JUMP JUMPDEST PUSH1 0x1 DUP3 ADD SSTORE JUMPDEST PUSH1 0x40 DUP3 ADD MLOAD PUSH1 0x2 DUP3 ADD SSTORE PUSH1 0x60 DUP3 ADD MLOAD DUP1 MLOAD SWAP1 PUSH1 0x1 PUSH1 0x1 PUSH1 0x40 SHL SUB DUP3 GT PUSH2 0x1665 JUMPI PUSH2 0x10AD DUP3 PUSH2 0x10A4 PUSH1 0x3 DUP7 ADD SLOAD PUSH2 0x2F0F JUMP JUMPDEST PUSH1 0x3 DUP7 ADD PUSH2 0x3336 JUMP JUMPDEST DUP11 SWAP1 PUSH1 0x1F DUP4 GT PUSH1 0x1 EQ PUSH2 0x15FA JUMPI PUSH2 0x10DB SWAP3 SWAP2 DUP8 SWAP2 DUP4 PUSH2 0x15EF JUMPI POP POP DUP2 PUSH1 0x1 SHL SWAP2 PUSH1 0x0 NOT SWAP1 PUSH1 0x3 SHL SHR NOT AND OR SWAP1 JUMP JUMPDEST PUSH1 0x3 DUP3 ADD SSTORE JUMPDEST PUSH1 0x80 DUP3 ADD MLOAD PUSH1 0x4 DUP3 ADD SSTORE PUSH2 0x110A PUSH1 0xA0 DUP4 ADD MLOAD ISZERO ISZERO PUSH1 0x5 DUP4 ADD SWAP1 PUSH1 0xFF DUP1 NOT DUP4 SLOAD AND SWAP2 ISZERO ISZERO AND OR SWAP1 SSTORE JUMP JUMPDEST PUSH1 0x6 DUP2 ADD PUSH1 0xC0 DUP4 ADD MLOAD DUP1 MLOAD PUSH1 0x1 PUSH1 0x1 PUSH1 0x40 SHL SUB DUP2 GT PUSH2 0x156A JUMPI PUSH2 0x1131 DUP2 PUSH2 0x653 DUP6 SLOAD PUSH2 0x2F0F JUMP JUMPDEST DUP12 DUP13 PUSH1 0x1F DUP4 GT PUSH1 0x1 EQ PUSH2 0x1589 JUMPI POP DUP2 SWAP1 PUSH2 0x1160 SWAP4 DUP10 SWAP3 PUSH2 0x157E JUMPI POP POP DUP2 PUSH1 0x1 SHL SWAP2 PUSH1 0x0 NOT SWAP1 PUSH1 0x3 SHL SHR NOT AND OR SWAP1 JUMP JUMPDEST SWAP1 SSTORE JUMPDEST PUSH1 0xE0 DUP3 ADD MLOAD PUSH1 0x7 DUP3 ADD SSTORE PUSH1 0x8 DUP2 ADD PUSH2 0x100 DUP4 ADD MLOAD DUP1 MLOAD SWAP1 PUSH1 0x1 PUSH1 0x1 PUSH1 0x40 SHL SUB DUP3 GT PUSH2 0x156A JUMPI PUSH2 0x1196 DUP3 PUSH2 0x653 DUP6 SLOAD PUSH2 0x2F0F JUMP JUMPDEST DUP12 SWAP1 DUP13 PUSH1 0x1F DUP5 GT PUSH1 0x1 EQ PUSH2 0x14FD JUMPI POP DUP3 PUSH2 0x120 SWAP6 SWAP4 PUSH1 0x9 SWAP6 SWAP4 PUSH2 0x11CE SWAP4 DUP12 SWAP3 PUSH2 0xA41 JUMPI POP POP DUP2 PUSH1 0x1 SHL SWAP2 PUSH1 0x0 NOT SWAP1 PUSH1 0x3 SHL SHR NOT AND OR SWAP1 JUMP JUMPDEST SWAP1 SSTORE JUMPDEST ADD SWAP2 ADD MLOAD DUP1 MLOAD SWAP1 PUSH1 0x1 PUSH1 0x1 PUSH1 0x40 SHL SUB DUP3 GT PUSH2 0x1486 JUMPI PUSH2 0x11F4 DUP3 PUSH2 0x653 DUP6 SLOAD PUSH2 0x2F0F JUMP JUMPDEST DUP10 SWAP1 PUSH1 0x1F DUP4 GT PUSH1 0x1 EQ PUSH2 0x149A JUMPI PUSH2 0x1222 SWAP3 SWAP2 DUP7 SWAP2 DUP4 PUSH2 0x137C JUMPI POP POP DUP2 PUSH1 0x1 SHL SWAP2 PUSH1 0x0 NOT SWAP1 PUSH1 0x3 SHL SHR NOT AND OR SWAP1 JUMP JUMPDEST SWAP1 SSTORE JUMPDEST PUSH2 0x122E DUP4 PUSH2 0x3C83 JUMP JUMPDEST PUSH2 0x126F PUSH1 0x2B PUSH1 0x40 MLOAD DUP1 SWAP4 PUSH11 0x26B4B73A32B2103A379D1 PUSH1 0xAD SHL DUP13 DUP4 ADD MSTORE PUSH2 0x125E DUP13 DUP3 MLOAD SWAP3 DUP4 SWAP2 DUP7 DUP7 ADD SWAP2 ADD PUSH2 0x2E9B JUMP JUMPDEST DUP2 ADD SUB ADD PUSH1 0x1F NOT DUP2 ADD DUP4 MSTORE DUP3 PUSH2 0x2F65 JUMP JUMPDEST DUP6 DUP4 MSTORE PUSH1 0x9 DUP9 MSTORE PUSH1 0x8 PUSH1 0x40 DUP5 KECCAK256 ADD SWAP1 DUP1 MLOAD SWAP1 PUSH1 0x1 PUSH1 0x1 PUSH1 0x40 SHL SUB DUP3 GT PUSH2 0x1486 JUMPI PUSH2 0x129D DUP3 PUSH2 0x653 DUP6 SLOAD PUSH2 0x2F0F JUMP JUMPDEST DUP10 SWAP1 PUSH1 0x1F DUP4 GT PUSH1 0x1 EQ PUSH2 0x1423 JUMPI PUSH2 0x12CB SWAP3 SWAP2 DUP7 SWAP2 DUP4 PUSH2 0x137C JUMPI POP POP DUP2 PUSH1 0x1 SHL SWAP2 PUSH1 0x0 NOT SWAP1 PUSH1 0x3 SHL SHR NOT AND OR SWAP1 JUMP JUMPDEST SWAP1 SSTORE JUMPDEST DUP5 DUP3 MSTORE PUSH1 0x9 DUP8 MSTORE PUSH1 0x9 PUSH1 0x40 DUP4 KECCAK256 ADD SWAP2 DUP2 MLOAD SWAP2 PUSH1 0x1 PUSH1 0x1 PUSH1 0x40 SHL SUB DUP4 GT PUSH2 0x140F JUMPI PUSH2 0x12FC DUP4 PUSH2 0xFDB DUP7 SLOAD PUSH2 0x2F0F JUMP JUMPDEST DUP9 SWAP2 PUSH1 0x1F DUP5 GT PUSH1 0x1 EQ PUSH2 0x1387 JUMPI SWAP3 DUP1 DUP9 SWAP10 SWAP6 SWAP4 PUSH2 0x1350 SWAP4 PUSH32 0xB145EB58C4CE95EA8EBB64F9EC4C2C5FF09C2AEB40AFCA8CEE50367DFEC496E6 SWAP9 SWAP7 SWAP3 PUSH2 0x137C JUMPI POP POP DUP2 PUSH1 0x1 SHL SWAP2 PUSH1 0x0 NOT SWAP1 PUSH1 0x3 SHL SHR NOT AND OR SWAP1 JUMP JUMPDEST SWAP1 SSTORE JUMPDEST PUSH2 0x1371 PUSH1 0x40 MLOAD SWAP3 DUP4 SWAP3 DUP10 DUP5 MSTORE PUSH1 0x1 DUP1 PUSH1 0xA0 SHL SUB AND SWAP6 DUP10 DUP5 ADD SWAP2 PUSH2 0x3388 JUMP JUMPDEST SUB SWAP1 LOG3 PUSH1 0x40 MLOAD SWAP1 DUP2 MSTORE RETURN JUMPDEST ADD MLOAD SWAP1 POP DUP12 DUP1 PUSH2 0x68A JUMP JUMPDEST SWAP2 SWAP1 PUSH1 0x1F NOT DUP5 AND DUP6 DUP5 MSTORE DUP11 DUP5 KECCAK256 SWAP4 JUMPDEST DUP12 DUP3 DUP3 LT PUSH2 0x13F9 JUMPI POP POP SWAP3 PUSH1 0x1 SWAP3 DUP6 SWAP3 PUSH32 0xB145EB58C4CE95EA8EBB64F9EC4C2C5FF09C2AEB40AFCA8CEE50367DFEC496E6 SWAP9 SWAP7 DUP12 SWAP13 SWAP9 SWAP7 LT PUSH2 0x13E0 JUMPI JUMPDEST POP POP POP DUP2 SHL ADD SWAP1 SSTORE PUSH2 0x1353 JUMP JUMPDEST ADD MLOAD PUSH1 0x0 NOT PUSH1 0xF8 DUP5 PUSH1 0x3 SHL AND SHR NOT AND SWAP1 SSTORE DUP11 DUP1 DUP1 PUSH2 0x13D3 JUMP JUMPDEST PUSH1 0x1 DUP6 SWAP7 DUP3 SWAP4 SWAP7 DUP7 ADD MLOAD DUP2 SSTORE ADD SWAP6 ADD SWAP4 ADD PUSH2 0x1396 JUMP JUMPDEST PUSH4 0x4E487B71 PUSH1 0xE0 SHL DUP3 MSTORE PUSH1 0x41 PUSH1 0x4 MSTORE PUSH1 0x24 DUP3 REVERT JUMPDEST DUP4 DUP7 MSTORE DUP11 DUP7 KECCAK256 SWAP2 SWAP1 PUSH1 0x1F NOT DUP5 AND DUP8 JUMPDEST DUP14 DUP3 DUP3 LT PUSH2 0x1470 JUMPI POP POP SWAP1 DUP5 PUSH1 0x1 SWAP6 SWAP5 SWAP4 SWAP3 LT PUSH2 0x1457 JUMPI JUMPDEST POP POP POP DUP2 SHL ADD SWAP1 SSTORE PUSH2 0x12CE JUMP JUMPDEST ADD MLOAD PUSH1 0x0 NOT PUSH1 0xF8 DUP5 PUSH1 0x3 SHL AND SHR NOT AND SWAP1 SSTORE DUP11 DUP1 DUP1 PUSH2 0x144A JUMP JUMPDEST PUSH1 0x1 DUP6 SWAP7 DUP3 SWAP4 SWAP7 DUP7 ADD MLOAD DUP2 SSTORE ADD SWAP6 ADD SWAP4 ADD PUSH2 0x1432 JUMP JUMPDEST PUSH4 0x4E487B71 PUSH1 0xE0 SHL DUP6 MSTORE PUSH1 0x41 PUSH1 0x4 MSTORE PUSH1 0x24 DUP6 REVERT JUMPDEST DUP4 DUP7 MSTORE DUP11 DUP7 KECCAK256 SWAP2 SWAP1 PUSH1 0x1F NOT DUP5 AND DUP8 JUMPDEST DUP14 DUP3 DUP3 LT PUSH2 0x14E7 JUMPI POP POP SWAP1 DUP5 PUSH1 0x1 SWAP6 SWAP5 SWAP4 SWAP3 LT PUSH2 0x14CE JUMPI JUMPDEST POP POP POP DUP2 SHL ADD SWAP1 SSTORE PUSH2 0x1225 JUMP JUMPDEST ADD MLOAD PUSH1 0x0 NOT PUSH1 0xF8 DUP5 PUSH1 0x3 SHL AND SHR NOT AND SWAP1 SSTORE DUP11 DUP1 DUP1 PUSH2 0x14C1 JUMP JUMPDEST PUSH1 0x1 DUP6 SWAP7 DUP3 SWAP4 SWAP7 DUP7 ADD MLOAD DUP2 SSTORE ADD SWAP6 ADD SWAP4 ADD PUSH2 0x14A9 JUMP JUMPDEST SWAP2 SWAP1 PUSH1 0x1F NOT DUP5 AND DUP6 DUP11 MSTORE DUP4 DUP11 KECCAK256 SWAP4 DUP11 SWAP1 JUMPDEST DUP3 DUP3 LT PUSH2 0x1552 JUMPI POP POP SWAP3 PUSH1 0x1 SWAP3 DUP6 SWAP3 PUSH2 0x120 SWAP9 SWAP7 PUSH1 0x9 SWAP9 SWAP7 LT PUSH2 0x1539 JUMPI JUMPDEST POP POP POP DUP2 SHL ADD SWAP1 SSTORE PUSH2 0x11D1 JUMP JUMPDEST ADD MLOAD PUSH1 0x0 NOT PUSH1 0xF8 DUP5 PUSH1 0x3 SHL AND SHR NOT AND SWAP1 SSTORE DUP15 DUP1 DUP1 PUSH2 0x152C JUMP JUMPDEST DUP1 PUSH1 0x1 DUP7 SWAP8 DUP3 SWAP5 SWAP8 DUP8 ADD MLOAD DUP2 SSTORE ADD SWAP7 ADD SWAP5 ADD SWAP1 PUSH2 0x150E JUMP JUMPDEST PUSH4 0x4E487B71 PUSH1 0xE0 SHL DUP8 MSTORE PUSH1 0x41 PUSH1 0x4 MSTORE PUSH1 0x24 DUP8 REVERT JUMPDEST ADD MLOAD SWAP1 POP DUP14 DUP1 PUSH2 0x68A JUMP JUMPDEST SWAP2 SWAP3 PUSH1 0x1F NOT DUP5 AND DUP6 DUP11 MSTORE DUP4 DUP11 KECCAK256 SWAP4 DUP11 SWAP1 JUMPDEST DUP3 DUP3 LT PUSH2 0x15D7 JUMPI POP POP SWAP1 DUP5 PUSH1 0x1 SWAP6 SWAP5 SWAP4 SWAP3 LT PUSH2 0x15BE JUMPI JUMPDEST POP POP POP DUP2 SHL ADD SWAP1 SSTORE PUSH2 0x1163 JUMP JUMPDEST ADD MLOAD PUSH1 0x0 NOT PUSH1 0xF8 DUP5 PUSH1 0x3 SHL AND SHR NOT AND SWAP1 SSTORE DUP13 DUP1 DUP1 PUSH2 0x15B1 JUMP JUMPDEST DUP1 PUSH1 0x1 DUP7 SWAP8 DUP3 SWAP5 SWAP8 DUP8 ADD MLOAD DUP2 SSTORE ADD SWAP7 ADD SWAP5 ADD SWAP1 PUSH2 0x159A JUMP JUMPDEST ADD MLOAD SWAP1 POP DUP13 DUP1 PUSH2 0x68A JUMP JUMPDEST PUSH1 0x3 DUP5 ADD DUP8 MSTORE DUP12 DUP8 KECCAK256 SWAP2 SWAP1 PUSH1 0x1F NOT DUP5 AND DUP9 DUP15 JUMPDEST DUP3 DUP3 LT PUSH2 0x164D JUMPI POP POP SWAP1 DUP5 PUSH1 0x1 SWAP6 SWAP5 SWAP4 SWAP3 LT PUSH2 0x1634 JUMPI JUMPDEST POP POP POP DUP2 SHL ADD PUSH1 0x3 DUP3 ADD SSTORE PUSH2 0x10E1 JUMP JUMPDEST ADD MLOAD PUSH1 0x0 NOT PUSH1 0xF8 DUP5 PUSH1 0x3 SHL AND SHR NOT AND SWAP1 SSTORE DUP12 DUP1 DUP1 PUSH2 0x1624 JUMP JUMPDEST DUP1 PUSH1 0x1 DUP7 SWAP8 DUP3 SWAP5 SWAP8 DUP8 ADD MLOAD DUP2 SSTORE ADD SWAP7 ADD SWAP5 ADD SWAP1 PUSH2 0x160D JUMP JUMPDEST PUSH4 0x4E487B71 PUSH1 0xE0 SHL DUP7 MSTORE PUSH1 0x41 PUSH1 0x4 MSTORE PUSH1 0x24 DUP7 REVERT JUMPDEST PUSH1 0x1 DUP5 ADD DUP8 MSTORE DUP12 DUP8 KECCAK256 SWAP2 SWAP1 PUSH1 0x1F NOT DUP5 AND DUP9 DUP15 JUMPDEST DUP3 DUP3 LT PUSH2 0x16CC JUMPI POP POP SWAP1 DUP5 PUSH1 0x1 SWAP6 SWAP5 SWAP4 SWAP3 LT PUSH2 0x16B3 JUMPI JUMPDEST POP POP POP DUP2 SHL ADD PUSH1 0x1 DUP3 ADD SSTORE PUSH2 0x1073 JUMP JUMPDEST ADD MLOAD PUSH1 0x0 NOT PUSH1 0xF8 DUP5 PUSH1 0x3 SHL AND SHR NOT AND SWAP1 SSTORE DUP12 DUP1 DUP1 PUSH2 0x16A3 JUMP JUMPDEST DUP1 PUSH1 0x1 DUP7 SWAP8 DUP3 SWAP5 SWAP8 DUP8 ADD MLOAD DUP2 SSTORE ADD SWAP7 ADD SWAP5 ADD SWAP1 PUSH2 0x168C JUMP JUMPDEST SWAP2 SWAP3 PUSH1 0x1F NOT DUP5 AND DUP7 DUP11 MSTORE DUP4 DUP11 KECCAK256 SWAP4 DUP11 SWAP1 JUMPDEST DUP3 DUP3 LT PUSH2 0x1732 JUMPI POP POP SWAP1 DUP5 PUSH1 0x1 SWAP6 SWAP5 SWAP4 SWAP3 LT PUSH2 0x1719 JUMPI JUMPDEST POP POP POP DUP2 SHL ADD DUP3 SSTORE PUSH2 0x1013 JUMP JUMPDEST ADD MLOAD PUSH1 0x0 NOT PUSH1 0xF8 DUP5 PUSH1 0x3 SHL AND SHR NOT AND SWAP1 SSTORE DUP13 DUP1 DUP1 PUSH2 0x170C JUMP JUMPDEST DUP1 PUSH1 0x1 DUP7 SWAP8 DUP3 SWAP5 SWAP8 DUP8 ADD MLOAD DUP2 SSTORE ADD SWAP7 ADD SWAP5 ADD SWAP1 PUSH2 0x16F5 JUMP JUMPDEST ADD MLOAD SWAP1 POP CODESIZE DUP1 PUSH2 0x68A JUMP JUMPDEST DUP5 SWAP1 MSTORE DUP6 DUP12 KECCAK256 SWAP2 SWAP1 DUP12 JUMPDEST PUSH1 0x1F NOT DUP6 AND DUP2 LT PUSH2 0x17DB JUMPI POP DUP7 PUSH2 0xF32 SWAP7 PUSH2 0xF55 SWAP10 SWAP7 PUSH1 0x1 DUP8 PUSH2 0xF14 SWAP16 SWAP15 SWAP14 SWAP12 SWAP7 SWAP8 PUSH1 0x2F SWAP9 PUSH32 0xF8E1A15ABA9398E019F0B49DF1A4FDE98EE17AE345CB5F6B5E2C27F5033E8CE7 SWAP8 PUSH2 0xF25 SWAP12 PUSH1 0x1F NOT DUP2 AND LT PUSH2 0x17C2 JUMPI JUMPDEST POP POP POP DUP2 SHL ADD SWAP1 SSTORE PUSH2 0xED6 JUMP JUMPDEST ADD MLOAD PUSH1 0x0 NOT PUSH1 0xF8 DUP5 PUSH1 0x3 SHL AND SHR NOT AND SWAP1 SSTORE CODESIZE DUP1 DUP1 PUSH2 0x17B5 JUMP JUMPDEST DUP2 DUP4 ADD MLOAD DUP5 SSTORE DUP16 SWAP7 POP PUSH1 0x1 SWAP1 SWAP4 ADD SWAP3 SWAP2 DUP8 ADD SWAP2 DUP8 ADD PUSH2 0x175F JUMP JUMPDEST PUSH4 0x4E487B71 PUSH1 0xE0 SHL DUP9 MSTORE PUSH1 0x41 PUSH1 0x4 MSTORE PUSH1 0x24 DUP9 REVERT JUMPDEST PUSH4 0x39E35637 PUSH1 0xE1 SHL DUP9 MSTORE PUSH1 0x4 DUP9 SWAP1 MSTORE PUSH1 0x24 DUP9 REVERT JUMPDEST PUSH1 0x40 MLOAD PUSH3 0x461BCD PUSH1 0xE5 SHL DUP2 MSTORE PUSH1 0x20 PUSH1 0x4 DUP3 ADD MSTORE PUSH1 0x1D PUSH1 0x24 DUP3 ADD MSTORE PUSH32 0x50726F706572747920747970652063616E6E6F7420626520656D707479000000 PUSH1 0x44 DUP3 ADD MSTORE PUSH1 0x64 SWAP1 REVERT JUMPDEST PUSH1 0x40 MLOAD PUSH3 0x461BCD PUSH1 0xE5 SHL DUP2 MSTORE PUSH1 0x20 PUSH1 0x4 DUP3 ADD MSTORE PUSH1 0x11 PUSH1 0x24 DUP3 ADD MSTORE PUSH17 0x496E76616C696420617265612073697A65 PUSH1 0x78 SHL PUSH1 0x44 DUP3 ADD MSTORE PUSH1 0x64 SWAP1 REVERT JUMPDEST POP PUSH3 0x989680 PUSH1 0x84 CALLDATALOAD GT ISZERO PUSH2 0xDD1 JUMP JUMPDEST PUSH1 0x40 MLOAD PUSH3 0x461BCD PUSH1 0xE5 SHL DUP2 MSTORE PUSH1 0x20 PUSH1 0x4 DUP3 ADD MSTORE PUSH1 0x1D PUSH1 0x24 DUP3 ADD MSTORE PUSH32 0x537572766579206E756D6265722063616E6E6F7420626520656D707479000000 PUSH1 0x44 DUP3 ADD MSTORE PUSH1 0x64 SWAP1 REVERT JUMPDEST PUSH1 0x40 MLOAD PUSH3 0x461BCD PUSH1 0xE5 SHL DUP2 MSTORE PUSH1 0x20 PUSH1 0x4 DUP3 ADD MSTORE PUSH1 0x18 PUSH1 0x24 DUP3 ADD MSTORE PUSH24 0x4C6F636174696F6E2063616E6E6F7420626520656D707479 PUSH1 0x40 SHL PUSH1 0x44 DUP3 ADD MSTORE PUSH1 0x64 SWAP1 REVERT JUMPDEST PUSH1 0x40 MLOAD PUSH3 0x461BCD PUSH1 0xE5 SHL DUP2 MSTORE PUSH1 0x20 PUSH1 0x4 DUP3 ADD MSTORE PUSH1 0x19 PUSH1 0x24 DUP3 ADD MSTORE PUSH25 0x496E76616C696420726563697069656E742061646472657373 PUSH1 0x38 SHL PUSH1 0x44 DUP3 ADD MSTORE PUSH1 0x64 SWAP1 REVERT JUMPDEST CALLVALUE PUSH2 0x20F JUMPI PUSH1 0x0 CALLDATASIZE PUSH1 0x3 NOT ADD SLT PUSH2 0x20F JUMPI PUSH1 0x20 PUSH1 0x8 SLOAD PUSH1 0x40 MLOAD SWAP1 DUP2 MSTORE RETURN JUMPDEST CALLVALUE PUSH2 0x20F JUMPI PUSH1 0x0 CALLDATASIZE PUSH1 0x3 NOT ADD SLT PUSH2 0x20F JUMPI PUSH1 0x20 PUSH1 0x40 MLOAD PUSH1 0x1 DUP2 MSTORE RETURN JUMPDEST CALLVALUE PUSH2 0x20F JUMPI PUSH1 0x20 CALLDATASIZE PUSH1 0x3 NOT ADD SLT PUSH2 0x20F JUMPI PUSH1 0x4 CALLDATALOAD PUSH1 0x1 PUSH1 0x1 PUSH1 0x40 SHL SUB DUP2 GT PUSH2 0x20F JUMPI PUSH2 0x19DA SWAP1 CALLDATASIZE SWAP1 PUSH1 0x4 ADD PUSH2 0x30A0 JUMP JUMPDEST PUSH2 0x100 MSTORE PUSH1 0xE0 MSTORE PUSH2 0x19E9 PUSH2 0x39EA JUMP JUMPDEST PUSH2 0x19F7 PUSH2 0x100 MLOAD ISZERO ISZERO PUSH2 0x33A9 JUMP JUMPDEST PUSH2 0x1A16 PUSH2 0x1A06 PUSH2 0x100 MLOAD PUSH2 0x33E3 JUMP JUMPDEST PUSH1 0x40 MLOAD PUSH2 0x120 MSTORE PUSH2 0x120 MLOAD PUSH2 0x2F65 JUMP JUMPDEST PUSH2 0x100 MLOAD PUSH2 0x120 MLOAD MSTORE PUSH2 0x1A2B PUSH2 0x100 MLOAD PUSH2 0x33E3 JUMP JUMPDEST PUSH1 0x1F NOT ADD CALLDATASIZE PUSH1 0x20 PUSH2 0x120 MLOAD ADD CALLDATACOPY PUSH1 0x0 PUSH1 0xA0 MSTORE PUSH1 0x20 PUSH2 0x140 MSTORE JUMPDEST PUSH2 0x100 MLOAD PUSH1 0xA0 MLOAD LT PUSH2 0x1AA1 JUMPI PUSH1 0x40 MLOAD DUP1 PUSH2 0x140 MLOAD DUP2 ADD PUSH2 0x140 MLOAD DUP3 MSTORE PUSH2 0x120 MLOAD MLOAD DUP1 SWAP2 MSTORE PUSH1 0x40 DUP3 ADD SWAP1 PUSH1 0x20 PUSH2 0x120 MLOAD ADD SWAP1 PUSH1 0x0 JUMPDEST DUP2 DUP2 LT PUSH2 0x1A86 JUMPI POP POP POP SUB SWAP1 RETURN JUMPDEST DUP3 MLOAD DUP5 MSTORE PUSH2 0x140 MLOAD DUP7 SWAP6 POP SWAP4 DUP5 ADD SWAP4 SWAP1 SWAP3 ADD SWAP2 PUSH1 0x1 ADD PUSH2 0x1A78 JUMP JUMPDEST PUSH2 0x1AB6 PUSH2 0x81E PUSH1 0xA0 MLOAD PUSH2 0x100 MLOAD PUSH1 0xE0 MLOAD PUSH2 0x33FA JUMP JUMPDEST PUSH2 0x1AD7 PUSH2 0x1ACB PUSH1 0xA0 MLOAD PUSH2 0x100 MLOAD PUSH1 0xE0 MLOAD PUSH2 0x33FA JUMP JUMPDEST PUSH2 0x140 MLOAD DUP2 ADD SWAP1 PUSH2 0x3430 JUMP JUMPDEST PUSH2 0x160 MSTORE SWAP1 PUSH2 0x1AFB PUSH2 0x1AF1 PUSH1 0xA0 MLOAD PUSH2 0x100 MLOAD PUSH1 0xE0 MLOAD PUSH2 0x33FA JUMP JUMPDEST PUSH1 0x40 DUP2 ADD SWAP1 PUSH2 0x3430 JUMP JUMPDEST SWAP1 SWAP3 PUSH2 0x1B1C PUSH2 0x1B12 PUSH1 0xA0 MLOAD PUSH2 0x100 MLOAD PUSH1 0xE0 MLOAD PUSH2 0x33FA JUMP JUMPDEST PUSH1 0x60 DUP2 ADD SWAP1 PUSH2 0x3430 JUMP JUMPDEST PUSH1 0x80 MSTORE SWAP2 PUSH1 0x80 PUSH2 0x1B34 PUSH1 0xA0 MLOAD PUSH2 0x100 MLOAD PUSH1 0xE0 MLOAD PUSH2 0x33FA JUMP JUMPDEST ADD CALLDATALOAD PUSH2 0x1B55 PUSH2 0x1B4B PUSH1 0xA0 MLOAD PUSH2 0x100 MLOAD PUSH1 0xE0 MLOAD PUSH2 0x33FA JUMP JUMPDEST PUSH1 0xA0 DUP2 ADD SWAP1 PUSH2 0x3430 JUMP JUMPDEST PUSH1 0xC0 PUSH2 0x1B69 PUSH1 0xA0 MLOAD PUSH2 0x100 MLOAD PUSH1 0xE0 MLOAD PUSH2 0x33FA JUMP JUMPDEST ADD CALLDATALOAD SWAP3 PUSH1 0x0 SWAP6 PUSH2 0x1B77 PUSH2 0x39EA JUMP JUMPDEST PUSH1 0x1 PUSH1 0x1 PUSH1 0xA0 SHL SUB DUP10 AND ISZERO PUSH2 0x2758 JUMPI DUP6 ISZERO PUSH2 0x2716 JUMPI PUSH1 0x80 MLOAD ISZERO PUSH2 0x26CF JUMPI PUSH1 0x1 DUP3 LT ISZERO DUP1 PUSH2 0x26C2 JUMPI JUMPDEST ISZERO PUSH2 0x2687 JUMPI DUP3 ISZERO PUSH2 0x2640 JUMPI PUSH2 0x1BB5 DUP6 ISZERO ISZERO PUSH2 0x3462 JUMP JUMPDEST PUSH2 0x1BC0 PUSH1 0x8 SLOAD PUSH2 0x34AE JUMP JUMPDEST PUSH1 0xC0 MSTORE PUSH1 0xC0 MLOAD PUSH1 0x8 SSTORE PUSH1 0x40 MLOAD PUSH2 0x1BD9 PUSH2 0x140 MLOAD DUP3 PUSH2 0x2F65 JUMP JUMPDEST DUP8 DUP2 MSTORE PUSH1 0xC0 MLOAD PUSH1 0x1 PUSH1 0x1 PUSH1 0xA0 SHL SUB SWAP1 PUSH2 0x1BF2 SWAP1 DUP13 PUSH2 0x391C JUMP JUMPDEST AND PUSH2 0x1809 JUMPI SWAP1 PUSH2 0x1C09 PUSH2 0x1C14 SWAP3 PUSH1 0xC0 MLOAD DUP13 CALLER PUSH2 0x3DB5 JUMP JUMPDEST PUSH2 0x160 MLOAD CALLDATASIZE SWAP2 PUSH2 0x30EB JUMP JUMPDEST PUSH1 0xC0 MLOAD DUP8 MSTORE PUSH1 0x6 PUSH2 0x140 MLOAD MSTORE PUSH1 0x40 DUP8 KECCAK256 SWAP1 DUP1 MLOAD SWAP1 PUSH1 0x1 PUSH1 0x1 PUSH1 0x40 SHL SUB DUP3 GT PUSH2 0x262C JUMPI PUSH2 0x1C44 DUP3 PUSH2 0x653 DUP6 SLOAD PUSH2 0x2F0F JUMP JUMPDEST PUSH2 0x140 MLOAD SWAP1 PUSH1 0x1F DUP4 GT PUSH1 0x1 EQ PUSH2 0x25BA JUMPI SWAP2 DUP1 PUSH2 0x1C7D SWAP3 PUSH2 0x1D36 SWAP9 SWAP8 SWAP7 SWAP6 SWAP5 DUP13 SWAP3 PUSH2 0x25AF JUMPI POP POP DUP2 PUSH1 0x1 SHL SWAP2 PUSH1 0x0 NOT SWAP1 PUSH1 0x3 SHL SHR NOT AND OR SWAP1 JUMP JUMPDEST SWAP1 SSTORE JUMPDEST PUSH32 0xF8E1A15ABA9398E019F0B49DF1A4FDE98EE17AE345CB5F6B5E2C27F5033E8CE7 PUSH1 0x40 MLOAD PUSH1 0xC0 MLOAD DUP2 MSTORE PUSH2 0x140 MLOAD SWAP1 LOG1 PUSH2 0x1D14 PUSH2 0x1CBB DUP7 PUSH2 0x3BBF JUMP JUMPDEST SWAP11 PUSH2 0x1D07 PUSH1 0x2F PUSH1 0x40 MLOAD DUP1 SWAP15 PUSH15 0x24B734BA34B0B6103B30B63AB29D1 PUSH1 0x8D SHL PUSH2 0x140 MLOAD DUP4 ADD MSTORE PUSH2 0x1CF5 DUP2 MLOAD DUP1 SWAP3 DUP6 DUP6 ADD SWAP1 PUSH2 0x140 MLOAD ADD PUSH2 0x2E9B JUMP JUMPDEST DUP2 ADD SUB ADD DUP14 PUSH1 0x1F NOT DUP3 ADD SWAP1 MSTORE DUP14 PUSH2 0x2F65 JUMP JUMPDEST PUSH1 0x40 MLOAD SWAP8 PUSH2 0xE34 DUP10 PUSH2 0x2F49 JUMP JUMPDEST DUP7 MSTORE PUSH2 0x1D23 CALLDATASIZE PUSH1 0x80 MLOAD DUP11 PUSH2 0x30EB JUMP JUMPDEST PUSH2 0x140 MLOAD DUP8 ADD MSTORE PUSH1 0x40 DUP7 ADD MSTORE CALLDATASIZE SWAP2 PUSH2 0x30EB JUMP JUMPDEST PUSH1 0x60 DUP4 ADD MSTORE PUSH1 0x80 DUP3 ADD MSTORE DUP2 PUSH1 0xA0 DUP3 ADD MSTORE PUSH1 0x40 MLOAD PUSH2 0x1D56 PUSH2 0x140 MLOAD DUP3 PUSH2 0x2F65 JUMP JUMPDEST DUP3 DUP2 MSTORE PUSH1 0xC0 DUP3 ADD MSTORE TIMESTAMP PUSH1 0xE0 DUP3 ADD MSTORE PUSH1 0x40 MLOAD PUSH2 0x1D74 PUSH2 0x140 MLOAD DUP3 PUSH2 0x2F65 JUMP JUMPDEST DUP3 DUP2 MSTORE PUSH2 0x100 DUP3 ADD MSTORE PUSH1 0x40 MLOAD PUSH2 0x1D8D PUSH2 0x140 MLOAD DUP3 PUSH2 0x2F65 JUMP JUMPDEST DUP3 DUP2 MSTORE PUSH2 0x120 DUP3 ADD MSTORE PUSH1 0xC0 MLOAD DUP3 MSTORE PUSH1 0x9 PUSH2 0x140 MLOAD MSTORE PUSH1 0x40 DUP3 KECCAK256 SWAP1 DUP1 MLOAD DUP1 MLOAD SWAP1 PUSH1 0x1 PUSH1 0x1 PUSH1 0x40 SHL SUB DUP3 GT PUSH2 0x1486 JUMPI PUSH2 0x1DC8 DUP3 PUSH2 0xFDB DUP7 SLOAD PUSH2 0x2F0F JUMP JUMPDEST PUSH2 0x140 MLOAD SWAP1 PUSH1 0x1F DUP4 GT PUSH1 0x1 EQ PUSH2 0x2542 JUMPI PUSH2 0x1DF9 SWAP3 SWAP2 DUP7 SWAP2 DUP4 PUSH2 0x6B6 JUMPI POP POP DUP2 PUSH1 0x1 SHL SWAP2 PUSH1 0x0 NOT SWAP1 PUSH1 0x3 SHL SHR NOT AND OR SWAP1 JUMP JUMPDEST DUP3 SSTORE JUMPDEST PUSH2 0x140 MLOAD DUP2 ADD MLOAD DUP1 MLOAD SWAP1 PUSH1 0x1 PUSH1 0x1 PUSH1 0x40 SHL SUB DUP3 GT PUSH2 0x1486 JUMPI PUSH2 0x1E2E DUP3 PUSH2 0x1E25 PUSH1 0x1 DUP8 ADD SLOAD PUSH2 0x2F0F JUMP JUMPDEST PUSH1 0x1 DUP8 ADD PUSH2 0x3336 JUMP JUMPDEST PUSH2 0x140 MLOAD SWAP1 PUSH1 0x1F DUP4 GT PUSH1 0x1 EQ PUSH2 0x24CF JUMPI PUSH2 0x1E5F SWAP3 SWAP2 DUP7 SWAP2 DUP4 PUSH2 0x6B6 JUMPI POP POP DUP2 PUSH1 0x1 SHL SWAP2 PUSH1 0x0 NOT SWAP1 PUSH1 0x3 SHL SHR NOT AND OR SWAP1 JUMP JUMPDEST PUSH1 0x1 DUP4 ADD SSTORE JUMPDEST PUSH1 0x40 DUP2 ADD MLOAD PUSH1 0x2 DUP4 ADD SSTORE PUSH1 0x60 DUP2 ADD MLOAD DUP1 MLOAD SWAP1 PUSH1 0x1 PUSH1 0x1 PUSH1 0x40 SHL SUB DUP3 GT PUSH2 0x1486 JUMPI PUSH2 0x1E9F DUP3 PUSH2 0x1E96 PUSH1 0x3 DUP8 ADD SLOAD PUSH2 0x2F0F JUMP JUMPDEST PUSH1 0x3 DUP8 ADD PUSH2 0x3336 JUMP JUMPDEST PUSH2 0x140 MLOAD SWAP1 PUSH1 0x1F DUP4 GT PUSH1 0x1 EQ PUSH2 0x245C JUMPI PUSH2 0x1ED0 SWAP3 SWAP2 DUP7 SWAP2 DUP4 PUSH2 0x6B6 JUMPI POP POP DUP2 PUSH1 0x1 SHL SWAP2 PUSH1 0x0 NOT SWAP1 PUSH1 0x3 SHL SHR NOT AND OR SWAP1 JUMP JUMPDEST PUSH1 0x3 DUP4 ADD SSTORE JUMPDEST PUSH1 0x80 DUP2 ADD MLOAD PUSH1 0x4 DUP4 ADD SSTORE PUSH2 0x1EFF PUSH1 0xA0 DUP3 ADD MLOAD ISZERO ISZERO PUSH1 0x5 DUP5 ADD SWAP1 PUSH1 0xFF DUP1 NOT DUP4 SLOAD AND SWAP2 ISZERO ISZERO AND OR SWAP1 SSTORE JUMP JUMPDEST PUSH1 0xC0 DUP2 ADD MLOAD DUP1 MLOAD SWAP1 PUSH1 0x1 PUSH1 0x1 PUSH1 0x40 SHL SUB DUP3 GT PUSH2 0x1486 JUMPI PUSH2 0x1F2F DUP3 PUSH2 0x1F26 PUSH1 0x6 DUP8 ADD SLOAD PUSH2 0x2F0F JUMP JUMPDEST PUSH1 0x6 DUP8 ADD PUSH2 0x3336 JUMP JUMPDEST PUSH2 0x140 MLOAD SWAP1 PUSH1 0x1F DUP4 GT PUSH1 0x1 EQ PUSH2 0x23E9 JUMPI PUSH2 0x1F60 SWAP3 SWAP2 DUP7 SWAP2 DUP4 PUSH2 0x6B6 JUMPI POP POP DUP2 PUSH1 0x1 SHL SWAP2 PUSH1 0x0 NOT SWAP1 PUSH1 0x3 SHL SHR NOT AND OR SWAP1 JUMP JUMPDEST PUSH1 0x6 DUP4 ADD SSTORE JUMPDEST PUSH1 0xE0 DUP2 ADD MLOAD PUSH1 0x7 DUP4 ADD SSTORE PUSH2 0x100 DUP2 ADD MLOAD DUP1 MLOAD SWAP1 PUSH1 0x1 PUSH1 0x1 PUSH1 0x40 SHL SUB DUP3 GT PUSH2 0x1486 JUMPI PUSH2 0x1FA1 DUP3 PUSH2 0x1F98 PUSH1 0x8 DUP8 ADD SLOAD PUSH2 0x2F0F JUMP JUMPDEST PUSH1 0x8 DUP8 ADD PUSH2 0x3336 JUMP JUMPDEST PUSH2 0x140 MLOAD SWAP1 PUSH1 0x1F DUP4 GT PUSH1 0x1 EQ PUSH2 0x2374 JUMPI SWAP2 DUP1 PUSH2 0x1FD7 SWAP3 PUSH2 0x120 SWAP6 SWAP5 DUP9 SWAP3 PUSH2 0x2369 JUMPI POP POP DUP2 PUSH1 0x1 SHL SWAP2 PUSH1 0x0 NOT SWAP1 PUSH1 0x3 SHL SHR NOT AND OR SWAP1 JUMP JUMPDEST PUSH1 0x8 DUP5 ADD SSTORE JUMPDEST ADD MLOAD DUP1 MLOAD SWAP1 PUSH1 0x1 PUSH1 0x1 PUSH1 0x40 SHL SUB DUP3 GT PUSH2 0x22E4 JUMPI PUSH2 0x200A DUP3 PUSH2 0x2001 PUSH1 0x9 DUP7 ADD SLOAD PUSH2 0x2F0F JUMP JUMPDEST PUSH1 0x9 DUP7 ADD PUSH2 0x3336 JUMP JUMPDEST PUSH2 0x140 MLOAD SWAP1 PUSH1 0x1F DUP4 GT PUSH1 0x1 EQ PUSH2 0x22F8 JUMPI SWAP2 DUP1 PUSH2 0x203E SWAP3 PUSH1 0x9 SWAP5 DUP8 SWAP3 PUSH2 0x6B6 JUMPI POP POP DUP2 PUSH1 0x1 SHL SWAP2 PUSH1 0x0 NOT SWAP1 PUSH1 0x3 SHL SHR NOT AND OR SWAP1 JUMP JUMPDEST SWAP2 ADD SSTORE JUMPDEST PUSH2 0x204B DUP4 PUSH2 0x3C83 JUMP JUMPDEST PUSH2 0x2080 PUSH1 0x2B PUSH1 0x40 MLOAD DUP1 SWAP4 PUSH11 0x26B4B73A32B2103A379D1 PUSH1 0xAD SHL PUSH2 0x140 MLOAD DUP4 ADD MSTORE PUSH2 0x125E DUP2 MLOAD DUP1 SWAP3 DUP6 DUP6 ADD SWAP1 PUSH2 0x140 MLOAD ADD PUSH2 0x2E9B JUMP JUMPDEST PUSH1 0xC0 MLOAD DUP3 MSTORE PUSH1 0x9 PUSH2 0x140 MLOAD MSTORE PUSH1 0x8 PUSH1 0x40 DUP4 KECCAK256 ADD SWAP1 DUP1 MLOAD SWAP1 PUSH1 0x1 PUSH1 0x1 PUSH1 0x40 SHL SUB DUP3 GT PUSH2 0x22E4 JUMPI PUSH2 0x20B3 DUP3 PUSH2 0x653 DUP6 SLOAD PUSH2 0x2F0F JUMP JUMPDEST PUSH2 0x140 MLOAD SWAP1 PUSH1 0x1F DUP4 GT PUSH1 0x1 EQ PUSH2 0x2277 JUMPI PUSH2 0x20E4 SWAP3 SWAP2 DUP6 SWAP2 DUP4 PUSH2 0x226C JUMPI POP POP DUP2 PUSH1 0x1 SHL SWAP2 PUSH1 0x0 NOT SWAP1 PUSH1 0x3 SHL SHR NOT AND OR SWAP1 JUMP JUMPDEST SWAP1 SSTORE JUMPDEST PUSH1 0xC0 MLOAD DUP2 MSTORE PUSH1 0x9 PUSH2 0x140 MLOAD MSTORE PUSH1 0x9 PUSH1 0x40 DUP3 KECCAK256 ADD SWAP1 DUP5 MLOAD SWAP1 PUSH1 0x1 PUSH1 0x1 PUSH1 0x40 SHL SUB DUP3 GT PUSH2 0x2258 JUMPI PUSH2 0x211A DUP3 PUSH2 0x653 DUP6 SLOAD PUSH2 0x2F0F JUMP JUMPDEST PUSH2 0x140 MLOAD SWAP1 PUSH1 0x1F DUP4 GT PUSH1 0x1 EQ PUSH2 0x21EE JUMPI SWAP1 PUSH2 0x214C SWAP4 SWAP5 SWAP6 SWAP7 DUP4 PUSH2 0x21E3 JUMPI POP POP DUP2 PUSH1 0x1 SHL SWAP2 PUSH1 0x0 NOT SWAP1 PUSH1 0x3 SHL SHR NOT AND OR SWAP1 JUMP JUMPDEST SWAP1 SSTORE JUMPDEST PUSH32 0xB145EB58C4CE95EA8EBB64F9EC4C2C5FF09C2AEB40AFCA8CEE50367DFEC496E6 PUSH1 0x40 MLOAD PUSH2 0x140 MLOAD DUP2 MSTORE DUP1 PUSH2 0x219A PUSH1 0xC0 MLOAD SWAP6 PUSH1 0x1 DUP1 PUSH1 0xA0 SHL SUB AND SWAP5 PUSH2 0x140 MLOAD DUP4 ADD SWAP1 PUSH1 0x80 MLOAD SWAP1 PUSH2 0x3388 JUMP JUMPDEST SUB SWAP1 LOG3 PUSH2 0x120 MLOAD MLOAD PUSH1 0xA0 MLOAD LT ISZERO PUSH2 0x21CD JUMPI PUSH1 0xC0 MLOAD PUSH2 0x140 MLOAD PUSH1 0xA0 MLOAD PUSH1 0x5 SHL PUSH2 0x120 MLOAD ADD ADD MSTORE PUSH1 0x1 PUSH1 0xA0 MLOAD ADD PUSH1 0xA0 MSTORE PUSH2 0x1A44 JUMP JUMPDEST PUSH4 0x4E487B71 PUSH1 0xE0 SHL PUSH1 0x0 MSTORE PUSH1 0x32 PUSH1 0x4 MSTORE PUSH1 0x24 PUSH1 0x0 REVERT JUMPDEST ADD MLOAD SWAP1 POP DUP7 DUP1 PUSH2 0x68A JUMP JUMPDEST SWAP1 DUP4 DUP3 MSTORE PUSH2 0x140 MLOAD DUP3 KECCAK256 SWAP2 JUMPDEST PUSH1 0x1F NOT DUP5 AND DUP2 LT PUSH2 0x223E JUMPI POP PUSH1 0x1 SWAP4 SWAP5 SWAP6 SWAP7 DUP4 PUSH1 0x1F NOT DUP2 AND LT PUSH2 0x2225 JUMPI JUMPDEST POP POP POP DUP2 SHL ADD SWAP1 SSTORE PUSH2 0x214F JUMP JUMPDEST ADD MLOAD PUSH1 0x0 NOT PUSH1 0xF8 DUP5 PUSH1 0x3 SHL AND SHR NOT AND SWAP1 SSTORE DUP6 DUP1 DUP1 PUSH2 0x2218 JUMP JUMPDEST DUP8 DUP3 ADD MLOAD DUP4 SSTORE PUSH2 0x140 MLOAD PUSH1 0x1 SWAP1 SWAP4 ADD SWAP3 SWAP2 DUP3 ADD SWAP2 ADD PUSH2 0x21FA JUMP JUMPDEST PUSH4 0x4E487B71 PUSH1 0xE0 SHL DUP2 MSTORE PUSH1 0x41 PUSH1 0x4 MSTORE PUSH1 0x24 SWAP1 REVERT JUMPDEST ADD MLOAD SWAP1 POP DUP9 DUP1 PUSH2 0x68A JUMP JUMPDEST SWAP2 SWAP1 DUP4 DUP6 MSTORE PUSH2 0x140 MLOAD DUP6 KECCAK256 SWAP1 DUP6 SWAP4 JUMPDEST PUSH1 0x1F NOT DUP5 AND DUP6 LT PUSH2 0x22C7 JUMPI PUSH1 0x1 SWAP5 POP DUP4 PUSH1 0x1F NOT DUP2 AND LT PUSH2 0x22AE JUMPI JUMPDEST POP POP POP DUP2 SHL ADD SWAP1 SSTORE PUSH2 0x20E7 JUMP JUMPDEST ADD MLOAD PUSH1 0x0 NOT PUSH1 0xF8 DUP5 PUSH1 0x3 SHL AND SHR NOT AND SWAP1 SSTORE DUP8 DUP1 DUP1 PUSH2 0x22A1 JUMP JUMPDEST DUP2 DUP2 ADD MLOAD DUP4 SSTORE PUSH2 0x140 MLOAD SWAP5 DUP6 ADD SWAP5 PUSH1 0x1 SWAP1 SWAP4 ADD SWAP3 SWAP1 SWAP2 ADD SWAP1 PUSH2 0x2286 JUMP JUMPDEST PUSH4 0x4E487B71 PUSH1 0xE0 SHL DUP5 MSTORE PUSH1 0x41 PUSH1 0x4 MSTORE PUSH1 0x24 DUP5 REVERT JUMPDEST SWAP1 PUSH1 0x9 DUP5 ADD DUP6 MSTORE PUSH2 0x140 MLOAD DUP6 KECCAK256 SWAP2 DUP6 JUMPDEST PUSH1 0x1F NOT DUP6 AND DUP2 LT PUSH2 0x234F JUMPI POP SWAP2 DUP4 SWAP2 PUSH1 0x1 SWAP4 PUSH1 0x9 SWAP6 PUSH1 0x1F NOT DUP2 AND LT PUSH2 0x2336 JUMPI JUMPDEST POP POP POP DUP2 SHL ADD SWAP2 ADD SSTORE PUSH2 0x2042 JUMP JUMPDEST ADD MLOAD PUSH1 0x0 NOT PUSH1 0xF8 DUP5 PUSH1 0x3 SHL AND SHR NOT AND SWAP1 SSTORE DUP9 DUP1 DUP1 PUSH2 0x2328 JUMP JUMPDEST DUP2 DUP4 ADD MLOAD DUP5 SSTORE PUSH2 0x140 MLOAD PUSH1 0x1 SWAP1 SWAP5 ADD SWAP4 SWAP3 DUP4 ADD SWAP3 ADD PUSH2 0x2308 JUMP JUMPDEST ADD MLOAD SWAP1 POP DUP11 DUP1 PUSH2 0x68A JUMP JUMPDEST SWAP1 PUSH1 0x8 DUP6 ADD DUP7 MSTORE PUSH2 0x140 MLOAD DUP7 KECCAK256 SWAP2 DUP7 JUMPDEST PUSH1 0x1F NOT DUP6 AND DUP2 LT PUSH2 0x23CF JUMPI POP SWAP2 DUP4 SWAP2 PUSH1 0x1 SWAP4 PUSH2 0x120 SWAP7 SWAP6 PUSH1 0x1F NOT DUP2 AND LT PUSH2 0x23B6 JUMPI JUMPDEST POP POP POP DUP2 SHL ADD PUSH1 0x8 DUP5 ADD SSTORE PUSH2 0x1FDD JUMP JUMPDEST ADD MLOAD PUSH1 0x0 NOT PUSH1 0xF8 DUP5 PUSH1 0x3 SHL AND SHR NOT AND SWAP1 SSTORE DUP10 DUP1 DUP1 PUSH2 0x23A6 JUMP JUMPDEST DUP2 DUP4 ADD MLOAD DUP5 SSTORE PUSH2 0x140 MLOAD PUSH1 0x1 SWAP1 SWAP5 ADD SWAP4 SWAP3 DUP4 ADD SWAP3 ADD PUSH2 0x2384 JUMP JUMPDEST SWAP2 SWAP1 PUSH1 0x6 DUP6 ADD DUP7 MSTORE PUSH2 0x140 MLOAD DUP7 KECCAK256 SWAP1 DUP7 SWAP4 JUMPDEST PUSH1 0x1F NOT DUP5 AND DUP6 LT PUSH2 0x243F JUMPI PUSH1 0x1 SWAP5 POP DUP4 PUSH1 0x1F NOT DUP2 AND LT PUSH2 0x2426 JUMPI JUMPDEST POP POP POP DUP2 SHL ADD PUSH1 0x6 DUP4 ADD SSTORE PUSH2 0x1F66 JUMP JUMPDEST ADD MLOAD PUSH1 0x0 NOT PUSH1 0xF8 DUP5 PUSH1 0x3 SHL AND SHR NOT AND SWAP1 SSTORE DUP9 DUP1 DUP1 PUSH2 0x2416 JUMP JUMPDEST DUP2 DUP2 ADD MLOAD DUP4 SSTORE PUSH2 0x140 MLOAD SWAP5 DUP6 ADD SWAP5 PUSH1 0x1 SWAP1 SWAP4 ADD SWAP3 SWAP1 SWAP2 ADD SWAP1 PUSH2 0x23FB JUMP JUMPDEST SWAP2 SWAP1 PUSH1 0x3 DUP6 ADD DUP7 MSTORE PUSH2 0x140 MLOAD DUP7 KECCAK256 SWAP1 DUP7 SWAP4 JUMPDEST PUSH1 0x1F NOT DUP5 AND DUP6 LT PUSH2 0x24B2 JUMPI PUSH1 0x1 SWAP5 POP DUP4 PUSH1 0x1F NOT DUP2 AND LT PUSH2 0x2499 JUMPI JUMPDEST POP POP POP DUP2 SHL ADD PUSH1 0x3 DUP4 ADD SSTORE PUSH2 0x1ED6 JUMP JUMPDEST ADD MLOAD PUSH1 0x0 NOT PUSH1 0xF8 DUP5 PUSH1 0x3 SHL AND SHR NOT AND SWAP1 SSTORE DUP9 DUP1 DUP1 PUSH2 0x2489 JUMP JUMPDEST DUP2 DUP2 ADD MLOAD DUP4 SSTORE PUSH2 0x140 MLOAD SWAP5 DUP6 ADD SWAP5 PUSH1 0x1 SWAP1 SWAP4 ADD SWAP3 SWAP1 SWAP2 ADD SWAP1 PUSH2 0x246E JUMP JUMPDEST SWAP2 SWAP1 PUSH1 0x1 DUP6 ADD DUP7 MSTORE PUSH2 0x140 MLOAD DUP7 KECCAK256 SWAP1 DUP7 SWAP4 JUMPDEST PUSH1 0x1F NOT DUP5 AND DUP6 LT PUSH2 0x2525 JUMPI PUSH1 0x1 SWAP5 POP DUP4 PUSH1 0x1F NOT DUP2 AND LT PUSH2 0x250C JUMPI JUMPDEST POP POP POP DUP2 SHL ADD PUSH1 0x1 DUP4 ADD SSTORE PUSH2 0x1E65 JUMP JUMPDEST ADD MLOAD PUSH1 0x0 NOT PUSH1 0xF8 DUP5 PUSH1 0x3 SHL AND SHR NOT AND SWAP1 SSTORE DUP9 DUP1 DUP1 PUSH2 0x24FC JUMP JUMPDEST DUP2 DUP2 ADD MLOAD DUP4 SSTORE PUSH2 0x140 MLOAD SWAP5 DUP6 ADD SWAP5 PUSH1 0x1 SWAP1 SWAP4 ADD SWAP3 SWAP1 SWAP2 ADD SWAP1 PUSH2 0x24E1 JUMP JUMPDEST SWAP2 SWAP1 DUP5 DUP7 MSTORE PUSH2 0x140 MLOAD DUP7 KECCAK256 SWAP1 DUP7 SWAP4 JUMPDEST PUSH1 0x1F NOT DUP5 AND DUP6 LT PUSH2 0x2592 JUMPI PUSH1 0x1 SWAP5 POP DUP4 PUSH1 0x1F NOT DUP2 AND LT PUSH2 0x2579 JUMPI JUMPDEST POP POP POP DUP2 SHL ADD DUP3 SSTORE PUSH2 0x1DFC JUMP JUMPDEST ADD MLOAD PUSH1 0x0 NOT PUSH1 0xF8 DUP5 PUSH1 0x3 SHL AND SHR NOT AND SWAP1 SSTORE DUP9 DUP1 DUP1 PUSH2 0x256C JUMP JUMPDEST DUP2 DUP2 ADD MLOAD DUP4 SSTORE PUSH2 0x140 MLOAD SWAP5 DUP6 ADD SWAP5 PUSH1 0x1 SWAP1 SWAP4 ADD SWAP3 SWAP1 SWAP2 ADD SWAP1 PUSH2 0x2551 JUMP JUMPDEST ADD MLOAD SWAP1 POP DUP15 DUP1 PUSH2 0x68A JUMP JUMPDEST SWAP1 DUP4 DUP11 MSTORE PUSH2 0x140 MLOAD DUP11 KECCAK256 SWAP2 DUP11 JUMPDEST PUSH1 0x1F NOT DUP6 AND DUP2 LT PUSH2 0x2612 JUMPI POP SWAP2 DUP4 SWAP2 PUSH1 0x1 SWAP4 PUSH2 0x1D36 SWAP10 SWAP9 SWAP8 SWAP7 SWAP6 PUSH1 0x1F NOT DUP2 AND LT PUSH2 0x25F9 JUMPI JUMPDEST POP POP POP DUP2 SHL ADD SWAP1 SSTORE PUSH2 0x1C80 JUMP JUMPDEST ADD MLOAD PUSH1 0x0 NOT PUSH1 0xF8 DUP5 PUSH1 0x3 SHL AND SHR NOT AND SWAP1 SSTORE DUP14 DUP1 DUP1 PUSH2 0x25EC JUMP JUMPDEST DUP2 DUP4 ADD MLOAD DUP5 SSTORE PUSH2 0x140 MLOAD PUSH1 0x1 SWAP1 SWAP5 ADD SWAP4 SWAP3 DUP4 ADD SWAP3 ADD PUSH2 0x25C7 JUMP JUMPDEST PUSH4 0x4E487B71 PUSH1 0xE0 SHL DUP10 MSTORE PUSH1 0x41 PUSH1 0x4 MSTORE PUSH1 0x24 DUP10 REVERT JUMPDEST PUSH1 0x40 MLOAD PUSH3 0x461BCD PUSH1 0xE5 SHL DUP2 MSTORE PUSH2 0x140 MLOAD PUSH1 0x4 DUP3 ADD MSTORE PUSH1 0x1D PUSH1 0x24 DUP3 ADD MSTORE PUSH32 0x50726F706572747920747970652063616E6E6F7420626520656D707479000000 PUSH1 0x44 DUP3 ADD MSTORE PUSH1 0x64 SWAP1 REVERT JUMPDEST PUSH1 0x40 MLOAD PUSH3 0x461BCD PUSH1 0xE5 SHL DUP2 MSTORE PUSH2 0x140 MLOAD PUSH1 0x4 DUP3 ADD MSTORE PUSH1 0x11 PUSH1 0x24 DUP3 ADD MSTORE PUSH17 0x496E76616C696420617265612073697A65 PUSH1 0x78 SHL PUSH1 0x44 DUP3 ADD MSTORE PUSH1 0x64 SWAP1 REVERT JUMPDEST POP PUSH3 0x989680 DUP3 GT ISZERO PUSH2 0x1B9F JUMP JUMPDEST PUSH1 0x40 MLOAD PUSH3 0x461BCD PUSH1 0xE5 SHL DUP2 MSTORE PUSH2 0x140 MLOAD PUSH1 0x4 DUP3 ADD MSTORE PUSH1 0x1D PUSH1 0x24 DUP3 ADD MSTORE PUSH32 0x537572766579206E756D6265722063616E6E6F7420626520656D707479000000 PUSH1 0x44 DUP3 ADD MSTORE PUSH1 0x64 SWAP1 REVERT JUMPDEST PUSH1 0x40 MLOAD PUSH3 0x461BCD PUSH1 0xE5 SHL DUP2 MSTORE PUSH2 0x140 MLOAD PUSH1 0x4 DUP3 ADD MSTORE PUSH1 0x18 PUSH1 0x24 DUP3 ADD MSTORE PUSH24 0x4C6F636174696F6E2063616E6E6F7420626520656D707479 PUSH1 0x40 SHL PUSH1 0x44 DUP3 ADD MSTORE PUSH1 0x64 SWAP1 REVERT JUMPDEST PUSH1 0x40 MLOAD PUSH3 0x461BCD PUSH1 0xE5 SHL DUP2 MSTORE PUSH2 0x140 MLOAD PUSH1 0x4 DUP3 ADD MSTORE PUSH1 0x19 PUSH1 0x24 DUP3 ADD MSTORE PUSH25 0x496E76616C696420726563697069656E742061646472657373 PUSH1 0x38 SHL PUSH1 0x44 DUP3 ADD MSTORE PUSH1 0x64 SWAP1 REVERT JUMPDEST CALLVALUE PUSH2 0x20F JUMPI PUSH1 0x20 CALLDATASIZE PUSH1 0x3 NOT ADD SLT PUSH2 0x20F JUMPI PUSH1 0x1 PUSH1 0x1 PUSH1 0xA0 SHL SUB PUSH2 0x27BC PUSH2 0x2EE3 JUMP JUMPDEST AND DUP1 ISZERO PUSH2 0x27DB JUMPI PUSH1 0x0 MSTORE PUSH1 0x3 PUSH1 0x20 MSTORE PUSH1 0x20 PUSH1 0x40 PUSH1 0x0 KECCAK256 SLOAD PUSH1 0x40 MLOAD SWAP1 DUP2 MSTORE RETURN JUMPDEST PUSH4 0x22718AD9 PUSH1 0xE2 SHL PUSH1 0x0 MSTORE PUSH1 0x0 PUSH1 0x4 MSTORE PUSH1 0x24 PUSH1 0x0 REVERT JUMPDEST CALLVALUE PUSH2 0x20F JUMPI PUSH1 0x20 CALLDATASIZE PUSH1 0x3 NOT ADD SLT PUSH2 0x20F JUMPI PUSH1 0x20 PUSH2 0x280F PUSH1 0x4 CALLDATALOAD PUSH2 0x38E5 JUMP JUMPDEST PUSH1 0x40 MLOAD PUSH1 0x1 PUSH1 0x1 PUSH1 0xA0 SHL SUB SWAP1 SWAP2 AND DUP2 MSTORE RETURN JUMPDEST CALLVALUE PUSH2 0x20F JUMPI PUSH1 0x0 CALLDATASIZE PUSH1 0x3 NOT ADD SLT PUSH2 0x20F JUMPI PUSH1 0x20 PUSH1 0x40 MLOAD PUSH32 0xD565E3FC066DF348A5CBC05A8D6323E00552838041CEA2D84CC59876BA37735D DUP2 MSTORE RETURN JUMPDEST CALLVALUE PUSH2 0x20F JUMPI PUSH2 0x53A PUSH2 0x286D CALLDATASIZE PUSH2 0x302A JUMP JUMPDEST SWAP1 PUSH1 0x40 MLOAD SWAP3 PUSH2 0x287D PUSH1 0x20 DUP6 PUSH2 0x2F65 JUMP JUMPDEST PUSH1 0x0 DUP5 MSTORE PUSH2 0x8B7 DUP4 DUP4 DUP4 PUSH2 0x3147 JUMP JUMPDEST CALLVALUE PUSH2 0x20F JUMPI PUSH1 0x60 CALLDATASIZE PUSH1 0x3 NOT ADD SLT PUSH2 0x20F JUMPI PUSH1 0x4 CALLDATALOAD PUSH2 0x28A8 PUSH2 0x3064 JUMP JUMPDEST SWAP1 PUSH1 0x44 CALLDATALOAD PUSH1 0x1 PUSH1 0x1 PUSH1 0x40 SHL SUB DUP2 GT PUSH2 0x20F JUMPI PUSH2 0x28C8 SWAP1 CALLDATASIZE SWAP1 PUSH1 0x4 ADD PUSH2 0x3073 JUMP JUMPDEST SWAP1 SWAP3 PUSH2 0x28D2 PUSH2 0x39EA JUMP JUMPDEST PUSH2 0x28E6 PUSH1 0x1 PUSH1 0x1 PUSH1 0xA0 SHL SUB PUSH2 0x1D4 DUP6 PUSH2 0x38E5 JUMP JUMPDEST DUP3 PUSH1 0x0 MSTORE PUSH1 0x9 PUSH1 0x20 MSTORE PUSH2 0x290C DUP2 PUSH1 0x5 PUSH1 0x40 PUSH1 0x0 KECCAK256 ADD SWAP1 PUSH1 0xFF DUP1 NOT DUP4 SLOAD AND SWAP2 ISZERO ISZERO AND OR SWAP1 SSTORE JUMP JUMPDEST DUP3 PUSH1 0x0 MSTORE PUSH1 0x9 PUSH1 0x20 MSTORE PUSH1 0x6 PUSH1 0x40 PUSH1 0x0 KECCAK256 ADD PUSH1 0x1 PUSH1 0x1 PUSH1 0x40 SHL SUB DUP4 GT PUSH2 0x73C JUMPI PUSH2 0x293F DUP4 PUSH2 0x2939 DUP4 SLOAD PUSH2 0x2F0F JUMP JUMPDEST DUP4 PUSH2 0x3336 JUMP JUMPDEST PUSH1 0x0 PUSH1 0x1F DUP5 GT PUSH1 0x1 EQ PUSH2 0x29C3 JUMPI SWAP5 PUSH2 0x29B3 SWAP2 PUSH2 0x2995 DUP6 DUP1 PUSH32 0x98E3861FADAE44426BB5E7CF935F71A3A8910E85895FDC86FF0366E562A05CBB SWAP9 SWAP10 PUSH1 0x0 SWAP2 PUSH2 0x29B8 JUMPI JUMPDEST POP DUP2 PUSH1 0x1 SHL SWAP2 PUSH1 0x0 NOT SWAP1 PUSH1 0x3 SHL SHR NOT AND OR SWAP1 JUMP JUMPDEST SWAP1 SSTORE JUMPDEST PUSH1 0x40 MLOAD SWAP4 DUP5 SWAP4 ISZERO ISZERO DUP5 MSTORE PUSH1 0x40 PUSH1 0x20 DUP6 ADD MSTORE PUSH1 0x40 DUP5 ADD SWAP2 PUSH2 0x3388 JUMP JUMPDEST SUB SWAP1 LOG2 STOP JUMPDEST SWAP1 POP DUP5 ADD CALLDATALOAD DUP11 PUSH2 0x2981 JUMP JUMPDEST DUP2 DUP2 MSTORE PUSH1 0x20 DUP2 KECCAK256 SWAP1 PUSH1 0x1F NOT DUP6 AND DUP2 JUMPDEST DUP2 DUP2 LT PUSH2 0x2A34 JUMPI POP SWAP2 PUSH2 0x29B3 SWAP4 SWAP2 DUP7 PUSH32 0x98E3861FADAE44426BB5E7CF935F71A3A8910E85895FDC86FF0366E562A05CBB SWAP9 SWAP10 SWAP5 LT PUSH2 0x2A1A JUMPI JUMPDEST POP POP PUSH1 0x1 DUP6 DUP2 SHL ADD SWAP1 SSTORE PUSH2 0x2998 JUMP JUMPDEST DUP4 ADD CALLDATALOAD PUSH1 0x0 NOT PUSH1 0x3 DUP9 SWAP1 SHL PUSH1 0xF8 AND SHR NOT AND SWAP1 SSTORE DUP8 DUP1 PUSH2 0x2A0B JUMP JUMPDEST SWAP2 SWAP3 PUSH1 0x20 PUSH1 0x1 DUP2 SWAP3 DUP7 DUP13 ADD CALLDATALOAD DUP2 SSTORE ADD SWAP5 ADD SWAP3 ADD PUSH2 0x29D2 JUMP JUMPDEST CALLVALUE PUSH2 0x20F JUMPI PUSH1 0x40 CALLDATASIZE PUSH1 0x3 NOT ADD SLT PUSH2 0x20F JUMPI PUSH2 0x2A65 PUSH2 0x2EF9 JUMP JUMPDEST CALLER PUSH1 0x1 PUSH1 0x1 PUSH1 0xA0 SHL SUB DUP3 AND SUB PUSH2 0x2A81 JUMPI PUSH2 0x53A SWAP1 PUSH1 0x4 CALLDATALOAD PUSH2 0x3B28 JUMP JUMPDEST PUSH4 0x334BD919 PUSH1 0xE1 SHL PUSH1 0x0 MSTORE PUSH1 0x4 PUSH1 0x0 REVERT JUMPDEST CALLVALUE PUSH2 0x20F JUMPI PUSH1 0x40 CALLDATASIZE PUSH1 0x3 NOT ADD SLT PUSH2 0x20F JUMPI PUSH2 0x53A PUSH1 0x4 CALLDATALOAD PUSH2 0x2AB1 PUSH2 0x2EF9 JUMP JUMPDEST SWAP1 PUSH2 0x2ACD PUSH2 0x530 DUP3 PUSH1 0x0 MSTORE PUSH1 0x7 PUSH1 0x20 MSTORE PUSH1 0x1 PUSH1 0x40 PUSH1 0x0 KECCAK256 ADD SLOAD SWAP1 JUMP JUMPDEST PUSH2 0x3A99 JUMP JUMPDEST CALLVALUE PUSH2 0x20F JUMPI PUSH1 0x20 CALLDATASIZE PUSH1 0x3 NOT ADD SLT PUSH2 0x20F JUMPI PUSH1 0x20 PUSH2 0x2AFF PUSH1 0x4 CALLDATALOAD PUSH1 0x0 MSTORE PUSH1 0x7 PUSH1 0x20 MSTORE PUSH1 0x1 PUSH1 0x40 PUSH1 0x0 KECCAK256 ADD SLOAD SWAP1 JUMP JUMPDEST PUSH1 0x40 MLOAD SWAP1 DUP2 MSTORE RETURN JUMPDEST CALLVALUE PUSH2 0x20F JUMPI PUSH2 0x53A PUSH2 0x2B18 CALLDATASIZE PUSH2 0x302A JUMP JUMPDEST SWAP2 PUSH2 0x3147 JUMP JUMPDEST CALLVALUE PUSH2 0x20F JUMPI PUSH1 0x20 CALLDATASIZE PUSH1 0x3 NOT ADD SLT PUSH2 0x20F JUMPI PUSH1 0x4 CALLDATALOAD PUSH1 0x0 MSTORE PUSH1 0x9 PUSH1 0x20 MSTORE PUSH1 0x40 PUSH1 0x0 KECCAK256 PUSH2 0x2B48 DUP2 PUSH2 0x2F86 JUMP JUMPDEST PUSH2 0x2B54 PUSH1 0x1 DUP4 ADD PUSH2 0x2F86 JUMP JUMPDEST PUSH1 0x2 DUP4 ADD SLOAD SWAP1 SWAP3 PUSH2 0x2B67 PUSH1 0x3 DUP3 ADD PUSH2 0x2F86 JUMP JUMPDEST PUSH1 0x4 DUP3 ADD SLOAD PUSH1 0x5 DUP4 ADD SLOAD PUSH1 0xFF AND SWAP1 PUSH2 0x2B81 PUSH1 0x6 DUP6 ADD PUSH2 0x2F86 JUMP JUMPDEST SWAP2 PUSH1 0x7 DUP6 ADD SLOAD SWAP4 PUSH1 0x8 DUP7 ADD PUSH2 0x2B95 SWAP1 PUSH2 0x2F86 JUMP JUMPDEST SWAP6 PUSH1 0x9 ADD PUSH2 0x2BA2 SWAP1 PUSH2 0x2F86 JUMP JUMPDEST SWAP7 PUSH1 0x40 MLOAD SWAP10 DUP11 SWAP10 PUSH2 0x140 DUP12 MSTORE PUSH2 0x140 DUP12 ADD PUSH2 0x2BBC SWAP2 PUSH2 0x2EBE JUMP JUMPDEST DUP11 DUP2 SUB PUSH1 0x20 DUP13 ADD MSTORE PUSH2 0x2BCD SWAP2 PUSH2 0x2EBE JUMP JUMPDEST SWAP1 PUSH1 0x40 DUP11 ADD MSTORE DUP9 DUP2 SUB PUSH1 0x60 DUP11 ADD MSTORE PUSH2 0x2BE4 SWAP2 PUSH2 0x2EBE JUMP JUMPDEST SWAP2 PUSH1 0x80 DUP9 ADD MSTORE ISZERO ISZERO PUSH1 0xA0 DUP8 ADD MSTORE DUP6 DUP2 SUB PUSH1 0xC0 DUP8 ADD MSTORE PUSH2 0x2C02 SWAP2 PUSH2 0x2EBE JUMP JUMPDEST SWAP1 PUSH1 0xE0 DUP6 ADD MSTORE DUP4 DUP2 SUB PUSH2 0x100 DUP6 ADD MSTORE PUSH2 0x2C1A SWAP2 PUSH2 0x2EBE JUMP JUMPDEST DUP3 DUP2 SUB PUSH2 0x120 DUP5 ADD MSTORE PUSH2 0x20B SWAP2 PUSH2 0x2EBE JUMP JUMPDEST CALLVALUE PUSH2 0x20F JUMPI PUSH1 0x0 CALLDATASIZE PUSH1 0x3 NOT ADD SLT PUSH2 0x20F JUMPI PUSH1 0x20 PUSH1 0x40 MLOAD PUSH3 0x989680 DUP2 MSTORE RETURN JUMPDEST CALLVALUE PUSH2 0x20F JUMPI PUSH1 0x40 CALLDATASIZE PUSH1 0x3 NOT ADD SLT PUSH2 0x20F JUMPI PUSH2 0x2C63 PUSH2 0x2EE3 JUMP JUMPDEST PUSH1 0x24 CALLDATALOAD PUSH2 0x2C6F DUP2 PUSH2 0x38E5 JUMP JUMPDEST CALLER ISZERO ISZERO DUP1 PUSH2 0x2D26 JUMPI JUMPDEST DUP1 PUSH2 0x2CF8 JUMPI JUMPDEST PUSH2 0x2CE3 JUMPI DUP2 SWAP1 PUSH1 0x1 PUSH1 0x1 PUSH1 0xA0 SHL SUB DUP5 DUP2 AND SWAP2 AND PUSH32 0x8C5BE1E5EBEC7D5BD14F71427D1E84F3DD0314C0F7B2291E5B200AC8C7C3B925 PUSH1 0x0 DUP1 LOG4 PUSH1 0x0 SWAP1 DUP2 MSTORE PUSH1 0x4 PUSH1 0x20 MSTORE PUSH1 0x40 SWAP1 KECCAK256 DUP1 SLOAD PUSH1 0x1 PUSH1 0x1 PUSH1 0xA0 SHL SUB NOT AND PUSH1 0x1 PUSH1 0x1 PUSH1 0xA0 SHL SUB SWAP1 SWAP3 AND SWAP2 SWAP1 SWAP2 OR SWAP1 SSTORE STOP JUMPDEST PUSH4 0xA9FBF51F PUSH1 0xE0 SHL PUSH1 0x0 MSTORE CALLER PUSH1 0x4 MSTORE PUSH1 0x24 PUSH1 0x0 REVERT JUMPDEST POP PUSH1 0x1 PUSH1 0x1 PUSH1 0xA0 SHL SUB DUP2 AND PUSH1 0x0 SWAP1 DUP2 MSTORE PUSH1 0x5 PUSH1 0x20 SWAP1 DUP2 MSTORE PUSH1 0x40 DUP1 DUP4 KECCAK256 CALLER DUP5 MSTORE SWAP1 SWAP2 MSTORE SWAP1 KECCAK256 SLOAD PUSH1 0xFF AND ISZERO PUSH2 0x2C7E JUMP JUMPDEST POP PUSH1 0x1 PUSH1 0x1 PUSH1 0xA0 SHL SUB DUP2 AND CALLER EQ ISZERO PUSH2 0x2C78 JUMP JUMPDEST CALLVALUE PUSH2 0x20F JUMPI PUSH1 0x20 CALLDATASIZE PUSH1 0x3 NOT ADD SLT PUSH2 0x20F JUMPI PUSH1 0x20 PUSH2 0x280F PUSH1 0x4 CALLDATALOAD PUSH2 0x3122 JUMP JUMPDEST CALLVALUE PUSH2 0x20F JUMPI PUSH1 0x0 CALLDATASIZE PUSH1 0x3 NOT ADD SLT PUSH2 0x20F JUMPI PUSH1 0x40 MLOAD PUSH1 0x0 DUP1 SLOAD PUSH2 0x2D78 DUP2 PUSH2 0x2F0F JUMP JUMPDEST DUP1 DUP5 MSTORE SWAP1 PUSH1 0x1 DUP2 AND SWAP1 DUP2 ISZERO PUSH2 0xC91 JUMPI POP PUSH1 0x1 EQ PUSH2 0x2D9F JUMPI PUSH2 0x20B DUP4 PUSH2 0x1F7 DUP2 DUP6 SUB DUP3 PUSH2 0x2F65 JUMP JUMPDEST PUSH1 0x0 DUP1 DUP1 MSTORE PUSH32 0x290DECD9548B62A8D60345A988386FC84BA6BC95484008F6362F93160EF3E563 SWAP4 SWAP3 POP SWAP1 JUMPDEST DUP1 DUP3 LT PUSH2 0x2DE2 JUMPI POP SWAP1 SWAP2 POP DUP2 ADD PUSH1 0x20 ADD PUSH2 0x1F7 PUSH2 0xC22 JUMP JUMPDEST SWAP2 SWAP3 PUSH1 0x1 DUP2 PUSH1 0x20 SWAP3 SLOAD DUP4 DUP6 DUP9 ADD ADD MSTORE ADD SWAP2 ADD SWAP1 SWAP3 SWAP2 PUSH2 0x2DCA JUMP JUMPDEST CALLVALUE PUSH2 0x20F JUMPI PUSH1 0x20 CALLDATASIZE PUSH1 0x3 NOT ADD SLT PUSH2 0x20F JUMPI PUSH1 0x4 CALLDATALOAD SWAP1 PUSH4 0xFFFFFFFF PUSH1 0xE0 SHL DUP3 AND DUP1 SWAP3 SUB PUSH2 0x20F JUMPI PUSH1 0x20 SWAP2 PUSH4 0x7965DB0B PUSH1 0xE0 SHL DUP2 EQ SWAP1 DUP2 ISZERO PUSH2 0x2E3E JUMPI JUMPDEST POP ISZERO ISZERO DUP2 MSTORE RETURN JUMPDEST PUSH4 0x24832483 PUSH1 0xE1 SHL DUP2 EQ SWAP2 POP DUP2 ISZERO PUSH2 0x2E58 JUMPI JUMPDEST POP DUP4 PUSH2 0x2E37 JUMP JUMPDEST PUSH4 0x80AC58CD PUSH1 0xE0 SHL DUP2 EQ SWAP2 POP DUP2 ISZERO PUSH2 0x2E8A JUMPI JUMPDEST DUP2 ISZERO PUSH2 0x2E79 JUMPI JUMPDEST POP DUP4 PUSH2 0x2E51 JUMP JUMPDEST PUSH4 0x1FFC9A7 PUSH1 0xE0 SHL EQ SWAP1 POP DUP4 PUSH2 0x2E72 JUMP JUMPDEST PUSH4 0x5B5E139F PUSH1 0xE0 SHL DUP2 EQ SWAP2 POP PUSH2 0x2E6B JUMP JUMPDEST PUSH1 0x0 JUMPDEST DUP4 DUP2 LT PUSH2 0x2EAE JUMPI POP POP PUSH1 0x0 SWAP2 ADD MSTORE JUMP JUMPDEST DUP2 DUP2 ADD MLOAD DUP4 DUP3 ADD MSTORE PUSH1 0x20 ADD PUSH2 0x2E9E JUMP JUMPDEST SWAP1 PUSH1 0x20 SWAP2 PUSH2 0x2ED7 DUP2 MLOAD DUP1 SWAP3 DUP2 DUP6 MSTORE DUP6 DUP1 DUP7 ADD SWAP2 ADD PUSH2 0x2E9B JUMP JUMPDEST PUSH1 0x1F ADD PUSH1 0x1F NOT AND ADD ADD SWAP1 JUMP JUMPDEST PUSH1 0x4 CALLDATALOAD SWAP1 PUSH1 0x1 PUSH1 0x1 PUSH1 0xA0 SHL SUB DUP3 AND DUP3 SUB PUSH2 0x20F JUMPI JUMP JUMPDEST PUSH1 0x24 CALLDATALOAD SWAP1 PUSH1 0x1 PUSH1 0x1 PUSH1 0xA0 SHL SUB DUP3 AND DUP3 SUB PUSH2 0x20F JUMPI JUMP JUMPDEST SWAP1 PUSH1 0x1 DUP3 DUP2 SHR SWAP3 AND DUP1 ISZERO PUSH2 0x2F3F JUMPI JUMPDEST PUSH1 0x20 DUP4 LT EQ PUSH2 0x2F29 JUMPI JUMP JUMPDEST PUSH4 0x4E487B71 PUSH1 0xE0 SHL PUSH1 0x0 MSTORE PUSH1 0x22 PUSH1 0x4 MSTORE PUSH1 0x24 PUSH1 0x0 REVERT JUMPDEST SWAP2 PUSH1 0x7F AND SWAP2 PUSH2 0x2F1E JUMP JUMPDEST PUSH2 0x140 DUP2 ADD SWAP1 DUP2 LT PUSH1 0x1 PUSH1 0x1 PUSH1 0x40 SHL SUB DUP3 GT OR PUSH2 0x73C JUMPI PUSH1 0x40 MSTORE JUMP JUMPDEST SWAP1 PUSH1 0x1F DUP1 NOT SWAP2 ADD AND DUP2 ADD SWAP1 DUP2 LT PUSH1 0x1 PUSH1 0x1 PUSH1 0x40 SHL SUB DUP3 GT OR PUSH2 0x73C JUMPI PUSH1 0x40 MSTORE JUMP JUMPDEST SWAP1 PUSH1 0x40 MLOAD SWAP2 DUP3 PUSH1 0x0 DUP3 SLOAD SWAP3 PUSH2 0x2F9A DUP5 PUSH2 0x2F0F JUMP JUMPDEST DUP1 DUP5 MSTORE SWAP4 PUSH1 0x1 DUP2 AND SWAP1 DUP2 ISZERO PUSH2 0x3008 JUMPI POP PUSH1 0x1 EQ PUSH2 0x2FC1 JUMPI JUMPDEST POP PUSH2 0x2FBF SWAP3 POP SUB DUP4 PUSH2 0x2F65 JUMP JUMPDEST JUMP JUMPDEST SWAP1 POP PUSH1 0x0 SWAP3 SWAP2 SWAP3 MSTORE PUSH1 0x20 PUSH1 0x0 KECCAK256 SWAP1 PUSH1 0x0 SWAP2 JUMPDEST DUP2 DUP4 LT PUSH2 0x2FEC JUMPI POP POP SWAP1 PUSH1 0x20 PUSH2 0x2FBF SWAP3 DUP3 ADD ADD CODESIZE PUSH2 0x2FB2 JUMP JUMPDEST PUSH1 0x20 SWAP2 SWAP4 POP DUP1 PUSH1 0x1 SWAP2 SLOAD DUP4 DUP6 DUP10 ADD ADD MSTORE ADD SWAP2 ADD SWAP1 SWAP2 DUP5 SWAP3 PUSH2 0x2FD3 JUMP JUMPDEST SWAP1 POP PUSH1 0x20 SWAP3 POP PUSH2 0x2FBF SWAP5 SWAP2 POP PUSH1 0xFF NOT AND DUP3 DUP5 ADD MSTORE ISZERO ISZERO PUSH1 0x5 SHL DUP3 ADD ADD CODESIZE PUSH2 0x2FB2 JUMP JUMPDEST PUSH1 0x60 SWAP1 PUSH1 0x3 NOT ADD SLT PUSH2 0x20F JUMPI PUSH1 0x4 CALLDATALOAD PUSH1 0x1 PUSH1 0x1 PUSH1 0xA0 SHL SUB DUP2 AND DUP2 SUB PUSH2 0x20F JUMPI SWAP1 PUSH1 0x24 CALLDATALOAD PUSH1 0x1 PUSH1 0x1 PUSH1 0xA0 SHL SUB DUP2 AND DUP2 SUB PUSH2 0x20F JUMPI SWAP1 PUSH1 0x44 CALLDATALOAD SWAP1 JUMP JUMPDEST PUSH1 0x24 CALLDATALOAD SWAP1 DUP2 ISZERO ISZERO DUP3 SUB PUSH2 0x20F JUMPI JUMP JUMPDEST SWAP2 DUP2 PUSH1 0x1F DUP5 ADD SLT ISZERO PUSH2 0x20F JUMPI DUP3 CALLDATALOAD SWAP2 PUSH1 0x1 PUSH1 0x1 PUSH1 0x40 SHL SUB DUP4 GT PUSH2 0x20F JUMPI PUSH1 0x20 DUP4 DUP2 DUP7 ADD SWAP6 ADD ADD GT PUSH2 0x20F JUMPI JUMP JUMPDEST SWAP2 DUP2 PUSH1 0x1F DUP5 ADD SLT ISZERO PUSH2 0x20F JUMPI DUP3 CALLDATALOAD SWAP2 PUSH1 0x1 PUSH1 0x1 PUSH1 0x40 SHL SUB DUP4 GT PUSH2 0x20F JUMPI PUSH1 0x20 DUP1 DUP6 ADD SWAP5 DUP5 PUSH1 0x5 SHL ADD ADD GT PUSH2 0x20F JUMPI JUMP JUMPDEST PUSH1 0x1 PUSH1 0x1 PUSH1 0x40 SHL SUB DUP2 GT PUSH2 0x73C JUMPI PUSH1 0x1F ADD PUSH1 0x1F NOT AND PUSH1 0x20 ADD SWAP1 JUMP JUMPDEST SWAP3 SWAP2 SWAP3 PUSH2 0x30F7 DUP3 PUSH2 0x30D0 JUMP JUMPDEST SWAP2 PUSH2 0x3105 PUSH1 0x40 MLOAD SWAP4 DUP5 PUSH2 0x2F65 JUMP JUMPDEST DUP3 SWAP5 DUP2 DUP5 MSTORE DUP2 DUP4 ADD GT PUSH2 0x20F JUMPI DUP3 DUP2 PUSH1 0x20 SWAP4 DUP5 PUSH1 0x0 SWAP7 ADD CALLDATACOPY ADD ADD MSTORE JUMP JUMPDEST PUSH2 0x312B DUP2 PUSH2 0x38E5 JUMP JUMPDEST POP PUSH1 0x0 SWAP1 DUP2 MSTORE PUSH1 0x4 PUSH1 0x20 MSTORE PUSH1 0x40 SWAP1 KECCAK256 SLOAD PUSH1 0x1 PUSH1 0x1 PUSH1 0xA0 SHL SUB AND SWAP1 JUMP JUMPDEST PUSH1 0x1 PUSH1 0x1 PUSH1 0xA0 SHL SUB SWAP1 SWAP2 AND SWAP2 SWAP1 DUP3 ISZERO PUSH2 0x32DD JUMPI PUSH1 0x0 DUP3 DUP2 MSTORE PUSH1 0x2 PUSH1 0x20 MSTORE PUSH1 0x40 DUP2 KECCAK256 SLOAD PUSH1 0x1 PUSH1 0x1 PUSH1 0xA0 SHL SUB AND SWAP4 DUP4 SWAP2 DUP6 SWAP1 CALLER ISZERO ISZERO DUP1 PUSH2 0x3245 JUMPI JUMPDEST POP PUSH32 0xDDF252AD1BE2C89B69C2B068FC378DAA952BA7F163C4A11628F55A4DF523B3EF SWAP1 DUP3 PUSH2 0x3210 JUMPI JUMPDEST DUP4 DUP2 MSTORE PUSH1 0x3 PUSH1 0x20 MSTORE PUSH1 0x40 DUP2 KECCAK256 PUSH1 0x1 DUP2 SLOAD ADD SWAP1 SSTORE DUP5 DUP2 MSTORE PUSH1 0x2 PUSH1 0x20 MSTORE PUSH1 0x40 DUP2 KECCAK256 DUP5 PUSH12 0xFFFFFFFFFFFFFFFFFFFFFFFF PUSH1 0xA0 SHL DUP3 SLOAD AND OR SWAP1 SSTORE DUP1 LOG4 PUSH1 0x1 PUSH1 0x1 PUSH1 0xA0 SHL SUB AND DUP1 DUP4 SUB PUSH2 0x31F6 JUMPI POP POP POP JUMP JUMPDEST PUSH4 0x64283D7B PUSH1 0xE0 SHL PUSH1 0x0 MSTORE PUSH1 0x4 MSTORE PUSH1 0x24 MSTORE PUSH1 0x44 MSTORE PUSH1 0x64 PUSH1 0x0 REVERT JUMPDEST PUSH1 0x0 DUP6 DUP2 MSTORE PUSH1 0x4 PUSH1 0x20 MSTORE PUSH1 0x40 SWAP1 KECCAK256 DUP1 SLOAD PUSH1 0x1 PUSH1 0x1 PUSH1 0xA0 SHL SUB NOT AND SWAP1 SSTORE DUP3 DUP2 MSTORE PUSH1 0x3 PUSH1 0x20 MSTORE PUSH1 0x40 DUP2 KECCAK256 DUP1 SLOAD PUSH1 0x0 NOT ADD SWAP1 SSTORE PUSH2 0x31A9 JUMP JUMPDEST SWAP2 POP SWAP2 SWAP3 POP DUP1 PUSH2 0x328E JUMPI JUMPDEST ISZERO PUSH2 0x325F JUMPI SWAP1 DUP5 DUP5 SWAP3 CODESIZE PUSH2 0x3180 JUMP JUMPDEST DUP4 SWAP1 DUP6 PUSH2 0x3278 JUMPI PUSH1 0x24 SWAP2 PUSH4 0x7E273289 PUSH1 0xE0 SHL DUP3 MSTORE PUSH1 0x4 MSTORE REVERT JUMPDEST PUSH1 0x44 SWAP2 PUSH4 0x177E802F PUSH1 0xE0 SHL DUP3 MSTORE CALLER PUSH1 0x4 MSTORE PUSH1 0x24 MSTORE REVERT JUMPDEST POP CALLER DUP6 EQ DUP1 ISZERO PUSH2 0x32BC JUMPI JUMPDEST DUP1 PUSH2 0x3250 JUMPI POP DUP4 DUP2 MSTORE PUSH1 0x4 PUSH1 0x20 MSTORE PUSH1 0x40 DUP2 KECCAK256 SLOAD PUSH1 0x1 PUSH1 0x1 PUSH1 0xA0 SHL SUB AND CALLER EQ PUSH2 0x3250 JUMP JUMPDEST POP DUP5 DUP2 MSTORE PUSH1 0x5 PUSH1 0x20 SWAP1 DUP2 MSTORE PUSH1 0x40 DUP1 DUP4 KECCAK256 CALLER DUP5 MSTORE SWAP1 SWAP2 MSTORE DUP2 KECCAK256 SLOAD PUSH1 0xFF AND PUSH2 0x3299 JUMP JUMPDEST PUSH4 0x32505749 PUSH1 0xE1 SHL PUSH1 0x0 MSTORE PUSH1 0x0 PUSH1 0x4 MSTORE PUSH1 0x24 PUSH1 0x0 REVERT JUMPDEST ISZERO PUSH2 0x32FA JUMPI JUMP JUMPDEST PUSH1 0x40 MLOAD PUSH3 0x461BCD PUSH1 0xE5 SHL DUP2 MSTORE PUSH1 0x20 PUSH1 0x4 DUP3 ADD MSTORE PUSH1 0x14 PUSH1 0x24 DUP3 ADD MSTORE PUSH20 0x151BDAD95B88191BD95CC81B9BDD08195E1A5CDD PUSH1 0x62 SHL PUSH1 0x44 DUP3 ADD MSTORE PUSH1 0x64 SWAP1 REVERT JUMPDEST PUSH1 0x1F DUP3 GT PUSH2 0x3343 JUMPI POP POP POP JUMP JUMPDEST PUSH1 0x0 MSTORE PUSH1 0x20 PUSH1 0x0 KECCAK256 SWAP1 PUSH1 0x20 PUSH1 0x1F DUP5 ADD PUSH1 0x5 SHR DUP4 ADD SWAP4 LT PUSH2 0x337E JUMPI JUMPDEST PUSH1 0x1F ADD PUSH1 0x5 SHR ADD SWAP1 JUMPDEST DUP2 DUP2 LT PUSH2 0x3372 JUMPI POP POP JUMP JUMPDEST PUSH1 0x0 DUP2 SSTORE PUSH1 0x1 ADD PUSH2 0x3367 JUMP JUMPDEST SWAP1 SWAP2 POP DUP2 SWAP1 PUSH2 0x335E JUMP JUMPDEST SWAP1 DUP1 PUSH1 0x20 SWAP4 SWAP3 DUP2 DUP5 MSTORE DUP5 DUP5 ADD CALLDATACOPY PUSH1 0x0 DUP3 DUP3 ADD DUP5 ADD MSTORE PUSH1 0x1F ADD PUSH1 0x1F NOT AND ADD ADD SWAP1 JUMP JUMPDEST ISZERO PUSH2 0x33B0 JUMPI JUMP JUMPDEST PUSH1 0x40 MLOAD PUSH3 0x461BCD PUSH1 0xE5 SHL DUP2 MSTORE PUSH1 0x20 PUSH1 0x4 DUP3 ADD MSTORE PUSH1 0xB PUSH1 0x24 DUP3 ADD MSTORE PUSH11 0x8ADAE0E8F240C4C2E8C6D PUSH1 0xAB SHL PUSH1 0x44 DUP3 ADD MSTORE PUSH1 0x64 SWAP1 REVERT JUMPDEST PUSH1 0x1 PUSH1 0x1 PUSH1 0x40 SHL SUB DUP2 GT PUSH2 0x73C JUMPI PUSH1 0x5 SHL PUSH1 0x20 ADD SWAP1 JUMP JUMPDEST SWAP2 SWAP1 DUP2 LT ISZERO PUSH2 0x21CD JUMPI PUSH1 0x5 SHL DUP2 ADD CALLDATALOAD SWAP1 PUSH1 0xDE NOT DUP2 CALLDATASIZE SUB ADD DUP3 SLT ISZERO PUSH2 0x20F JUMPI ADD SWAP1 JUMP JUMPDEST CALLDATALOAD PUSH1 0x1 PUSH1 0x1 PUSH1 0xA0 SHL SUB DUP2 AND DUP2 SUB PUSH2 0x20F JUMPI SWAP1 JUMP JUMPDEST SWAP1 CALLDATALOAD SWAP1 PUSH1 0x1E NOT DUP2 CALLDATASIZE SUB ADD DUP3 SLT ISZERO PUSH2 0x20F JUMPI ADD DUP1 CALLDATALOAD SWAP1 PUSH1 0x1 PUSH1 0x1 PUSH1 0x40 SHL SUB DUP3 GT PUSH2 0x20F JUMPI PUSH1 0x20 ADD SWAP2 DUP2 CALLDATASIZE SUB DUP4 SGT PUSH2 0x20F JUMPI JUMP JUMPDEST ISZERO PUSH2 0x3469 JUMPI JUMP JUMPDEST PUSH1 0x40 MLOAD PUSH3 0x461BCD PUSH1 0xE5 SHL DUP2 MSTORE PUSH1 0x20 PUSH1 0x4 DUP3 ADD MSTORE PUSH1 0x1D PUSH1 0x24 DUP3 ADD MSTORE PUSH32 0x4D61726B65742076616C7565206D75737420626520706F736974697665000000 PUSH1 0x44 DUP3 ADD MSTORE PUSH1 0x64 SWAP1 REVERT JUMPDEST PUSH1 0x0 NOT DUP2 EQ PUSH2 0x34BD JUMPI PUSH1 0x1 ADD SWAP1 JUMP JUMPDEST PUSH4 0x4E487B71 PUSH1 0xE0 SHL PUSH1 0x0 MSTORE PUSH1 0x11 PUSH1 0x4 MSTORE PUSH1 0x24 PUSH1 0x0 REVERT JUMPDEST PUSH1 0x0 SWAP3 SWAP2 DUP2 SLOAD SWAP2 PUSH2 0x34E3 DUP4 PUSH2 0x2F0F JUMP JUMPDEST SWAP3 PUSH1 0x1 DUP2 AND SWAP1 DUP2 ISZERO PUSH2 0x352E JUMPI POP PUSH1 0x1 EQ PUSH2 0x34FC JUMPI POP POP POP JUMP JUMPDEST SWAP1 SWAP2 SWAP3 SWAP4 POP PUSH1 0x0 MSTORE PUSH1 0x20 PUSH1 0x0 KECCAK256 PUSH1 0x0 SWAP1 JUMPDEST DUP4 DUP3 LT PUSH2 0x351A JUMPI POP POP ADD SWAP1 JUMP JUMPDEST PUSH1 0x1 DUP2 PUSH1 0x20 SWAP3 SLOAD DUP5 DUP7 ADD MSTORE ADD SWAP2 ADD SWAP1 PUSH2 0x350D JUMP JUMPDEST PUSH1 0xFF NOT AND DUP4 MSTORE POP POP DUP2 ISZERO ISZERO SWAP1 SWAP2 MUL ADD SWAP2 POP JUMP JUMPDEST DUP3 PUSH1 0x0 MSTORE PUSH1 0x9 PUSH1 0x20 MSTORE PUSH1 0xFF PUSH1 0x5 PUSH1 0x40 PUSH1 0x0 KECCAK256 ADD SLOAD AND PUSH2 0x3818 JUMPI PUSH2 0x3563 DUP4 PUSH2 0x38E5 JUMP JUMPDEST PUSH1 0x1 PUSH1 0x1 PUSH1 0xA0 SHL SUB AND CALLER EQ DUP1 ISZERO PUSH2 0x37FE JUMPI JUMPDEST ISZERO PUSH2 0x37C1 JUMPI PUSH1 0x1 PUSH1 0x1 PUSH1 0xA0 SHL SUB DUP3 AND SWAP2 DUP3 ISZERO PUSH2 0x32DD JUMPI PUSH1 0x1 PUSH1 0x1 PUSH1 0xA0 SHL SUB PUSH2 0x359D DUP6 DUP4 PUSH2 0x391C JUMP JUMPDEST AND DUP1 PUSH2 0x35B8 JUMPI DUP5 PUSH4 0x7E273289 PUSH1 0xE0 SHL PUSH1 0x0 MSTORE PUSH1 0x4 MSTORE PUSH1 0x24 PUSH1 0x0 REVERT JUMPDEST PUSH1 0x1 PUSH1 0x1 PUSH1 0xA0 SHL SUB DUP4 AND DUP1 DUP3 SUB PUSH2 0x37A5 JUMPI POP POP PUSH2 0x36AA PUSH1 0x34 PUSH2 0x368F SWAP3 DUP7 PUSH1 0x0 MSTORE PUSH1 0x9 PUSH1 0x20 MSTORE TIMESTAMP PUSH1 0x7 PUSH1 0x40 PUSH1 0x0 KECCAK256 ADD SSTORE PUSH2 0x366A PUSH1 0x5 PUSH2 0x35FE PUSH2 0x35F8 DUP9 PUSH2 0x3C83 JUMP JUMPDEST SWAP4 PUSH2 0x3C83 JUMP JUMPDEST PUSH1 0x40 MLOAD SWAP5 DUP6 SWAP2 PUSH1 0x20 DUP4 ADD SWAP6 PUSH20 0x16102A3930B739B332B93932B210333937B69D1 PUSH1 0x65 SHL DUP8 MSTORE PUSH2 0x3636 DUP2 MLOAD DUP1 SWAP3 PUSH1 0x20 DUP7 DUP9 ADD SWAP2 ADD PUSH2 0x2E9B JUMP JUMPDEST DUP4 ADD PUSH5 0x103A379D1 PUSH1 0xDD SHL DUP4 DUP3 ADD MSTORE PUSH2 0x3659 DUP3 MLOAD DUP1 SWAP4 PUSH1 0x20 PUSH1 0x39 DUP6 ADD SWAP2 ADD PUSH2 0x2E9B JUMP JUMPDEST ADD ADD SUB ADD PUSH1 0x1F NOT DUP2 ADD DUP5 MSTORE DUP4 PUSH2 0x2F65 JUMP JUMPDEST DUP7 PUSH1 0x0 MSTORE PUSH1 0x9 PUSH1 0x20 MSTORE PUSH1 0x8 PUSH1 0x40 PUSH1 0x0 KECCAK256 ADD SWAP2 PUSH2 0x369B PUSH1 0x40 MLOAD SWAP6 DUP7 SWAP5 PUSH1 0x20 DUP7 ADD SWAP1 PUSH2 0x34D3 JUMP JUMPDEST SWAP3 DUP4 SWAP3 MLOAD SWAP4 DUP5 SWAP2 PUSH2 0x2E9B JUMP JUMPDEST ADD SUB PUSH1 0x1F NOT DUP2 ADD DUP4 MSTORE DUP3 PUSH2 0x2F65 JUMP JUMPDEST DUP4 PUSH1 0x0 MSTORE PUSH1 0x9 PUSH1 0x20 MSTORE PUSH1 0x8 PUSH1 0x40 PUSH1 0x0 KECCAK256 ADD SWAP1 DUP1 MLOAD SWAP1 PUSH1 0x1 PUSH1 0x1 PUSH1 0x40 SHL SUB DUP3 GT PUSH2 0x73C JUMPI PUSH2 0x36DB DUP3 PUSH2 0x653 DUP6 SLOAD PUSH2 0x2F0F JUMP JUMPDEST PUSH1 0x20 SWAP1 PUSH1 0x1F DUP4 GT PUSH1 0x1 EQ PUSH2 0x373E JUMPI PUSH2 0x370B SWAP3 SWAP2 PUSH1 0x0 SWAP2 DUP4 PUSH2 0x174A JUMPI POP POP DUP2 PUSH1 0x1 SHL SWAP2 PUSH1 0x0 NOT SWAP1 PUSH1 0x3 SHL SHR NOT AND OR SWAP1 JUMP JUMPDEST SWAP1 SSTORE JUMPDEST PUSH1 0x1 PUSH1 0x1 PUSH1 0xA0 SHL SUB AND PUSH32 0x268AE1851D13F9CD87A82EE6FC73474B3694D779B7BF6F66D86FD346F09511ED PUSH1 0x0 DUP1 LOG4 JUMP JUMPDEST SWAP1 PUSH1 0x1F NOT DUP4 AND SWAP2 DUP5 PUSH1 0x0 MSTORE DUP2 PUSH1 0x0 KECCAK256 SWAP3 PUSH1 0x0 JUMPDEST DUP2 DUP2 LT PUSH2 0x378D JUMPI POP SWAP1 DUP5 PUSH1 0x1 SWAP6 SWAP5 SWAP4 SWAP3 LT PUSH2 0x3774 JUMPI JUMPDEST POP POP POP DUP2 SHL ADD SWAP1 SSTORE PUSH2 0x370E JUMP JUMPDEST ADD MLOAD PUSH1 0x0 NOT PUSH1 0xF8 DUP5 PUSH1 0x3 SHL AND SHR NOT AND SWAP1 SSTORE CODESIZE DUP1 DUP1 PUSH2 0x3767 JUMP JUMPDEST SWAP3 SWAP4 PUSH1 0x20 PUSH1 0x1 DUP2 SWAP3 DUP8 DUP7 ADD MLOAD DUP2 SSTORE ADD SWAP6 ADD SWAP4 ADD PUSH2 0x3751 JUMP JUMPDEST DUP6 SWAP1 PUSH4 0x64283D7B PUSH1 0xE0 SHL PUSH1 0x0 MSTORE PUSH1 0x4 MSTORE PUSH1 0x24 MSTORE PUSH1 0x44 MSTORE PUSH1 0x64 PUSH1 0x0 REVERT JUMPDEST PUSH1 0x40 MLOAD PUSH3 0x461BCD PUSH1 0xE5 SHL DUP2 MSTORE PUSH1 0x20 PUSH1 0x4 DUP3 ADD MSTORE PUSH1 0x15 PUSH1 0x24 DUP3 ADD MSTORE PUSH21 0x2737BA1030B8383937BB32B21037B91037BBB732B9 PUSH1 0x59 SHL PUSH1 0x44 DUP3 ADD MSTORE PUSH1 0x64 SWAP1 REVERT JUMPDEST POP CALLER PUSH1 0x1 PUSH1 0x1 PUSH1 0xA0 SHL SUB PUSH2 0x3811 DUP6 PUSH2 0x3122 JUMP JUMPDEST AND EQ PUSH2 0x3575 JUMP JUMPDEST PUSH1 0x40 MLOAD PUSH3 0x461BCD PUSH1 0xE5 SHL DUP2 MSTORE PUSH1 0x20 PUSH1 0x4 DUP3 ADD MSTORE PUSH1 0x1A PUSH1 0x24 DUP3 ADD MSTORE PUSH32 0x4C616E642068617320616E206163746976652064697370757465000000000000 PUSH1 0x44 DUP3 ADD MSTORE PUSH1 0x64 SWAP1 REVERT JUMPDEST ISZERO PUSH2 0x3864 JUMPI JUMP JUMPDEST PUSH1 0x40 MLOAD PUSH3 0x461BCD PUSH1 0xE5 SHL DUP2 MSTORE PUSH1 0x20 PUSH1 0x4 DUP3 ADD MSTORE PUSH1 0x16 PUSH1 0x24 DUP3 ADD MSTORE PUSH22 0x82E4E4C2F240D8CADCCEE8D0E640DAD2E6DAC2E8C6D PUSH1 0x53 SHL PUSH1 0x44 DUP3 ADD MSTORE PUSH1 0x64 SWAP1 REVERT JUMPDEST SWAP2 SWAP1 DUP2 LT ISZERO PUSH2 0x21CD JUMPI PUSH1 0x5 SHL ADD SWAP1 JUMP JUMPDEST PUSH2 0x38BB DUP2 PUSH2 0x38E5 JUMP JUMPDEST POP PUSH1 0x0 MSTORE PUSH1 0x6 PUSH1 0x20 MSTORE PUSH2 0x38D1 PUSH1 0x40 PUSH1 0x0 KECCAK256 PUSH2 0x2F86 JUMP JUMPDEST PUSH1 0x0 PUSH1 0x40 MLOAD PUSH2 0x38E1 PUSH1 0x20 DUP3 PUSH2 0x2F65 JUMP JUMPDEST MSTORE SWAP1 JUMP JUMPDEST PUSH1 0x0 DUP2 DUP2 MSTORE PUSH1 0x2 PUSH1 0x20 MSTORE PUSH1 0x40 SWAP1 KECCAK256 SLOAD PUSH1 0x1 PUSH1 0x1 PUSH1 0xA0 SHL SUB AND SWAP1 DUP2 ISZERO PUSH2 0x3908 JUMPI POP SWAP1 JUMP JUMPDEST PUSH4 0x7E273289 PUSH1 0xE0 SHL PUSH1 0x0 MSTORE PUSH1 0x4 MSTORE PUSH1 0x24 PUSH1 0x0 REVERT JUMPDEST PUSH1 0x0 DUP3 DUP2 MSTORE PUSH1 0x2 PUSH1 0x20 MSTORE PUSH1 0x40 SWAP1 KECCAK256 SLOAD PUSH1 0x1 PUSH1 0x1 PUSH1 0xA0 SHL SUB AND SWAP2 SWAP1 DUP3 PUSH2 0x39B3 JUMPI JUMPDEST PUSH1 0x1 PUSH1 0x1 PUSH1 0xA0 SHL SUB AND DUP1 PUSH2 0x3999 JUMPI JUMPDEST DUP2 PUSH1 0x0 MSTORE PUSH1 0x2 PUSH1 0x20 MSTORE PUSH1 0x40 PUSH1 0x0 KECCAK256 DUP2 PUSH12 0xFFFFFFFFFFFFFFFFFFFFFFFF PUSH1 0xA0 SHL DUP3 SLOAD AND OR SWAP1 SSTORE DUP3 PUSH32 0xDDF252AD1BE2C89B69C2B068FC378DAA952BA7F163C4A11628F55A4DF523B3EF PUSH1 0x0 DUP1 LOG4 SWAP1 JUMP JUMPDEST DUP1 PUSH1 0x0 MSTORE PUSH1 0x3 PUSH1 0x20 MSTORE PUSH1 0x40 PUSH1 0x0 KECCAK256 PUSH1 0x1 DUP2 SLOAD ADD SWAP1 SSTORE PUSH2 0x394B JUMP JUMPDEST PUSH1 0x0 DUP3 DUP2 MSTORE PUSH1 0x4 PUSH1 0x20 MSTORE PUSH1 0x40 SWAP1 KECCAK256 DUP1 SLOAD PUSH1 0x1 PUSH1 0x1 PUSH1 0xA0 SHL SUB NOT AND SWAP1 SSTORE DUP3 PUSH1 0x0 MSTORE PUSH1 0x3 PUSH1 0x20 MSTORE PUSH1 0x40 PUSH1 0x0 KECCAK256 PUSH1 0x0 NOT DUP2 SLOAD ADD SWAP1 SSTORE PUSH2 0x393C JUMP JUMPDEST CALLER PUSH1 0x0 SWAP1 DUP2 MSTORE PUSH32 0x2B60F1D89544223E54444A02BCA21C7ECFE977AA3064FC5A5CE775922BE1F017 PUSH1 0x20 MSTORE PUSH1 0x40 SWAP1 KECCAK256 SLOAD PUSH1 0xFF AND ISZERO PUSH2 0x3A23 JUMPI JUMP JUMPDEST PUSH4 0xE2517D3F PUSH1 0xE0 SHL PUSH1 0x0 MSTORE CALLER PUSH1 0x4 MSTORE PUSH32 0xD565E3FC066DF348A5CBC05A8D6323E00552838041CEA2D84CC59876BA37735D PUSH1 0x24 MSTORE PUSH1 0x44 PUSH1 0x0 REVERT JUMPDEST PUSH1 0x0 DUP2 DUP2 MSTORE PUSH1 0x7 PUSH1 0x20 SWAP1 DUP2 MSTORE PUSH1 0x40 DUP1 DUP4 KECCAK256 CALLER DUP5 MSTORE SWAP1 SWAP2 MSTORE SWAP1 KECCAK256 SLOAD PUSH1 0xFF AND ISZERO PUSH2 0x3A81 JUMPI POP JUMP JUMPDEST PUSH4 0xE2517D3F PUSH1 0xE0 SHL PUSH1 0x0 MSTORE CALLER PUSH1 0x4 MSTORE PUSH1 0x24 MSTORE PUSH1 0x44 PUSH1 0x0 REVERT JUMPDEST PUSH1 0x0 DUP2 DUP2 MSTORE PUSH1 0x7 PUSH1 0x20 SWAP1 DUP2 MSTORE PUSH1 0x40 DUP1 DUP4 KECCAK256 PUSH1 0x1 PUSH1 0x1 PUSH1 0xA0 SHL SUB DUP7 AND DUP5 MSTORE SWAP1 SWAP2 MSTORE SWAP1 KECCAK256 SLOAD PUSH1 0xFF AND PUSH2 0x3B21 JUMPI PUSH1 0x0 DUP2 DUP2 MSTORE PUSH1 0x7 PUSH1 0x20 SWAP1 DUP2 MSTORE PUSH1 0x40 DUP1 DUP4 KECCAK256 PUSH1 0x1 PUSH1 0x1 PUSH1 0xA0 SHL SUB SWAP6 SWAP1 SWAP6 AND DUP1 DUP5 MSTORE SWAP5 SWAP1 SWAP2 MSTORE DUP2 KECCAK256 DUP1 SLOAD PUSH1 0xFF NOT AND PUSH1 0x1 OR SWAP1 SSTORE CALLER SWAP3 SWAP2 SWAP1 PUSH32 0x2F8788117E7EFF1D82E926EC794901D17C78024A50270940304540A733656F0D SWAP1 DUP1 LOG4 PUSH1 0x1 SWAP1 JUMP JUMPDEST POP POP PUSH1 0x0 SWAP1 JUMP JUMPDEST PUSH1 0x0 DUP2 DUP2 MSTORE PUSH1 0x7 PUSH1 0x20 SWAP1 DUP2 MSTORE PUSH1 0x40 DUP1 DUP4 KECCAK256 PUSH1 0x1 PUSH1 0x1 PUSH1 0xA0 SHL SUB DUP7 AND DUP5 MSTORE SWAP1 SWAP2 MSTORE SWAP1 KECCAK256 SLOAD PUSH1 0xFF AND ISZERO PUSH2 0x3B21 JUMPI PUSH1 0x0 DUP2 DUP2 MSTORE PUSH1 0x7 PUSH1 0x20 SWAP1 DUP2 MSTORE PUSH1 0x40 DUP1 DUP4 KECCAK256 PUSH1 0x1 PUSH1 0x1 PUSH1 0xA0 SHL SUB SWAP6 SWAP1 SWAP6 AND DUP1 DUP5 MSTORE SWAP5 SWAP1 SWAP2 MSTORE DUP2 KECCAK256 DUP1 SLOAD PUSH1 0xFF NOT AND SWAP1 SSTORE CALLER SWAP3 SWAP2 SWAP1 PUSH32 0xF6391F5C32D9C69D2A47EA670B442974B53935D1EDC7FD64EB21E047A839171B SWAP1 DUP1 LOG4 PUSH1 0x1 SWAP1 JUMP JUMPDEST SWAP1 DUP2 MLOAD DUP2 LT ISZERO PUSH2 0x21CD JUMPI ADD PUSH1 0x20 ADD SWAP1 JUMP JUMPDEST DUP1 ISZERO PUSH2 0x3C63 JUMPI DUP1 DUP2 PUSH1 0x0 SWAP3 JUMPDEST PUSH2 0x3C4D JUMPI POP PUSH2 0x3BD9 DUP3 PUSH2 0x30D0 JUMP JUMPDEST SWAP2 PUSH2 0x3BE7 PUSH1 0x40 MLOAD SWAP4 DUP5 PUSH2 0x2F65 JUMP JUMPDEST DUP1 DUP4 MSTORE DUP2 PUSH1 0x1F NOT PUSH2 0x3BF7 DUP4 PUSH2 0x30D0 JUMP JUMPDEST ADD CALLDATASIZE PUSH1 0x20 DUP7 ADD CALLDATACOPY JUMPDEST PUSH2 0x3C08 JUMPI POP POP SWAP1 JUMP JUMPDEST PUSH1 0x0 NOT DUP2 ADD SWAP1 DUP2 GT PUSH2 0x34BD JUMPI DUP1 SWAP2 PUSH1 0xA DUP2 MOD PUSH1 0x30 ADD SWAP2 DUP3 PUSH1 0x30 GT PUSH2 0x34BD JUMPI PUSH1 0xA SWAP3 PUSH1 0xF8 SHL PUSH1 0x1 PUSH1 0x1 PUSH1 0xF8 SHL SUB NOT AND PUSH1 0x0 BYTE SWAP1 PUSH2 0x3C44 SWAP1 DUP7 PUSH2 0x3BAE JUMP JUMPDEST MSTORE8 DIV SWAP1 DUP2 PUSH2 0x3BFF JUMP JUMPDEST SWAP1 SWAP2 PUSH2 0x3C5A PUSH1 0xA SWAP2 PUSH2 0x34AE JUMP JUMPDEST SWAP3 SWAP2 DIV DUP1 PUSH2 0x3BCB JUMP JUMPDEST POP PUSH1 0x40 MLOAD PUSH2 0x3C72 PUSH1 0x40 DUP3 PUSH2 0x2F65 JUMP JUMPDEST PUSH1 0x1 DUP2 MSTORE PUSH1 0x3 PUSH1 0xFC SHL PUSH1 0x20 DUP3 ADD MSTORE SWAP1 JUMP JUMPDEST PUSH1 0x1 DUP1 PUSH1 0xA0 SHL SUB AND PUSH1 0x40 DUP1 MLOAD SWAP1 PUSH2 0x3C9A DUP2 DUP4 PUSH2 0x2F65 JUMP JUMPDEST PUSH1 0x10 DUP3 MSTORE PUSH16 0x181899199A1A9B1B9C1CB0B131B232B3 PUSH1 0x81 SHL PUSH1 0x20 DUP4 ADD MSTORE MLOAD SWAP2 PUSH2 0x3CC4 PUSH1 0x60 DUP5 PUSH2 0x2F65 JUMP JUMPDEST PUSH1 0x2A DUP4 MSTORE PUSH1 0x20 DUP4 ADD PUSH1 0x40 CALLDATASIZE DUP3 CALLDATACOPY DUP4 MLOAD ISZERO PUSH2 0x21CD JUMPI PUSH1 0x30 SWAP1 MSTORE8 DUP3 MLOAD PUSH1 0x1 LT ISZERO PUSH2 0x21CD JUMPI PUSH1 0x78 PUSH1 0x21 DUP5 ADD MSTORE8 PUSH1 0x0 JUMPDEST PUSH1 0x14 DUP2 LT PUSH2 0x3CFE JUMPI POP POP POP SWAP1 JUMP JUMPDEST PUSH1 0xC DUP2 ADD DUP1 DUP3 GT PUSH2 0x34BD JUMPI PUSH1 0x20 DUP2 LT ISZERO PUSH2 0x21CD JUMPI DUP3 SWAP1 BYTE PUSH1 0x1 PUSH1 0x1 PUSH1 0xF8 SHL SUB NOT PUSH2 0x3D2F PUSH1 0x4 DUP4 SWAP1 SHR PUSH1 0xF AND DUP7 PUSH2 0x3BAE JUMP JUMPDEST MLOAD AND DUP3 PUSH1 0x1 SHL SWAP1 DUP4 DUP3 DIV PUSH1 0x2 EQ DUP5 ISZERO OR ISZERO PUSH2 0x34BD JUMPI DUP2 PUSH1 0x2 ADD SWAP1 DUP2 PUSH1 0x2 GT PUSH2 0x34BD JUMPI PUSH2 0x3D5F SWAP1 PUSH1 0x0 BYTE SWAP2 DUP9 PUSH2 0x3BAE JUMP JUMPDEST MSTORE8 PUSH1 0x0 SWAP2 PUSH1 0x1 PUSH1 0x1 PUSH1 0xF8 SHL SUB NOT SWAP1 PUSH2 0x3D7A SWAP1 PUSH1 0xF AND DUP8 PUSH2 0x3BAE JUMP JUMPDEST MLOAD AND SWAP1 PUSH1 0x3 ADD SWAP2 DUP3 PUSH1 0x3 GT PUSH2 0x3DA1 JUMPI PUSH1 0x1 SWAP4 SWAP3 SWAP2 PUSH2 0x3D9A SWAP2 BYTE SWAP2 DUP8 PUSH2 0x3BAE JUMP JUMPDEST MSTORE8 ADD PUSH2 0x3CF0 JUMP JUMPDEST PUSH4 0x4E487B71 PUSH1 0xE0 SHL DUP2 MSTORE PUSH1 0x11 PUSH1 0x4 MSTORE PUSH1 0x24 SWAP1 REVERT JUMPDEST SWAP3 SWAP2 DUP2 EXTCODESIZE PUSH2 0x3DC4 JUMPI JUMPDEST POP POP POP POP JUMP JUMPDEST PUSH1 0x40 MLOAD PUSH4 0xA85BD01 PUSH1 0xE1 SHL DUP2 MSTORE PUSH1 0x1 PUSH1 0x1 PUSH1 0xA0 SHL SUB SWAP5 DUP6 AND PUSH1 0x4 DUP3 ADD MSTORE PUSH1 0x0 PUSH1 0x24 DUP3 ADD MSTORE PUSH1 0x44 DUP2 ADD SWAP2 SWAP1 SWAP2 MSTORE PUSH1 0x80 PUSH1 0x64 DUP3 ADD MSTORE SWAP3 AND SWAP2 SWAP1 PUSH1 0x20 SWAP1 DUP3 SWAP1 DUP2 SWAP1 PUSH2 0x3E10 SWAP1 PUSH1 0x84 DUP4 ADD SWAP1 PUSH2 0x2EBE JUMP JUMPDEST SUB DUP2 PUSH1 0x0 DUP7 GAS CALL DUP1 SWAP2 PUSH1 0x0 SWAP2 PUSH2 0x3EAF JUMPI JUMPDEST POP SWAP1 PUSH2 0x3E7A JUMPI POP RETURNDATASIZE ISZERO PUSH2 0x3E73 JUMPI RETURNDATASIZE PUSH2 0x3E38 DUP2 PUSH2 0x30D0 JUMP JUMPDEST SWAP1 PUSH2 0x3E46 PUSH1 0x40 MLOAD SWAP3 DUP4 PUSH2 0x2F65 JUMP JUMPDEST DUP2 MSTORE RETURNDATASIZE PUSH1 0x0 PUSH1 0x20 DUP4 ADD RETURNDATACOPY JUMPDEST DUP1 MLOAD SWAP1 DUP2 PUSH2 0x3E6E JUMPI DUP3 PUSH4 0x32505749 PUSH1 0xE1 SHL PUSH1 0x0 MSTORE PUSH1 0x4 MSTORE PUSH1 0x24 PUSH1 0x0 REVERT JUMPDEST PUSH1 0x20 ADD REVERT JUMPDEST PUSH1 0x60 PUSH2 0x3E51 JUMP JUMPDEST PUSH1 0x1 PUSH1 0x1 PUSH1 0xE0 SHL SUB NOT AND PUSH4 0x757A42FF PUSH1 0xE1 SHL ADD PUSH2 0x3E9B JUMPI POP CODESIZE DUP1 DUP1 DUP1 PUSH2 0x3DBE JUMP JUMPDEST PUSH4 0x32505749 PUSH1 0xE1 SHL PUSH1 0x0 MSTORE PUSH1 0x4 MSTORE PUSH1 0x24 PUSH1 0x0 REVERT JUMPDEST PUSH1 0x20 DUP2 RETURNDATASIZE PUSH1 0x20 GT PUSH2 0x3EF1 JUMPI JUMPDEST DUP2 PUSH2 0x3EC8 PUSH1 0x20 SWAP4 DUP4 PUSH2 0x2F65 JUMP JUMPDEST DUP2 ADD SUB SLT PUSH2 0x3EED JUMPI MLOAD SWAP1 PUSH1 0x1 PUSH1 0x1 PUSH1 0xE0 SHL SUB NOT DUP3 AND DUP3 SUB PUSH2 0x3EEA JUMPI POP CODESIZE PUSH2 0x3E21 JUMP JUMPDEST DUP1 REVERT JUMPDEST POP DUP1 REVERT JUMPDEST RETURNDATASIZE SWAP2 POP PUSH2 0x3EBB JUMP JUMPDEST DUP3 EXTCODESIZE PUSH2 0x3F07 JUMPI JUMPDEST POP POP POP POP POP JUMP JUMPDEST PUSH1 0x40 MLOAD PUSH4 0xA85BD01 PUSH1 0xE1 SHL DUP2 MSTORE PUSH1 0x1 PUSH1 0x1 PUSH1 0xA0 SHL SUB SWAP2 DUP3 AND PUSH1 0x4 DUP3 ADD MSTORE SWAP2 DUP2 AND PUSH1 0x24 DUP4 ADD MSTORE PUSH1 0x44 DUP3 ADD SWAP4 SWAP1 SWAP4 MSTORE PUSH1 0x80 PUSH1 0x64 DUP3 ADD MSTORE SWAP2 AND SWAP2 PUSH1 0x20 SWAP1 DUP3 SWAP1 DUP2 SWAP1 PUSH2 0x3F53 SWAP1 PUSH1 0x84 DUP4 ADD SWAP1 PUSH2 0x2EBE JUMP JUMPDEST SUB DUP2 PUSH1 0x0 DUP7 GAS CALL DUP1 SWAP2 PUSH1 0x0 SWAP2 PUSH2 0x3F9D JUMPI JUMPDEST POP SWAP1 PUSH2 0x3F7B JUMPI POP RETURNDATASIZE ISZERO PUSH2 0x3E73 JUMPI RETURNDATASIZE PUSH2 0x3E38 DUP2 PUSH2 0x30D0 JUMP JUMPDEST PUSH1 0x1 PUSH1 0x1 PUSH1 0xE0 SHL SUB NOT AND PUSH4 0x757A42FF PUSH1 0xE1 SHL ADD PUSH2 0x3E9B JUMPI POP CODESIZE DUP1 DUP1 DUP1 DUP1 PUSH2 0x3F00 JUMP JUMPDEST PUSH1 0x20 DUP2 RETURNDATASIZE PUSH1 0x20 GT PUSH2 0x3FD8 JUMPI JUMPDEST DUP2 PUSH2 0x3FB6 PUSH1 0x20 SWAP4 DUP4 PUSH2 0x2F65 JUMP JUMPDEST DUP2 ADD SUB SLT PUSH2 0x3EED JUMPI MLOAD SWAP1 PUSH1 0x1 PUSH1 0x1 PUSH1 0xE0 SHL SUB NOT DUP3 AND DUP3 SUB PUSH2 0x3EEA JUMPI POP CODESIZE PUSH2 0x3F64 JUMP JUMPDEST RETURNDATASIZE SWAP2 POP PUSH2 0x3FA9 JUMP INVALID PUSH22 0x68AFFEAB53E08D035C844DB6A2A63EC1F609D48A48AB 0xEA 0x4F 0xBA PUSH30 0xC04817E402A26469706673582212208A2067D9C1739D33CD7AFACD6586B6 ADDMOD JUMPDEST 0xF8 0x4C 0x21 CALL 0xA8 PUSH29 0xED15680C4D9723C1D064736F6C634300081C00332F8788117E7EFF1D82 0xE9 0x26 0xEC PUSH26 0x4901D17C78024A50270940304540A733656F0D2B60F1D8954422 RETURNDATACOPY SLOAD PREVRANDAO BLOBBASEFEE MUL 0xBC LOG2 SHR PUSH31 0xCFE977AA3064FC5A5CE775922BE1F0176D5257204EBE7D88FD91AE87941CB2 0xDD SWAP14 DUP1 PUSH3 0xB64AE5 LOG2 0xBD 0x2D 0x28 0xEC BLOCKHASH 0xB9 0xFB 0xF6 0xDF "},"methodIdentifiers":{"AUTHORITY_ROLE()":"4a3fba0e","DEFAULT_ADMIN_ROLE()":"a217fddf","MAX_AREA()":"168fc898","MIN_AREA()":"8388e2ba","approve(address,uint256)":"095ea7b3","balanceOf(address)":"70a08231","batchMintLand((address,string,string,string,uint256,string,uint256)[])":"731f3629","batchTransferLand(address[],address[],uint256[])":"c4b1c735","batchUpdateMarketValue(uint256[],uint256[])":"b4e63495","getApproved(uint256)":"081812fc","getCurrentMarketValue(uint256)":"dd6055c8","getLandParcel(uint256)":"e7feff2e","getOwnershipHistory(uint256)":"f1dbaccb","getRoleAdmin(bytes32)":"248a9ca3","getTotalLands()":"842e7dba","getValueHistory(uint256)":"ab279a8e","grantRole(bytes32,address)":"2f2ff15d","hasActiveDispute(uint256)":"f1bd7439","hasRole(bytes32,address)":"91d14854","isApprovedForAll(address,address)":"e985e9c5","landParcels(uint256)":"20e7c6d4","mintLand(address,string,string,string,uint256,string,uint256)":"90169f97","name()":"06fdde03","ownerOf(uint256)":"6352211e","renounceRole(bytes32,address)":"36568abe","revokeRole(bytes32,address)":"d547741f","safeTransferFrom(address,address,uint256)":"42842e0e","safeTransferFrom(address,address,uint256,bytes)":"b88d4fde","setApprovalForAll(address,bool)":"a22cb465","supportsInterface(bytes4)":"01ffc9a7","symbol()":"95d89b41","tokenURI(uint256)":"c87b56dd","transferFrom(address,address,uint256)":"23b872dd","transferLand(address,address,uint256)":"a762c342","updateDisputeStatus(uint256,bool,string)":"38fe1850","updateMarketValue(uint256,uint256)":"cf62664a"}}}}}