{"contracts/OpenAcres.sol":{"OpenAcres":{"abi":[{"inputs":[],"stateMutability":"nonpayable","type":"constructor"},{"inputs":[{"internalType":"address","name":"sender","type":"address"},{"internalType":"uint256","name":"tokenId","type":"uint256"},{"internalType":"address","name":"owner","type":"address"}],"name":"ERC721IncorrectOwner","type":"error"},{"inputs":[{"internalType":"address","name":"operator","type":"address"},{"internalType":"uint256","name":"tokenId","type":"uint256"}],"name":"ERC721InsufficientApproval","type":"error"},{"inputs":[{"internalType":"address","name":"approver","type":"address"}],"name":"ERC721InvalidApprover","type":"error"},{"inputs":[{"internalType":"address","name":"operator","type":"address"}],"name":"ERC721InvalidOperator","type":"error"},{"inputs":[{"internalType":"address","name":"owner","type":"address"}],"name":"ERC721InvalidOwner","type":"error"},{"inputs":[{"internalType":"address","name":"receiver","type":"address"}],"name":"ERC721InvalidReceiver","type":"error"},{"inputs":[{"internalType":"address","name":"sender","type":"address"}],"name":"ERC721InvalidSender","type":"error"},{"inputs":[{"internalType":"uint256","name":"tokenId","type":"uint256"}],"name":"ERC721NonexistentToken","type":"error"},{"inputs":[{"internalType":"address","name":"owner","type":"address"}],"name":"OwnableInvalidOwner","type":"error"},{"inputs":[{"internalType":"address","name":"account","type":"address"}],"name":"OwnableUnauthorizedAccount","type":"error"},{"anonymous":false,"inputs":[{"indexed":true,"internalType":"address","name":"owner","type":"address"},{"indexed":true,"internalType":"address","name":"approved","type":"address"},{"indexed":true,"internalType":"uint256","name":"tokenId","type":"uint256"}],"name":"Approval","type":"event"},{"anonymous":false,"inputs":[{"indexed":true,"internalType":"address","name":"owner","type":"address"},{"indexed":true,"internalType":"address","name":"operator","type":"address"},{"indexed":false,"internalType":"bool","name":"approved","type":"bool"}],"name":"ApprovalForAll","type":"event"},{"anonymous":false,"inputs":[{"indexed":false,"internalType":"uint256","name":"_fromTokenId","type":"uint256"},{"indexed":false,"internalType":"uint256","name":"_toTokenId","type":"uint256"}],"name":"BatchMetadataUpdate","type":"event"},{"anonymous":false,"inputs":[{"indexed":true,"internalType":"address","name":"to","type":"address"},{"indexed":true,"internalType":"uint256","name":"tokenId","type":"uint256"},{"indexed":false,"internalType":"string","name":"uri","type":"string"}],"name":"LandMinted","type":"event"},{"anonymous":false,"inputs":[{"indexed":true,"internalType":"address","name":"from","type":"address"},{"indexed":true,"internalType":"address","name":"to","type":"address"},{"indexed":true,"internalType":"uint256","name":"tokenId","type":"uint256"}],"name":"LandTransferred","type":"event"},{"anonymous":false,"inputs":[{"indexed":false,"internalType":"uint256","name":"_tokenId","type":"uint256"}],"name":"MetadataUpdate","type":"event"},{"anonymous":false,"inputs":[{"indexed":true,"internalType":"address","name":"previousOwner","type":"address"},{"indexed":true,"internalType":"address","name":"newOwner","type":"address"}],"name":"OwnershipTransferred","type":"event"},{"anonymous":false,"inputs":[{"indexed":true,"internalType":"address","name":"from","type":"address"},{"indexed":true,"internalType":"address","name":"to","type":"address"},{"indexed":true,"internalType":"uint256","name":"tokenId","type":"uint256"}],"name":"Transfer","type":"event"},{"inputs":[{"internalType":"address","name":"to","type":"address"},{"internalType":"uint256","name":"tokenId","type":"uint256"}],"name":"approve","outputs":[],"stateMutability":"nonpayable","type":"function"},{"inputs":[{"internalType":"address","name":"owner","type":"address"}],"name":"balanceOf","outputs":[{"internalType":"uint256","name":"","type":"uint256"}],"stateMutability":"view","type":"function"},{"inputs":[{"internalType":"uint256","name":"tokenId","type":"uint256"}],"name":"getApproved","outputs":[{"internalType":"address","name":"","type":"address"}],"stateMutability":"view","type":"function"},{"inputs":[{"internalType":"address","name":"owner","type":"address"},{"internalType":"address","name":"operator","type":"address"}],"name":"isApprovedForAll","outputs":[{"internalType":"bool","name":"","type":"bool"}],"stateMutability":"view","type":"function"},{"inputs":[{"internalType":"address","name":"to","type":"address"},{"internalType":"string","name":"metadataURI","type":"string"}],"name":"mintLand","outputs":[{"internalType":"uint256","name":"","type":"uint256"}],"stateMutability":"nonpayable","type":"function"},{"inputs":[],"name":"name","outputs":[{"internalType":"string","name":"","type":"string"}],"stateMutability":"view","type":"function"},{"inputs":[],"name":"owner","outputs":[{"internalType":"address","name":"","type":"address"}],"stateMutability":"view","type":"function"},{"inputs":[{"internalType":"uint256","name":"tokenId","type":"uint256"}],"name":"ownerOf","outputs":[{"internalType":"address","name":"","type":"address"}],"stateMutability":"view","type":"function"},{"inputs":[],"name":"renounceOwnership","outputs":[],"stateMutability":"nonpayable","type":"function"},{"inputs":[{"internalType":"address","name":"from","type":"address"},{"internalType":"address","name":"to","type":"address"},{"internalType":"uint256","name":"tokenId","type":"uint256"}],"name":"safeTransferFrom","outputs":[],"stateMutability":"nonpayable","type":"function"},{"inputs":[{"internalType":"address","name":"from","type":"address"},{"internalType":"address","name":"to","type":"address"},{"internalType":"uint256","name":"tokenId","type":"uint256"},{"internalType":"bytes","name":"data","type":"bytes"}],"name":"safeTransferFrom","outputs":[],"stateMutability":"nonpayable","type":"function"},{"inputs":[{"internalType":"address","name":"operator","type":"address"},{"internalType":"bool","name":"approved","type":"bool"}],"name":"setApprovalForAll","outputs":[],"stateMutability":"nonpayable","type":"function"},{"inputs":[{"internalType":"bytes4","name":"interfaceId","type":"bytes4"}],"name":"supportsInterface","outputs":[{"internalType":"bool","name":"","type":"bool"}],"stateMutability":"view","type":"function"},{"inputs":[],"name":"symbol","outputs":[{"internalType":"string","name":"","type":"string"}],"stateMutability":"view","type":"function"},{"inputs":[{"internalType":"uint256","name":"tokenId","type":"uint256"}],"name":"tokenURI","outputs":[{"internalType":"string","name":"","type":"string"}],"stateMutability":"view","type":"function"},{"inputs":[{"internalType":"address","name":"from","type":"address"},{"internalType":"address","name":"to","type":"address"},{"internalType":"uint256","name":"tokenId","type":"uint256"}],"name":"transferFrom","outputs":[],"stateMutability":"nonpayable","type":"function"},{"inputs":[{"internalType":"address","name":"from","type":"address"},{"internalType":"address","name":"to","type":"address"},{"internalType":"uint256","name":"tokenId","type":"uint256"}],"name":"transferLand","outputs":[],"stateMutability":"nonpayable","type":"function"},{"inputs":[{"internalType":"address","name":"newOwner","type":"address"}],"name":"transferOwnership","outputs":[],"stateMutability":"nonpayable","type":"function"}],"evm":{"bytecode":{"linkReferences":{},"object":"60806040523461038557604080519081016001600160401b0381118282101761029257604090815260098252684f70656e416372657360b81b602083015280519081016001600160401b038111828210176102925760405260038152624f414360e81b602082015281516001600160401b03811161029257600054600181811c9116801561037b575b602082101461027257601f8111610317575b50602092601f82116001146102b357928192936000926102a8575b50508160011b916000199060031b1c1916176000555b80516001600160401b03811161029257600154600181811c91168015610288575b602082101461027257601f811161020d575b50602091601f82116001146101a95791819260009261019e575b50508160011b916000199060031b1c1916176001555b33156101885760078054336001600160a01b03198216811790925560405191906001600160a01b03167f8be0079c531659141344cd1fd0a4f28419497f9722a3daafe3b4186f6b6457e0600080a3611342908161038b8239f35b631e4fbdf760e01b600052600060045260246000fd5b015190503880610118565b601f198216926001600052806000209160005b8581106101f5575083600195106101dc575b505050811b0160015561012e565b015160001960f88460031b161c191690553880806101ce565b919260206001819286850151815501940192016101bc565b60016000527fb10e2d527612073b26eecdfd717e6a320cf44b4afac2b0732d9fcbe2b7fa0cf6601f830160051c81019160208410610268575b601f0160051c01905b81811061025c57506100fe565b6000815560010161024f565b9091508190610246565b634e487b7160e01b600052602260045260246000fd5b90607f16906100ec565b634e487b7160e01b600052604160045260246000fd5b0151905038806100b5565b601f1982169360008052806000209160005b8681106102ff57508360019596106102e6575b505050811b016000556100cb565b015160001960f88460031b161c191690553880806102d8565b919260206001819286850151815501940192016102c5565b600080527f290decd9548b62a8d60345a988386fc84ba6bc95484008f6362f93160ef3e563601f830160051c81019160208410610371575b601f0160051c01905b818110610365575061009a565b60008155600101610358565b909150819061034f565b90607f1690610088565b600080fdfe608080604052600436101561001357600080fd5b60003560e01c90816301ffc9a714610c415750806306fdde0314610b9c578063081812fc14610b7e578063095ea7b314610a8f57806323b872dd14610a7857806342842e0e14610a48578063505de93c1461065b5780636352211e1461062b57806370a08231146105d5578063715018a6146105785780638da5cb5b1461054f57806395d89b4114610481578063a22cb465146103e0578063a762c34214610274578063b88d4fde14610206578063c87b56dd146101cf578063e985e9c5146101745763f2fde38b146100e557600080fd5b3461016f57602036600319011261016f576100fe610d05565b6101066111a6565b6001600160a01b0316801561015957600780546001600160a01b0319811683179091556001600160a01b03167f8be0079c531659141344cd1fd0a4f28419497f9722a3daafe3b4186f6b6457e0600080a3005b631e4fbdf760e01b600052600060045260246000fd5b600080fd5b3461016f57604036600319011261016f5761018d610d05565b610195610d1b565b9060018060a01b0316600052600560205260406000209060018060a01b0316600052602052602060ff604060002054166040519015158152f35b3461016f57602036600319011261016f576102026101ee600435610fd5565b604051918291602083526020830190610cc6565b0390f35b3461016f57608036600319011261016f5761021f610d05565b610227610d1b565b906044356064359267ffffffffffffffff841161016f573660238501121561016f57610260610272943690602481600401359101610da9565b9261026c838383610e3f565b336111cf565b005b3461016f5761028236610d31565b916001600160a01b03610294846110a1565b168033149081156103c4575b811561039f575b5015610362576001600160a01b03821691821561034c576001600160a01b03906102d29085906110d8565b16806102ed5783637e27328960e01b60005260045260246000fd5b6001600160a01b0382168082036103305750506001600160a01b03167f268ae1851d13f9cd87a82ee6fc73474b3694d779b7bf6f66d86fd346f09511ed600080a4005b84906364283d7b60e01b60005260045260245260445260646000fd5b633250574960e11b600052600060045260246000fd5b60405162461bcd60e51b81526020600482015260156024820152742737ba1030b8383937bb32b21037b91037bbb732b960591b6044820152606490fd5b600090815260056020908152604080832033845290915290205460ff169050846102a7565b9050336001600160a01b036103d886610e1a565b1614906102a0565b3461016f57604036600319011261016f576103f9610d05565b6024359081151580920361016f576001600160a01b031690811561046c57336000526005602052604060002082600052602052604060002060ff1981541660ff83161790556040519081527f17307eab39ab6107e8899845ad3d59bd9653f200f220920489ca2b5937696c3160203392a3005b50630b61174360e31b60005260045260246000fd5b3461016f57600036600319011261016f5760405160006001546104a381610de0565b808452906001811690811561052b57506001146104cb575b610202836101ee81850382610d6b565b91905060016000527fb10e2d527612073b26eecdfd717e6a320cf44b4afac2b0732d9fcbe2b7fa0cf6916000905b808210610511575090915081016020016101ee6104bb565b9192600181602092548385880101520191019092916104f9565b60ff191660208086019190915291151560051b840190910191506101ee90506104bb565b3461016f57600036600319011261016f576007546040516001600160a01b039091168152602090f35b3461016f57600036600319011261016f576105916111a6565b600780546001600160a01b031981169091556000906001600160a01b03167f8be0079c531659141344cd1fd0a4f28419497f9722a3daafe3b4186f6b6457e08280a3005b3461016f57602036600319011261016f576001600160a01b036105f6610d05565b1680156106155760005260036020526020604060002054604051908152f35b6322718ad960e21b600052600060045260246000fd5b3461016f57602036600319011261016f5760206106496004356110a1565b6040516001600160a01b039091168152f35b3461016f57604036600319011261016f57610674610d05565b6024359067ffffffffffffffff821161016f573660238301121561016f5781600401359067ffffffffffffffff821161016f576024830192602483369201011161016f576106c06111a6565b6008546000198114610a325760010190816008556020936040516106e48682610d6b565b600081526001600160a01b03831692831561034c576001600160a01b0361070b86836110d8565b16610a1c573b6108f7575b50610722368583610da9565b836000526006865260406000209080519067ffffffffffffffff82116108e15761074c8354610de0565b601f811161089b575b508790601f831160011461080d5792826040937fb145eb58c4ce95ea8ebb64f9ec4c2c5ff09c2aeb40afca8cee50367dfec496e69693899a96600092610802575b50508160011b916000199060031b1c19161790555b7ff8e1a15aba9398e019f0b49df1a4fde98ee17ae345cb5f6b5e2c27f5033e8ce7888351888152a18282519384928a8452818b850152848401376000828201840152601f01601f19168101030190a3604051908152f35b015190508b80610796565b90601f1983169184600052896000209260005b8b828210610885575050937fb145eb58c4ce95ea8ebb64f9ec4c2c5ff09c2aeb40afca8cee50367dfec496e69693899a9693600193836040981061086c575b505050811b0190556107ab565b015160001960f88460031b161c191690558b808061085f565b6001859682939686015181550195019301610820565b8360005288600020601f840160051c8101918a85106108d7575b601f0160051c01905b8181106108cb5750610755565b600081556001016108be565b90915081906108b5565b634e487b7160e01b600052604160045260246000fd5b8561093691604097969594975180938192630a85bd0160e11b835233600484015260006024840152876044840152608060648401526084830190610cc6565b038160008a5af180916000916109d7575b509061099e5785853d15610997573d61095f81610d8d565b9061096d6040519283610d6b565b81523d60008383013e5b805191826109945783633250574960e11b60005260045260246000fd5b01fd5b6060610977565b939492939192916001600160e01b03191663757a42ff60e11b016109c25785610716565b50633250574960e11b60005260045260246000fd5b8681813d8311610a15575b6109ec8183610d6b565b81010312610a115751906001600160e01b031982168203610a0e575087610947565b80fd5b5080fd5b503d6109e2565b6339e3563760e11b600052600060045260246000fd5b634e487b7160e01b600052601160045260246000fd5b3461016f57610272610a5936610d31565b9060405192610a69602085610d6b565b6000845261026c838383610e3f565b3461016f57610272610a8936610d31565b91610e3f565b3461016f57604036600319011261016f57610aa8610d05565b602435610ab4816110a1565b33151580610b6b575b80610b3d575b610b285781906001600160a01b0384811691167f8c5be1e5ebec7d5bd14f71427d1e84f3dd0314c0f7b2291e5b200ac8c7c3b925600080a4600090815260046020526040902080546001600160a01b0319166001600160a01b03909216919091179055005b63a9fbf51f60e01b6000523360045260246000fd5b506001600160a01b038116600090815260056020908152604080832033845290915290205460ff1615610ac3565b506001600160a01b038116331415610abd565b3461016f57602036600319011261016f576020610649600435610e1a565b3461016f57600036600319011261016f5760405160008054610bbd81610de0565b808452906001811690811561052b5750600114610be457610202836101ee81850382610d6b565b60008080527f290decd9548b62a8d60345a988386fc84ba6bc95484008f6362f93160ef3e563939250905b808210610c27575090915081016020016101ee6104bb565b919260018160209254838588010152019101909291610c0f565b3461016f57602036600319011261016f576004359063ffffffff60e01b821680920361016f57602091632483248360e11b8114908115610c83575b5015158152f35b6380ac58cd60e01b811491508115610cb5575b8115610ca4575b5083610c7c565b6301ffc9a760e01b14905083610c9d565b635b5e139f60e01b81149150610c96565b919082518082526020808301940160005b828110610cf5575050600081602094950152601f8019910116010190565b8181015186820152602001610cd7565b600435906001600160a01b038216820361016f57565b602435906001600160a01b038216820361016f57565b606090600319011261016f576004356001600160a01b038116810361016f57906024356001600160a01b038116810361016f579060443590565b90601f8019910116810190811067ffffffffffffffff8211176108e157604052565b67ffffffffffffffff81116108e157601f01601f191660200190565b929192610db582610d8d565b91610dc36040519384610d6b565b82948184528183011161016f578281602093846000960137010152565b90600182811c92168015610e10575b6020831014610dfa57565b634e487b7160e01b600052602260045260246000fd5b91607f1691610def565b610e23816110a1565b506000908152600460205260409020546001600160a01b031690565b6001600160a01b039091169190821561034c576000828152600260205260408120546001600160a01b0316938391859033151580610f3d575b507fddf252ad1be2c89b69c2b068fc378daa952ba7f163c4a11628f55a4df523b3ef9082610f08575b83815260036020526040812060018154019055848152600260205260408120846bffffffffffffffffffffffff60a01b82541617905580a46001600160a01b0316808303610eee57505050565b6364283d7b60e01b60005260045260245260445260646000fd5b600085815260046020526040902080546001600160a01b03191690558281526003602052604081208054600019019055610ea1565b915091925080610f86575b15610f57579084849238610e78565b839085610f7057602491637e27328960e01b8252600452fd5b60449163177e802f60e01b825233600452602452fd5b503385148015610fb4575b80610f485750838152600460205260408120546001600160a01b03163314610f48565b5084815260056020908152604080832033845290915281205460ff16610f91565b610fde816110a1565b506000526006602052604060002060405190816000825492610fff84610de0565b808452936001811690811561107f5750600114611038575b5061102492500382610d6b565b6000604051611034602082610d6b565b5290565b90506000929192526020600020906000915b8183106110635750509060206110249282010138611017565b602091935080600191548385880101520191019091839261104a565b90506020925061102494915060ff191682840152151560051b82010138611017565b6000818152600260205260409020546001600160a01b03169081156110c4575090565b637e27328960e01b60005260045260246000fd5b6000828152600260205260409020546001600160a01b031691908261116f575b6001600160a01b031680611155575b8160005260026020526040600020816bffffffffffffffffffffffff60a01b825416179055827fddf252ad1be2c89b69c2b068fc378daa952ba7f163c4a11628f55a4df523b3ef600080a490565b806000526003602052604060002060018154019055611107565b600082815260046020526040902080546001600160a01b0319169055826000526003602052604060002060001981540190556110f8565b6007546001600160a01b031633036111ba57565b63118cdaa760e01b6000523360045260246000fd5b823b6111dd575b5050505050565b604051630a85bd0160e11b81526001600160a01b039182166004820152918116602483015260448201939093526080606482015291169160209082908190611229906084830190610cc6565b03816000865af180916000916112c9575b509061129357503d1561128c573d61125181610d8d565b9061125f6040519283610d6b565b81523d6000602083013e5b805190816112875782633250574960e11b60005260045260246000fd5b602001fd5b606061126a565b6001600160e01b03191663757a42ff60e11b016112b5575038808080806111d6565b633250574960e11b60005260045260246000fd5b6020813d602011611304575b816112e260209383610d6b565b81010312610a115751906001600160e01b031982168203610a0e57503861123a565b3d91506112d556fea26469706673582212206b99fc01b554845bd32a7372c4248cc51d2e6c9802d159328a0cb1711f684caa64736f6c634300081c0033","opcodes":"PUSH1 0x80 PUSH1 0x40 MSTORE CALLVALUE PUSH2 0x385 JUMPI PUSH1 0x40 DUP1 MLOAD SWAP1 DUP2 ADD PUSH1 0x1 PUSH1 0x1 PUSH1 0x40 SHL SUB DUP2 GT DUP3 DUP3 LT OR PUSH2 0x292 JUMPI PUSH1 0x40 SWAP1 DUP2 MSTORE PUSH1 0x9 DUP3 MSTORE PUSH9 0x4F70656E4163726573 PUSH1 0xB8 SHL PUSH1 0x20 DUP4 ADD MSTORE DUP1 MLOAD SWAP1 DUP2 ADD PUSH1 0x1 PUSH1 0x1 PUSH1 0x40 SHL SUB DUP2 GT DUP3 DUP3 LT OR PUSH2 0x292 JUMPI PUSH1 0x40 MSTORE PUSH1 0x3 DUP2 MSTORE PUSH3 0x4F4143 PUSH1 0xE8 SHL PUSH1 0x20 DUP3 ADD MSTORE DUP2 MLOAD PUSH1 0x1 PUSH1 0x1 PUSH1 0x40 SHL SUB DUP2 GT PUSH2 0x292 JUMPI PUSH1 0x0 SLOAD PUSH1 0x1 DUP2 DUP2 SHR SWAP2 AND DUP1 ISZERO PUSH2 0x37B JUMPI JUMPDEST PUSH1 0x20 DUP3 LT EQ PUSH2 0x272 JUMPI PUSH1 0x1F DUP2 GT PUSH2 0x317 JUMPI JUMPDEST POP PUSH1 0x20 SWAP3 PUSH1 0x1F DUP3 GT PUSH1 0x1 EQ PUSH2 0x2B3 JUMPI SWAP3 DUP2 SWAP3 SWAP4 PUSH1 0x0 SWAP3 PUSH2 0x2A8 JUMPI JUMPDEST POP POP DUP2 PUSH1 0x1 SHL SWAP2 PUSH1 0x0 NOT SWAP1 PUSH1 0x3 SHL SHR NOT AND OR PUSH1 0x0 SSTORE JUMPDEST DUP1 MLOAD PUSH1 0x1 PUSH1 0x1 PUSH1 0x40 SHL SUB DUP2 GT PUSH2 0x292 JUMPI PUSH1 0x1 SLOAD PUSH1 0x1 DUP2 DUP2 SHR SWAP2 AND DUP1 ISZERO PUSH2 0x288 JUMPI JUMPDEST PUSH1 0x20 DUP3 LT EQ PUSH2 0x272 JUMPI PUSH1 0x1F DUP2 GT PUSH2 0x20D JUMPI JUMPDEST POP PUSH1 0x20 SWAP2 PUSH1 0x1F DUP3 GT PUSH1 0x1 EQ PUSH2 0x1A9 JUMPI SWAP2 DUP2 SWAP3 PUSH1 0x0 SWAP3 PUSH2 0x19E JUMPI JUMPDEST POP POP DUP2 PUSH1 0x1 SHL SWAP2 PUSH1 0x0 NOT SWAP1 PUSH1 0x3 SHL SHR NOT AND OR PUSH1 0x1 SSTORE JUMPDEST CALLER ISZERO PUSH2 0x188 JUMPI PUSH1 0x7 DUP1 SLOAD CALLER PUSH1 0x1 PUSH1 0x1 PUSH1 0xA0 SHL SUB NOT DUP3 AND DUP2 OR SWAP1 SWAP3 SSTORE PUSH1 0x40 MLOAD SWAP2 SWAP1 PUSH1 0x1 PUSH1 0x1 PUSH1 0xA0 SHL SUB AND PUSH32 0x8BE0079C531659141344CD1FD0A4F28419497F9722A3DAAFE3B4186F6B6457E0 PUSH1 0x0 DUP1 LOG3 PUSH2 0x1342 SWAP1 DUP2 PUSH2 0x38B DUP3 CODECOPY RETURN JUMPDEST PUSH4 0x1E4FBDF7 PUSH1 0xE0 SHL PUSH1 0x0 MSTORE PUSH1 0x0 PUSH1 0x4 MSTORE PUSH1 0x24 PUSH1 0x0 REVERT JUMPDEST ADD MLOAD SWAP1 POP CODESIZE DUP1 PUSH2 0x118 JUMP JUMPDEST PUSH1 0x1F NOT DUP3 AND SWAP3 PUSH1 0x1 PUSH1 0x0 MSTORE DUP1 PUSH1 0x0 KECCAK256 SWAP2 PUSH1 0x0 JUMPDEST DUP6 DUP2 LT PUSH2 0x1F5 JUMPI POP DUP4 PUSH1 0x1 SWAP6 LT PUSH2 0x1DC JUMPI JUMPDEST POP POP POP DUP2 SHL ADD PUSH1 0x1 SSTORE PUSH2 0x12E JUMP JUMPDEST ADD MLOAD PUSH1 0x0 NOT PUSH1 0xF8 DUP5 PUSH1 0x3 SHL AND SHR NOT AND SWAP1 SSTORE CODESIZE DUP1 DUP1 PUSH2 0x1CE JUMP JUMPDEST SWAP2 SWAP3 PUSH1 0x20 PUSH1 0x1 DUP2 SWAP3 DUP7 DUP6 ADD MLOAD DUP2 SSTORE ADD SWAP5 ADD SWAP3 ADD PUSH2 0x1BC JUMP JUMPDEST PUSH1 0x1 PUSH1 0x0 MSTORE PUSH32 0xB10E2D527612073B26EECDFD717E6A320CF44B4AFAC2B0732D9FCBE2B7FA0CF6 PUSH1 0x1F DUP4 ADD PUSH1 0x5 SHR DUP2 ADD SWAP2 PUSH1 0x20 DUP5 LT PUSH2 0x268 JUMPI JUMPDEST PUSH1 0x1F ADD PUSH1 0x5 SHR ADD SWAP1 JUMPDEST DUP2 DUP2 LT PUSH2 0x25C JUMPI POP PUSH2 0xFE JUMP JUMPDEST PUSH1 0x0 DUP2 SSTORE PUSH1 0x1 ADD PUSH2 0x24F JUMP JUMPDEST SWAP1 SWAP2 POP DUP2 SWAP1 PUSH2 0x246 JUMP JUMPDEST PUSH4 0x4E487B71 PUSH1 0xE0 SHL PUSH1 0x0 MSTORE PUSH1 0x22 PUSH1 0x4 MSTORE PUSH1 0x24 PUSH1 0x0 REVERT JUMPDEST SWAP1 PUSH1 0x7F AND SWAP1 PUSH2 0xEC JUMP JUMPDEST PUSH4 0x4E487B71 PUSH1 0xE0 SHL PUSH1 0x0 MSTORE PUSH1 0x41 PUSH1 0x4 MSTORE PUSH1 0x24 PUSH1 0x0 REVERT JUMPDEST ADD MLOAD SWAP1 POP CODESIZE DUP1 PUSH2 0xB5 JUMP JUMPDEST PUSH1 0x1F NOT DUP3 AND SWAP4 PUSH1 0x0 DUP1 MSTORE DUP1 PUSH1 0x0 KECCAK256 SWAP2 PUSH1 0x0 JUMPDEST DUP7 DUP2 LT PUSH2 0x2FF JUMPI POP DUP4 PUSH1 0x1 SWAP6 SWAP7 LT PUSH2 0x2E6 JUMPI JUMPDEST POP POP POP DUP2 SHL ADD PUSH1 0x0 SSTORE PUSH2 0xCB JUMP JUMPDEST ADD MLOAD PUSH1 0x0 NOT PUSH1 0xF8 DUP5 PUSH1 0x3 SHL AND SHR NOT AND SWAP1 SSTORE CODESIZE DUP1 DUP1 PUSH2 0x2D8 JUMP JUMPDEST SWAP2 SWAP3 PUSH1 0x20 PUSH1 0x1 DUP2 SWAP3 DUP7 DUP6 ADD MLOAD DUP2 SSTORE ADD SWAP5 ADD SWAP3 ADD PUSH2 0x2C5 JUMP JUMPDEST PUSH1 0x0 DUP1 MSTORE PUSH32 0x290DECD9548B62A8D60345A988386FC84BA6BC95484008F6362F93160EF3E563 PUSH1 0x1F DUP4 ADD PUSH1 0x5 SHR DUP2 ADD SWAP2 PUSH1 0x20 DUP5 LT PUSH2 0x371 JUMPI JUMPDEST PUSH1 0x1F ADD PUSH1 0x5 SHR ADD SWAP1 JUMPDEST DUP2 DUP2 LT PUSH2 0x365 JUMPI POP PUSH2 0x9A JUMP JUMPDEST PUSH1 0x0 DUP2 SSTORE PUSH1 0x1 ADD PUSH2 0x358 JUMP JUMPDEST SWAP1 SWAP2 POP DUP2 SWAP1 PUSH2 0x34F JUMP JUMPDEST SWAP1 PUSH1 0x7F AND SWAP1 PUSH2 0x88 JUMP JUMPDEST PUSH1 0x0 DUP1 REVERT INVALID PUSH1 0x80 DUP1 PUSH1 0x40 MSTORE PUSH1 0x4 CALLDATASIZE LT ISZERO PUSH2 0x13 JUMPI PUSH1 0x0 DUP1 REVERT JUMPDEST PUSH1 0x0 CALLDATALOAD PUSH1 0xE0 SHR SWAP1 DUP2 PUSH4 0x1FFC9A7 EQ PUSH2 0xC41 JUMPI POP DUP1 PUSH4 0x6FDDE03 EQ PUSH2 0xB9C JUMPI DUP1 PUSH4 0x81812FC EQ PUSH2 0xB7E JUMPI DUP1 PUSH4 0x95EA7B3 EQ PUSH2 0xA8F JUMPI DUP1 PUSH4 0x23B872DD EQ PUSH2 0xA78 JUMPI DUP1 PUSH4 0x42842E0E EQ PUSH2 0xA48 JUMPI DUP1 PUSH4 0x505DE93C EQ PUSH2 0x65B JUMPI DUP1 PUSH4 0x6352211E EQ PUSH2 0x62B JUMPI DUP1 PUSH4 0x70A08231 EQ PUSH2 0x5D5 JUMPI DUP1 PUSH4 0x715018A6 EQ PUSH2 0x578 JUMPI DUP1 PUSH4 0x8DA5CB5B EQ PUSH2 0x54F JUMPI DUP1 PUSH4 0x95D89B41 EQ PUSH2 0x481 JUMPI DUP1 PUSH4 0xA22CB465 EQ PUSH2 0x3E0 JUMPI DUP1 PUSH4 0xA762C342 EQ PUSH2 0x274 JUMPI DUP1 PUSH4 0xB88D4FDE EQ PUSH2 0x206 JUMPI DUP1 PUSH4 0xC87B56DD EQ PUSH2 0x1CF JUMPI DUP1 PUSH4 0xE985E9C5 EQ PUSH2 0x174 JUMPI PUSH4 0xF2FDE38B EQ PUSH2 0xE5 JUMPI PUSH1 0x0 DUP1 REVERT JUMPDEST CALLVALUE PUSH2 0x16F JUMPI PUSH1 0x20 CALLDATASIZE PUSH1 0x3 NOT ADD SLT PUSH2 0x16F JUMPI PUSH2 0xFE PUSH2 0xD05 JUMP JUMPDEST PUSH2 0x106 PUSH2 0x11A6 JUMP JUMPDEST PUSH1 0x1 PUSH1 0x1 PUSH1 0xA0 SHL SUB AND DUP1 ISZERO PUSH2 0x159 JUMPI PUSH1 0x7 DUP1 SLOAD PUSH1 0x1 PUSH1 0x1 PUSH1 0xA0 SHL SUB NOT DUP2 AND DUP4 OR SWAP1 SWAP2 SSTORE PUSH1 0x1 PUSH1 0x1 PUSH1 0xA0 SHL SUB AND PUSH32 0x8BE0079C531659141344CD1FD0A4F28419497F9722A3DAAFE3B4186F6B6457E0 PUSH1 0x0 DUP1 LOG3 STOP JUMPDEST PUSH4 0x1E4FBDF7 PUSH1 0xE0 SHL PUSH1 0x0 MSTORE PUSH1 0x0 PUSH1 0x4 MSTORE PUSH1 0x24 PUSH1 0x0 REVERT JUMPDEST PUSH1 0x0 DUP1 REVERT JUMPDEST CALLVALUE PUSH2 0x16F JUMPI PUSH1 0x40 CALLDATASIZE PUSH1 0x3 NOT ADD SLT PUSH2 0x16F JUMPI PUSH2 0x18D PUSH2 0xD05 JUMP JUMPDEST PUSH2 0x195 PUSH2 0xD1B JUMP JUMPDEST SWAP1 PUSH1 0x1 DUP1 PUSH1 0xA0 SHL SUB AND PUSH1 0x0 MSTORE PUSH1 0x5 PUSH1 0x20 MSTORE PUSH1 0x40 PUSH1 0x0 KECCAK256 SWAP1 PUSH1 0x1 DUP1 PUSH1 0xA0 SHL SUB AND PUSH1 0x0 MSTORE PUSH1 0x20 MSTORE PUSH1 0x20 PUSH1 0xFF PUSH1 0x40 PUSH1 0x0 KECCAK256 SLOAD AND PUSH1 0x40 MLOAD SWAP1 ISZERO ISZERO DUP2 MSTORE RETURN JUMPDEST CALLVALUE PUSH2 0x16F JUMPI PUSH1 0x20 CALLDATASIZE PUSH1 0x3 NOT ADD SLT PUSH2 0x16F JUMPI PUSH2 0x202 PUSH2 0x1EE PUSH1 0x4 CALLDATALOAD PUSH2 0xFD5 JUMP JUMPDEST PUSH1 0x40 MLOAD SWAP2 DUP3 SWAP2 PUSH1 0x20 DUP4 MSTORE PUSH1 0x20 DUP4 ADD SWAP1 PUSH2 0xCC6 JUMP JUMPDEST SUB SWAP1 RETURN JUMPDEST CALLVALUE PUSH2 0x16F JUMPI PUSH1 0x80 CALLDATASIZE PUSH1 0x3 NOT ADD SLT PUSH2 0x16F JUMPI PUSH2 0x21F PUSH2 0xD05 JUMP JUMPDEST PUSH2 0x227 PUSH2 0xD1B JUMP JUMPDEST SWAP1 PUSH1 0x44 CALLDATALOAD PUSH1 0x64 CALLDATALOAD SWAP3 PUSH8 0xFFFFFFFFFFFFFFFF DUP5 GT PUSH2 0x16F JUMPI CALLDATASIZE PUSH1 0x23 DUP6 ADD SLT ISZERO PUSH2 0x16F JUMPI PUSH2 0x260 PUSH2 0x272 SWAP5 CALLDATASIZE SWAP1 PUSH1 0x24 DUP2 PUSH1 0x4 ADD CALLDATALOAD SWAP2 ADD PUSH2 0xDA9 JUMP JUMPDEST SWAP3 PUSH2 0x26C DUP4 DUP4 DUP4 PUSH2 0xE3F JUMP JUMPDEST CALLER PUSH2 0x11CF JUMP JUMPDEST STOP JUMPDEST CALLVALUE PUSH2 0x16F JUMPI PUSH2 0x282 CALLDATASIZE PUSH2 0xD31 JUMP JUMPDEST SWAP2 PUSH1 0x1 PUSH1 0x1 PUSH1 0xA0 SHL SUB PUSH2 0x294 DUP5 PUSH2 0x10A1 JUMP JUMPDEST AND DUP1 CALLER EQ SWAP1 DUP2 ISZERO PUSH2 0x3C4 JUMPI JUMPDEST DUP2 ISZERO PUSH2 0x39F JUMPI JUMPDEST POP ISZERO PUSH2 0x362 JUMPI PUSH1 0x1 PUSH1 0x1 PUSH1 0xA0 SHL SUB DUP3 AND SWAP2 DUP3 ISZERO PUSH2 0x34C JUMPI PUSH1 0x1 PUSH1 0x1 PUSH1 0xA0 SHL SUB SWAP1 PUSH2 0x2D2 SWAP1 DUP6 SWAP1 PUSH2 0x10D8 JUMP JUMPDEST AND DUP1 PUSH2 0x2ED JUMPI DUP4 PUSH4 0x7E273289 PUSH1 0xE0 SHL PUSH1 0x0 MSTORE PUSH1 0x4 MSTORE PUSH1 0x24 PUSH1 0x0 REVERT JUMPDEST PUSH1 0x1 PUSH1 0x1 PUSH1 0xA0 SHL SUB DUP3 AND DUP1 DUP3 SUB PUSH2 0x330 JUMPI POP POP PUSH1 0x1 PUSH1 0x1 PUSH1 0xA0 SHL SUB AND PUSH32 0x268AE1851D13F9CD87A82EE6FC73474B3694D779B7BF6F66D86FD346F09511ED PUSH1 0x0 DUP1 LOG4 STOP JUMPDEST DUP5 SWAP1 PUSH4 0x64283D7B PUSH1 0xE0 SHL PUSH1 0x0 MSTORE PUSH1 0x4 MSTORE PUSH1 0x24 MSTORE PUSH1 0x44 MSTORE PUSH1 0x64 PUSH1 0x0 REVERT JUMPDEST PUSH4 0x32505749 PUSH1 0xE1 SHL PUSH1 0x0 MSTORE PUSH1 0x0 PUSH1 0x4 MSTORE PUSH1 0x24 PUSH1 0x0 REVERT JUMPDEST PUSH1 0x40 MLOAD PUSH3 0x461BCD PUSH1 0xE5 SHL DUP2 MSTORE PUSH1 0x20 PUSH1 0x4 DUP3 ADD MSTORE PUSH1 0x15 PUSH1 0x24 DUP3 ADD MSTORE PUSH21 0x2737BA1030B8383937BB32B21037B91037BBB732B9 PUSH1 0x59 SHL PUSH1 0x44 DUP3 ADD MSTORE PUSH1 0x64 SWAP1 REVERT JUMPDEST PUSH1 0x0 SWAP1 DUP2 MSTORE PUSH1 0x5 PUSH1 0x20 SWAP1 DUP2 MSTORE PUSH1 0x40 DUP1 DUP4 KECCAK256 CALLER DUP5 MSTORE SWAP1 SWAP2 MSTORE SWAP1 KECCAK256 SLOAD PUSH1 0xFF AND SWAP1 POP DUP5 PUSH2 0x2A7 JUMP JUMPDEST SWAP1 POP CALLER PUSH1 0x1 PUSH1 0x1 PUSH1 0xA0 SHL SUB PUSH2 0x3D8 DUP7 PUSH2 0xE1A JUMP JUMPDEST AND EQ SWAP1 PUSH2 0x2A0 JUMP JUMPDEST CALLVALUE PUSH2 0x16F JUMPI PUSH1 0x40 CALLDATASIZE PUSH1 0x3 NOT ADD SLT PUSH2 0x16F JUMPI PUSH2 0x3F9 PUSH2 0xD05 JUMP JUMPDEST PUSH1 0x24 CALLDATALOAD SWAP1 DUP2 ISZERO ISZERO DUP1 SWAP3 SUB PUSH2 0x16F JUMPI PUSH1 0x1 PUSH1 0x1 PUSH1 0xA0 SHL SUB AND SWAP1 DUP2 ISZERO PUSH2 0x46C JUMPI CALLER PUSH1 0x0 MSTORE PUSH1 0x5 PUSH1 0x20 MSTORE PUSH1 0x40 PUSH1 0x0 KECCAK256 DUP3 PUSH1 0x0 MSTORE PUSH1 0x20 MSTORE PUSH1 0x40 PUSH1 0x0 KECCAK256 PUSH1 0xFF NOT DUP2 SLOAD AND PUSH1 0xFF DUP4 AND OR SWAP1 SSTORE PUSH1 0x40 MLOAD SWAP1 DUP2 MSTORE PUSH32 0x17307EAB39AB6107E8899845AD3D59BD9653F200F220920489CA2B5937696C31 PUSH1 0x20 CALLER SWAP3 LOG3 STOP JUMPDEST POP PUSH4 0xB611743 PUSH1 0xE3 SHL PUSH1 0x0 MSTORE PUSH1 0x4 MSTORE PUSH1 0x24 PUSH1 0x0 REVERT JUMPDEST CALLVALUE PUSH2 0x16F JUMPI PUSH1 0x0 CALLDATASIZE PUSH1 0x3 NOT ADD SLT PUSH2 0x16F JUMPI PUSH1 0x40 MLOAD PUSH1 0x0 PUSH1 0x1 SLOAD PUSH2 0x4A3 DUP2 PUSH2 0xDE0 JUMP JUMPDEST DUP1 DUP5 MSTORE SWAP1 PUSH1 0x1 DUP2 AND SWAP1 DUP2 ISZERO PUSH2 0x52B JUMPI POP PUSH1 0x1 EQ PUSH2 0x4CB JUMPI JUMPDEST PUSH2 0x202 DUP4 PUSH2 0x1EE DUP2 DUP6 SUB DUP3 PUSH2 0xD6B JUMP JUMPDEST SWAP2 SWAP1 POP PUSH1 0x1 PUSH1 0x0 MSTORE PUSH32 0xB10E2D527612073B26EECDFD717E6A320CF44B4AFAC2B0732D9FCBE2B7FA0CF6 SWAP2 PUSH1 0x0 SWAP1 JUMPDEST DUP1 DUP3 LT PUSH2 0x511 JUMPI POP SWAP1 SWAP2 POP DUP2 ADD PUSH1 0x20 ADD PUSH2 0x1EE PUSH2 0x4BB JUMP JUMPDEST SWAP2 SWAP3 PUSH1 0x1 DUP2 PUSH1 0x20 SWAP3 SLOAD DUP4 DUP6 DUP9 ADD ADD MSTORE ADD SWAP2 ADD SWAP1 SWAP3 SWAP2 PUSH2 0x4F9 JUMP JUMPDEST PUSH1 0xFF NOT AND PUSH1 0x20 DUP1 DUP7 ADD SWAP2 SWAP1 SWAP2 MSTORE SWAP2 ISZERO ISZERO PUSH1 0x5 SHL DUP5 ADD SWAP1 SWAP2 ADD SWAP2 POP PUSH2 0x1EE SWAP1 POP PUSH2 0x4BB JUMP JUMPDEST CALLVALUE PUSH2 0x16F JUMPI PUSH1 0x0 CALLDATASIZE PUSH1 0x3 NOT ADD SLT PUSH2 0x16F JUMPI PUSH1 0x7 SLOAD PUSH1 0x40 MLOAD PUSH1 0x1 PUSH1 0x1 PUSH1 0xA0 SHL SUB SWAP1 SWAP2 AND DUP2 MSTORE PUSH1 0x20 SWAP1 RETURN JUMPDEST CALLVALUE PUSH2 0x16F JUMPI PUSH1 0x0 CALLDATASIZE PUSH1 0x3 NOT ADD SLT PUSH2 0x16F JUMPI PUSH2 0x591 PUSH2 0x11A6 JUMP JUMPDEST PUSH1 0x7 DUP1 SLOAD PUSH1 0x1 PUSH1 0x1 PUSH1 0xA0 SHL SUB NOT DUP2 AND SWAP1 SWAP2 SSTORE PUSH1 0x0 SWAP1 PUSH1 0x1 PUSH1 0x1 PUSH1 0xA0 SHL SUB AND PUSH32 0x8BE0079C531659141344CD1FD0A4F28419497F9722A3DAAFE3B4186F6B6457E0 DUP3 DUP1 LOG3 STOP JUMPDEST CALLVALUE PUSH2 0x16F JUMPI PUSH1 0x20 CALLDATASIZE PUSH1 0x3 NOT ADD SLT PUSH2 0x16F JUMPI PUSH1 0x1 PUSH1 0x1 PUSH1 0xA0 SHL SUB PUSH2 0x5F6 PUSH2 0xD05 JUMP JUMPDEST AND DUP1 ISZERO PUSH2 0x615 JUMPI PUSH1 0x0 MSTORE PUSH1 0x3 PUSH1 0x20 MSTORE PUSH1 0x20 PUSH1 0x40 PUSH1 0x0 KECCAK256 SLOAD PUSH1 0x40 MLOAD SWAP1 DUP2 MSTORE RETURN JUMPDEST PUSH4 0x22718AD9 PUSH1 0xE2 SHL PUSH1 0x0 MSTORE PUSH1 0x0 PUSH1 0x4 MSTORE PUSH1 0x24 PUSH1 0x0 REVERT JUMPDEST CALLVALUE PUSH2 0x16F JUMPI PUSH1 0x20 CALLDATASIZE PUSH1 0x3 NOT ADD SLT PUSH2 0x16F JUMPI PUSH1 0x20 PUSH2 0x649 PUSH1 0x4 CALLDATALOAD PUSH2 0x10A1 JUMP JUMPDEST PUSH1 0x40 MLOAD PUSH1 0x1 PUSH1 0x1 PUSH1 0xA0 SHL SUB SWAP1 SWAP2 AND DUP2 MSTORE RETURN JUMPDEST CALLVALUE PUSH2 0x16F JUMPI PUSH1 0x40 CALLDATASIZE PUSH1 0x3 NOT ADD SLT PUSH2 0x16F JUMPI PUSH2 0x674 PUSH2 0xD05 JUMP JUMPDEST PUSH1 0x24 CALLDATALOAD SWAP1 PUSH8 0xFFFFFFFFFFFFFFFF DUP3 GT PUSH2 0x16F JUMPI CALLDATASIZE PUSH1 0x23 DUP4 ADD SLT ISZERO PUSH2 0x16F JUMPI DUP2 PUSH1 0x4 ADD CALLDATALOAD SWAP1 PUSH8 0xFFFFFFFFFFFFFFFF DUP3 GT PUSH2 0x16F JUMPI PUSH1 0x24 DUP4 ADD SWAP3 PUSH1 0x24 DUP4 CALLDATASIZE SWAP3 ADD ADD GT PUSH2 0x16F JUMPI PUSH2 0x6C0 PUSH2 0x11A6 JUMP JUMPDEST PUSH1 0x8 SLOAD PUSH1 0x0 NOT DUP2 EQ PUSH2 0xA32 JUMPI PUSH1 0x1 ADD SWAP1 DUP2 PUSH1 0x8 SSTORE PUSH1 0x20 SWAP4 PUSH1 0x40 MLOAD PUSH2 0x6E4 DUP7 DUP3 PUSH2 0xD6B JUMP JUMPDEST PUSH1 0x0 DUP2 MSTORE PUSH1 0x1 PUSH1 0x1 PUSH1 0xA0 SHL SUB DUP4 AND SWAP3 DUP4 ISZERO PUSH2 0x34C JUMPI PUSH1 0x1 PUSH1 0x1 PUSH1 0xA0 SHL SUB PUSH2 0x70B DUP7 DUP4 PUSH2 0x10D8 JUMP JUMPDEST AND PUSH2 0xA1C JUMPI EXTCODESIZE PUSH2 0x8F7 JUMPI JUMPDEST POP PUSH2 0x722 CALLDATASIZE DUP6 DUP4 PUSH2 0xDA9 JUMP JUMPDEST DUP4 PUSH1 0x0 MSTORE PUSH1 0x6 DUP7 MSTORE PUSH1 0x40 PUSH1 0x0 KECCAK256 SWAP1 DUP1 MLOAD SWAP1 PUSH8 0xFFFFFFFFFFFFFFFF DUP3 GT PUSH2 0x8E1 JUMPI PUSH2 0x74C DUP4 SLOAD PUSH2 0xDE0 JUMP JUMPDEST PUSH1 0x1F DUP2 GT PUSH2 0x89B JUMPI JUMPDEST POP DUP8 SWAP1 PUSH1 0x1F DUP4 GT PUSH1 0x1 EQ PUSH2 0x80D JUMPI SWAP3 DUP3 PUSH1 0x40 SWAP4 PUSH32 0xB145EB58C4CE95EA8EBB64F9EC4C2C5FF09C2AEB40AFCA8CEE50367DFEC496E6 SWAP7 SWAP4 DUP10 SWAP11 SWAP7 PUSH1 0x0 SWAP3 PUSH2 0x802 JUMPI JUMPDEST POP POP DUP2 PUSH1 0x1 SHL SWAP2 PUSH1 0x0 NOT SWAP1 PUSH1 0x3 SHL SHR NOT AND OR SWAP1 SSTORE JUMPDEST PUSH32 0xF8E1A15ABA9398E019F0B49DF1A4FDE98EE17AE345CB5F6B5E2C27F5033E8CE7 DUP9 DUP4 MLOAD DUP9 DUP2 MSTORE LOG1 DUP3 DUP3 MLOAD SWAP4 DUP5 SWAP3 DUP11 DUP5 MSTORE DUP2 DUP12 DUP6 ADD MSTORE DUP5 DUP5 ADD CALLDATACOPY PUSH1 0x0 DUP3 DUP3 ADD DUP5 ADD MSTORE PUSH1 0x1F ADD PUSH1 0x1F NOT AND DUP2 ADD SUB ADD SWAP1 LOG3 PUSH1 0x40 MLOAD SWAP1 DUP2 MSTORE RETURN JUMPDEST ADD MLOAD SWAP1 POP DUP12 DUP1 PUSH2 0x796 JUMP JUMPDEST SWAP1 PUSH1 0x1F NOT DUP4 AND SWAP2 DUP5 PUSH1 0x0 MSTORE DUP10 PUSH1 0x0 KECCAK256 SWAP3 PUSH1 0x0 JUMPDEST DUP12 DUP3 DUP3 LT PUSH2 0x885 JUMPI POP POP SWAP4 PUSH32 0xB145EB58C4CE95EA8EBB64F9EC4C2C5FF09C2AEB40AFCA8CEE50367DFEC496E6 SWAP7 SWAP4 DUP10 SWAP11 SWAP7 SWAP4 PUSH1 0x1 SWAP4 DUP4 PUSH1 0x40 SWAP9 LT PUSH2 0x86C JUMPI JUMPDEST POP POP POP DUP2 SHL ADD SWAP1 SSTORE PUSH2 0x7AB JUMP JUMPDEST ADD MLOAD PUSH1 0x0 NOT PUSH1 0xF8 DUP5 PUSH1 0x3 SHL AND SHR NOT AND SWAP1 SSTORE DUP12 DUP1 DUP1 PUSH2 0x85F JUMP JUMPDEST PUSH1 0x1 DUP6 SWAP7 DUP3 SWAP4 SWAP7 DUP7 ADD MLOAD DUP2 SSTORE ADD SWAP6 ADD SWAP4 ADD PUSH2 0x820 JUMP JUMPDEST DUP4 PUSH1 0x0 MSTORE DUP9 PUSH1 0x0 KECCAK256 PUSH1 0x1F DUP5 ADD PUSH1 0x5 SHR DUP2 ADD SWAP2 DUP11 DUP6 LT PUSH2 0x8D7 JUMPI JUMPDEST PUSH1 0x1F ADD PUSH1 0x5 SHR ADD SWAP1 JUMPDEST DUP2 DUP2 LT PUSH2 0x8CB JUMPI POP PUSH2 0x755 JUMP JUMPDEST PUSH1 0x0 DUP2 SSTORE PUSH1 0x1 ADD PUSH2 0x8BE JUMP JUMPDEST SWAP1 SWAP2 POP DUP2 SWAP1 PUSH2 0x8B5 JUMP JUMPDEST PUSH4 0x4E487B71 PUSH1 0xE0 SHL PUSH1 0x0 MSTORE PUSH1 0x41 PUSH1 0x4 MSTORE PUSH1 0x24 PUSH1 0x0 REVERT JUMPDEST DUP6 PUSH2 0x936 SWAP2 PUSH1 0x40 SWAP8 SWAP7 SWAP6 SWAP5 SWAP8 MLOAD DUP1 SWAP4 DUP2 SWAP3 PUSH4 0xA85BD01 PUSH1 0xE1 SHL DUP4 MSTORE CALLER PUSH1 0x4 DUP5 ADD MSTORE PUSH1 0x0 PUSH1 0x24 DUP5 ADD MSTORE DUP8 PUSH1 0x44 DUP5 ADD MSTORE PUSH1 0x80 PUSH1 0x64 DUP5 ADD MSTORE PUSH1 0x84 DUP4 ADD SWAP1 PUSH2 0xCC6 JUMP JUMPDEST SUB DUP2 PUSH1 0x0 DUP11 GAS CALL DUP1 SWAP2 PUSH1 0x0 SWAP2 PUSH2 0x9D7 JUMPI JUMPDEST POP SWAP1 PUSH2 0x99E JUMPI DUP6 DUP6 RETURNDATASIZE ISZERO PUSH2 0x997 JUMPI RETURNDATASIZE PUSH2 0x95F DUP2 PUSH2 0xD8D JUMP JUMPDEST SWAP1 PUSH2 0x96D PUSH1 0x40 MLOAD SWAP3 DUP4 PUSH2 0xD6B JUMP JUMPDEST DUP2 MSTORE RETURNDATASIZE PUSH1 0x0 DUP4 DUP4 ADD RETURNDATACOPY JUMPDEST DUP1 MLOAD SWAP2 DUP3 PUSH2 0x994 JUMPI DUP4 PUSH4 0x32505749 PUSH1 0xE1 SHL PUSH1 0x0 MSTORE PUSH1 0x4 MSTORE PUSH1 0x24 PUSH1 0x0 REVERT JUMPDEST ADD REVERT JUMPDEST PUSH1 0x60 PUSH2 0x977 JUMP JUMPDEST SWAP4 SWAP5 SWAP3 SWAP4 SWAP2 SWAP3 SWAP2 PUSH1 0x1 PUSH1 0x1 PUSH1 0xE0 SHL SUB NOT AND PUSH4 0x757A42FF PUSH1 0xE1 SHL ADD PUSH2 0x9C2 JUMPI DUP6 PUSH2 0x716 JUMP JUMPDEST POP PUSH4 0x32505749 PUSH1 0xE1 SHL PUSH1 0x0 MSTORE PUSH1 0x4 MSTORE PUSH1 0x24 PUSH1 0x0 REVERT JUMPDEST DUP7 DUP2 DUP2 RETURNDATASIZE DUP4 GT PUSH2 0xA15 JUMPI JUMPDEST PUSH2 0x9EC DUP2 DUP4 PUSH2 0xD6B JUMP JUMPDEST DUP2 ADD SUB SLT PUSH2 0xA11 JUMPI MLOAD SWAP1 PUSH1 0x1 PUSH1 0x1 PUSH1 0xE0 SHL SUB NOT DUP3 AND DUP3 SUB PUSH2 0xA0E JUMPI POP DUP8 PUSH2 0x947 JUMP JUMPDEST DUP1 REVERT JUMPDEST POP DUP1 REVERT JUMPDEST POP RETURNDATASIZE PUSH2 0x9E2 JUMP JUMPDEST PUSH4 0x39E35637 PUSH1 0xE1 SHL PUSH1 0x0 MSTORE PUSH1 0x0 PUSH1 0x4 MSTORE PUSH1 0x24 PUSH1 0x0 REVERT JUMPDEST PUSH4 0x4E487B71 PUSH1 0xE0 SHL PUSH1 0x0 MSTORE PUSH1 0x11 PUSH1 0x4 MSTORE PUSH1 0x24 PUSH1 0x0 REVERT JUMPDEST CALLVALUE PUSH2 0x16F JUMPI PUSH2 0x272 PUSH2 0xA59 CALLDATASIZE PUSH2 0xD31 JUMP JUMPDEST SWAP1 PUSH1 0x40 MLOAD SWAP3 PUSH2 0xA69 PUSH1 0x20 DUP6 PUSH2 0xD6B JUMP JUMPDEST PUSH1 0x0 DUP5 MSTORE PUSH2 0x26C DUP4 DUP4 DUP4 PUSH2 0xE3F JUMP JUMPDEST CALLVALUE PUSH2 0x16F JUMPI PUSH2 0x272 PUSH2 0xA89 CALLDATASIZE PUSH2 0xD31 JUMP JUMPDEST SWAP2 PUSH2 0xE3F JUMP JUMPDEST CALLVALUE PUSH2 0x16F JUMPI PUSH1 0x40 CALLDATASIZE PUSH1 0x3 NOT ADD SLT PUSH2 0x16F JUMPI PUSH2 0xAA8 PUSH2 0xD05 JUMP JUMPDEST PUSH1 0x24 CALLDATALOAD PUSH2 0xAB4 DUP2 PUSH2 0x10A1 JUMP JUMPDEST CALLER ISZERO ISZERO DUP1 PUSH2 0xB6B JUMPI JUMPDEST DUP1 PUSH2 0xB3D JUMPI JUMPDEST PUSH2 0xB28 JUMPI DUP2 SWAP1 PUSH1 0x1 PUSH1 0x1 PUSH1 0xA0 SHL SUB DUP5 DUP2 AND SWAP2 AND PUSH32 0x8C5BE1E5EBEC7D5BD14F71427D1E84F3DD0314C0F7B2291E5B200AC8C7C3B925 PUSH1 0x0 DUP1 LOG4 PUSH1 0x0 SWAP1 DUP2 MSTORE PUSH1 0x4 PUSH1 0x20 MSTORE PUSH1 0x40 SWAP1 KECCAK256 DUP1 SLOAD PUSH1 0x1 PUSH1 0x1 PUSH1 0xA0 SHL SUB NOT AND PUSH1 0x1 PUSH1 0x1 PUSH1 0xA0 SHL SUB SWAP1 SWAP3 AND SWAP2 SWAP1 SWAP2 OR SWAP1 SSTORE STOP JUMPDEST PUSH4 0xA9FBF51F PUSH1 0xE0 SHL PUSH1 0x0 MSTORE CALLER PUSH1 0x4 MSTORE PUSH1 0x24 PUSH1 0x0 REVERT JUMPDEST POP PUSH1 0x1 PUSH1 0x1 PUSH1 0xA0 SHL SUB DUP2 AND PUSH1 0x0 SWAP1 DUP2 MSTORE PUSH1 0x5 PUSH1 0x20 SWAP1 DUP2 MSTORE PUSH1 0x40 DUP1 DUP4 KECCAK256 CALLER DUP5 MSTORE SWAP1 SWAP2 MSTORE SWAP1 KECCAK256 SLOAD PUSH1 0xFF AND ISZERO PUSH2 0xAC3 JUMP JUMPDEST POP PUSH1 0x1 PUSH1 0x1 PUSH1 0xA0 SHL SUB DUP2 AND CALLER EQ ISZERO PUSH2 0xABD JUMP JUMPDEST CALLVALUE PUSH2 0x16F JUMPI PUSH1 0x20 CALLDATASIZE PUSH1 0x3 NOT ADD SLT PUSH2 0x16F JUMPI PUSH1 0x20 PUSH2 0x649 PUSH1 0x4 CALLDATALOAD PUSH2 0xE1A JUMP JUMPDEST CALLVALUE PUSH2 0x16F JUMPI PUSH1 0x0 CALLDATASIZE PUSH1 0x3 NOT ADD SLT PUSH2 0x16F JUMPI PUSH1 0x40 MLOAD PUSH1 0x0 DUP1 SLOAD PUSH2 0xBBD DUP2 PUSH2 0xDE0 JUMP JUMPDEST DUP1 DUP5 MSTORE SWAP1 PUSH1 0x1 DUP2 AND SWAP1 DUP2 ISZERO PUSH2 0x52B JUMPI POP PUSH1 0x1 EQ PUSH2 0xBE4 JUMPI PUSH2 0x202 DUP4 PUSH2 0x1EE DUP2 DUP6 SUB DUP3 PUSH2 0xD6B JUMP JUMPDEST PUSH1 0x0 DUP1 DUP1 MSTORE PUSH32 0x290DECD9548B62A8D60345A988386FC84BA6BC95484008F6362F93160EF3E563 SWAP4 SWAP3 POP SWAP1 JUMPDEST DUP1 DUP3 LT PUSH2 0xC27 JUMPI POP SWAP1 SWAP2 POP DUP2 ADD PUSH1 0x20 ADD PUSH2 0x1EE PUSH2 0x4BB JUMP JUMPDEST SWAP2 SWAP3 PUSH1 0x1 DUP2 PUSH1 0x20 SWAP3 SLOAD DUP4 DUP6 DUP9 ADD ADD MSTORE ADD SWAP2 ADD SWAP1 SWAP3 SWAP2 PUSH2 0xC0F JUMP JUMPDEST CALLVALUE PUSH2 0x16F JUMPI PUSH1 0x20 CALLDATASIZE PUSH1 0x3 NOT ADD SLT PUSH2 0x16F JUMPI PUSH1 0x4 CALLDATALOAD SWAP1 PUSH4 0xFFFFFFFF PUSH1 0xE0 SHL DUP3 AND DUP1 SWAP3 SUB PUSH2 0x16F JUMPI PUSH1 0x20 SWAP2 PUSH4 0x24832483 PUSH1 0xE1 SHL DUP2 EQ SWAP1 DUP2 ISZERO PUSH2 0xC83 JUMPI JUMPDEST POP ISZERO ISZERO DUP2 MSTORE RETURN JUMPDEST PUSH4 0x80AC58CD PUSH1 0xE0 SHL DUP2 EQ SWAP2 POP DUP2 ISZERO PUSH2 0xCB5 JUMPI JUMPDEST DUP2 ISZERO PUSH2 0xCA4 JUMPI JUMPDEST POP DUP4 PUSH2 0xC7C JUMP JUMPDEST PUSH4 0x1FFC9A7 PUSH1 0xE0 SHL EQ SWAP1 POP DUP4 PUSH2 0xC9D JUMP JUMPDEST PUSH4 0x5B5E139F PUSH1 0xE0 SHL DUP2 EQ SWAP2 POP PUSH2 0xC96 JUMP JUMPDEST SWAP2 SWAP1 DUP3 MLOAD DUP1 DUP3 MSTORE PUSH1 0x20 DUP1 DUP4 ADD SWAP5 ADD PUSH1 0x0 JUMPDEST DUP3 DUP2 LT PUSH2 0xCF5 JUMPI POP POP PUSH1 0x0 DUP2 PUSH1 0x20 SWAP5 SWAP6 ADD MSTORE PUSH1 0x1F DUP1 NOT SWAP2 ADD AND ADD ADD SWAP1 JUMP JUMPDEST DUP2 DUP2 ADD MLOAD DUP7 DUP3 ADD MSTORE PUSH1 0x20 ADD PUSH2 0xCD7 JUMP JUMPDEST PUSH1 0x4 CALLDATALOAD SWAP1 PUSH1 0x1 PUSH1 0x1 PUSH1 0xA0 SHL SUB DUP3 AND DUP3 SUB PUSH2 0x16F JUMPI JUMP JUMPDEST PUSH1 0x24 CALLDATALOAD SWAP1 PUSH1 0x1 PUSH1 0x1 PUSH1 0xA0 SHL SUB DUP3 AND DUP3 SUB PUSH2 0x16F JUMPI JUMP JUMPDEST PUSH1 0x60 SWAP1 PUSH1 0x3 NOT ADD SLT PUSH2 0x16F JUMPI PUSH1 0x4 CALLDATALOAD PUSH1 0x1 PUSH1 0x1 PUSH1 0xA0 SHL SUB DUP2 AND DUP2 SUB PUSH2 0x16F JUMPI SWAP1 PUSH1 0x24 CALLDATALOAD PUSH1 0x1 PUSH1 0x1 PUSH1 0xA0 SHL SUB DUP2 AND DUP2 SUB PUSH2 0x16F JUMPI SWAP1 PUSH1 0x44 CALLDATALOAD SWAP1 JUMP JUMPDEST SWAP1 PUSH1 0x1F DUP1 NOT SWAP2 ADD AND DUP2 ADD SWAP1 DUP2 LT PUSH8 0xFFFFFFFFFFFFFFFF DUP3 GT OR PUSH2 0x8E1 JUMPI PUSH1 0x40 MSTORE JUMP JUMPDEST PUSH8 0xFFFFFFFFFFFFFFFF DUP2 GT PUSH2 0x8E1 JUMPI PUSH1 0x1F ADD PUSH1 0x1F NOT AND PUSH1 0x20 ADD SWAP1 JUMP JUMPDEST SWAP3 SWAP2 SWAP3 PUSH2 0xDB5 DUP3 PUSH2 0xD8D JUMP JUMPDEST SWAP2 PUSH2 0xDC3 PUSH1 0x40 MLOAD SWAP4 DUP5 PUSH2 0xD6B JUMP JUMPDEST DUP3 SWAP5 DUP2 DUP5 MSTORE DUP2 DUP4 ADD GT PUSH2 0x16F JUMPI DUP3 DUP2 PUSH1 0x20 SWAP4 DUP5 PUSH1 0x0 SWAP7 ADD CALLDATACOPY ADD ADD MSTORE JUMP JUMPDEST SWAP1 PUSH1 0x1 DUP3 DUP2 SHR SWAP3 AND DUP1 ISZERO PUSH2 0xE10 JUMPI JUMPDEST PUSH1 0x20 DUP4 LT EQ PUSH2 0xDFA JUMPI JUMP JUMPDEST PUSH4 0x4E487B71 PUSH1 0xE0 SHL PUSH1 0x0 MSTORE PUSH1 0x22 PUSH1 0x4 MSTORE PUSH1 0x24 PUSH1 0x0 REVERT JUMPDEST SWAP2 PUSH1 0x7F AND SWAP2 PUSH2 0xDEF JUMP JUMPDEST PUSH2 0xE23 DUP2 PUSH2 0x10A1 JUMP JUMPDEST POP PUSH1 0x0 SWAP1 DUP2 MSTORE PUSH1 0x4 PUSH1 0x20 MSTORE PUSH1 0x40 SWAP1 KECCAK256 SLOAD PUSH1 0x1 PUSH1 0x1 PUSH1 0xA0 SHL SUB AND SWAP1 JUMP JUMPDEST PUSH1 0x1 PUSH1 0x1 PUSH1 0xA0 SHL SUB SWAP1 SWAP2 AND SWAP2 SWAP1 DUP3 ISZERO PUSH2 0x34C JUMPI PUSH1 0x0 DUP3 DUP2 MSTORE PUSH1 0x2 PUSH1 0x20 MSTORE PUSH1 0x40 DUP2 KECCAK256 SLOAD PUSH1 0x1 PUSH1 0x1 PUSH1 0xA0 SHL SUB AND SWAP4 DUP4 SWAP2 DUP6 SWAP1 CALLER ISZERO ISZERO DUP1 PUSH2 0xF3D JUMPI JUMPDEST POP PUSH32 0xDDF252AD1BE2C89B69C2B068FC378DAA952BA7F163C4A11628F55A4DF523B3EF SWAP1 DUP3 PUSH2 0xF08 JUMPI JUMPDEST DUP4 DUP2 MSTORE PUSH1 0x3 PUSH1 0x20 MSTORE PUSH1 0x40 DUP2 KECCAK256 PUSH1 0x1 DUP2 SLOAD ADD SWAP1 SSTORE DUP5 DUP2 MSTORE PUSH1 0x2 PUSH1 0x20 MSTORE PUSH1 0x40 DUP2 KECCAK256 DUP5 PUSH12 0xFFFFFFFFFFFFFFFFFFFFFFFF PUSH1 0xA0 SHL DUP3 SLOAD AND OR SWAP1 SSTORE DUP1 LOG4 PUSH1 0x1 PUSH1 0x1 PUSH1 0xA0 SHL SUB AND DUP1 DUP4 SUB PUSH2 0xEEE JUMPI POP POP POP JUMP JUMPDEST PUSH4 0x64283D7B PUSH1 0xE0 SHL PUSH1 0x0 MSTORE PUSH1 0x4 MSTORE PUSH1 0x24 MSTORE PUSH1 0x44 MSTORE PUSH1 0x64 PUSH1 0x0 REVERT JUMPDEST PUSH1 0x0 DUP6 DUP2 MSTORE PUSH1 0x4 PUSH1 0x20 MSTORE PUSH1 0x40 SWAP1 KECCAK256 DUP1 SLOAD PUSH1 0x1 PUSH1 0x1 PUSH1 0xA0 SHL SUB NOT AND SWAP1 SSTORE DUP3 DUP2 MSTORE PUSH1 0x3 PUSH1 0x20 MSTORE PUSH1 0x40 DUP2 KECCAK256 DUP1 SLOAD PUSH1 0x0 NOT ADD SWAP1 SSTORE PUSH2 0xEA1 JUMP JUMPDEST SWAP2 POP SWAP2 SWAP3 POP DUP1 PUSH2 0xF86 JUMPI JUMPDEST ISZERO PUSH2 0xF57 JUMPI SWAP1 DUP5 DUP5 SWAP3 CODESIZE PUSH2 0xE78 JUMP JUMPDEST DUP4 SWAP1 DUP6 PUSH2 0xF70 JUMPI PUSH1 0x24 SWAP2 PUSH4 0x7E273289 PUSH1 0xE0 SHL DUP3 MSTORE PUSH1 0x4 MSTORE REVERT JUMPDEST PUSH1 0x44 SWAP2 PUSH4 0x177E802F PUSH1 0xE0 SHL DUP3 MSTORE CALLER PUSH1 0x4 MSTORE PUSH1 0x24 MSTORE REVERT JUMPDEST POP CALLER DUP6 EQ DUP1 ISZERO PUSH2 0xFB4 JUMPI JUMPDEST DUP1 PUSH2 0xF48 JUMPI POP DUP4 DUP2 MSTORE PUSH1 0x4 PUSH1 0x20 MSTORE PUSH1 0x40 DUP2 KECCAK256 SLOAD PUSH1 0x1 PUSH1 0x1 PUSH1 0xA0 SHL SUB AND CALLER EQ PUSH2 0xF48 JUMP JUMPDEST POP DUP5 DUP2 MSTORE PUSH1 0x5 PUSH1 0x20 SWAP1 DUP2 MSTORE PUSH1 0x40 DUP1 DUP4 KECCAK256 CALLER DUP5 MSTORE SWAP1 SWAP2 MSTORE DUP2 KECCAK256 SLOAD PUSH1 0xFF AND PUSH2 0xF91 JUMP JUMPDEST PUSH2 0xFDE DUP2 PUSH2 0x10A1 JUMP JUMPDEST POP PUSH1 0x0 MSTORE PUSH1 0x6 PUSH1 0x20 MSTORE PUSH1 0x40 PUSH1 0x0 KECCAK256 PUSH1 0x40 MLOAD SWAP1 DUP2 PUSH1 0x0 DUP3 SLOAD SWAP3 PUSH2 0xFFF DUP5 PUSH2 0xDE0 JUMP JUMPDEST DUP1 DUP5 MSTORE SWAP4 PUSH1 0x1 DUP2 AND SWAP1 DUP2 ISZERO PUSH2 0x107F JUMPI POP PUSH1 0x1 EQ PUSH2 0x1038 JUMPI JUMPDEST POP PUSH2 0x1024 SWAP3 POP SUB DUP3 PUSH2 0xD6B JUMP JUMPDEST PUSH1 0x0 PUSH1 0x40 MLOAD PUSH2 0x1034 PUSH1 0x20 DUP3 PUSH2 0xD6B JUMP JUMPDEST MSTORE SWAP1 JUMP JUMPDEST SWAP1 POP PUSH1 0x0 SWAP3 SWAP2 SWAP3 MSTORE PUSH1 0x20 PUSH1 0x0 KECCAK256 SWAP1 PUSH1 0x0 SWAP2 JUMPDEST DUP2 DUP4 LT PUSH2 0x1063 JUMPI POP POP SWAP1 PUSH1 0x20 PUSH2 0x1024 SWAP3 DUP3 ADD ADD CODESIZE PUSH2 0x1017 JUMP JUMPDEST PUSH1 0x20 SWAP2 SWAP4 POP DUP1 PUSH1 0x1 SWAP2 SLOAD DUP4 DUP6 DUP9 ADD ADD MSTORE ADD SWAP2 ADD SWAP1 SWAP2 DUP4 SWAP3 PUSH2 0x104A JUMP JUMPDEST SWAP1 POP PUSH1 0x20 SWAP3 POP PUSH2 0x1024 SWAP5 SWAP2 POP PUSH1 0xFF NOT AND DUP3 DUP5 ADD MSTORE ISZERO ISZERO PUSH1 0x5 SHL DUP3 ADD ADD CODESIZE PUSH2 0x1017 JUMP JUMPDEST PUSH1 0x0 DUP2 DUP2 MSTORE PUSH1 0x2 PUSH1 0x20 MSTORE PUSH1 0x40 SWAP1 KECCAK256 SLOAD PUSH1 0x1 PUSH1 0x1 PUSH1 0xA0 SHL SUB AND SWAP1 DUP2 ISZERO PUSH2 0x10C4 JUMPI POP SWAP1 JUMP JUMPDEST PUSH4 0x7E273289 PUSH1 0xE0 SHL PUSH1 0x0 MSTORE PUSH1 0x4 MSTORE PUSH1 0x24 PUSH1 0x0 REVERT JUMPDEST PUSH1 0x0 DUP3 DUP2 MSTORE PUSH1 0x2 PUSH1 0x20 MSTORE PUSH1 0x40 SWAP1 KECCAK256 SLOAD PUSH1 0x1 PUSH1 0x1 PUSH1 0xA0 SHL SUB AND SWAP2 SWAP1 DUP3 PUSH2 0x116F JUMPI JUMPDEST PUSH1 0x1 PUSH1 0x1 PUSH1 0xA0 SHL SUB AND DUP1 PUSH2 0x1155 JUMPI JUMPDEST DUP2 PUSH1 0x0 MSTORE PUSH1 0x2 PUSH1 0x20 MSTORE PUSH1 0x40 PUSH1 0x0 KECCAK256 DUP2 PUSH12 0xFFFFFFFFFFFFFFFFFFFFFFFF PUSH1 0xA0 SHL DUP3 SLOAD AND OR SWAP1 SSTORE DUP3 PUSH32 0xDDF252AD1BE2C89B69C2B068FC378DAA952BA7F163C4A11628F55A4DF523B3EF PUSH1 0x0 DUP1 LOG4 SWAP1 JUMP JUMPDEST DUP1 PUSH1 0x0 MSTORE PUSH1 0x3 PUSH1 0x20 MSTORE PUSH1 0x40 PUSH1 0x0 KECCAK256 PUSH1 0x1 DUP2 SLOAD ADD SWAP1 SSTORE PUSH2 0x1107 JUMP JUMPDEST PUSH1 0x0 DUP3 DUP2 MSTORE PUSH1 0x4 PUSH1 0x20 MSTORE PUSH1 0x40 SWAP1 KECCAK256 DUP1 SLOAD PUSH1 0x1 PUSH1 0x1 PUSH1 0xA0 SHL SUB NOT AND SWAP1 SSTORE DUP3 PUSH1 0x0 MSTORE PUSH1 0x3 PUSH1 0x20 MSTORE PUSH1 0x40 PUSH1 0x0 KECCAK256 PUSH1 0x0 NOT DUP2 SLOAD ADD SWAP1 SSTORE PUSH2 0x10F8 JUMP JUMPDEST PUSH1 0x7 SLOAD PUSH1 0x1 PUSH1 0x1 PUSH1 0xA0 SHL SUB AND CALLER SUB PUSH2 0x11BA JUMPI JUMP JUMPDEST PUSH4 0x118CDAA7 PUSH1 0xE0 SHL PUSH1 0x0 MSTORE CALLER PUSH1 0x4 MSTORE PUSH1 0x24 PUSH1 0x0 REVERT JUMPDEST DUP3 EXTCODESIZE PUSH2 0x11DD JUMPI JUMPDEST POP POP POP POP POP JUMP JUMPDEST PUSH1 0x40 MLOAD PUSH4 0xA85BD01 PUSH1 0xE1 SHL DUP2 MSTORE PUSH1 0x1 PUSH1 0x1 PUSH1 0xA0 SHL SUB SWAP2 DUP3 AND PUSH1 0x4 DUP3 ADD MSTORE SWAP2 DUP2 AND PUSH1 0x24 DUP4 ADD MSTORE PUSH1 0x44 DUP3 ADD SWAP4 SWAP1 SWAP4 MSTORE PUSH1 0x80 PUSH1 0x64 DUP3 ADD MSTORE SWAP2 AND SWAP2 PUSH1 0x20 SWAP1 DUP3 SWAP1 DUP2 SWAP1 PUSH2 0x1229 SWAP1 PUSH1 0x84 DUP4 ADD SWAP1 PUSH2 0xCC6 JUMP JUMPDEST SUB DUP2 PUSH1 0x0 DUP7 GAS CALL DUP1 SWAP2 PUSH1 0x0 SWAP2 PUSH2 0x12C9 JUMPI JUMPDEST POP SWAP1 PUSH2 0x1293 JUMPI POP RETURNDATASIZE ISZERO PUSH2 0x128C JUMPI RETURNDATASIZE PUSH2 0x1251 DUP2 PUSH2 0xD8D JUMP JUMPDEST SWAP1 PUSH2 0x125F PUSH1 0x40 MLOAD SWAP3 DUP4 PUSH2 0xD6B JUMP JUMPDEST DUP2 MSTORE RETURNDATASIZE PUSH1 0x0 PUSH1 0x20 DUP4 ADD RETURNDATACOPY JUMPDEST DUP1 MLOAD SWAP1 DUP2 PUSH2 0x1287 JUMPI DUP3 PUSH4 0x32505749 PUSH1 0xE1 SHL PUSH1 0x0 MSTORE PUSH1 0x4 MSTORE PUSH1 0x24 PUSH1 0x0 REVERT JUMPDEST PUSH1 0x20 ADD REVERT JUMPDEST PUSH1 0x60 PUSH2 0x126A JUMP JUMPDEST PUSH1 0x1 PUSH1 0x1 PUSH1 0xE0 SHL SUB NOT AND PUSH4 0x757A42FF PUSH1 0xE1 SHL ADD PUSH2 0x12B5 JUMPI POP CODESIZE DUP1 DUP1 DUP1 DUP1 PUSH2 0x11D6 JUMP JUMPDEST PUSH4 0x32505749 PUSH1 0xE1 SHL PUSH1 0x0 MSTORE PUSH1 0x4 MSTORE PUSH1 0x24 PUSH1 0x0 REVERT JUMPDEST PUSH1 0x20 DUP2 RETURNDATASIZE PUSH1 0x20 GT PUSH2 0x1304 JUMPI JUMPDEST DUP2 PUSH2 0x12E2 PUSH1 0x20 SWAP4 DUP4 PUSH2 0xD6B JUMP JUMPDEST DUP2 ADD SUB SLT PUSH2 0xA11 JUMPI MLOAD SWAP1 PUSH1 0x1 PUSH1 0x1 PUSH1 0xE0 SHL SUB NOT DUP3 AND DUP3 SUB PUSH2 0xA0E JUMPI POP CODESIZE PUSH2 0x123A JUMP JUMPDEST RETURNDATASIZE SWAP2 POP PUSH2 0x12D5 JUMP INVALID LOG2 PUSH5 0x6970667358 0x22 SLT KECCAK256 PUSH12 0x99FC01B554845BD32A7372C4 0x24 DUP13 0xC5 SAR 0x2E PUSH13 0x9802D159328A0CB1711F684CAA PUSH5 0x736F6C6343 STOP ADDMOD SHR STOP CALLER "},"methodIdentifiers":{"approve(address,uint256)":"095ea7b3","balanceOf(address)":"70a08231","getApproved(uint256)":"081812fc","isApprovedForAll(address,address)":"e985e9c5","mintLand(address,string)":"505de93c","name()":"06fdde03","owner()":"8da5cb5b","ownerOf(uint256)":"6352211e","renounceOwnership()":"715018a6","safeTransferFrom(address,address,uint256)":"42842e0e","safeTransferFrom(address,address,uint256,bytes)":"b88d4fde","setApprovalForAll(address,bool)":"a22cb465","supportsInterface(bytes4)":"01ffc9a7","symbol()":"95d89b41","tokenURI(uint256)":"c87b56dd","transferFrom(address,address,uint256)":"23b872dd","transferLand(address,address,uint256)":"a762c342","transferOwnership(address)":"f2fde38b"}}}}}