{"contracts/OpenAcres.sol":{"OpenAcres":{"abi":[{"inputs":[],"stateMutability":"nonpayable","type":"constructor"},{"inputs":[],"name":"AccessControlBadConfirmation","type":"error"},{"inputs":[{"internalType":"address","name":"account","type":"address"},{"internalType":"bytes32","name":"neededRole","type":"bytes32"}],"name":"AccessControlUnauthorizedAccount","type":"error"},{"inputs":[{"internalType":"address","name":"sender","type":"address"},{"internalType":"uint256","name":"tokenId","type":"uint256"},{"internalType":"address","name":"owner","type":"address"}],"name":"ERC721IncorrectOwner","type":"error"},{"inputs":[{"internalType":"address","name":"operator","type":"address"},{"internalType":"uint256","name":"tokenId","type":"uint256"}],"name":"ERC721InsufficientApproval","type":"error"},{"inputs":[{"internalType":"address","name":"approver","type":"address"}],"name":"ERC721InvalidApprover","type":"error"},{"inputs":[{"internalType":"address","name":"operator","type":"address"}],"name":"ERC721InvalidOperator","type":"error"},{"inputs":[{"internalType":"address","name":"owner","type":"address"}],"name":"ERC721InvalidOwner","type":"error"},{"inputs":[{"internalType":"address","name":"receiver","type":"address"}],"name":"ERC721InvalidReceiver","type":"error"},{"inputs":[{"internalType":"address","name":"sender","type":"address"}],"name":"ERC721InvalidSender","type":"error"},{"inputs":[{"internalType":"uint256","name":"tokenId","type":"uint256"}],"name":"ERC721NonexistentToken","type":"error"},{"anonymous":false,"inputs":[{"indexed":true,"internalType":"address","name":"owner","type":"address"},{"indexed":true,"internalType":"address","name":"approved","type":"address"},{"indexed":true,"internalType":"uint256","name":"tokenId","type":"uint256"}],"name":"Approval","type":"event"},{"anonymous":false,"inputs":[{"indexed":true,"internalType":"address","name":"owner","type":"address"},{"indexed":true,"internalType":"address","name":"operator","type":"address"},{"indexed":false,"internalType":"bool","name":"approved","type":"bool"}],"name":"ApprovalForAll","type":"event"},{"anonymous":false,"inputs":[{"indexed":false,"internalType":"uint256","name":"_fromTokenId","type":"uint256"},{"indexed":false,"internalType":"uint256","name":"_toTokenId","type":"uint256"}],"name":"BatchMetadataUpdate","type":"event"},{"anonymous":false,"inputs":[{"indexed":true,"internalType":"uint256","name":"tokenId","type":"uint256"},{"indexed":false,"internalType":"bool","name":"hasDispute","type":"bool"},{"indexed":false,"internalType":"string","name":"details","type":"string"}],"name":"DisputeStatusUpdated","type":"event"},{"anonymous":false,"inputs":[{"indexed":true,"internalType":"address","name":"to","type":"address"},{"indexed":true,"internalType":"uint256","name":"tokenId","type":"uint256"},{"indexed":false,"internalType":"string","name":"surveyNumber","type":"string"}],"name":"LandMinted","type":"event"},{"anonymous":false,"inputs":[{"indexed":true,"internalType":"address","name":"from","type":"address"},{"indexed":true,"internalType":"address","name":"to","type":"address"},{"indexed":true,"internalType":"uint256","name":"tokenId","type":"uint256"}],"name":"LandTransferred","type":"event"},{"anonymous":false,"inputs":[{"indexed":true,"internalType":"uint256","name":"tokenId","type":"uint256"},{"indexed":false,"internalType":"uint256","name":"oldValue","type":"uint256"},{"indexed":false,"internalType":"uint256","name":"newValue","type":"uint256"},{"indexed":false,"internalType":"uint256","name":"timestamp","type":"uint256"}],"name":"MarketValueUpdated","type":"event"},{"anonymous":false,"inputs":[{"indexed":false,"internalType":"uint256","name":"_tokenId","type":"uint256"}],"name":"MetadataUpdate","type":"event"},{"anonymous":false,"inputs":[{"indexed":true,"internalType":"bytes32","name":"role","type":"bytes32"},{"indexed":true,"internalType":"bytes32","name":"previousAdminRole","type":"bytes32"},{"indexed":true,"internalType":"bytes32","name":"newAdminRole","type":"bytes32"}],"name":"RoleAdminChanged","type":"event"},{"anonymous":false,"inputs":[{"indexed":true,"internalType":"bytes32","name":"role","type":"bytes32"},{"indexed":true,"internalType":"address","name":"account","type":"address"},{"indexed":true,"internalType":"address","name":"sender","type":"address"}],"name":"RoleGranted","type":"event"},{"anonymous":false,"inputs":[{"indexed":true,"internalType":"bytes32","name":"role","type":"bytes32"},{"indexed":true,"internalType":"address","name":"account","type":"address"},{"indexed":true,"internalType":"address","name":"sender","type":"address"}],"name":"RoleRevoked","type":"event"},{"anonymous":false,"inputs":[{"indexed":true,"internalType":"address","name":"from","type":"address"},{"indexed":true,"internalType":"address","name":"to","type":"address"},{"indexed":true,"internalType":"uint256","name":"tokenId","type":"uint256"}],"name":"Transfer","type":"event"},{"inputs":[],"name":"AUTHORITY_ROLE","outputs":[{"internalType":"bytes32","name":"","type":"bytes32"}],"stateMutability":"view","type":"function"},{"inputs":[],"name":"DEFAULT_ADMIN_ROLE","outputs":[{"internalType":"bytes32","name":"","type":"bytes32"}],"stateMutability":"view","type":"function"},{"inputs":[],"name":"MAX_AREA","outputs":[{"internalType":"uint256","name":"","type":"uint256"}],"stateMutability":"view","type":"function"},{"inputs":[],"name":"MIN_AREA","outputs":[{"internalType":"uint256","name":"","type":"uint256"}],"stateMutability":"view","type":"function"},{"inputs":[{"internalType":"address","name":"to","type":"address"},{"internalType":"uint256","name":"tokenId","type":"uint256"}],"name":"approve","outputs":[],"stateMutability":"nonpayable","type":"function"},{"inputs":[{"internalType":"address","name":"owner","type":"address"}],"name":"balanceOf","outputs":[{"internalType":"uint256","name":"","type":"uint256"}],"stateMutability":"view","type":"function"},{"inputs":[{"components":[{"internalType":"address","name":"recipient","type":"address"},{"internalType":"string","name":"location","type":"string"},{"internalType":"string","name":"surveyNumber","type":"string"},{"internalType":"uint256","name":"area","type":"uint256"},{"internalType":"string","name":"propertyType","type":"string"},{"internalType":"uint256","name":"marketValue","type":"uint256"}],"internalType":"struct OpenAcres.BatchMintParams[]","name":"params","type":"tuple[]"}],"name":"batchMintLand","outputs":[{"internalType":"uint256[]","name":"","type":"uint256[]"}],"stateMutability":"nonpayable","type":"function"},{"inputs":[{"internalType":"address[]","name":"froms","type":"address[]"},{"internalType":"address[]","name":"tos","type":"address[]"},{"internalType":"uint256[]","name":"tokenIds","type":"uint256[]"}],"name":"batchTransferLand","outputs":[],"stateMutability":"nonpayable","type":"function"},{"inputs":[{"internalType":"uint256[]","name":"tokenIds","type":"uint256[]"},{"internalType":"uint256[]","name":"newValues","type":"uint256[]"}],"name":"batchUpdateMarketValue","outputs":[],"stateMutability":"nonpayable","type":"function"},{"inputs":[{"internalType":"uint256","name":"tokenId","type":"uint256"}],"name":"getApproved","outputs":[{"internalType":"address","name":"","type":"address"}],"stateMutability":"view","type":"function"},{"inputs":[{"internalType":"uint256","name":"tokenId","type":"uint256"}],"name":"getCurrentMarketValue","outputs":[{"internalType":"uint256","name":"","type":"uint256"}],"stateMutability":"view","type":"function"},{"inputs":[{"internalType":"uint256","name":"tokenId","type":"uint256"}],"name":"getLandParcel","outputs":[{"components":[{"internalType":"string","name":"location","type":"string"},{"internalType":"string","name":"surveyNumber","type":"string"},{"internalType":"uint256","name":"area","type":"uint256"},{"internalType":"string","name":"propertyType","type":"string"},{"internalType":"uint256","name":"marketValue","type":"uint256"},{"internalType":"bool","name":"hasDispute","type":"bool"},{"internalType":"string","name":"disputeDetails","type":"string"},{"internalType":"uint256","name":"lastTransferDate","type":"uint256"},{"internalType":"string","name":"ownershipHistory","type":"string"},{"internalType":"string","name":"valueHistory","type":"string"}],"internalType":"struct OpenAcres.LandParcel","name":"","type":"tuple"}],"stateMutability":"view","type":"function"},{"inputs":[{"internalType":"uint256","name":"tokenId","type":"uint256"}],"name":"getOwnershipHistory","outputs":[{"internalType":"string","name":"","type":"string"}],"stateMutability":"view","type":"function"},{"inputs":[{"internalType":"bytes32","name":"role","type":"bytes32"}],"name":"getRoleAdmin","outputs":[{"internalType":"bytes32","name":"","type":"bytes32"}],"stateMutability":"view","type":"function"},{"inputs":[],"name":"getTokenIdCounter","outputs":[{"internalType":"uint256","name":"","type":"uint256"}],"stateMutability":"view","type":"function"},{"inputs":[],"name":"getTotalLands","outputs":[{"internalType":"uint256","name":"","type":"uint256"}],"stateMutability":"view","type":"function"},{"inputs":[{"internalType":"uint256","name":"tokenId","type":"uint256"}],"name":"getValueHistory","outputs":[{"internalType":"string","name":"","type":"string"}],"stateMutability":"view","type":"function"},{"inputs":[{"internalType":"bytes32","name":"role","type":"bytes32"},{"internalType":"address","name":"account","type":"address"}],"name":"grantRole","outputs":[],"stateMutability":"nonpayable","type":"function"},{"inputs":[{"internalType":"uint256","name":"tokenId","type":"uint256"}],"name":"hasActiveDispute","outputs":[{"internalType":"bool","name":"","type":"bool"}],"stateMutability":"view","type":"function"},{"inputs":[{"internalType":"bytes32","name":"role","type":"bytes32"},{"internalType":"address","name":"account","type":"address"}],"name":"hasRole","outputs":[{"internalType":"bool","name":"","type":"bool"}],"stateMutability":"view","type":"function"},{"inputs":[{"internalType":"address","name":"owner","type":"address"},{"internalType":"address","name":"operator","type":"address"}],"name":"isApprovedForAll","outputs":[{"internalType":"bool","name":"","type":"bool"}],"stateMutability":"view","type":"function"},{"inputs":[{"internalType":"uint256","name":"","type":"uint256"}],"name":"landParcels","outputs":[{"internalType":"string","name":"location","type":"string"},{"internalType":"string","name":"surveyNumber","type":"string"},{"internalType":"uint256","name":"area","type":"uint256"},{"internalType":"string","name":"propertyType","type":"string"},{"internalType":"uint256","name":"marketValue","type":"uint256"},{"internalType":"bool","name":"hasDispute","type":"bool"},{"internalType":"string","name":"disputeDetails","type":"string"},{"internalType":"uint256","name":"lastTransferDate","type":"uint256"},{"internalType":"string","name":"ownershipHistory","type":"string"},{"internalType":"string","name":"valueHistory","type":"string"}],"stateMutability":"view","type":"function"},{"inputs":[{"internalType":"address","name":"to","type":"address"},{"internalType":"string","name":"location","type":"string"},{"internalType":"string","name":"surveyNumber","type":"string"},{"internalType":"uint256","name":"area","type":"uint256"},{"internalType":"string","name":"propertyType","type":"string"},{"internalType":"uint256","name":"marketValue","type":"uint256"}],"name":"mintLand","outputs":[{"internalType":"uint256","name":"","type":"uint256"}],"stateMutability":"nonpayable","type":"function"},{"inputs":[],"name":"name","outputs":[{"internalType":"string","name":"","type":"string"}],"stateMutability":"view","type":"function"},{"inputs":[{"internalType":"uint256","name":"tokenId","type":"uint256"}],"name":"ownerOf","outputs":[{"internalType":"address","name":"","type":"address"}],"stateMutability":"view","type":"function"},{"inputs":[{"internalType":"bytes32","name":"role","type":"bytes32"},{"internalType":"address","name":"callerConfirmation","type":"address"}],"name":"renounceRole","outputs":[],"stateMutability":"nonpayable","type":"function"},{"inputs":[{"internalType":"bytes32","name":"role","type":"bytes32"},{"internalType":"address","name":"account","type":"address"}],"name":"revokeRole","outputs":[],"stateMutability":"nonpayable","type":"function"},{"inputs":[{"internalType":"address","name":"from","type":"address"},{"internalType":"address","name":"to","type":"address"},{"internalType":"uint256","name":"tokenId","type":"uint256"}],"name":"safeTransferFrom","outputs":[],"stateMutability":"nonpayable","type":"function"},{"inputs":[{"internalType":"address","name":"from","type":"address"},{"internalType":"address","name":"to","type":"address"},{"internalType":"uint256","name":"tokenId","type":"uint256"},{"internalType":"bytes","name":"data","type":"bytes"}],"name":"safeTransferFrom","outputs":[],"stateMutability":"nonpayable","type":"function"},{"inputs":[{"internalType":"address","name":"operator","type":"address"},{"internalType":"bool","name":"approved","type":"bool"}],"name":"setApprovalForAll","outputs":[],"stateMutability":"nonpayable","type":"function"},{"inputs":[{"internalType":"bytes4","name":"interfaceId","type":"bytes4"}],"name":"supportsInterface","outputs":[{"internalType":"bool","name":"","type":"bool"}],"stateMutability":"view","type":"function"},{"inputs":[],"name":"symbol","outputs":[{"internalType":"string","name":"","type":"string"}],"stateMutability":"view","type":"function"},{"inputs":[{"internalType":"uint256","name":"tokenId","type":"uint256"}],"name":"tokenURI","outputs":[{"internalType":"string","name":"","type":"string"}],"stateMutability":"view","type":"function"},{"inputs":[{"internalType":"address","name":"from","type":"address"},{"internalType":"address","name":"to","type":"address"},{"internalType":"uint256","name":"tokenId","type":"uint256"}],"name":"transferFrom","outputs":[],"stateMutability":"nonpayable","type":"function"},{"inputs":[{"internalType":"address","name":"from","type":"address"},{"internalType":"address","name":"to","type":"address"},{"internalType":"uint256","name":"tokenId","type":"uint256"}],"name":"transferLand","outputs":[],"stateMutability":"nonpayable","type":"function"},{"inputs":[{"internalType":"uint256","name":"tokenId","type":"uint256"},{"internalType":"bool","name":"hasDispute","type":"bool"},{"internalType":"string","name":"details","type":"string"}],"name":"updateDisputeStatus","outputs":[],"stateMutability":"nonpayable","type":"function"},{"inputs":[{"internalType":"uint256","name":"tokenId","type":"uint256"},{"internalType":"uint256","name":"newValue","type":"uint256"}],"name":"updateMarketValue","outputs":[],"stateMutability":"nonpayable","type":"function"}],"evm":{"bytecode":{"linkReferences":{},"object":"60806040523461033c57604080519081016001600160401b03811182821017610249576040908152600c82526b4c616e64526567697374727960a01b602083015280519081016001600160401b038111828210176102495760405260048152631310539160e21b602082015281516001600160401b03811161024957600054600181811c91168015610332575b602082101461022957601f81116102ce575b50602092601f821160011461026a579281929360009261025f575b50508160011b916000199060031b1c1916176000555b80516001600160401b03811161024957600154600181811c9116801561023f575b602082101461022957601f81116101c4575b50602091601f821160011461016057918192600092610155575b50508160011b916000199060031b1c1916176001555b61013b33610341565b50610145336103bd565b50604051613c8d90816104568239f35b01519050388061011c565b601f198216926001600052806000209160005b8581106101ac57508360019510610193575b505050811b01600155610132565b015160001960f88460031b161c19169055388080610185565b91926020600181928685015181550194019201610173565b60016000527fb10e2d527612073b26eecdfd717e6a320cf44b4afac2b0732d9fcbe2b7fa0cf6601f830160051c8101916020841061021f575b601f0160051c01905b8181106102135750610102565b60008155600101610206565b90915081906101fd565b634e487b7160e01b600052602260045260246000fd5b90607f16906100f0565b634e487b7160e01b600052604160045260246000fd5b0151905038806100b9565b601f1982169360008052806000209160005b8681106102b6575083600195961061029d575b505050811b016000556100cf565b015160001960f88460031b161c1916905538808061028f565b9192602060018192868501518155019401920161027c565b600080527f290decd9548b62a8d60345a988386fc84ba6bc95484008f6362f93160ef3e563601f830160051c81019160208410610328575b601f0160051c01905b81811061031c575061009e565b6000815560010161030f565b9091508190610306565b90607f169061008c565b600080fd5b6001600160a01b0381166000908152600080516020614123833981519152602052604090205460ff166103b7576001600160a01b0316600081815260008051602061412383398151915260205260408120805460ff191660011790553391906000805160206140e38339815191528180a4600190565b50600090565b6001600160a01b0381166000908152600080516020614103833981519152602052604090205460ff166103b7576001600160a01b0316600081815260008051602061410383398151915260205260408120805460ff191660011790553391907fd565e3fc066df348a5cbc05a8d6323e00552838041cea2d84cc59876ba37735d906000805160206140e38339815191529080a460019056fe60a080604052600436101561001357600080fd5b60003560e01c90816301ffc9a714612a155750806306fdde0314612970578063081812fc14612952578063095ea7b314612863578063168fc8981461284557806320e7c6d41461273757806323b872dd14612720578063248a9ca3146126eb5780632f2ff15d146126ab57806336568abe1461266557806338fe1850146124a557806342842e0e146124755780634a3fba0e1461243a57806354768693146119f05780636352211e146119c057806370a082311461196a5780638388e2ba1461194e578063842e7dba146104ff57806391d148541461190157806395d89b4114611834578063a217fddf14611818578063a22cb46514611771578063a762c3421461175a578063aa023ed814610b1d578063ab279a8e14610ada578063b4e63495146108cc578063b88d4fde14610861578063c4b1c73514610780578063c87b56dd14610761578063cf62664a1461054b578063d547741f14610504578063dbfd4b98146104ff578063dd6055c8146104bc578063e7feff2e146102c1578063e985e9c514610266578063f1bd74391461021e5763f1dbaccb146101b657600080fd5b34610219576020366003190112610219576004356101e66001600160a01b036101de8361351c565b161515612f2a565b60005260096020526102156102016008604060002001612b9f565b604051918291602083526020830190612ad7565b0390f35b600080fd5b34610219576020366003190112610219576004356102466001600160a01b036101de8361351c565b6000526009602052602060ff600560406000200154166040519015158152f35b346102195760403660031901126102195761027f612afc565b610287612b12565b9060018060a01b0316600052600560205260406000209060018060a01b0316600052602052602060ff604060002054166040519015158152f35b34610219576020366003190112610219576004356040516102e181612b62565b6060808252602082018190526000604083018190528282018290526080830181905260a0830181905260c0830182905260e08301526101008201819052610120909101526001600160a01b036103368261351c565b16151561034290612f2a565b6000526009602052604060002060405161035b81612b62565b61036482612b9f565b815261037260018301612b9f565b91602082019283526002810154604083019081526003820161039390612b9f565b9160608401928352600481015460808501908152600582015460ff1660a086019015158152600683016103c590612b9f565b9060c0870191825260078401549460e08801958652600885016103e790612b9f565b9461010089019586526009016103fc90612b9f565b966101208901978852604051998a9960208b525160208b0161014090526101608b0161042791612ad7565b90518a8203601f190160408c015261043f9190612ad7565b915160608a015251888203601f190160808a015261045d9190612ad7565b925160a088015251151560c087015251858203601f190160e08701526104839190612ad7565b915161010085015251838203601f19016101208501526104a39190612ad7565b9051828203601f19016101408401526102159190612ad7565b34610219576020366003190112610219576004356104e46001600160a01b036101de8361351c565b60005260096020526020600460406000200154604051908152f35b612cb9565b3461021957604036600319011261021957610549600435610523612b12565b9061054461053f82600052600760205260016040600020015490565b613693565b61375f565b005b346102195760403660031901126102195760043560243561056a613621565b61057e6001600160a01b036101de8461351c565b610589811515612fe0565b60008281526009602081905260409091206004810180549084905592916105d7916106319160059101600e6105bd866137f6565b6105c6426137f6565b906040519687946020860190613051565b6d016102ab83230ba32b2103a379d160951b81526105fe8251809360208785019101612ab4565b016401030ba1d160dd1b83820152610620825180936020601385019101612ab4565b01010301601f198101835282612b7e565b8360005260096020526009604060002001908051906001600160401b03821161074b57610668826106628554612b28565b85612f6d565b602090601f83116001146106d0578260609593600080516020613c388339815191529795936106ae936000926106c5575b50508160011b916000199060031b1c19161790565b90555b6040519182526020820152426040820152a2005b015190508980610699565b90601f1983169184600052816000209260005b818110610733575092600192859260609896600080516020613c388339815191529a98961061071a575b505050811b0190556106b1565b015160001960f88460031b161c1916905588808061070d565b929360206001819287860151815501950193016106e3565b634e487b7160e01b600052604160045260246000fd5b34610219576020366003190112610219576102156102016004356134e9565b34610219576060366003190112610219576004356001600160401b038111610219576107b0903690600401612cd7565b6024356001600160401b038111610219576107cf903690600401612cd7565b906044356001600160401b038111610219576107ef903690600401612cd7565b9483851480610858575b61080290613494565b61080d8515156133db565b60005b85811061081957005b8061085261083261082d6001948a876134d9565b61344e565b61084061082d848a8a6134d9565b61084b848c896134d9565b35916130bf565b01610810565b508486146107f9565b346102195760803660031901126102195761087a612afc565b610882612b12565b90604435606435926001600160401b0384116102195736602385011215610219576108ba610549943690602481600401359101612d22565b926108c6838383612d7e565b33613b30565b34610219576040366003190112610219576004356001600160401b038111610219576108fc903690600401612cd7565b6024356001600160401b0381116102195761091b903690600401612cd7565b919092610926613621565b610931838314613494565b61093c8215156133db565b60005b82811061094857005b6109538184846134d9565b3561095f8286886134d9565b35610968613621565b61097c6001600160a01b036101de8461351c565b610987811515612fe0565b60008281526009602081905260409091206004810180549084905592916105d7916109bb9160059101600e6105bd866137f6565b8360005260096020526009604060002001908051906001600160401b03821161074b576109ec826106628554612b28565b602090601f8311600114610a5b5792610a3583600199989794600080516020613c388339815191529794606097600092610a505750508160011b916000199060031b1c19161790565b90555b6040519182526020820152426040820152a20161093f565b015190508f80610699565b90601f1983169184600052816000209260005b818110610ac2575093600080516020613c3883398151915296936060969360019b9a999693838d9510610aa9575b505050811b019055610a38565b015160001960f88460031b161c191690558e8080610a9c565b92936020600181928786015181550195019301610a6e565b3461021957602036600319011261021957600435610b026001600160a01b036101de8361351c565b60005260096020526102156102016009604060002001612b9f565b34610219576020366003190112610219576004356001600160401b03811161021957610b4d903690600401612cd7565b90610b56613621565b610b618215156133db565b610b6a82613415565b90610b786040519283612b7e565b828252610b8483613415565b601f1901366020840137602060805260005b838110610be65782604051809160805182016080518352815180915260206040840192019060005b818110610bcc575050500390f35b825184526080518695509384019390920191600101610bbe565b610bf181858461342c565b610bfa9061344e565b90610c0681868561342c565b6080518101610c1491613462565b610c2283888796949661342c565b60408101610c2f91613462565b929091610c3d858a8961342c565b6060013595610c4d868b8a61342c565b60808101610c5a91613462565b9290610c67888d8c61342c565b60a0013590600094610c77613621565b6001600160a01b038716156117185783156116d75788156116915760018b101580611684575b1561164a57801561160457610cb3831515612fe0565b610cbe60085461302c565b9a8b600855604051610cd260805182612b7e565b8781526001600160a01b03610ce78e8b613553565b166115f05790610cfe610d869493928e8b336139ec565b610d67610d0a866137f6565b97610d53602f604051809b6e024b734ba34b0b6103b30b63ab29d1608d1b608051830152610d42815180928585019060805101612ab4565b81010301601f1981018b528a612b7e565b60405197610d6089612b62565b3691612d22565b8652610d74368c8c612d22565b60805187015260408601523691612d22565b606083015260808201528260a0820152604051610da560805182612b7e565b83815260c08201524260e0820152604051610dc260805182612b7e565b838152610100820152604051610dda60805182612b7e565b838152610120820152878352600960805152604083209080518051906001600160401b03821161141e57610e1882610e128654612b28565b86612f6d565b60805190601f831160011461158557610e489291879183610a505750508160011b916000199060031b1c19161790565b82555b6080518101518051906001600160401b03821161141e57610e7c82610e736001870154612b28565b60018701612f6d565b60805190601f831160011461151457610eac9291879183610a505750508160011b916000199060031b1c19161790565b60018301555b6040810151600283015560608101518051906001600160401b03821161141e57610eec82610ee36003870154612b28565b60038701612f6d565b60805190601f83116001146114a357610f1c9291879183610a505750508160011b916000199060031b1c19161790565b60038301555b60808101516004830155610f4b60a08201511515600584019060ff801983541691151516179055565b60c08101518051906001600160401b03821161141e57610f7b82610f726006870154612b28565b60068701612f6d565b60805190601f831160011461143257610fab9291879183610a505750508160011b916000199060031b1c19161790565b60068301555b60e081015160078301556101008101518051906001600160401b03821161141e57610fec82610fe36008870154612b28565b60088701612f6d565b60805190601f83116001146113ab57918061102192610120959489926113a05750508160011b916000199060031b1c19161790565b60088401555b01518051906001600160401b03821161131d576110548261104b6009860154612b28565b60098601612f6d565b60805190601f8311600114611331579180611087926009948892610a505750508160011b916000199060031b1c19161790565b9101555b611094836138ba565b6110d8602b60405180936a026b4b73a32b2103a379d160ad1b6080518301526110c7815180928585019060805101612ab4565b81010301601f198101835282612b7e565b87835260096080515260086040842001908051906001600160401b03821161131d57611108826106628554612b28565b60805190601f83116001146112b25761113892918691836112105750508160011b916000199060031b1c19161790565b90555b86825260096080515260096040832001918151916001600160401b03831161129e579082916111738594610e128c9a99989754612b28565b60805191601f841160011461121b57600080516020613c18833981519152969594936111b5939092836112105750508160011b916000199060031b1c19161790565b90555b6111da604051928392608051845260018060a01b031695608051840191612fbf565b0390a383518110156111fa576001916080518260051b8601015201610b96565b634e487b7160e01b600052603260045260246000fd5b015190508e80610699565b97969594939291908389526080518920985b601f19841681106112825750978291600080516020613c18833981519152979899600194601f19811610611269575b505050811b0190556111b8565b015160001960f88460031b161c191690558d808061125c565b818301518a556080516001909a01998c9950928301920161122d565b634e487b7160e01b82526041600452602482fd5b919083865260805186209086935b601f1984168510611301576001945083601f198116106112e8575b505050811b01905561113b565b015160001960f88460031b161c191690558d80806112db565b81810151835560805194850194600190930192909101906112c0565b634e487b7160e01b85526041600452602485fd5b90600984018652608051862091865b601f19851681106113875750918391600193600995601f1981161061136e575b505050811b0191015561108b565b015160001960f88460031b161c191690558e8080611360565b8183015184556080516001909401939283019201611340565b015190503880610699565b90600885018752608051872091875b601f198516811061140557509183916001936101209695601f198116106113ec575b505050811b016008840155611027565b015160001960f88460031b161c191690558f80806113dc565b81830151845560805160019094019392830192016113ba565b634e487b7160e01b86526041600452602486fd5b919060068501875260805187209087935b601f1984168510611487576001945083601f1981161061146e575b505050811b016006830155610fb1565b015160001960f88460031b161c191690558e808061145e565b8181015183556080519485019460019093019290910190611443565b919060038501875260805187209087935b601f19841685106114f8576001945083601f198116106114df575b505050811b016003830155610f22565b015160001960f88460031b161c191690558e80806114cf565b81810151835560805194850194600190930192909101906114b4565b919060018501875260805187209087935b601f1984168510611569576001945083601f19811610611550575b505050811b016001830155610eb2565b015160001960f88460031b161c191690558e8080611540565b8181015183556080519485019460019093019290910190611525565b919084875260805187209087935b601f19841685106115d4576001945083601f198116106115bb575b505050811b018255610e4b565b015160001960f88460031b161c191690558e80806115ae565b8181015183556080519485019460019093019290910190611593565b6339e3563760e11b88526004889052602488fd5b60405162461bcd60e51b81526080516004820152601d60248201527f50726f706572747920747970652063616e6e6f7420626520656d7074790000006044820152606490fd5b60405162461bcd60e51b815260805160048201526011602482015270496e76616c696420617265612073697a6560781b6044820152606490fd5b50629896808b1115610c9d565b60405162461bcd60e51b81526080516004820152601d60248201527f537572766579206e756d6265722063616e6e6f7420626520656d7074790000006044820152606490fd5b60405162461bcd60e51b8152608051600482015260186024820152774c6f636174696f6e2063616e6e6f7420626520656d70747960401b6044820152606490fd5b60405162461bcd60e51b815260805160048201526019602482015278496e76616c696420726563697069656e74206164647265737360381b6044820152606490fd5b346102195761054961176b36612c43565b916130bf565b346102195760403660031901126102195761178a612afc565b611792612c7d565b6001600160a01b03909116908115611803573360005260056020526040600020826000526020526117d38160406000209060ff801983541691151516179055565b60405190151581527f17307eab39ab6107e8899845ad3d59bd9653f200f220920489ca2b5937696c3160203392a3005b50630b61174360e31b60005260045260246000fd5b3461021957600036600319011261021957602060405160008152f35b3461021957600036600319011261021957604051600060015461185681612b28565b80845290600181169081156118dd575060011461187e575b6102158361020181850382612b7e565b600160009081527fb10e2d527612073b26eecdfd717e6a320cf44b4afac2b0732d9fcbe2b7fa0cf6939250905b8082106118c35750909150810160200161020161186e565b9192600181602092548385880101520191019092916118ab565b60ff191660208086019190915291151560051b84019091019150610201905061186e565b346102195760403660031901126102195761191a612b12565b600435600052600760205260406000209060018060a01b0316600052602052602060ff604060002054166040519015158152f35b3461021957600036600319011261021957602060405160018152f35b34610219576020366003190112610219576001600160a01b0361198b612afc565b1680156119aa5760005260036020526020604060002054604051908152f35b6322718ad960e21b600052600060045260246000fd5b346102195760203660031901126102195760206119de60043561351c565b6040516001600160a01b039091168152f35b346102195760c036600319011261021957611a09612afc565b6024356001600160401b03811161021957611a28903690600401612c8c565b6044929192356001600160401b03811161021957611a4a903690600401612c8c565b90926064356084356001600160401b03811161021957611a6e903690600401612c8c565b94909160a435600093611a7f613621565b6001600160a01b038616156123f95783156123b957861561237457600183101580612367575b1561232e5787156122e957611abb821515612fe0565b611ac660085461302c565b978860085560209a604051611adb8d82612b7e565b8781526001600160a01b03611af08c8b613553565b166115f05791611b4e610d429796959492610d538f602f908f611b6e988f91611b1992336139ec565b611b22896137f6565b6040519c826e024b734ba34b0b6103b30b63ab29d1608d1b8f9485015282519283918686019101612ab4565b8652611b5b368b8e612d22565b948d870195865260408701523691612d22565b606084015260808301528360a0830152604051611b8b8a82612b7e565b84815260c08301524260e0830152604051611ba68a82612b7e565b848152610100830152604051611bbc8a82612b7e565b848152610120830152868452600989526040842090825180516001600160401b03811161211d57611bf181610e128654612b28565b8b8c601f831160011461228357508190611c209389926121315750508160011b916000199060031b1c19161790565b82555b518051906001600160401b03821161141e57611c4f82611c466001860154612b28565b60018601612f6d565b8a90601f831160011461221857611c7d92918791836121a25750508160011b916000199060031b1c19161790565b60018201555b6040820151600282015560608201518051906001600160401b03821161141e57611cbd82611cb46003860154612b28565b60038601612f6d565b8a90601f83116001146121ad57611ceb92918791836121a25750508160011b916000199060031b1c19161790565b60038201555b60808201516004820155611d1a60a08301511515600583019060ff801983541691151516179055565b6006810160c083015180516001600160401b03811161211d57611d41816106628554612b28565b8b8c601f831160011461213c57508190611d709389926121315750508160011b916000199060031b1c19161790565b90555b60e08201516007820155600881016101008301518051906001600160401b03821161211d57611da6826106628554612b28565b8b908c601f84116001146120b0575082610120959360099593611dde938b92610a505750508160011b916000199060031b1c19161790565b90555b019101518051906001600160401b03821161131d57611e04826106628554612b28565b8990601f831160011461204d57611e329291869183611f695750508160011b916000199060031b1c19161790565b90555b611e3e836138ba565b611e6e602b60405180936a026b4b73a32b2103a379d160ad1b8c8301526110c78c82519283918686019101612ab4565b8583526009885260086040842001908051906001600160401b03821161131d57611e9c826106628554612b28565b8990601f8311600114611fea57611eca9291869183611f695750508160011b916000199060031b1c19161790565b90555b8482526009875260096040832001918151916001600160401b03831161129e57611efb83610e128654612b28565b8891601f8411600114611f7457928088999593611f3d93600080516020613c18833981519152989692611f695750508160011b916000199060031b1c19161790565b90555b611f5e60405192839289845260018060a01b03169589840191612fbf565b0390a3604051908152f35b015190508b80610699565b9190601f1984168584528a8420935b8b828210611fd4575050926001928592600080516020613c1883398151915298968b9c989610611fbb575b505050811b019055611f40565b015160001960f88460031b161c191690558a8080611fae565b6001859682939686015181550195019301611f83565b8386528a86209190601f198416875b8d82821061203757505090846001959493921061201e575b505050811b019055611ecd565b015160001960f88460031b161c191690558a8080612011565b6001859682939686015181550195019301611ff9565b8386528a86209190601f198416875b8d82821061209a575050908460019594939210612081575b505050811b019055611e35565b015160001960f88460031b161c191690558a8080612074565b600185968293968601518155019501930161205c565b9190601f198416858a52838a20938a905b828210612105575050926001928592610120989660099896106120ec575b505050811b019055611de1565b015160001960f88460031b161c191690558e80806120df565b806001869782949787015181550196019401906120c1565b634e487b7160e01b87526041600452602487fd5b015190508d80610699565b9192601f198416858a52838a20938a905b82821061218a575050908460019594939210612171575b505050811b019055611d73565b015160001960f88460031b161c191690558c8080612164565b8060018697829497870151815501960194019061214d565b015190508c80610699565b6003840187528b87209190601f198416888e5b8282106122005750509084600195949392106121e7575b505050811b016003820155611cf1565b015160001960f88460031b161c191690558b80806121d7565b806001869782949787015181550196019401906121c0565b6001840187528b87209190601f198416888e5b82821061226b575050908460019594939210612252575b505050811b016001820155611c83565b015160001960f88460031b161c191690558b8080612242565b8060018697829497870151815501960194019061222b565b9192601f198416868a52838a20938a905b8282106122d15750509084600195949392106122b8575b505050811b018255611c23565b015160001960f88460031b161c191690558c80806122ab565b80600186978294978701518155019601940190612294565b60405162461bcd60e51b815260206004820152601d60248201527f50726f706572747920747970652063616e6e6f7420626520656d7074790000006044820152606490fd5b60405162461bcd60e51b8152602060048201526011602482015270496e76616c696420617265612073697a6560781b6044820152606490fd5b5062989680831115611aa5565b60405162461bcd60e51b815260206004820152601d60248201527f537572766579206e756d6265722063616e6e6f7420626520656d7074790000006044820152606490fd5b60405162461bcd60e51b81526020600482015260186024820152774c6f636174696f6e2063616e6e6f7420626520656d70747960401b6044820152606490fd5b60405162461bcd60e51b8152602060048201526019602482015278496e76616c696420726563697069656e74206164647265737360381b6044820152606490fd5b346102195760003660031901126102195760206040517fd565e3fc066df348a5cbc05a8d6323e00552838041cea2d84cc59876ba37735d8152f35b346102195761054961248636612c43565b9060405192612496602085612b7e565b600084526108c6838383612d7e565b34610219576060366003190112610219576004356124c1612c7d565b906044356001600160401b038111610219576124e1903690600401612c8c565b90926124eb613621565b6124ff6001600160a01b036101de8561351c565b8260005260096020526125258160056040600020019060ff801983541691151516179055565b82600052600960205260066040600020016001600160401b03831161074b57612558836125528354612b28565b83612f6d565b6000601f84116001146125dc57946125cc916125ae85807f98e3861fadae44426bb5e7cf935f71a3a8910e85895fdc86ff0366e562a05cbb98996000916125d1575b508160011b916000199060031b1c19161790565b90555b60405193849315158452604060208501526040840191612fbf565b0390a2005b90508401358a61259a565b8181526020812090601f198516815b81811061264d5750916125cc9391867f98e3861fadae44426bb5e7cf935f71a3a8910e85895fdc86ff0366e562a05cbb98999410612633575b5050600185811b0190556125b1565b830135600019600388901b60f8161c191690558780612624565b9192602060018192868c0135815501940192016125eb565b346102195760403660031901126102195761267e612b12565b336001600160a01b0382160361269a576105499060043561375f565b63334bd91960e11b60005260046000fd5b34610219576040366003190112610219576105496004356126ca612b12565b906126e661053f82600052600760205260016040600020015490565b6136d0565b34610219576020366003190112610219576020612718600435600052600760205260016040600020015490565b604051908152f35b346102195761054961273136612c43565b91612d7e565b34610219576020366003190112610219576004356000526009602052604060002061276181612b9f565b61276d60018301612b9f565b6002830154909261278060038201612b9f565b6004820154600583015460ff169061279a60068501612b9f565b91600785015493600886016127ae90612b9f565b956009016127bb90612b9f565b96604051998a996101408b526101408b016127d591612ad7565b8a810360208c01526127e691612ad7565b9060408a015288810360608a01526127fd91612ad7565b916080880152151560a087015285810360c087015261281b91612ad7565b9060e085015283810361010085015261283391612ad7565b82810361012084015261021591612ad7565b34610219576000366003190112610219576020604051629896808152f35b346102195760403660031901126102195761287c612afc565b6024356128888161351c565b3315158061293f575b80612911575b6128fc5781906001600160a01b0384811691167f8c5be1e5ebec7d5bd14f71427d1e84f3dd0314c0f7b2291e5b200ac8c7c3b925600080a4600090815260046020526040902080546001600160a01b0319166001600160a01b03909216919091179055005b63a9fbf51f60e01b6000523360045260246000fd5b506001600160a01b038116600090815260056020908152604080832033845290915290205460ff1615612897565b506001600160a01b038116331415612891565b346102195760203660031901126102195760206119de600435612d59565b34610219576000366003190112610219576040516000805461299181612b28565b80845290600181169081156118dd57506001146129b8576102158361020181850382612b7e565b60008080527f290decd9548b62a8d60345a988386fc84ba6bc95484008f6362f93160ef3e563939250905b8082106129fb5750909150810160200161020161186e565b9192600181602092548385880101520191019092916129e3565b34610219576020366003190112610219576004359063ffffffff60e01b821680920361021957602091637965db0b60e01b8114908115612a57575b5015158152f35b632483248360e11b811491508115612a71575b5083612a50565b6380ac58cd60e01b811491508115612aa3575b8115612a92575b5083612a6a565b6301ffc9a760e01b14905083612a8b565b635b5e139f60e01b81149150612a84565b60005b838110612ac75750506000910152565b8181015183820152602001612ab7565b90602091612af081518092818552858086019101612ab4565b601f01601f1916010190565b600435906001600160a01b038216820361021957565b602435906001600160a01b038216820361021957565b90600182811c92168015612b58575b6020831014612b4257565b634e487b7160e01b600052602260045260246000fd5b91607f1691612b37565b61014081019081106001600160401b0382111761074b57604052565b90601f801991011681019081106001600160401b0382111761074b57604052565b9060405191826000825492612bb384612b28565b8084529360018116908115612c215750600114612bda575b50612bd892500383612b7e565b565b90506000929192526020600020906000915b818310612c05575050906020612bd89282010138612bcb565b6020919350806001915483858901015201910190918492612bec565b905060209250612bd894915060ff191682840152151560051b82010138612bcb565b6060906003190112610219576004356001600160a01b038116810361021957906024356001600160a01b0381168103610219579060443590565b60243590811515820361021957565b9181601f84011215610219578235916001600160401b038311610219576020838186019501011161021957565b34610219576000366003190112610219576020600854604051908152f35b9181601f84011215610219578235916001600160401b038311610219576020808501948460051b01011161021957565b6001600160401b03811161074b57601f01601f191660200190565b929192612d2e82612d07565b91612d3c6040519384612b7e565b829481845281830111610219578281602093846000960137010152565b612d628161351c565b506000908152600460205260409020546001600160a01b031690565b6001600160a01b0390911691908215612f14576000828152600260205260408120546001600160a01b0316938391859033151580612e7c575b507fddf252ad1be2c89b69c2b068fc378daa952ba7f163c4a11628f55a4df523b3ef9082612e47575b83815260036020526040812060018154019055848152600260205260408120846bffffffffffffffffffffffff60a01b82541617905580a46001600160a01b0316808303612e2d57505050565b6364283d7b60e01b60005260045260245260445260646000fd5b600085815260046020526040902080546001600160a01b03191690558281526003602052604081208054600019019055612de0565b915091925080612ec5575b15612e96579084849238612db7565b839085612eaf57602491637e27328960e01b8252600452fd5b60449163177e802f60e01b825233600452602452fd5b503385148015612ef3575b80612e875750838152600460205260408120546001600160a01b03163314612e87565b5084815260056020908152604080832033845290915281205460ff16612ed0565b633250574960e11b600052600060045260246000fd5b15612f3157565b60405162461bcd60e51b8152602060048201526014602482015273151bdad95b88191bd95cc81b9bdd08195e1a5cdd60621b6044820152606490fd5b601f8211612f7a57505050565b6000526020600020906020601f840160051c83019310612fb5575b601f0160051c01905b818110612fa9575050565b60008155600101612f9e565b9091508190612f95565b908060209392818452848401376000828201840152601f01601f1916010190565b15612fe757565b60405162461bcd60e51b815260206004820152601d60248201527f4d61726b65742076616c7565206d75737420626520706f7369746976650000006044820152606490fd5b600019811461303b5760010190565b634e487b7160e01b600052601160045260246000fd5b6000929181549161306183612b28565b92600181169081156130ac575060011461307a57505050565b909192935060005260206000206000905b8382106130985750500190565b60018160209254848601520191019061308b565b60ff191683525050811515909102019150565b82600052600960205260ff60056040600020015416613396576130e18361351c565b6001600160a01b03163314801561337c575b1561333f576001600160a01b038216918215612f14576001600160a01b0361311b8583613553565b16806131365784637e27328960e01b60005260045260246000fd5b6001600160a01b038316808203613323575050613228603461320d92866000526009602052426007604060002001556131e8600561317c613176886138ba565b936138ba565b604051948591602083019573016102a3930b739b332b93932b210333937b69d160651b87526131b48151809260208688019101612ab4565b8301640103a379d160dd1b838201526131d7825180936020603985019101612ab4565b01010301601f198101845283612b7e565b8660005260096020526008604060002001916132196040519586946020860190613051565b92839251938491612ab4565b0103601f198101835282612b7e565b8360005260096020526008604060002001908051906001600160401b03821161074b57613259826106628554612b28565b602090601f83116001146132bc576132899291600091836113a05750508160011b916000199060031b1c19161790565b90555b6001600160a01b03167f268ae1851d13f9cd87a82ee6fc73474b3694d779b7bf6f66d86fd346f09511ed600080a4565b90601f1983169184600052816000209260005b81811061330b57509084600195949392106132f2575b505050811b01905561328c565b015160001960f88460031b161c191690553880806132e5565b929360206001819287860151815501950193016132cf565b85906364283d7b60e01b60005260045260245260445260646000fd5b60405162461bcd60e51b81526020600482015260156024820152742737ba1030b8383937bb32b21037b91037bbb732b960591b6044820152606490fd5b50336001600160a01b0361338f85612d59565b16146130f3565b60405162461bcd60e51b815260206004820152601a60248201527f4c616e642068617320616e2061637469766520646973707574650000000000006044820152606490fd5b156133e257565b60405162461bcd60e51b815260206004820152600b60248201526a08adae0e8f240c4c2e8c6d60ab1b6044820152606490fd5b6001600160401b03811161074b5760051b60200190565b91908110156111fa5760051b8101359060be1981360301821215610219570190565b356001600160a01b03811681036102195790565b903590601e198136030182121561021957018035906001600160401b0382116102195760200191813603831361021957565b1561349b57565b60405162461bcd60e51b8152602060048201526016602482015275082e4e4c2f240d8cadccee8d0e640dad2e6dac2e8c6d60531b6044820152606490fd5b91908110156111fa5760051b0190565b6134f28161351c565b5060005260066020526135086040600020612b9f565b6000604051613518602082612b7e565b5290565b6000818152600260205260409020546001600160a01b031690811561353f575090565b637e27328960e01b60005260045260246000fd5b6000828152600260205260409020546001600160a01b03169190826135ea575b6001600160a01b0316806135d0575b8160005260026020526040600020816bffffffffffffffffffffffff60a01b825416179055827fddf252ad1be2c89b69c2b068fc378daa952ba7f163c4a11628f55a4df523b3ef600080a490565b806000526003602052604060002060018154019055613582565b600082815260046020526040902080546001600160a01b031916905582600052600360205260406000206000198154019055613573565b3360009081527f2b60f1d89544223e54444a02bca21c7ecfe977aa3064fc5a5ce775922be1f017602052604090205460ff161561365a57565b63e2517d3f60e01b600052336004527fd565e3fc066df348a5cbc05a8d6323e00552838041cea2d84cc59876ba37735d60245260446000fd5b600081815260076020908152604080832033845290915290205460ff16156136b85750565b63e2517d3f60e01b6000523360045260245260446000fd5b60008181526007602090815260408083206001600160a01b038616845290915290205460ff166137585760008181526007602090815260408083206001600160a01b0395909516808452949091528120805460ff19166001179055339291907f2f8788117e7eff1d82e926ec794901d17c78024a50270940304540a733656f0d9080a4600190565b5050600090565b60008181526007602090815260408083206001600160a01b038616845290915290205460ff16156137585760008181526007602090815260408083206001600160a01b0395909516808452949091528120805460ff19169055339291907ff6391f5c32d9c69d2a47ea670b442974b53935d1edc7fd64eb21e047a839171b9080a4600190565b9081518110156111fa570160200190565b801561389a5780816000925b613884575061381082612d07565b9161381e6040519384612b7e565b80835281601f1961382e83612d07565b013660208601375b61383f57505090565b600019810190811161303b578091600a8106603001918260301161303b57600a9260f81b6001600160f81b03191660001a9061387b90866137e5565b53049081613836565b9091613891600a9161302c565b92910480613802565b506040516138a9604082612b7e565b60018152600360fc1b602082015290565b60018060a01b031660408051906138d18183612b7e565b601082526f181899199a1a9b1b9c1cb0b131b232b360811b602083015251916138fb606084612b7e565b602a83526020830160403682378351156111fa57603090538251600110156111fa576078602184015360005b601481106139355750505090565b600c810180821161303b5760208110156111fa5782901a6001600160f81b0319613966600483901c600f16866137e5565b51168260011b908382046002148415171561303b5781600201908160021161303b576139969060001a91886137e5565b536000916001600160f81b0319906139b190600f16876137e5565b51169060030191826003116139d85760019392916139d1911a91876137e5565b5301613927565b634e487b7160e01b81526011600452602490fd5b9291813b6139fb575b50505050565b604051630a85bd0160e11b81526001600160a01b039485166004820152600060248201526044810191909152608060648201529216919060209082908190613a47906084830190612ad7565b03816000865af18091600091613ae6575b5090613ab157503d15613aaa573d613a6f81612d07565b90613a7d6040519283612b7e565b81523d6000602083013e5b80519081613aa55782633250574960e11b60005260045260246000fd5b602001fd5b6060613a88565b6001600160e01b03191663757a42ff60e11b01613ad25750388080806139f5565b633250574960e11b60005260045260246000fd5b6020813d602011613b28575b81613aff60209383612b7e565b81010312613b245751906001600160e01b031982168203613b21575038613a58565b80fd5b5080fd5b3d9150613af2565b823b613b3e575b5050505050565b604051630a85bd0160e11b81526001600160a01b039182166004820152918116602483015260448201939093526080606482015291169160209082908190613b8a906084830190612ad7565b03816000865af18091600091613bd4575b5090613bb257503d15613aaa573d613a6f81612d07565b6001600160e01b03191663757a42ff60e11b01613ad257503880808080613b37565b6020813d602011613c0f575b81613bed60209383612b7e565b81010312613b245751906001600160e01b031982168203613b21575038613b9b565b3d9150613be056feb145eb58c4ce95ea8ebb64f9ec4c2c5ff09c2aeb40afca8cee50367dfec496e67568affeab53e08d035c844db6a2a63ec1f609d48a48abea4fba7dc04817e402a2646970667358221220f93ff687ba221dfcc1c526eb429700120ae1230589a6609faf266af9664674ba64736f6c634300081c00332f8788117e7eff1d82e926ec794901d17c78024a50270940304540a733656f0d2b60f1d89544223e54444a02bca21c7ecfe977aa3064fc5a5ce775922be1f0176d5257204ebe7d88fd91ae87941cb2dd9d8062b64ae5a2bd2d28ec40b9fbf6df","opcodes":"PUSH1 0x80 PUSH1 0x40 MSTORE CALLVALUE PUSH2 0x33C JUMPI PUSH1 0x40 DUP1 MLOAD SWAP1 DUP2 ADD PUSH1 0x1 PUSH1 0x1 PUSH1 0x40 SHL SUB DUP2 GT DUP3 DUP3 LT OR PUSH2 0x249 JUMPI PUSH1 0x40 SWAP1 DUP2 MSTORE PUSH1 0xC DUP3 MSTORE PUSH12 0x4C616E645265676973747279 PUSH1 0xA0 SHL PUSH1 0x20 DUP4 ADD MSTORE DUP1 MLOAD SWAP1 DUP2 ADD PUSH1 0x1 PUSH1 0x1 PUSH1 0x40 SHL SUB DUP2 GT DUP3 DUP3 LT OR PUSH2 0x249 JUMPI PUSH1 0x40 MSTORE PUSH1 0x4 DUP2 MSTORE PUSH4 0x13105391 PUSH1 0xE2 SHL PUSH1 0x20 DUP3 ADD MSTORE DUP2 MLOAD PUSH1 0x1 PUSH1 0x1 PUSH1 0x40 SHL SUB DUP2 GT PUSH2 0x249 JUMPI PUSH1 0x0 SLOAD PUSH1 0x1 DUP2 DUP2 SHR SWAP2 AND DUP1 ISZERO PUSH2 0x332 JUMPI JUMPDEST PUSH1 0x20 DUP3 LT EQ PUSH2 0x229 JUMPI PUSH1 0x1F DUP2 GT PUSH2 0x2CE JUMPI JUMPDEST POP PUSH1 0x20 SWAP3 PUSH1 0x1F DUP3 GT PUSH1 0x1 EQ PUSH2 0x26A JUMPI SWAP3 DUP2 SWAP3 SWAP4 PUSH1 0x0 SWAP3 PUSH2 0x25F JUMPI JUMPDEST POP POP DUP2 PUSH1 0x1 SHL SWAP2 PUSH1 0x0 NOT SWAP1 PUSH1 0x3 SHL SHR NOT AND OR PUSH1 0x0 SSTORE JUMPDEST DUP1 MLOAD PUSH1 0x1 PUSH1 0x1 PUSH1 0x40 SHL SUB DUP2 GT PUSH2 0x249 JUMPI PUSH1 0x1 SLOAD PUSH1 0x1 DUP2 DUP2 SHR SWAP2 AND DUP1 ISZERO PUSH2 0x23F JUMPI JUMPDEST PUSH1 0x20 DUP3 LT EQ PUSH2 0x229 JUMPI PUSH1 0x1F DUP2 GT PUSH2 0x1C4 JUMPI JUMPDEST POP PUSH1 0x20 SWAP2 PUSH1 0x1F DUP3 GT PUSH1 0x1 EQ PUSH2 0x160 JUMPI SWAP2 DUP2 SWAP3 PUSH1 0x0 SWAP3 PUSH2 0x155 JUMPI JUMPDEST POP POP DUP2 PUSH1 0x1 SHL SWAP2 PUSH1 0x0 NOT SWAP1 PUSH1 0x3 SHL SHR NOT AND OR PUSH1 0x1 SSTORE JUMPDEST PUSH2 0x13B CALLER PUSH2 0x341 JUMP JUMPDEST POP PUSH2 0x145 CALLER PUSH2 0x3BD JUMP JUMPDEST POP PUSH1 0x40 MLOAD PUSH2 0x3C8D SWAP1 DUP2 PUSH2 0x456 DUP3 CODECOPY RETURN JUMPDEST ADD MLOAD SWAP1 POP CODESIZE DUP1 PUSH2 0x11C JUMP JUMPDEST PUSH1 0x1F NOT DUP3 AND SWAP3 PUSH1 0x1 PUSH1 0x0 MSTORE DUP1 PUSH1 0x0 KECCAK256 SWAP2 PUSH1 0x0 JUMPDEST DUP6 DUP2 LT PUSH2 0x1AC JUMPI POP DUP4 PUSH1 0x1 SWAP6 LT PUSH2 0x193 JUMPI JUMPDEST POP POP POP DUP2 SHL ADD PUSH1 0x1 SSTORE PUSH2 0x132 JUMP JUMPDEST ADD MLOAD PUSH1 0x0 NOT PUSH1 0xF8 DUP5 PUSH1 0x3 SHL AND SHR NOT AND SWAP1 SSTORE CODESIZE DUP1 DUP1 PUSH2 0x185 JUMP JUMPDEST SWAP2 SWAP3 PUSH1 0x20 PUSH1 0x1 DUP2 SWAP3 DUP7 DUP6 ADD MLOAD DUP2 SSTORE ADD SWAP5 ADD SWAP3 ADD PUSH2 0x173 JUMP JUMPDEST PUSH1 0x1 PUSH1 0x0 MSTORE PUSH32 0xB10E2D527612073B26EECDFD717E6A320CF44B4AFAC2B0732D9FCBE2B7FA0CF6 PUSH1 0x1F DUP4 ADD PUSH1 0x5 SHR DUP2 ADD SWAP2 PUSH1 0x20 DUP5 LT PUSH2 0x21F JUMPI JUMPDEST PUSH1 0x1F ADD PUSH1 0x5 SHR ADD SWAP1 JUMPDEST DUP2 DUP2 LT PUSH2 0x213 JUMPI POP PUSH2 0x102 JUMP JUMPDEST PUSH1 0x0 DUP2 SSTORE PUSH1 0x1 ADD PUSH2 0x206 JUMP JUMPDEST SWAP1 SWAP2 POP DUP2 SWAP1 PUSH2 0x1FD JUMP JUMPDEST PUSH4 0x4E487B71 PUSH1 0xE0 SHL PUSH1 0x0 MSTORE PUSH1 0x22 PUSH1 0x4 MSTORE PUSH1 0x24 PUSH1 0x0 REVERT JUMPDEST SWAP1 PUSH1 0x7F AND SWAP1 PUSH2 0xF0 JUMP JUMPDEST PUSH4 0x4E487B71 PUSH1 0xE0 SHL PUSH1 0x0 MSTORE PUSH1 0x41 PUSH1 0x4 MSTORE PUSH1 0x24 PUSH1 0x0 REVERT JUMPDEST ADD MLOAD SWAP1 POP CODESIZE DUP1 PUSH2 0xB9 JUMP JUMPDEST PUSH1 0x1F NOT DUP3 AND SWAP4 PUSH1 0x0 DUP1 MSTORE DUP1 PUSH1 0x0 KECCAK256 SWAP2 PUSH1 0x0 JUMPDEST DUP7 DUP2 LT PUSH2 0x2B6 JUMPI POP DUP4 PUSH1 0x1 SWAP6 SWAP7 LT PUSH2 0x29D JUMPI JUMPDEST POP POP POP DUP2 SHL ADD PUSH1 0x0 SSTORE PUSH2 0xCF JUMP JUMPDEST ADD MLOAD PUSH1 0x0 NOT PUSH1 0xF8 DUP5 PUSH1 0x3 SHL AND SHR NOT AND SWAP1 SSTORE CODESIZE DUP1 DUP1 PUSH2 0x28F JUMP JUMPDEST SWAP2 SWAP3 PUSH1 0x20 PUSH1 0x1 DUP2 SWAP3 DUP7 DUP6 ADD MLOAD DUP2 SSTORE ADD SWAP5 ADD SWAP3 ADD PUSH2 0x27C JUMP JUMPDEST PUSH1 0x0 DUP1 MSTORE PUSH32 0x290DECD9548B62A8D60345A988386FC84BA6BC95484008F6362F93160EF3E563 PUSH1 0x1F DUP4 ADD PUSH1 0x5 SHR DUP2 ADD SWAP2 PUSH1 0x20 DUP5 LT PUSH2 0x328 JUMPI JUMPDEST PUSH1 0x1F ADD PUSH1 0x5 SHR ADD SWAP1 JUMPDEST DUP2 DUP2 LT PUSH2 0x31C JUMPI POP PUSH2 0x9E JUMP JUMPDEST PUSH1 0x0 DUP2 SSTORE PUSH1 0x1 ADD PUSH2 0x30F JUMP JUMPDEST SWAP1 SWAP2 POP DUP2 SWAP1 PUSH2 0x306 JUMP JUMPDEST SWAP1 PUSH1 0x7F AND SWAP1 PUSH2 0x8C JUMP JUMPDEST PUSH1 0x0 DUP1 REVERT JUMPDEST PUSH1 0x1 PUSH1 0x1 PUSH1 0xA0 SHL SUB DUP2 AND PUSH1 0x0 SWAP1 DUP2 MSTORE PUSH1 0x0 DUP1 MLOAD PUSH1 0x20 PUSH2 0x4123 DUP4 CODECOPY DUP2 MLOAD SWAP2 MSTORE PUSH1 0x20 MSTORE PUSH1 0x40 SWAP1 KECCAK256 SLOAD PUSH1 0xFF AND PUSH2 0x3B7 JUMPI PUSH1 0x1 PUSH1 0x1 PUSH1 0xA0 SHL SUB AND PUSH1 0x0 DUP2 DUP2 MSTORE PUSH1 0x0 DUP1 MLOAD PUSH1 0x20 PUSH2 0x4123 DUP4 CODECOPY DUP2 MLOAD SWAP2 MSTORE PUSH1 0x20 MSTORE PUSH1 0x40 DUP2 KECCAK256 DUP1 SLOAD PUSH1 0xFF NOT AND PUSH1 0x1 OR SWAP1 SSTORE CALLER SWAP2 SWAP1 PUSH1 0x0 DUP1 MLOAD PUSH1 0x20 PUSH2 0x40E3 DUP4 CODECOPY DUP2 MLOAD SWAP2 MSTORE DUP2 DUP1 LOG4 PUSH1 0x1 SWAP1 JUMP JUMPDEST POP PUSH1 0x0 SWAP1 JUMP JUMPDEST PUSH1 0x1 PUSH1 0x1 PUSH1 0xA0 SHL SUB DUP2 AND PUSH1 0x0 SWAP1 DUP2 MSTORE PUSH1 0x0 DUP1 MLOAD PUSH1 0x20 PUSH2 0x4103 DUP4 CODECOPY DUP2 MLOAD SWAP2 MSTORE PUSH1 0x20 MSTORE PUSH1 0x40 SWAP1 KECCAK256 SLOAD PUSH1 0xFF AND PUSH2 0x3B7 JUMPI PUSH1 0x1 PUSH1 0x1 PUSH1 0xA0 SHL SUB AND PUSH1 0x0 DUP2 DUP2 MSTORE PUSH1 0x0 DUP1 MLOAD PUSH1 0x20 PUSH2 0x4103 DUP4 CODECOPY DUP2 MLOAD SWAP2 MSTORE PUSH1 0x20 MSTORE PUSH1 0x40 DUP2 KECCAK256 DUP1 SLOAD PUSH1 0xFF NOT AND PUSH1 0x1 OR SWAP1 SSTORE CALLER SWAP2 SWAP1 PUSH32 0xD565E3FC066DF348A5CBC05A8D6323E00552838041CEA2D84CC59876BA37735D SWAP1 PUSH1 0x0 DUP1 MLOAD PUSH1 0x20 PUSH2 0x40E3 DUP4 CODECOPY DUP2 MLOAD SWAP2 MSTORE SWAP1 DUP1 LOG4 PUSH1 0x1 SWAP1 JUMP INVALID PUSH1 0xA0 DUP1 PUSH1 0x40 MSTORE PUSH1 0x4 CALLDATASIZE LT ISZERO PUSH2 0x13 JUMPI PUSH1 0x0 DUP1 REVERT JUMPDEST PUSH1 0x0 CALLDATALOAD PUSH1 0xE0 SHR SWAP1 DUP2 PUSH4 0x1FFC9A7 EQ PUSH2 0x2A15 JUMPI POP DUP1 PUSH4 0x6FDDE03 EQ PUSH2 0x2970 JUMPI DUP1 PUSH4 0x81812FC EQ PUSH2 0x2952 JUMPI DUP1 PUSH4 0x95EA7B3 EQ PUSH2 0x2863 JUMPI DUP1 PUSH4 0x168FC898 EQ PUSH2 0x2845 JUMPI DUP1 PUSH4 0x20E7C6D4 EQ PUSH2 0x2737 JUMPI DUP1 PUSH4 0x23B872DD EQ PUSH2 0x2720 JUMPI DUP1 PUSH4 0x248A9CA3 EQ PUSH2 0x26EB JUMPI DUP1 PUSH4 0x2F2FF15D EQ PUSH2 0x26AB JUMPI DUP1 PUSH4 0x36568ABE EQ PUSH2 0x2665 JUMPI DUP1 PUSH4 0x38FE1850 EQ PUSH2 0x24A5 JUMPI DUP1 PUSH4 0x42842E0E EQ PUSH2 0x2475 JUMPI DUP1 PUSH4 0x4A3FBA0E EQ PUSH2 0x243A JUMPI DUP1 PUSH4 0x54768693 EQ PUSH2 0x19F0 JUMPI DUP1 PUSH4 0x6352211E EQ PUSH2 0x19C0 JUMPI DUP1 PUSH4 0x70A08231 EQ PUSH2 0x196A JUMPI DUP1 PUSH4 0x8388E2BA EQ PUSH2 0x194E JUMPI DUP1 PUSH4 0x842E7DBA EQ PUSH2 0x4FF JUMPI DUP1 PUSH4 0x91D14854 EQ PUSH2 0x1901 JUMPI DUP1 PUSH4 0x95D89B41 EQ PUSH2 0x1834 JUMPI DUP1 PUSH4 0xA217FDDF EQ PUSH2 0x1818 JUMPI DUP1 PUSH4 0xA22CB465 EQ PUSH2 0x1771 JUMPI DUP1 PUSH4 0xA762C342 EQ PUSH2 0x175A JUMPI DUP1 PUSH4 0xAA023ED8 EQ PUSH2 0xB1D JUMPI DUP1 PUSH4 0xAB279A8E EQ PUSH2 0xADA JUMPI DUP1 PUSH4 0xB4E63495 EQ PUSH2 0x8CC JUMPI DUP1 PUSH4 0xB88D4FDE EQ PUSH2 0x861 JUMPI DUP1 PUSH4 0xC4B1C735 EQ PUSH2 0x780 JUMPI DUP1 PUSH4 0xC87B56DD EQ PUSH2 0x761 JUMPI DUP1 PUSH4 0xCF62664A EQ PUSH2 0x54B JUMPI DUP1 PUSH4 0xD547741F EQ PUSH2 0x504 JUMPI DUP1 PUSH4 0xDBFD4B98 EQ PUSH2 0x4FF JUMPI DUP1 PUSH4 0xDD6055C8 EQ PUSH2 0x4BC JUMPI DUP1 PUSH4 0xE7FEFF2E EQ PUSH2 0x2C1 JUMPI DUP1 PUSH4 0xE985E9C5 EQ PUSH2 0x266 JUMPI DUP1 PUSH4 0xF1BD7439 EQ PUSH2 0x21E JUMPI PUSH4 0xF1DBACCB EQ PUSH2 0x1B6 JUMPI PUSH1 0x0 DUP1 REVERT JUMPDEST CALLVALUE PUSH2 0x219 JUMPI PUSH1 0x20 CALLDATASIZE PUSH1 0x3 NOT ADD SLT PUSH2 0x219 JUMPI PUSH1 0x4 CALLDATALOAD PUSH2 0x1E6 PUSH1 0x1 PUSH1 0x1 PUSH1 0xA0 SHL SUB PUSH2 0x1DE DUP4 PUSH2 0x351C JUMP JUMPDEST AND ISZERO ISZERO PUSH2 0x2F2A JUMP JUMPDEST PUSH1 0x0 MSTORE PUSH1 0x9 PUSH1 0x20 MSTORE PUSH2 0x215 PUSH2 0x201 PUSH1 0x8 PUSH1 0x40 PUSH1 0x0 KECCAK256 ADD PUSH2 0x2B9F JUMP JUMPDEST PUSH1 0x40 MLOAD SWAP2 DUP3 SWAP2 PUSH1 0x20 DUP4 MSTORE PUSH1 0x20 DUP4 ADD SWAP1 PUSH2 0x2AD7 JUMP JUMPDEST SUB SWAP1 RETURN JUMPDEST PUSH1 0x0 DUP1 REVERT JUMPDEST CALLVALUE PUSH2 0x219 JUMPI PUSH1 0x20 CALLDATASIZE PUSH1 0x3 NOT ADD SLT PUSH2 0x219 JUMPI PUSH1 0x4 CALLDATALOAD PUSH2 0x246 PUSH1 0x1 PUSH1 0x1 PUSH1 0xA0 SHL SUB PUSH2 0x1DE DUP4 PUSH2 0x351C JUMP JUMPDEST PUSH1 0x0 MSTORE PUSH1 0x9 PUSH1 0x20 MSTORE PUSH1 0x20 PUSH1 0xFF PUSH1 0x5 PUSH1 0x40 PUSH1 0x0 KECCAK256 ADD SLOAD AND PUSH1 0x40 MLOAD SWAP1 ISZERO ISZERO DUP2 MSTORE RETURN JUMPDEST CALLVALUE PUSH2 0x219 JUMPI PUSH1 0x40 CALLDATASIZE PUSH1 0x3 NOT ADD SLT PUSH2 0x219 JUMPI PUSH2 0x27F PUSH2 0x2AFC JUMP JUMPDEST PUSH2 0x287 PUSH2 0x2B12 JUMP JUMPDEST SWAP1 PUSH1 0x1 DUP1 PUSH1 0xA0 SHL SUB AND PUSH1 0x0 MSTORE PUSH1 0x5 PUSH1 0x20 MSTORE PUSH1 0x40 PUSH1 0x0 KECCAK256 SWAP1 PUSH1 0x1 DUP1 PUSH1 0xA0 SHL SUB AND PUSH1 0x0 MSTORE PUSH1 0x20 MSTORE PUSH1 0x20 PUSH1 0xFF PUSH1 0x40 PUSH1 0x0 KECCAK256 SLOAD AND PUSH1 0x40 MLOAD SWAP1 ISZERO ISZERO DUP2 MSTORE RETURN JUMPDEST CALLVALUE PUSH2 0x219 JUMPI PUSH1 0x20 CALLDATASIZE PUSH1 0x3 NOT ADD SLT PUSH2 0x219 JUMPI PUSH1 0x4 CALLDATALOAD PUSH1 0x40 MLOAD PUSH2 0x2E1 DUP2 PUSH2 0x2B62 JUMP JUMPDEST PUSH1 0x60 DUP1 DUP3 MSTORE PUSH1 0x20 DUP3 ADD DUP2 SWAP1 MSTORE PUSH1 0x0 PUSH1 0x40 DUP4 ADD DUP2 SWAP1 MSTORE DUP3 DUP3 ADD DUP3 SWAP1 MSTORE PUSH1 0x80 DUP4 ADD DUP2 SWAP1 MSTORE PUSH1 0xA0 DUP4 ADD DUP2 SWAP1 MSTORE PUSH1 0xC0 DUP4 ADD DUP3 SWAP1 MSTORE PUSH1 0xE0 DUP4 ADD MSTORE PUSH2 0x100 DUP3 ADD DUP2 SWAP1 MSTORE PUSH2 0x120 SWAP1 SWAP2 ADD MSTORE PUSH1 0x1 PUSH1 0x1 PUSH1 0xA0 SHL SUB PUSH2 0x336 DUP3 PUSH2 0x351C JUMP JUMPDEST AND ISZERO ISZERO PUSH2 0x342 SWAP1 PUSH2 0x2F2A JUMP JUMPDEST PUSH1 0x0 MSTORE PUSH1 0x9 PUSH1 0x20 MSTORE PUSH1 0x40 PUSH1 0x0 KECCAK256 PUSH1 0x40 MLOAD PUSH2 0x35B DUP2 PUSH2 0x2B62 JUMP JUMPDEST PUSH2 0x364 DUP3 PUSH2 0x2B9F JUMP JUMPDEST DUP2 MSTORE PUSH2 0x372 PUSH1 0x1 DUP4 ADD PUSH2 0x2B9F JUMP JUMPDEST SWAP2 PUSH1 0x20 DUP3 ADD SWAP3 DUP4 MSTORE PUSH1 0x2 DUP2 ADD SLOAD PUSH1 0x40 DUP4 ADD SWAP1 DUP2 MSTORE PUSH1 0x3 DUP3 ADD PUSH2 0x393 SWAP1 PUSH2 0x2B9F JUMP JUMPDEST SWAP2 PUSH1 0x60 DUP5 ADD SWAP3 DUP4 MSTORE PUSH1 0x4 DUP2 ADD SLOAD PUSH1 0x80 DUP6 ADD SWAP1 DUP2 MSTORE PUSH1 0x5 DUP3 ADD SLOAD PUSH1 0xFF AND PUSH1 0xA0 DUP7 ADD SWAP1 ISZERO ISZERO DUP2 MSTORE PUSH1 0x6 DUP4 ADD PUSH2 0x3C5 SWAP1 PUSH2 0x2B9F JUMP JUMPDEST SWAP1 PUSH1 0xC0 DUP8 ADD SWAP2 DUP3 MSTORE PUSH1 0x7 DUP5 ADD SLOAD SWAP5 PUSH1 0xE0 DUP9 ADD SWAP6 DUP7 MSTORE PUSH1 0x8 DUP6 ADD PUSH2 0x3E7 SWAP1 PUSH2 0x2B9F JUMP JUMPDEST SWAP5 PUSH2 0x100 DUP10 ADD SWAP6 DUP7 MSTORE PUSH1 0x9 ADD PUSH2 0x3FC SWAP1 PUSH2 0x2B9F JUMP JUMPDEST SWAP7 PUSH2 0x120 DUP10 ADD SWAP8 DUP9 MSTORE PUSH1 0x40 MLOAD SWAP10 DUP11 SWAP10 PUSH1 0x20 DUP12 MSTORE MLOAD PUSH1 0x20 DUP12 ADD PUSH2 0x140 SWAP1 MSTORE PUSH2 0x160 DUP12 ADD PUSH2 0x427 SWAP2 PUSH2 0x2AD7 JUMP JUMPDEST SWAP1 MLOAD DUP11 DUP3 SUB PUSH1 0x1F NOT ADD PUSH1 0x40 DUP13 ADD MSTORE PUSH2 0x43F SWAP2 SWAP1 PUSH2 0x2AD7 JUMP JUMPDEST SWAP2 MLOAD PUSH1 0x60 DUP11 ADD MSTORE MLOAD DUP9 DUP3 SUB PUSH1 0x1F NOT ADD PUSH1 0x80 DUP11 ADD MSTORE PUSH2 0x45D SWAP2 SWAP1 PUSH2 0x2AD7 JUMP JUMPDEST SWAP3 MLOAD PUSH1 0xA0 DUP9 ADD MSTORE MLOAD ISZERO ISZERO PUSH1 0xC0 DUP8 ADD MSTORE MLOAD DUP6 DUP3 SUB PUSH1 0x1F NOT ADD PUSH1 0xE0 DUP8 ADD MSTORE PUSH2 0x483 SWAP2 SWAP1 PUSH2 0x2AD7 JUMP JUMPDEST SWAP2 MLOAD PUSH2 0x100 DUP6 ADD MSTORE MLOAD DUP4 DUP3 SUB PUSH1 0x1F NOT ADD PUSH2 0x120 DUP6 ADD MSTORE PUSH2 0x4A3 SWAP2 SWAP1 PUSH2 0x2AD7 JUMP JUMPDEST SWAP1 MLOAD DUP3 DUP3 SUB PUSH1 0x1F NOT ADD PUSH2 0x140 DUP5 ADD MSTORE PUSH2 0x215 SWAP2 SWAP1 PUSH2 0x2AD7 JUMP JUMPDEST CALLVALUE PUSH2 0x219 JUMPI PUSH1 0x20 CALLDATASIZE PUSH1 0x3 NOT ADD SLT PUSH2 0x219 JUMPI PUSH1 0x4 CALLDATALOAD PUSH2 0x4E4 PUSH1 0x1 PUSH1 0x1 PUSH1 0xA0 SHL SUB PUSH2 0x1DE DUP4 PUSH2 0x351C JUMP JUMPDEST PUSH1 0x0 MSTORE PUSH1 0x9 PUSH1 0x20 MSTORE PUSH1 0x20 PUSH1 0x4 PUSH1 0x40 PUSH1 0x0 KECCAK256 ADD SLOAD PUSH1 0x40 MLOAD SWAP1 DUP2 MSTORE RETURN JUMPDEST PUSH2 0x2CB9 JUMP JUMPDEST CALLVALUE PUSH2 0x219 JUMPI PUSH1 0x40 CALLDATASIZE PUSH1 0x3 NOT ADD SLT PUSH2 0x219 JUMPI PUSH2 0x549 PUSH1 0x4 CALLDATALOAD PUSH2 0x523 PUSH2 0x2B12 JUMP JUMPDEST SWAP1 PUSH2 0x544 PUSH2 0x53F DUP3 PUSH1 0x0 MSTORE PUSH1 0x7 PUSH1 0x20 MSTORE PUSH1 0x1 PUSH1 0x40 PUSH1 0x0 KECCAK256 ADD SLOAD SWAP1 JUMP JUMPDEST PUSH2 0x3693 JUMP JUMPDEST PUSH2 0x375F JUMP JUMPDEST STOP JUMPDEST CALLVALUE PUSH2 0x219 JUMPI PUSH1 0x40 CALLDATASIZE PUSH1 0x3 NOT ADD SLT PUSH2 0x219 JUMPI PUSH1 0x4 CALLDATALOAD PUSH1 0x24 CALLDATALOAD PUSH2 0x56A PUSH2 0x3621 JUMP JUMPDEST PUSH2 0x57E PUSH1 0x1 PUSH1 0x1 PUSH1 0xA0 SHL SUB PUSH2 0x1DE DUP5 PUSH2 0x351C JUMP JUMPDEST PUSH2 0x589 DUP2 ISZERO ISZERO PUSH2 0x2FE0 JUMP JUMPDEST PUSH1 0x0 DUP3 DUP2 MSTORE PUSH1 0x9 PUSH1 0x20 DUP2 SWAP1 MSTORE PUSH1 0x40 SWAP1 SWAP2 KECCAK256 PUSH1 0x4 DUP2 ADD DUP1 SLOAD SWAP1 DUP5 SWAP1 SSTORE SWAP3 SWAP2 PUSH2 0x5D7 SWAP2 PUSH2 0x631 SWAP2 PUSH1 0x5 SWAP2 ADD PUSH1 0xE PUSH2 0x5BD DUP7 PUSH2 0x37F6 JUMP JUMPDEST PUSH2 0x5C6 TIMESTAMP PUSH2 0x37F6 JUMP JUMPDEST SWAP1 PUSH1 0x40 MLOAD SWAP7 DUP8 SWAP5 PUSH1 0x20 DUP7 ADD SWAP1 PUSH2 0x3051 JUMP JUMPDEST PUSH14 0x16102AB83230BA32B2103A379D1 PUSH1 0x95 SHL DUP2 MSTORE PUSH2 0x5FE DUP3 MLOAD DUP1 SWAP4 PUSH1 0x20 DUP8 DUP6 ADD SWAP2 ADD PUSH2 0x2AB4 JUMP JUMPDEST ADD PUSH5 0x1030BA1D1 PUSH1 0xDD SHL DUP4 DUP3 ADD MSTORE PUSH2 0x620 DUP3 MLOAD DUP1 SWAP4 PUSH1 0x20 PUSH1 0x13 DUP6 ADD SWAP2 ADD PUSH2 0x2AB4 JUMP JUMPDEST ADD ADD SUB ADD PUSH1 0x1F NOT DUP2 ADD DUP4 MSTORE DUP3 PUSH2 0x2B7E JUMP JUMPDEST DUP4 PUSH1 0x0 MSTORE PUSH1 0x9 PUSH1 0x20 MSTORE PUSH1 0x9 PUSH1 0x40 PUSH1 0x0 KECCAK256 ADD SWAP1 DUP1 MLOAD SWAP1 PUSH1 0x1 PUSH1 0x1 PUSH1 0x40 SHL SUB DUP3 GT PUSH2 0x74B JUMPI PUSH2 0x668 DUP3 PUSH2 0x662 DUP6 SLOAD PUSH2 0x2B28 JUMP JUMPDEST DUP6 PUSH2 0x2F6D JUMP JUMPDEST PUSH1 0x20 SWAP1 PUSH1 0x1F DUP4 GT PUSH1 0x1 EQ PUSH2 0x6D0 JUMPI DUP3 PUSH1 0x60 SWAP6 SWAP4 PUSH1 0x0 DUP1 MLOAD PUSH1 0x20 PUSH2 0x3C38 DUP4 CODECOPY DUP2 MLOAD SWAP2 MSTORE SWAP8 SWAP6 SWAP4 PUSH2 0x6AE SWAP4 PUSH1 0x0 SWAP3 PUSH2 0x6C5 JUMPI JUMPDEST POP POP DUP2 PUSH1 0x1 SHL SWAP2 PUSH1 0x0 NOT SWAP1 PUSH1 0x3 SHL SHR NOT AND OR SWAP1 JUMP JUMPDEST SWAP1 SSTORE JUMPDEST PUSH1 0x40 MLOAD SWAP2 DUP3 MSTORE PUSH1 0x20 DUP3 ADD MSTORE TIMESTAMP PUSH1 0x40 DUP3 ADD MSTORE LOG2 STOP JUMPDEST ADD MLOAD SWAP1 POP DUP10 DUP1 PUSH2 0x699 JUMP JUMPDEST SWAP1 PUSH1 0x1F NOT DUP4 AND SWAP2 DUP5 PUSH1 0x0 MSTORE DUP2 PUSH1 0x0 KECCAK256 SWAP3 PUSH1 0x0 JUMPDEST DUP2 DUP2 LT PUSH2 0x733 JUMPI POP SWAP3 PUSH1 0x1 SWAP3 DUP6 SWAP3 PUSH1 0x60 SWAP9 SWAP7 PUSH1 0x0 DUP1 MLOAD PUSH1 0x20 PUSH2 0x3C38 DUP4 CODECOPY DUP2 MLOAD SWAP2 MSTORE SWAP11 SWAP9 SWAP7 LT PUSH2 0x71A JUMPI JUMPDEST POP POP POP DUP2 SHL ADD SWAP1 SSTORE PUSH2 0x6B1 JUMP JUMPDEST ADD MLOAD PUSH1 0x0 NOT PUSH1 0xF8 DUP5 PUSH1 0x3 SHL AND SHR NOT AND SWAP1 SSTORE DUP9 DUP1 DUP1 PUSH2 0x70D JUMP JUMPDEST SWAP3 SWAP4 PUSH1 0x20 PUSH1 0x1 DUP2 SWAP3 DUP8 DUP7 ADD MLOAD DUP2 SSTORE ADD SWAP6 ADD SWAP4 ADD PUSH2 0x6E3 JUMP JUMPDEST PUSH4 0x4E487B71 PUSH1 0xE0 SHL PUSH1 0x0 MSTORE PUSH1 0x41 PUSH1 0x4 MSTORE PUSH1 0x24 PUSH1 0x0 REVERT JUMPDEST CALLVALUE PUSH2 0x219 JUMPI PUSH1 0x20 CALLDATASIZE PUSH1 0x3 NOT ADD SLT PUSH2 0x219 JUMPI PUSH2 0x215 PUSH2 0x201 PUSH1 0x4 CALLDATALOAD PUSH2 0x34E9 JUMP JUMPDEST CALLVALUE PUSH2 0x219 JUMPI PUSH1 0x60 CALLDATASIZE PUSH1 0x3 NOT ADD SLT PUSH2 0x219 JUMPI PUSH1 0x4 CALLDATALOAD PUSH1 0x1 PUSH1 0x1 PUSH1 0x40 SHL SUB DUP2 GT PUSH2 0x219 JUMPI PUSH2 0x7B0 SWAP1 CALLDATASIZE SWAP1 PUSH1 0x4 ADD PUSH2 0x2CD7 JUMP JUMPDEST PUSH1 0x24 CALLDATALOAD PUSH1 0x1 PUSH1 0x1 PUSH1 0x40 SHL SUB DUP2 GT PUSH2 0x219 JUMPI PUSH2 0x7CF SWAP1 CALLDATASIZE SWAP1 PUSH1 0x4 ADD PUSH2 0x2CD7 JUMP JUMPDEST SWAP1 PUSH1 0x44 CALLDATALOAD PUSH1 0x1 PUSH1 0x1 PUSH1 0x40 SHL SUB DUP2 GT PUSH2 0x219 JUMPI PUSH2 0x7EF SWAP1 CALLDATASIZE SWAP1 PUSH1 0x4 ADD PUSH2 0x2CD7 JUMP JUMPDEST SWAP5 DUP4 DUP6 EQ DUP1 PUSH2 0x858 JUMPI JUMPDEST PUSH2 0x802 SWAP1 PUSH2 0x3494 JUMP JUMPDEST PUSH2 0x80D DUP6 ISZERO ISZERO PUSH2 0x33DB JUMP JUMPDEST PUSH1 0x0 JUMPDEST DUP6 DUP2 LT PUSH2 0x819 JUMPI STOP JUMPDEST DUP1 PUSH2 0x852 PUSH2 0x832 PUSH2 0x82D PUSH1 0x1 SWAP5 DUP11 DUP8 PUSH2 0x34D9 JUMP JUMPDEST PUSH2 0x344E JUMP JUMPDEST PUSH2 0x840 PUSH2 0x82D DUP5 DUP11 DUP11 PUSH2 0x34D9 JUMP JUMPDEST PUSH2 0x84B DUP5 DUP13 DUP10 PUSH2 0x34D9 JUMP JUMPDEST CALLDATALOAD SWAP2 PUSH2 0x30BF JUMP JUMPDEST ADD PUSH2 0x810 JUMP JUMPDEST POP DUP5 DUP7 EQ PUSH2 0x7F9 JUMP JUMPDEST CALLVALUE PUSH2 0x219 JUMPI PUSH1 0x80 CALLDATASIZE PUSH1 0x3 NOT ADD SLT PUSH2 0x219 JUMPI PUSH2 0x87A PUSH2 0x2AFC JUMP JUMPDEST PUSH2 0x882 PUSH2 0x2B12 JUMP JUMPDEST SWAP1 PUSH1 0x44 CALLDATALOAD PUSH1 0x64 CALLDATALOAD SWAP3 PUSH1 0x1 PUSH1 0x1 PUSH1 0x40 SHL SUB DUP5 GT PUSH2 0x219 JUMPI CALLDATASIZE PUSH1 0x23 DUP6 ADD SLT ISZERO PUSH2 0x219 JUMPI PUSH2 0x8BA PUSH2 0x549 SWAP5 CALLDATASIZE SWAP1 PUSH1 0x24 DUP2 PUSH1 0x4 ADD CALLDATALOAD SWAP2 ADD PUSH2 0x2D22 JUMP JUMPDEST SWAP3 PUSH2 0x8C6 DUP4 DUP4 DUP4 PUSH2 0x2D7E JUMP JUMPDEST CALLER PUSH2 0x3B30 JUMP JUMPDEST CALLVALUE PUSH2 0x219 JUMPI PUSH1 0x40 CALLDATASIZE PUSH1 0x3 NOT ADD SLT PUSH2 0x219 JUMPI PUSH1 0x4 CALLDATALOAD PUSH1 0x1 PUSH1 0x1 PUSH1 0x40 SHL SUB DUP2 GT PUSH2 0x219 JUMPI PUSH2 0x8FC SWAP1 CALLDATASIZE SWAP1 PUSH1 0x4 ADD PUSH2 0x2CD7 JUMP JUMPDEST PUSH1 0x24 CALLDATALOAD PUSH1 0x1 PUSH1 0x1 PUSH1 0x40 SHL SUB DUP2 GT PUSH2 0x219 JUMPI PUSH2 0x91B SWAP1 CALLDATASIZE SWAP1 PUSH1 0x4 ADD PUSH2 0x2CD7 JUMP JUMPDEST SWAP2 SWAP1 SWAP3 PUSH2 0x926 PUSH2 0x3621 JUMP JUMPDEST PUSH2 0x931 DUP4 DUP4 EQ PUSH2 0x3494 JUMP JUMPDEST PUSH2 0x93C DUP3 ISZERO ISZERO PUSH2 0x33DB JUMP JUMPDEST PUSH1 0x0 JUMPDEST DUP3 DUP2 LT PUSH2 0x948 JUMPI STOP JUMPDEST PUSH2 0x953 DUP2 DUP5 DUP5 PUSH2 0x34D9 JUMP JUMPDEST CALLDATALOAD PUSH2 0x95F DUP3 DUP7 DUP9 PUSH2 0x34D9 JUMP JUMPDEST CALLDATALOAD PUSH2 0x968 PUSH2 0x3621 JUMP JUMPDEST PUSH2 0x97C PUSH1 0x1 PUSH1 0x1 PUSH1 0xA0 SHL SUB PUSH2 0x1DE DUP5 PUSH2 0x351C JUMP JUMPDEST PUSH2 0x987 DUP2 ISZERO ISZERO PUSH2 0x2FE0 JUMP JUMPDEST PUSH1 0x0 DUP3 DUP2 MSTORE PUSH1 0x9 PUSH1 0x20 DUP2 SWAP1 MSTORE PUSH1 0x40 SWAP1 SWAP2 KECCAK256 PUSH1 0x4 DUP2 ADD DUP1 SLOAD SWAP1 DUP5 SWAP1 SSTORE SWAP3 SWAP2 PUSH2 0x5D7 SWAP2 PUSH2 0x9BB SWAP2 PUSH1 0x5 SWAP2 ADD PUSH1 0xE PUSH2 0x5BD DUP7 PUSH2 0x37F6 JUMP JUMPDEST DUP4 PUSH1 0x0 MSTORE PUSH1 0x9 PUSH1 0x20 MSTORE PUSH1 0x9 PUSH1 0x40 PUSH1 0x0 KECCAK256 ADD SWAP1 DUP1 MLOAD SWAP1 PUSH1 0x1 PUSH1 0x1 PUSH1 0x40 SHL SUB DUP3 GT PUSH2 0x74B JUMPI PUSH2 0x9EC DUP3 PUSH2 0x662 DUP6 SLOAD PUSH2 0x2B28 JUMP JUMPDEST PUSH1 0x20 SWAP1 PUSH1 0x1F DUP4 GT PUSH1 0x1 EQ PUSH2 0xA5B JUMPI SWAP3 PUSH2 0xA35 DUP4 PUSH1 0x1 SWAP10 SWAP9 SWAP8 SWAP5 PUSH1 0x0 DUP1 MLOAD PUSH1 0x20 PUSH2 0x3C38 DUP4 CODECOPY DUP2 MLOAD SWAP2 MSTORE SWAP8 SWAP5 PUSH1 0x60 SWAP8 PUSH1 0x0 SWAP3 PUSH2 0xA50 JUMPI POP POP DUP2 PUSH1 0x1 SHL SWAP2 PUSH1 0x0 NOT SWAP1 PUSH1 0x3 SHL SHR NOT AND OR SWAP1 JUMP JUMPDEST SWAP1 SSTORE JUMPDEST PUSH1 0x40 MLOAD SWAP2 DUP3 MSTORE PUSH1 0x20 DUP3 ADD MSTORE TIMESTAMP PUSH1 0x40 DUP3 ADD MSTORE LOG2 ADD PUSH2 0x93F JUMP JUMPDEST ADD MLOAD SWAP1 POP DUP16 DUP1 PUSH2 0x699 JUMP JUMPDEST SWAP1 PUSH1 0x1F NOT DUP4 AND SWAP2 DUP5 PUSH1 0x0 MSTORE DUP2 PUSH1 0x0 KECCAK256 SWAP3 PUSH1 0x0 JUMPDEST DUP2 DUP2 LT PUSH2 0xAC2 JUMPI POP SWAP4 PUSH1 0x0 DUP1 MLOAD PUSH1 0x20 PUSH2 0x3C38 DUP4 CODECOPY DUP2 MLOAD SWAP2 MSTORE SWAP7 SWAP4 PUSH1 0x60 SWAP7 SWAP4 PUSH1 0x1 SWAP12 SWAP11 SWAP10 SWAP7 SWAP4 DUP4 DUP14 SWAP6 LT PUSH2 0xAA9 JUMPI JUMPDEST POP POP POP DUP2 SHL ADD SWAP1 SSTORE PUSH2 0xA38 JUMP JUMPDEST ADD MLOAD PUSH1 0x0 NOT PUSH1 0xF8 DUP5 PUSH1 0x3 SHL AND SHR NOT AND SWAP1 SSTORE DUP15 DUP1 DUP1 PUSH2 0xA9C JUMP JUMPDEST SWAP3 SWAP4 PUSH1 0x20 PUSH1 0x1 DUP2 SWAP3 DUP8 DUP7 ADD MLOAD DUP2 SSTORE ADD SWAP6 ADD SWAP4 ADD PUSH2 0xA6E JUMP JUMPDEST CALLVALUE PUSH2 0x219 JUMPI PUSH1 0x20 CALLDATASIZE PUSH1 0x3 NOT ADD SLT PUSH2 0x219 JUMPI PUSH1 0x4 CALLDATALOAD PUSH2 0xB02 PUSH1 0x1 PUSH1 0x1 PUSH1 0xA0 SHL SUB PUSH2 0x1DE DUP4 PUSH2 0x351C JUMP JUMPDEST PUSH1 0x0 MSTORE PUSH1 0x9 PUSH1 0x20 MSTORE PUSH2 0x215 PUSH2 0x201 PUSH1 0x9 PUSH1 0x40 PUSH1 0x0 KECCAK256 ADD PUSH2 0x2B9F JUMP JUMPDEST CALLVALUE PUSH2 0x219 JUMPI PUSH1 0x20 CALLDATASIZE PUSH1 0x3 NOT ADD SLT PUSH2 0x219 JUMPI PUSH1 0x4 CALLDATALOAD PUSH1 0x1 PUSH1 0x1 PUSH1 0x40 SHL SUB DUP2 GT PUSH2 0x219 JUMPI PUSH2 0xB4D SWAP1 CALLDATASIZE SWAP1 PUSH1 0x4 ADD PUSH2 0x2CD7 JUMP JUMPDEST SWAP1 PUSH2 0xB56 PUSH2 0x3621 JUMP JUMPDEST PUSH2 0xB61 DUP3 ISZERO ISZERO PUSH2 0x33DB JUMP JUMPDEST PUSH2 0xB6A DUP3 PUSH2 0x3415 JUMP JUMPDEST SWAP1 PUSH2 0xB78 PUSH1 0x40 MLOAD SWAP3 DUP4 PUSH2 0x2B7E JUMP JUMPDEST DUP3 DUP3 MSTORE PUSH2 0xB84 DUP4 PUSH2 0x3415 JUMP JUMPDEST PUSH1 0x1F NOT ADD CALLDATASIZE PUSH1 0x20 DUP5 ADD CALLDATACOPY PUSH1 0x20 PUSH1 0x80 MSTORE PUSH1 0x0 JUMPDEST DUP4 DUP2 LT PUSH2 0xBE6 JUMPI DUP3 PUSH1 0x40 MLOAD DUP1 SWAP2 PUSH1 0x80 MLOAD DUP3 ADD PUSH1 0x80 MLOAD DUP4 MSTORE DUP2 MLOAD DUP1 SWAP2 MSTORE PUSH1 0x20 PUSH1 0x40 DUP5 ADD SWAP3 ADD SWAP1 PUSH1 0x0 JUMPDEST DUP2 DUP2 LT PUSH2 0xBCC JUMPI POP POP POP SUB SWAP1 RETURN JUMPDEST DUP3 MLOAD DUP5 MSTORE PUSH1 0x80 MLOAD DUP7 SWAP6 POP SWAP4 DUP5 ADD SWAP4 SWAP1 SWAP3 ADD SWAP2 PUSH1 0x1 ADD PUSH2 0xBBE JUMP JUMPDEST PUSH2 0xBF1 DUP2 DUP6 DUP5 PUSH2 0x342C JUMP JUMPDEST PUSH2 0xBFA SWAP1 PUSH2 0x344E JUMP JUMPDEST SWAP1 PUSH2 0xC06 DUP2 DUP7 DUP6 PUSH2 0x342C JUMP JUMPDEST PUSH1 0x80 MLOAD DUP2 ADD PUSH2 0xC14 SWAP2 PUSH2 0x3462 JUMP JUMPDEST PUSH2 0xC22 DUP4 DUP9 DUP8 SWAP7 SWAP5 SWAP7 PUSH2 0x342C JUMP JUMPDEST PUSH1 0x40 DUP2 ADD PUSH2 0xC2F SWAP2 PUSH2 0x3462 JUMP JUMPDEST SWAP3 SWAP1 SWAP2 PUSH2 0xC3D DUP6 DUP11 DUP10 PUSH2 0x342C JUMP JUMPDEST PUSH1 0x60 ADD CALLDATALOAD SWAP6 PUSH2 0xC4D DUP7 DUP12 DUP11 PUSH2 0x342C JUMP JUMPDEST PUSH1 0x80 DUP2 ADD PUSH2 0xC5A SWAP2 PUSH2 0x3462 JUMP JUMPDEST SWAP3 SWAP1 PUSH2 0xC67 DUP9 DUP14 DUP13 PUSH2 0x342C JUMP JUMPDEST PUSH1 0xA0 ADD CALLDATALOAD SWAP1 PUSH1 0x0 SWAP5 PUSH2 0xC77 PUSH2 0x3621 JUMP JUMPDEST PUSH1 0x1 PUSH1 0x1 PUSH1 0xA0 SHL SUB DUP8 AND ISZERO PUSH2 0x1718 JUMPI DUP4 ISZERO PUSH2 0x16D7 JUMPI DUP9 ISZERO PUSH2 0x1691 JUMPI PUSH1 0x1 DUP12 LT ISZERO DUP1 PUSH2 0x1684 JUMPI JUMPDEST ISZERO PUSH2 0x164A JUMPI DUP1 ISZERO PUSH2 0x1604 JUMPI PUSH2 0xCB3 DUP4 ISZERO ISZERO PUSH2 0x2FE0 JUMP JUMPDEST PUSH2 0xCBE PUSH1 0x8 SLOAD PUSH2 0x302C JUMP JUMPDEST SWAP11 DUP12 PUSH1 0x8 SSTORE PUSH1 0x40 MLOAD PUSH2 0xCD2 PUSH1 0x80 MLOAD DUP3 PUSH2 0x2B7E JUMP JUMPDEST DUP8 DUP2 MSTORE PUSH1 0x1 PUSH1 0x1 PUSH1 0xA0 SHL SUB PUSH2 0xCE7 DUP15 DUP12 PUSH2 0x3553 JUMP JUMPDEST AND PUSH2 0x15F0 JUMPI SWAP1 PUSH2 0xCFE PUSH2 0xD86 SWAP5 SWAP4 SWAP3 DUP15 DUP12 CALLER PUSH2 0x39EC JUMP JUMPDEST PUSH2 0xD67 PUSH2 0xD0A DUP7 PUSH2 0x37F6 JUMP JUMPDEST SWAP8 PUSH2 0xD53 PUSH1 0x2F PUSH1 0x40 MLOAD DUP1 SWAP12 PUSH15 0x24B734BA34B0B6103B30B63AB29D1 PUSH1 0x8D SHL PUSH1 0x80 MLOAD DUP4 ADD MSTORE PUSH2 0xD42 DUP2 MLOAD DUP1 SWAP3 DUP6 DUP6 ADD SWAP1 PUSH1 0x80 MLOAD ADD PUSH2 0x2AB4 JUMP JUMPDEST DUP2 ADD SUB ADD PUSH1 0x1F NOT DUP2 ADD DUP12 MSTORE DUP11 PUSH2 0x2B7E JUMP JUMPDEST PUSH1 0x40 MLOAD SWAP8 PUSH2 0xD60 DUP10 PUSH2 0x2B62 JUMP JUMPDEST CALLDATASIZE SWAP2 PUSH2 0x2D22 JUMP JUMPDEST DUP7 MSTORE PUSH2 0xD74 CALLDATASIZE DUP13 DUP13 PUSH2 0x2D22 JUMP JUMPDEST PUSH1 0x80 MLOAD DUP8 ADD MSTORE PUSH1 0x40 DUP7 ADD MSTORE CALLDATASIZE SWAP2 PUSH2 0x2D22 JUMP JUMPDEST PUSH1 0x60 DUP4 ADD MSTORE PUSH1 0x80 DUP3 ADD MSTORE DUP3 PUSH1 0xA0 DUP3 ADD MSTORE PUSH1 0x40 MLOAD PUSH2 0xDA5 PUSH1 0x80 MLOAD DUP3 PUSH2 0x2B7E JUMP JUMPDEST DUP4 DUP2 MSTORE PUSH1 0xC0 DUP3 ADD MSTORE TIMESTAMP PUSH1 0xE0 DUP3 ADD MSTORE PUSH1 0x40 MLOAD PUSH2 0xDC2 PUSH1 0x80 MLOAD DUP3 PUSH2 0x2B7E JUMP JUMPDEST DUP4 DUP2 MSTORE PUSH2 0x100 DUP3 ADD MSTORE PUSH1 0x40 MLOAD PUSH2 0xDDA PUSH1 0x80 MLOAD DUP3 PUSH2 0x2B7E JUMP JUMPDEST DUP4 DUP2 MSTORE PUSH2 0x120 DUP3 ADD MSTORE DUP8 DUP4 MSTORE PUSH1 0x9 PUSH1 0x80 MLOAD MSTORE PUSH1 0x40 DUP4 KECCAK256 SWAP1 DUP1 MLOAD DUP1 MLOAD SWAP1 PUSH1 0x1 PUSH1 0x1 PUSH1 0x40 SHL SUB DUP3 GT PUSH2 0x141E JUMPI PUSH2 0xE18 DUP3 PUSH2 0xE12 DUP7 SLOAD PUSH2 0x2B28 JUMP JUMPDEST DUP7 PUSH2 0x2F6D JUMP JUMPDEST PUSH1 0x80 MLOAD SWAP1 PUSH1 0x1F DUP4 GT PUSH1 0x1 EQ PUSH2 0x1585 JUMPI PUSH2 0xE48 SWAP3 SWAP2 DUP8 SWAP2 DUP4 PUSH2 0xA50 JUMPI POP POP DUP2 PUSH1 0x1 SHL SWAP2 PUSH1 0x0 NOT SWAP1 PUSH1 0x3 SHL SHR NOT AND OR SWAP1 JUMP JUMPDEST DUP3 SSTORE JUMPDEST PUSH1 0x80 MLOAD DUP2 ADD MLOAD DUP1 MLOAD SWAP1 PUSH1 0x1 PUSH1 0x1 PUSH1 0x40 SHL SUB DUP3 GT PUSH2 0x141E JUMPI PUSH2 0xE7C DUP3 PUSH2 0xE73 PUSH1 0x1 DUP8 ADD SLOAD PUSH2 0x2B28 JUMP JUMPDEST PUSH1 0x1 DUP8 ADD PUSH2 0x2F6D JUMP JUMPDEST PUSH1 0x80 MLOAD SWAP1 PUSH1 0x1F DUP4 GT PUSH1 0x1 EQ PUSH2 0x1514 JUMPI PUSH2 0xEAC SWAP3 SWAP2 DUP8 SWAP2 DUP4 PUSH2 0xA50 JUMPI POP POP DUP2 PUSH1 0x1 SHL SWAP2 PUSH1 0x0 NOT SWAP1 PUSH1 0x3 SHL SHR NOT AND OR SWAP1 JUMP JUMPDEST PUSH1 0x1 DUP4 ADD SSTORE JUMPDEST PUSH1 0x40 DUP2 ADD MLOAD PUSH1 0x2 DUP4 ADD SSTORE PUSH1 0x60 DUP2 ADD MLOAD DUP1 MLOAD SWAP1 PUSH1 0x1 PUSH1 0x1 PUSH1 0x40 SHL SUB DUP3 GT PUSH2 0x141E JUMPI PUSH2 0xEEC DUP3 PUSH2 0xEE3 PUSH1 0x3 DUP8 ADD SLOAD PUSH2 0x2B28 JUMP JUMPDEST PUSH1 0x3 DUP8 ADD PUSH2 0x2F6D JUMP JUMPDEST PUSH1 0x80 MLOAD SWAP1 PUSH1 0x1F DUP4 GT PUSH1 0x1 EQ PUSH2 0x14A3 JUMPI PUSH2 0xF1C SWAP3 SWAP2 DUP8 SWAP2 DUP4 PUSH2 0xA50 JUMPI POP POP DUP2 PUSH1 0x1 SHL SWAP2 PUSH1 0x0 NOT SWAP1 PUSH1 0x3 SHL SHR NOT AND OR SWAP1 JUMP JUMPDEST PUSH1 0x3 DUP4 ADD SSTORE JUMPDEST PUSH1 0x80 DUP2 ADD MLOAD PUSH1 0x4 DUP4 ADD SSTORE PUSH2 0xF4B PUSH1 0xA0 DUP3 ADD MLOAD ISZERO ISZERO PUSH1 0x5 DUP5 ADD SWAP1 PUSH1 0xFF DUP1 NOT DUP4 SLOAD AND SWAP2 ISZERO ISZERO AND OR SWAP1 SSTORE JUMP JUMPDEST PUSH1 0xC0 DUP2 ADD MLOAD DUP1 MLOAD SWAP1 PUSH1 0x1 PUSH1 0x1 PUSH1 0x40 SHL SUB DUP3 GT PUSH2 0x141E JUMPI PUSH2 0xF7B DUP3 PUSH2 0xF72 PUSH1 0x6 DUP8 ADD SLOAD PUSH2 0x2B28 JUMP JUMPDEST PUSH1 0x6 DUP8 ADD PUSH2 0x2F6D JUMP JUMPDEST PUSH1 0x80 MLOAD SWAP1 PUSH1 0x1F DUP4 GT PUSH1 0x1 EQ PUSH2 0x1432 JUMPI PUSH2 0xFAB SWAP3 SWAP2 DUP8 SWAP2 DUP4 PUSH2 0xA50 JUMPI POP POP DUP2 PUSH1 0x1 SHL SWAP2 PUSH1 0x0 NOT SWAP1 PUSH1 0x3 SHL SHR NOT AND OR SWAP1 JUMP JUMPDEST PUSH1 0x6 DUP4 ADD SSTORE JUMPDEST PUSH1 0xE0 DUP2 ADD MLOAD PUSH1 0x7 DUP4 ADD SSTORE PUSH2 0x100 DUP2 ADD MLOAD DUP1 MLOAD SWAP1 PUSH1 0x1 PUSH1 0x1 PUSH1 0x40 SHL SUB DUP3 GT PUSH2 0x141E JUMPI PUSH2 0xFEC DUP3 PUSH2 0xFE3 PUSH1 0x8 DUP8 ADD SLOAD PUSH2 0x2B28 JUMP JUMPDEST PUSH1 0x8 DUP8 ADD PUSH2 0x2F6D JUMP JUMPDEST PUSH1 0x80 MLOAD SWAP1 PUSH1 0x1F DUP4 GT PUSH1 0x1 EQ PUSH2 0x13AB JUMPI SWAP2 DUP1 PUSH2 0x1021 SWAP3 PUSH2 0x120 SWAP6 SWAP5 DUP10 SWAP3 PUSH2 0x13A0 JUMPI POP POP DUP2 PUSH1 0x1 SHL SWAP2 PUSH1 0x0 NOT SWAP1 PUSH1 0x3 SHL SHR NOT AND OR SWAP1 JUMP JUMPDEST PUSH1 0x8 DUP5 ADD SSTORE JUMPDEST ADD MLOAD DUP1 MLOAD SWAP1 PUSH1 0x1 PUSH1 0x1 PUSH1 0x40 SHL SUB DUP3 GT PUSH2 0x131D JUMPI PUSH2 0x1054 DUP3 PUSH2 0x104B PUSH1 0x9 DUP7 ADD SLOAD PUSH2 0x2B28 JUMP JUMPDEST PUSH1 0x9 DUP7 ADD PUSH2 0x2F6D JUMP JUMPDEST PUSH1 0x80 MLOAD SWAP1 PUSH1 0x1F DUP4 GT PUSH1 0x1 EQ PUSH2 0x1331 JUMPI SWAP2 DUP1 PUSH2 0x1087 SWAP3 PUSH1 0x9 SWAP5 DUP9 SWAP3 PUSH2 0xA50 JUMPI POP POP DUP2 PUSH1 0x1 SHL SWAP2 PUSH1 0x0 NOT SWAP1 PUSH1 0x3 SHL SHR NOT AND OR SWAP1 JUMP JUMPDEST SWAP2 ADD SSTORE JUMPDEST PUSH2 0x1094 DUP4 PUSH2 0x38BA JUMP JUMPDEST PUSH2 0x10D8 PUSH1 0x2B PUSH1 0x40 MLOAD DUP1 SWAP4 PUSH11 0x26B4B73A32B2103A379D1 PUSH1 0xAD SHL PUSH1 0x80 MLOAD DUP4 ADD MSTORE PUSH2 0x10C7 DUP2 MLOAD DUP1 SWAP3 DUP6 DUP6 ADD SWAP1 PUSH1 0x80 MLOAD ADD PUSH2 0x2AB4 JUMP JUMPDEST DUP2 ADD SUB ADD PUSH1 0x1F NOT DUP2 ADD DUP4 MSTORE DUP3 PUSH2 0x2B7E JUMP JUMPDEST DUP8 DUP4 MSTORE PUSH1 0x9 PUSH1 0x80 MLOAD MSTORE PUSH1 0x8 PUSH1 0x40 DUP5 KECCAK256 ADD SWAP1 DUP1 MLOAD SWAP1 PUSH1 0x1 PUSH1 0x1 PUSH1 0x40 SHL SUB DUP3 GT PUSH2 0x131D JUMPI PUSH2 0x1108 DUP3 PUSH2 0x662 DUP6 SLOAD PUSH2 0x2B28 JUMP JUMPDEST PUSH1 0x80 MLOAD SWAP1 PUSH1 0x1F DUP4 GT PUSH1 0x1 EQ PUSH2 0x12B2 JUMPI PUSH2 0x1138 SWAP3 SWAP2 DUP7 SWAP2 DUP4 PUSH2 0x1210 JUMPI POP POP DUP2 PUSH1 0x1 SHL SWAP2 PUSH1 0x0 NOT SWAP1 PUSH1 0x3 SHL SHR NOT AND OR SWAP1 JUMP JUMPDEST SWAP1 SSTORE JUMPDEST DUP7 DUP3 MSTORE PUSH1 0x9 PUSH1 0x80 MLOAD MSTORE PUSH1 0x9 PUSH1 0x40 DUP4 KECCAK256 ADD SWAP2 DUP2 MLOAD SWAP2 PUSH1 0x1 PUSH1 0x1 PUSH1 0x40 SHL SUB DUP4 GT PUSH2 0x129E JUMPI SWAP1 DUP3 SWAP2 PUSH2 0x1173 DUP6 SWAP5 PUSH2 0xE12 DUP13 SWAP11 SWAP10 SWAP9 SWAP8 SLOAD PUSH2 0x2B28 JUMP JUMPDEST PUSH1 0x80 MLOAD SWAP2 PUSH1 0x1F DUP5 GT PUSH1 0x1 EQ PUSH2 0x121B JUMPI PUSH1 0x0 DUP1 MLOAD PUSH1 0x20 PUSH2 0x3C18 DUP4 CODECOPY DUP2 MLOAD SWAP2 MSTORE SWAP7 SWAP6 SWAP5 SWAP4 PUSH2 0x11B5 SWAP4 SWAP1 SWAP3 DUP4 PUSH2 0x1210 JUMPI POP POP DUP2 PUSH1 0x1 SHL SWAP2 PUSH1 0x0 NOT SWAP1 PUSH1 0x3 SHL SHR NOT AND OR SWAP1 JUMP JUMPDEST SWAP1 SSTORE JUMPDEST PUSH2 0x11DA PUSH1 0x40 MLOAD SWAP3 DUP4 SWAP3 PUSH1 0x80 MLOAD DUP5 MSTORE PUSH1 0x1 DUP1 PUSH1 0xA0 SHL SUB AND SWAP6 PUSH1 0x80 MLOAD DUP5 ADD SWAP2 PUSH2 0x2FBF JUMP JUMPDEST SUB SWAP1 LOG3 DUP4 MLOAD DUP2 LT ISZERO PUSH2 0x11FA JUMPI PUSH1 0x1 SWAP2 PUSH1 0x80 MLOAD DUP3 PUSH1 0x5 SHL DUP7 ADD ADD MSTORE ADD PUSH2 0xB96 JUMP JUMPDEST PUSH4 0x4E487B71 PUSH1 0xE0 SHL PUSH1 0x0 MSTORE PUSH1 0x32 PUSH1 0x4 MSTORE PUSH1 0x24 PUSH1 0x0 REVERT JUMPDEST ADD MLOAD SWAP1 POP DUP15 DUP1 PUSH2 0x699 JUMP JUMPDEST SWAP8 SWAP7 SWAP6 SWAP5 SWAP4 SWAP3 SWAP2 SWAP1 DUP4 DUP10 MSTORE PUSH1 0x80 MLOAD DUP10 KECCAK256 SWAP9 JUMPDEST PUSH1 0x1F NOT DUP5 AND DUP2 LT PUSH2 0x1282 JUMPI POP SWAP8 DUP3 SWAP2 PUSH1 0x0 DUP1 MLOAD PUSH1 0x20 PUSH2 0x3C18 DUP4 CODECOPY DUP2 MLOAD SWAP2 MSTORE SWAP8 SWAP9 SWAP10 PUSH1 0x1 SWAP5 PUSH1 0x1F NOT DUP2 AND LT PUSH2 0x1269 JUMPI JUMPDEST POP POP POP DUP2 SHL ADD SWAP1 SSTORE PUSH2 0x11B8 JUMP JUMPDEST ADD MLOAD PUSH1 0x0 NOT PUSH1 0xF8 DUP5 PUSH1 0x3 SHL AND SHR NOT AND SWAP1 SSTORE DUP14 DUP1 DUP1 PUSH2 0x125C JUMP JUMPDEST DUP2 DUP4 ADD MLOAD DUP11 SSTORE PUSH1 0x80 MLOAD PUSH1 0x1 SWAP1 SWAP11 ADD SWAP10 DUP13 SWAP10 POP SWAP3 DUP4 ADD SWAP3 ADD PUSH2 0x122D JUMP JUMPDEST PUSH4 0x4E487B71 PUSH1 0xE0 SHL DUP3 MSTORE PUSH1 0x41 PUSH1 0x4 MSTORE PUSH1 0x24 DUP3 REVERT JUMPDEST SWAP2 SWAP1 DUP4 DUP7 MSTORE PUSH1 0x80 MLOAD DUP7 KECCAK256 SWAP1 DUP7 SWAP4 JUMPDEST PUSH1 0x1F NOT DUP5 AND DUP6 LT PUSH2 0x1301 JUMPI PUSH1 0x1 SWAP5 POP DUP4 PUSH1 0x1F NOT DUP2 AND LT PUSH2 0x12E8 JUMPI JUMPDEST POP POP POP DUP2 SHL ADD SWAP1 SSTORE PUSH2 0x113B JUMP JUMPDEST ADD MLOAD PUSH1 0x0 NOT PUSH1 0xF8 DUP5 PUSH1 0x3 SHL AND SHR NOT AND SWAP1 SSTORE DUP14 DUP1 DUP1 PUSH2 0x12DB JUMP JUMPDEST DUP2 DUP2 ADD MLOAD DUP4 SSTORE PUSH1 0x80 MLOAD SWAP5 DUP6 ADD SWAP5 PUSH1 0x1 SWAP1 SWAP4 ADD SWAP3 SWAP1 SWAP2 ADD SWAP1 PUSH2 0x12C0 JUMP JUMPDEST PUSH4 0x4E487B71 PUSH1 0xE0 SHL DUP6 MSTORE PUSH1 0x41 PUSH1 0x4 MSTORE PUSH1 0x24 DUP6 REVERT JUMPDEST SWAP1 PUSH1 0x9 DUP5 ADD DUP7 MSTORE PUSH1 0x80 MLOAD DUP7 KECCAK256 SWAP2 DUP7 JUMPDEST PUSH1 0x1F NOT DUP6 AND DUP2 LT PUSH2 0x1387 JUMPI POP SWAP2 DUP4 SWAP2 PUSH1 0x1 SWAP4 PUSH1 0x9 SWAP6 PUSH1 0x1F NOT DUP2 AND LT PUSH2 0x136E JUMPI JUMPDEST POP POP POP DUP2 SHL ADD SWAP2 ADD SSTORE PUSH2 0x108B JUMP JUMPDEST ADD MLOAD PUSH1 0x0 NOT PUSH1 0xF8 DUP5 PUSH1 0x3 SHL AND SHR NOT AND SWAP1 SSTORE DUP15 DUP1 DUP1 PUSH2 0x1360 JUMP JUMPDEST DUP2 DUP4 ADD MLOAD DUP5 SSTORE PUSH1 0x80 MLOAD PUSH1 0x1 SWAP1 SWAP5 ADD SWAP4 SWAP3 DUP4 ADD SWAP3 ADD PUSH2 0x1340 JUMP JUMPDEST ADD MLOAD SWAP1 POP CODESIZE DUP1 PUSH2 0x699 JUMP JUMPDEST SWAP1 PUSH1 0x8 DUP6 ADD DUP8 MSTORE PUSH1 0x80 MLOAD DUP8 KECCAK256 SWAP2 DUP8 JUMPDEST PUSH1 0x1F NOT DUP6 AND DUP2 LT PUSH2 0x1405 JUMPI POP SWAP2 DUP4 SWAP2 PUSH1 0x1 SWAP4 PUSH2 0x120 SWAP7 SWAP6 PUSH1 0x1F NOT DUP2 AND LT PUSH2 0x13EC JUMPI JUMPDEST POP POP POP DUP2 SHL ADD PUSH1 0x8 DUP5 ADD SSTORE PUSH2 0x1027 JUMP JUMPDEST ADD MLOAD PUSH1 0x0 NOT PUSH1 0xF8 DUP5 PUSH1 0x3 SHL AND SHR NOT AND SWAP1 SSTORE DUP16 DUP1 DUP1 PUSH2 0x13DC JUMP JUMPDEST DUP2 DUP4 ADD MLOAD DUP5 SSTORE PUSH1 0x80 MLOAD PUSH1 0x1 SWAP1 SWAP5 ADD SWAP4 SWAP3 DUP4 ADD SWAP3 ADD PUSH2 0x13BA JUMP JUMPDEST PUSH4 0x4E487B71 PUSH1 0xE0 SHL DUP7 MSTORE PUSH1 0x41 PUSH1 0x4 MSTORE PUSH1 0x24 DUP7 REVERT JUMPDEST SWAP2 SWAP1 PUSH1 0x6 DUP6 ADD DUP8 MSTORE PUSH1 0x80 MLOAD DUP8 KECCAK256 SWAP1 DUP8 SWAP4 JUMPDEST PUSH1 0x1F NOT DUP5 AND DUP6 LT PUSH2 0x1487 JUMPI PUSH1 0x1 SWAP5 POP DUP4 PUSH1 0x1F NOT DUP2 AND LT PUSH2 0x146E JUMPI JUMPDEST POP POP POP DUP2 SHL ADD PUSH1 0x6 DUP4 ADD SSTORE PUSH2 0xFB1 JUMP JUMPDEST ADD MLOAD PUSH1 0x0 NOT PUSH1 0xF8 DUP5 PUSH1 0x3 SHL AND SHR NOT AND SWAP1 SSTORE DUP15 DUP1 DUP1 PUSH2 0x145E JUMP JUMPDEST DUP2 DUP2 ADD MLOAD DUP4 SSTORE PUSH1 0x80 MLOAD SWAP5 DUP6 ADD SWAP5 PUSH1 0x1 SWAP1 SWAP4 ADD SWAP3 SWAP1 SWAP2 ADD SWAP1 PUSH2 0x1443 JUMP JUMPDEST SWAP2 SWAP1 PUSH1 0x3 DUP6 ADD DUP8 MSTORE PUSH1 0x80 MLOAD DUP8 KECCAK256 SWAP1 DUP8 SWAP4 JUMPDEST PUSH1 0x1F NOT DUP5 AND DUP6 LT PUSH2 0x14F8 JUMPI PUSH1 0x1 SWAP5 POP DUP4 PUSH1 0x1F NOT DUP2 AND LT PUSH2 0x14DF JUMPI JUMPDEST POP POP POP DUP2 SHL ADD PUSH1 0x3 DUP4 ADD SSTORE PUSH2 0xF22 JUMP JUMPDEST ADD MLOAD PUSH1 0x0 NOT PUSH1 0xF8 DUP5 PUSH1 0x3 SHL AND SHR NOT AND SWAP1 SSTORE DUP15 DUP1 DUP1 PUSH2 0x14CF JUMP JUMPDEST DUP2 DUP2 ADD MLOAD DUP4 SSTORE PUSH1 0x80 MLOAD SWAP5 DUP6 ADD SWAP5 PUSH1 0x1 SWAP1 SWAP4 ADD SWAP3 SWAP1 SWAP2 ADD SWAP1 PUSH2 0x14B4 JUMP JUMPDEST SWAP2 SWAP1 PUSH1 0x1 DUP6 ADD DUP8 MSTORE PUSH1 0x80 MLOAD DUP8 KECCAK256 SWAP1 DUP8 SWAP4 JUMPDEST PUSH1 0x1F NOT DUP5 AND DUP6 LT PUSH2 0x1569 JUMPI PUSH1 0x1 SWAP5 POP DUP4 PUSH1 0x1F NOT DUP2 AND LT PUSH2 0x1550 JUMPI JUMPDEST POP POP POP DUP2 SHL ADD PUSH1 0x1 DUP4 ADD SSTORE PUSH2 0xEB2 JUMP JUMPDEST ADD MLOAD PUSH1 0x0 NOT PUSH1 0xF8 DUP5 PUSH1 0x3 SHL AND SHR NOT AND SWAP1 SSTORE DUP15 DUP1 DUP1 PUSH2 0x1540 JUMP JUMPDEST DUP2 DUP2 ADD MLOAD DUP4 SSTORE PUSH1 0x80 MLOAD SWAP5 DUP6 ADD SWAP5 PUSH1 0x1 SWAP1 SWAP4 ADD SWAP3 SWAP1 SWAP2 ADD SWAP1 PUSH2 0x1525 JUMP JUMPDEST SWAP2 SWAP1 DUP5 DUP8 MSTORE PUSH1 0x80 MLOAD DUP8 KECCAK256 SWAP1 DUP8 SWAP4 JUMPDEST PUSH1 0x1F NOT DUP5 AND DUP6 LT PUSH2 0x15D4 JUMPI PUSH1 0x1 SWAP5 POP DUP4 PUSH1 0x1F NOT DUP2 AND LT PUSH2 0x15BB JUMPI JUMPDEST POP POP POP DUP2 SHL ADD DUP3 SSTORE PUSH2 0xE4B JUMP JUMPDEST ADD MLOAD PUSH1 0x0 NOT PUSH1 0xF8 DUP5 PUSH1 0x3 SHL AND SHR NOT AND SWAP1 SSTORE DUP15 DUP1 DUP1 PUSH2 0x15AE JUMP JUMPDEST DUP2 DUP2 ADD MLOAD DUP4 SSTORE PUSH1 0x80 MLOAD SWAP5 DUP6 ADD SWAP5 PUSH1 0x1 SWAP1 SWAP4 ADD SWAP3 SWAP1 SWAP2 ADD SWAP1 PUSH2 0x1593 JUMP JUMPDEST PUSH4 0x39E35637 PUSH1 0xE1 SHL DUP9 MSTORE PUSH1 0x4 DUP9 SWAP1 MSTORE PUSH1 0x24 DUP9 REVERT JUMPDEST PUSH1 0x40 MLOAD PUSH3 0x461BCD PUSH1 0xE5 SHL DUP2 MSTORE PUSH1 0x80 MLOAD PUSH1 0x4 DUP3 ADD MSTORE PUSH1 0x1D PUSH1 0x24 DUP3 ADD MSTORE PUSH32 0x50726F706572747920747970652063616E6E6F7420626520656D707479000000 PUSH1 0x44 DUP3 ADD MSTORE PUSH1 0x64 SWAP1 REVERT JUMPDEST PUSH1 0x40 MLOAD PUSH3 0x461BCD PUSH1 0xE5 SHL DUP2 MSTORE PUSH1 0x80 MLOAD PUSH1 0x4 DUP3 ADD MSTORE PUSH1 0x11 PUSH1 0x24 DUP3 ADD MSTORE PUSH17 0x496E76616C696420617265612073697A65 PUSH1 0x78 SHL PUSH1 0x44 DUP3 ADD MSTORE PUSH1 0x64 SWAP1 REVERT JUMPDEST POP PUSH3 0x989680 DUP12 GT ISZERO PUSH2 0xC9D JUMP JUMPDEST PUSH1 0x40 MLOAD PUSH3 0x461BCD PUSH1 0xE5 SHL DUP2 MSTORE PUSH1 0x80 MLOAD PUSH1 0x4 DUP3 ADD MSTORE PUSH1 0x1D PUSH1 0x24 DUP3 ADD MSTORE PUSH32 0x537572766579206E756D6265722063616E6E6F7420626520656D707479000000 PUSH1 0x44 DUP3 ADD MSTORE PUSH1 0x64 SWAP1 REVERT JUMPDEST PUSH1 0x40 MLOAD PUSH3 0x461BCD PUSH1 0xE5 SHL DUP2 MSTORE PUSH1 0x80 MLOAD PUSH1 0x4 DUP3 ADD MSTORE PUSH1 0x18 PUSH1 0x24 DUP3 ADD MSTORE PUSH24 0x4C6F636174696F6E2063616E6E6F7420626520656D707479 PUSH1 0x40 SHL PUSH1 0x44 DUP3 ADD MSTORE PUSH1 0x64 SWAP1 REVERT JUMPDEST PUSH1 0x40 MLOAD PUSH3 0x461BCD PUSH1 0xE5 SHL DUP2 MSTORE PUSH1 0x80 MLOAD PUSH1 0x4 DUP3 ADD MSTORE PUSH1 0x19 PUSH1 0x24 DUP3 ADD MSTORE PUSH25 0x496E76616C696420726563697069656E742061646472657373 PUSH1 0x38 SHL PUSH1 0x44 DUP3 ADD MSTORE PUSH1 0x64 SWAP1 REVERT JUMPDEST CALLVALUE PUSH2 0x219 JUMPI PUSH2 0x549 PUSH2 0x176B CALLDATASIZE PUSH2 0x2C43 JUMP JUMPDEST SWAP2 PUSH2 0x30BF JUMP JUMPDEST CALLVALUE PUSH2 0x219 JUMPI PUSH1 0x40 CALLDATASIZE PUSH1 0x3 NOT ADD SLT PUSH2 0x219 JUMPI PUSH2 0x178A PUSH2 0x2AFC JUMP JUMPDEST PUSH2 0x1792 PUSH2 0x2C7D JUMP JUMPDEST PUSH1 0x1 PUSH1 0x1 PUSH1 0xA0 SHL SUB SWAP1 SWAP2 AND SWAP1 DUP2 ISZERO PUSH2 0x1803 JUMPI CALLER PUSH1 0x0 MSTORE PUSH1 0x5 PUSH1 0x20 MSTORE PUSH1 0x40 PUSH1 0x0 KECCAK256 DUP3 PUSH1 0x0 MSTORE PUSH1 0x20 MSTORE PUSH2 0x17D3 DUP2 PUSH1 0x40 PUSH1 0x0 KECCAK256 SWAP1 PUSH1 0xFF DUP1 NOT DUP4 SLOAD AND SWAP2 ISZERO ISZERO AND OR SWAP1 SSTORE JUMP JUMPDEST PUSH1 0x40 MLOAD SWAP1 ISZERO ISZERO DUP2 MSTORE PUSH32 0x17307EAB39AB6107E8899845AD3D59BD9653F200F220920489CA2B5937696C31 PUSH1 0x20 CALLER SWAP3 LOG3 STOP JUMPDEST POP PUSH4 0xB611743 PUSH1 0xE3 SHL PUSH1 0x0 MSTORE PUSH1 0x4 MSTORE PUSH1 0x24 PUSH1 0x0 REVERT JUMPDEST CALLVALUE PUSH2 0x219 JUMPI PUSH1 0x0 CALLDATASIZE PUSH1 0x3 NOT ADD SLT PUSH2 0x219 JUMPI PUSH1 0x20 PUSH1 0x40 MLOAD PUSH1 0x0 DUP2 MSTORE RETURN JUMPDEST CALLVALUE PUSH2 0x219 JUMPI PUSH1 0x0 CALLDATASIZE PUSH1 0x3 NOT ADD SLT PUSH2 0x219 JUMPI PUSH1 0x40 MLOAD PUSH1 0x0 PUSH1 0x1 SLOAD PUSH2 0x1856 DUP2 PUSH2 0x2B28 JUMP JUMPDEST DUP1 DUP5 MSTORE SWAP1 PUSH1 0x1 DUP2 AND SWAP1 DUP2 ISZERO PUSH2 0x18DD JUMPI POP PUSH1 0x1 EQ PUSH2 0x187E JUMPI JUMPDEST PUSH2 0x215 DUP4 PUSH2 0x201 DUP2 DUP6 SUB DUP3 PUSH2 0x2B7E JUMP JUMPDEST PUSH1 0x1 PUSH1 0x0 SWAP1 DUP2 MSTORE PUSH32 0xB10E2D527612073B26EECDFD717E6A320CF44B4AFAC2B0732D9FCBE2B7FA0CF6 SWAP4 SWAP3 POP SWAP1 JUMPDEST DUP1 DUP3 LT PUSH2 0x18C3 JUMPI POP SWAP1 SWAP2 POP DUP2 ADD PUSH1 0x20 ADD PUSH2 0x201 PUSH2 0x186E JUMP JUMPDEST SWAP2 SWAP3 PUSH1 0x1 DUP2 PUSH1 0x20 SWAP3 SLOAD DUP4 DUP6 DUP9 ADD ADD MSTORE ADD SWAP2 ADD SWAP1 SWAP3 SWAP2 PUSH2 0x18AB JUMP JUMPDEST PUSH1 0xFF NOT AND PUSH1 0x20 DUP1 DUP7 ADD SWAP2 SWAP1 SWAP2 MSTORE SWAP2 ISZERO ISZERO PUSH1 0x5 SHL DUP5 ADD SWAP1 SWAP2 ADD SWAP2 POP PUSH2 0x201 SWAP1 POP PUSH2 0x186E JUMP JUMPDEST CALLVALUE PUSH2 0x219 JUMPI PUSH1 0x40 CALLDATASIZE PUSH1 0x3 NOT ADD SLT PUSH2 0x219 JUMPI PUSH2 0x191A PUSH2 0x2B12 JUMP JUMPDEST PUSH1 0x4 CALLDATALOAD PUSH1 0x0 MSTORE PUSH1 0x7 PUSH1 0x20 MSTORE PUSH1 0x40 PUSH1 0x0 KECCAK256 SWAP1 PUSH1 0x1 DUP1 PUSH1 0xA0 SHL SUB AND PUSH1 0x0 MSTORE PUSH1 0x20 MSTORE PUSH1 0x20 PUSH1 0xFF PUSH1 0x40 PUSH1 0x0 KECCAK256 SLOAD AND PUSH1 0x40 MLOAD SWAP1 ISZERO ISZERO DUP2 MSTORE RETURN JUMPDEST CALLVALUE PUSH2 0x219 JUMPI PUSH1 0x0 CALLDATASIZE PUSH1 0x3 NOT ADD SLT PUSH2 0x219 JUMPI PUSH1 0x20 PUSH1 0x40 MLOAD PUSH1 0x1 DUP2 MSTORE RETURN JUMPDEST CALLVALUE PUSH2 0x219 JUMPI PUSH1 0x20 CALLDATASIZE PUSH1 0x3 NOT ADD SLT PUSH2 0x219 JUMPI PUSH1 0x1 PUSH1 0x1 PUSH1 0xA0 SHL SUB PUSH2 0x198B PUSH2 0x2AFC JUMP JUMPDEST AND DUP1 ISZERO PUSH2 0x19AA JUMPI PUSH1 0x0 MSTORE PUSH1 0x3 PUSH1 0x20 MSTORE PUSH1 0x20 PUSH1 0x40 PUSH1 0x0 KECCAK256 SLOAD PUSH1 0x40 MLOAD SWAP1 DUP2 MSTORE RETURN JUMPDEST PUSH4 0x22718AD9 PUSH1 0xE2 SHL PUSH1 0x0 MSTORE PUSH1 0x0 PUSH1 0x4 MSTORE PUSH1 0x24 PUSH1 0x0 REVERT JUMPDEST CALLVALUE PUSH2 0x219 JUMPI PUSH1 0x20 CALLDATASIZE PUSH1 0x3 NOT ADD SLT PUSH2 0x219 JUMPI PUSH1 0x20 PUSH2 0x19DE PUSH1 0x4 CALLDATALOAD PUSH2 0x351C JUMP JUMPDEST PUSH1 0x40 MLOAD PUSH1 0x1 PUSH1 0x1 PUSH1 0xA0 SHL SUB SWAP1 SWAP2 AND DUP2 MSTORE RETURN JUMPDEST CALLVALUE PUSH2 0x219 JUMPI PUSH1 0xC0 CALLDATASIZE PUSH1 0x3 NOT ADD SLT PUSH2 0x219 JUMPI PUSH2 0x1A09 PUSH2 0x2AFC JUMP JUMPDEST PUSH1 0x24 CALLDATALOAD PUSH1 0x1 PUSH1 0x1 PUSH1 0x40 SHL SUB DUP2 GT PUSH2 0x219 JUMPI PUSH2 0x1A28 SWAP1 CALLDATASIZE SWAP1 PUSH1 0x4 ADD PUSH2 0x2C8C JUMP JUMPDEST PUSH1 0x44 SWAP3 SWAP2 SWAP3 CALLDATALOAD PUSH1 0x1 PUSH1 0x1 PUSH1 0x40 SHL SUB DUP2 GT PUSH2 0x219 JUMPI PUSH2 0x1A4A SWAP1 CALLDATASIZE SWAP1 PUSH1 0x4 ADD PUSH2 0x2C8C JUMP JUMPDEST SWAP1 SWAP3 PUSH1 0x64 CALLDATALOAD PUSH1 0x84 CALLDATALOAD PUSH1 0x1 PUSH1 0x1 PUSH1 0x40 SHL SUB DUP2 GT PUSH2 0x219 JUMPI PUSH2 0x1A6E SWAP1 CALLDATASIZE SWAP1 PUSH1 0x4 ADD PUSH2 0x2C8C JUMP JUMPDEST SWAP5 SWAP1 SWAP2 PUSH1 0xA4 CALLDATALOAD PUSH1 0x0 SWAP4 PUSH2 0x1A7F PUSH2 0x3621 JUMP JUMPDEST PUSH1 0x1 PUSH1 0x1 PUSH1 0xA0 SHL SUB DUP7 AND ISZERO PUSH2 0x23F9 JUMPI DUP4 ISZERO PUSH2 0x23B9 JUMPI DUP7 ISZERO PUSH2 0x2374 JUMPI PUSH1 0x1 DUP4 LT ISZERO DUP1 PUSH2 0x2367 JUMPI JUMPDEST ISZERO PUSH2 0x232E JUMPI DUP8 ISZERO PUSH2 0x22E9 JUMPI PUSH2 0x1ABB DUP3 ISZERO ISZERO PUSH2 0x2FE0 JUMP JUMPDEST PUSH2 0x1AC6 PUSH1 0x8 SLOAD PUSH2 0x302C JUMP JUMPDEST SWAP8 DUP9 PUSH1 0x8 SSTORE PUSH1 0x20 SWAP11 PUSH1 0x40 MLOAD PUSH2 0x1ADB DUP14 DUP3 PUSH2 0x2B7E JUMP JUMPDEST DUP8 DUP2 MSTORE PUSH1 0x1 PUSH1 0x1 PUSH1 0xA0 SHL SUB PUSH2 0x1AF0 DUP13 DUP12 PUSH2 0x3553 JUMP JUMPDEST AND PUSH2 0x15F0 JUMPI SWAP2 PUSH2 0x1B4E PUSH2 0xD42 SWAP8 SWAP7 SWAP6 SWAP5 SWAP3 PUSH2 0xD53 DUP16 PUSH1 0x2F SWAP1 DUP16 PUSH2 0x1B6E SWAP9 DUP16 SWAP2 PUSH2 0x1B19 SWAP3 CALLER PUSH2 0x39EC JUMP JUMPDEST PUSH2 0x1B22 DUP10 PUSH2 0x37F6 JUMP JUMPDEST PUSH1 0x40 MLOAD SWAP13 DUP3 PUSH15 0x24B734BA34B0B6103B30B63AB29D1 PUSH1 0x8D SHL DUP16 SWAP5 DUP6 ADD MSTORE DUP3 MLOAD SWAP3 DUP4 SWAP2 DUP7 DUP7 ADD SWAP2 ADD PUSH2 0x2AB4 JUMP JUMPDEST DUP7 MSTORE PUSH2 0x1B5B CALLDATASIZE DUP12 DUP15 PUSH2 0x2D22 JUMP JUMPDEST SWAP5 DUP14 DUP8 ADD SWAP6 DUP7 MSTORE PUSH1 0x40 DUP8 ADD MSTORE CALLDATASIZE SWAP2 PUSH2 0x2D22 JUMP JUMPDEST PUSH1 0x60 DUP5 ADD MSTORE PUSH1 0x80 DUP4 ADD MSTORE DUP4 PUSH1 0xA0 DUP4 ADD MSTORE PUSH1 0x40 MLOAD PUSH2 0x1B8B DUP11 DUP3 PUSH2 0x2B7E JUMP JUMPDEST DUP5 DUP2 MSTORE PUSH1 0xC0 DUP4 ADD MSTORE TIMESTAMP PUSH1 0xE0 DUP4 ADD MSTORE PUSH1 0x40 MLOAD PUSH2 0x1BA6 DUP11 DUP3 PUSH2 0x2B7E JUMP JUMPDEST DUP5 DUP2 MSTORE PUSH2 0x100 DUP4 ADD MSTORE PUSH1 0x40 MLOAD PUSH2 0x1BBC DUP11 DUP3 PUSH2 0x2B7E JUMP JUMPDEST DUP5 DUP2 MSTORE PUSH2 0x120 DUP4 ADD MSTORE DUP7 DUP5 MSTORE PUSH1 0x9 DUP10 MSTORE PUSH1 0x40 DUP5 KECCAK256 SWAP1 DUP3 MLOAD DUP1 MLOAD PUSH1 0x1 PUSH1 0x1 PUSH1 0x40 SHL SUB DUP2 GT PUSH2 0x211D JUMPI PUSH2 0x1BF1 DUP2 PUSH2 0xE12 DUP7 SLOAD PUSH2 0x2B28 JUMP JUMPDEST DUP12 DUP13 PUSH1 0x1F DUP4 GT PUSH1 0x1 EQ PUSH2 0x2283 JUMPI POP DUP2 SWAP1 PUSH2 0x1C20 SWAP4 DUP10 SWAP3 PUSH2 0x2131 JUMPI POP POP DUP2 PUSH1 0x1 SHL SWAP2 PUSH1 0x0 NOT SWAP1 PUSH1 0x3 SHL SHR NOT AND OR SWAP1 JUMP JUMPDEST DUP3 SSTORE JUMPDEST MLOAD DUP1 MLOAD SWAP1 PUSH1 0x1 PUSH1 0x1 PUSH1 0x40 SHL SUB DUP3 GT PUSH2 0x141E JUMPI PUSH2 0x1C4F DUP3 PUSH2 0x1C46 PUSH1 0x1 DUP7 ADD SLOAD PUSH2 0x2B28 JUMP JUMPDEST PUSH1 0x1 DUP7 ADD PUSH2 0x2F6D JUMP JUMPDEST DUP11 SWAP1 PUSH1 0x1F DUP4 GT PUSH1 0x1 EQ PUSH2 0x2218 JUMPI PUSH2 0x1C7D SWAP3 SWAP2 DUP8 SWAP2 DUP4 PUSH2 0x21A2 JUMPI POP POP DUP2 PUSH1 0x1 SHL SWAP2 PUSH1 0x0 NOT SWAP1 PUSH1 0x3 SHL SHR NOT AND OR SWAP1 JUMP JUMPDEST PUSH1 0x1 DUP3 ADD SSTORE JUMPDEST PUSH1 0x40 DUP3 ADD MLOAD PUSH1 0x2 DUP3 ADD SSTORE PUSH1 0x60 DUP3 ADD MLOAD DUP1 MLOAD SWAP1 PUSH1 0x1 PUSH1 0x1 PUSH1 0x40 SHL SUB DUP3 GT PUSH2 0x141E JUMPI PUSH2 0x1CBD DUP3 PUSH2 0x1CB4 PUSH1 0x3 DUP7 ADD SLOAD PUSH2 0x2B28 JUMP JUMPDEST PUSH1 0x3 DUP7 ADD PUSH2 0x2F6D JUMP JUMPDEST DUP11 SWAP1 PUSH1 0x1F DUP4 GT PUSH1 0x1 EQ PUSH2 0x21AD JUMPI PUSH2 0x1CEB SWAP3 SWAP2 DUP8 SWAP2 DUP4 PUSH2 0x21A2 JUMPI POP POP DUP2 PUSH1 0x1 SHL SWAP2 PUSH1 0x0 NOT SWAP1 PUSH1 0x3 SHL SHR NOT AND OR SWAP1 JUMP JUMPDEST PUSH1 0x3 DUP3 ADD SSTORE JUMPDEST PUSH1 0x80 DUP3 ADD MLOAD PUSH1 0x4 DUP3 ADD SSTORE PUSH2 0x1D1A PUSH1 0xA0 DUP4 ADD MLOAD ISZERO ISZERO PUSH1 0x5 DUP4 ADD SWAP1 PUSH1 0xFF DUP1 NOT DUP4 SLOAD AND SWAP2 ISZERO ISZERO AND OR SWAP1 SSTORE JUMP JUMPDEST PUSH1 0x6 DUP2 ADD PUSH1 0xC0 DUP4 ADD MLOAD DUP1 MLOAD PUSH1 0x1 PUSH1 0x1 PUSH1 0x40 SHL SUB DUP2 GT PUSH2 0x211D JUMPI PUSH2 0x1D41 DUP2 PUSH2 0x662 DUP6 SLOAD PUSH2 0x2B28 JUMP JUMPDEST DUP12 DUP13 PUSH1 0x1F DUP4 GT PUSH1 0x1 EQ PUSH2 0x213C JUMPI POP DUP2 SWAP1 PUSH2 0x1D70 SWAP4 DUP10 SWAP3 PUSH2 0x2131 JUMPI POP POP DUP2 PUSH1 0x1 SHL SWAP2 PUSH1 0x0 NOT SWAP1 PUSH1 0x3 SHL SHR NOT AND OR SWAP1 JUMP JUMPDEST SWAP1 SSTORE JUMPDEST PUSH1 0xE0 DUP3 ADD MLOAD PUSH1 0x7 DUP3 ADD SSTORE PUSH1 0x8 DUP2 ADD PUSH2 0x100 DUP4 ADD MLOAD DUP1 MLOAD SWAP1 PUSH1 0x1 PUSH1 0x1 PUSH1 0x40 SHL SUB DUP3 GT PUSH2 0x211D JUMPI PUSH2 0x1DA6 DUP3 PUSH2 0x662 DUP6 SLOAD PUSH2 0x2B28 JUMP JUMPDEST DUP12 SWAP1 DUP13 PUSH1 0x1F DUP5 GT PUSH1 0x1 EQ PUSH2 0x20B0 JUMPI POP DUP3 PUSH2 0x120 SWAP6 SWAP4 PUSH1 0x9 SWAP6 SWAP4 PUSH2 0x1DDE SWAP4 DUP12 SWAP3 PUSH2 0xA50 JUMPI POP POP DUP2 PUSH1 0x1 SHL SWAP2 PUSH1 0x0 NOT SWAP1 PUSH1 0x3 SHL SHR NOT AND OR SWAP1 JUMP JUMPDEST SWAP1 SSTORE JUMPDEST ADD SWAP2 ADD MLOAD DUP1 MLOAD SWAP1 PUSH1 0x1 PUSH1 0x1 PUSH1 0x40 SHL SUB DUP3 GT PUSH2 0x131D JUMPI PUSH2 0x1E04 DUP3 PUSH2 0x662 DUP6 SLOAD PUSH2 0x2B28 JUMP JUMPDEST DUP10 SWAP1 PUSH1 0x1F DUP4 GT PUSH1 0x1 EQ PUSH2 0x204D JUMPI PUSH2 0x1E32 SWAP3 SWAP2 DUP7 SWAP2 DUP4 PUSH2 0x1F69 JUMPI POP POP DUP2 PUSH1 0x1 SHL SWAP2 PUSH1 0x0 NOT SWAP1 PUSH1 0x3 SHL SHR NOT AND OR SWAP1 JUMP JUMPDEST SWAP1 SSTORE JUMPDEST PUSH2 0x1E3E DUP4 PUSH2 0x38BA JUMP JUMPDEST PUSH2 0x1E6E PUSH1 0x2B PUSH1 0x40 MLOAD DUP1 SWAP4 PUSH11 0x26B4B73A32B2103A379D1 PUSH1 0xAD SHL DUP13 DUP4 ADD MSTORE PUSH2 0x10C7 DUP13 DUP3 MLOAD SWAP3 DUP4 SWAP2 DUP7 DUP7 ADD SWAP2 ADD PUSH2 0x2AB4 JUMP JUMPDEST DUP6 DUP4 MSTORE PUSH1 0x9 DUP9 MSTORE PUSH1 0x8 PUSH1 0x40 DUP5 KECCAK256 ADD SWAP1 DUP1 MLOAD SWAP1 PUSH1 0x1 PUSH1 0x1 PUSH1 0x40 SHL SUB DUP3 GT PUSH2 0x131D JUMPI PUSH2 0x1E9C DUP3 PUSH2 0x662 DUP6 SLOAD PUSH2 0x2B28 JUMP JUMPDEST DUP10 SWAP1 PUSH1 0x1F DUP4 GT PUSH1 0x1 EQ PUSH2 0x1FEA JUMPI PUSH2 0x1ECA SWAP3 SWAP2 DUP7 SWAP2 DUP4 PUSH2 0x1F69 JUMPI POP POP DUP2 PUSH1 0x1 SHL SWAP2 PUSH1 0x0 NOT SWAP1 PUSH1 0x3 SHL SHR NOT AND OR SWAP1 JUMP JUMPDEST SWAP1 SSTORE JUMPDEST DUP5 DUP3 MSTORE PUSH1 0x9 DUP8 MSTORE PUSH1 0x9 PUSH1 0x40 DUP4 KECCAK256 ADD SWAP2 DUP2 MLOAD SWAP2 PUSH1 0x1 PUSH1 0x1 PUSH1 0x40 SHL SUB DUP4 GT PUSH2 0x129E JUMPI PUSH2 0x1EFB DUP4 PUSH2 0xE12 DUP7 SLOAD PUSH2 0x2B28 JUMP JUMPDEST DUP9 SWAP2 PUSH1 0x1F DUP5 GT PUSH1 0x1 EQ PUSH2 0x1F74 JUMPI SWAP3 DUP1 DUP9 SWAP10 SWAP6 SWAP4 PUSH2 0x1F3D SWAP4 PUSH1 0x0 DUP1 MLOAD PUSH1 0x20 PUSH2 0x3C18 DUP4 CODECOPY DUP2 MLOAD SWAP2 MSTORE SWAP9 SWAP7 SWAP3 PUSH2 0x1F69 JUMPI POP POP DUP2 PUSH1 0x1 SHL SWAP2 PUSH1 0x0 NOT SWAP1 PUSH1 0x3 SHL SHR NOT AND OR SWAP1 JUMP JUMPDEST SWAP1 SSTORE JUMPDEST PUSH2 0x1F5E PUSH1 0x40 MLOAD SWAP3 DUP4 SWAP3 DUP10 DUP5 MSTORE PUSH1 0x1 DUP1 PUSH1 0xA0 SHL SUB AND SWAP6 DUP10 DUP5 ADD SWAP2 PUSH2 0x2FBF JUMP JUMPDEST SUB SWAP1 LOG3 PUSH1 0x40 MLOAD SWAP1 DUP2 MSTORE RETURN JUMPDEST ADD MLOAD SWAP1 POP DUP12 DUP1 PUSH2 0x699 JUMP JUMPDEST SWAP2 SWAP1 PUSH1 0x1F NOT DUP5 AND DUP6 DUP5 MSTORE DUP11 DUP5 KECCAK256 SWAP4 JUMPDEST DUP12 DUP3 DUP3 LT PUSH2 0x1FD4 JUMPI POP POP SWAP3 PUSH1 0x1 SWAP3 DUP6 SWAP3 PUSH1 0x0 DUP1 MLOAD PUSH1 0x20 PUSH2 0x3C18 DUP4 CODECOPY DUP2 MLOAD SWAP2 MSTORE SWAP9 SWAP7 DUP12 SWAP13 SWAP9 SWAP7 LT PUSH2 0x1FBB JUMPI JUMPDEST POP POP POP DUP2 SHL ADD SWAP1 SSTORE PUSH2 0x1F40 JUMP JUMPDEST ADD MLOAD PUSH1 0x0 NOT PUSH1 0xF8 DUP5 PUSH1 0x3 SHL AND SHR NOT AND SWAP1 SSTORE DUP11 DUP1 DUP1 PUSH2 0x1FAE JUMP JUMPDEST PUSH1 0x1 DUP6 SWAP7 DUP3 SWAP4 SWAP7 DUP7 ADD MLOAD DUP2 SSTORE ADD SWAP6 ADD SWAP4 ADD PUSH2 0x1F83 JUMP JUMPDEST DUP4 DUP7 MSTORE DUP11 DUP7 KECCAK256 SWAP2 SWAP1 PUSH1 0x1F NOT DUP5 AND DUP8 JUMPDEST DUP14 DUP3 DUP3 LT PUSH2 0x2037 JUMPI POP POP SWAP1 DUP5 PUSH1 0x1 SWAP6 SWAP5 SWAP4 SWAP3 LT PUSH2 0x201E JUMPI JUMPDEST POP POP POP DUP2 SHL ADD SWAP1 SSTORE PUSH2 0x1ECD JUMP JUMPDEST ADD MLOAD PUSH1 0x0 NOT PUSH1 0xF8 DUP5 PUSH1 0x3 SHL AND SHR NOT AND SWAP1 SSTORE DUP11 DUP1 DUP1 PUSH2 0x2011 JUMP JUMPDEST PUSH1 0x1 DUP6 SWAP7 DUP3 SWAP4 SWAP7 DUP7 ADD MLOAD DUP2 SSTORE ADD SWAP6 ADD SWAP4 ADD PUSH2 0x1FF9 JUMP JUMPDEST DUP4 DUP7 MSTORE DUP11 DUP7 KECCAK256 SWAP2 SWAP1 PUSH1 0x1F NOT DUP5 AND DUP8 JUMPDEST DUP14 DUP3 DUP3 LT PUSH2 0x209A JUMPI POP POP SWAP1 DUP5 PUSH1 0x1 SWAP6 SWAP5 SWAP4 SWAP3 LT PUSH2 0x2081 JUMPI JUMPDEST POP POP POP DUP2 SHL ADD SWAP1 SSTORE PUSH2 0x1E35 JUMP JUMPDEST ADD MLOAD PUSH1 0x0 NOT PUSH1 0xF8 DUP5 PUSH1 0x3 SHL AND SHR NOT AND SWAP1 SSTORE DUP11 DUP1 DUP1 PUSH2 0x2074 JUMP JUMPDEST PUSH1 0x1 DUP6 SWAP7 DUP3 SWAP4 SWAP7 DUP7 ADD MLOAD DUP2 SSTORE ADD SWAP6 ADD SWAP4 ADD PUSH2 0x205C JUMP JUMPDEST SWAP2 SWAP1 PUSH1 0x1F NOT DUP5 AND DUP6 DUP11 MSTORE DUP4 DUP11 KECCAK256 SWAP4 DUP11 SWAP1 JUMPDEST DUP3 DUP3 LT PUSH2 0x2105 JUMPI POP POP SWAP3 PUSH1 0x1 SWAP3 DUP6 SWAP3 PUSH2 0x120 SWAP9 SWAP7 PUSH1 0x9 SWAP9 SWAP7 LT PUSH2 0x20EC JUMPI JUMPDEST POP POP POP DUP2 SHL ADD SWAP1 SSTORE PUSH2 0x1DE1 JUMP JUMPDEST ADD MLOAD PUSH1 0x0 NOT PUSH1 0xF8 DUP5 PUSH1 0x3 SHL AND SHR NOT AND SWAP1 SSTORE DUP15 DUP1 DUP1 PUSH2 0x20DF JUMP JUMPDEST DUP1 PUSH1 0x1 DUP7 SWAP8 DUP3 SWAP5 SWAP8 DUP8 ADD MLOAD DUP2 SSTORE ADD SWAP7 ADD SWAP5 ADD SWAP1 PUSH2 0x20C1 JUMP JUMPDEST PUSH4 0x4E487B71 PUSH1 0xE0 SHL DUP8 MSTORE PUSH1 0x41 PUSH1 0x4 MSTORE PUSH1 0x24 DUP8 REVERT JUMPDEST ADD MLOAD SWAP1 POP DUP14 DUP1 PUSH2 0x699 JUMP JUMPDEST SWAP2 SWAP3 PUSH1 0x1F NOT DUP5 AND DUP6 DUP11 MSTORE DUP4 DUP11 KECCAK256 SWAP4 DUP11 SWAP1 JUMPDEST DUP3 DUP3 LT PUSH2 0x218A JUMPI POP POP SWAP1 DUP5 PUSH1 0x1 SWAP6 SWAP5 SWAP4 SWAP3 LT PUSH2 0x2171 JUMPI JUMPDEST POP POP POP DUP2 SHL ADD SWAP1 SSTORE PUSH2 0x1D73 JUMP JUMPDEST ADD MLOAD PUSH1 0x0 NOT PUSH1 0xF8 DUP5 PUSH1 0x3 SHL AND SHR NOT AND SWAP1 SSTORE DUP13 DUP1 DUP1 PUSH2 0x2164 JUMP JUMPDEST DUP1 PUSH1 0x1 DUP7 SWAP8 DUP3 SWAP5 SWAP8 DUP8 ADD MLOAD DUP2 SSTORE ADD SWAP7 ADD SWAP5 ADD SWAP1 PUSH2 0x214D JUMP JUMPDEST ADD MLOAD SWAP1 POP DUP13 DUP1 PUSH2 0x699 JUMP JUMPDEST PUSH1 0x3 DUP5 ADD DUP8 MSTORE DUP12 DUP8 KECCAK256 SWAP2 SWAP1 PUSH1 0x1F NOT DUP5 AND DUP9 DUP15 JUMPDEST DUP3 DUP3 LT PUSH2 0x2200 JUMPI POP POP SWAP1 DUP5 PUSH1 0x1 SWAP6 SWAP5 SWAP4 SWAP3 LT PUSH2 0x21E7 JUMPI JUMPDEST POP POP POP DUP2 SHL ADD PUSH1 0x3 DUP3 ADD SSTORE PUSH2 0x1CF1 JUMP JUMPDEST ADD MLOAD PUSH1 0x0 NOT PUSH1 0xF8 DUP5 PUSH1 0x3 SHL AND SHR NOT AND SWAP1 SSTORE DUP12 DUP1 DUP1 PUSH2 0x21D7 JUMP JUMPDEST DUP1 PUSH1 0x1 DUP7 SWAP8 DUP3 SWAP5 SWAP8 DUP8 ADD MLOAD DUP2 SSTORE ADD SWAP7 ADD SWAP5 ADD SWAP1 PUSH2 0x21C0 JUMP JUMPDEST PUSH1 0x1 DUP5 ADD DUP8 MSTORE DUP12 DUP8 KECCAK256 SWAP2 SWAP1 PUSH1 0x1F NOT DUP5 AND DUP9 DUP15 JUMPDEST DUP3 DUP3 LT PUSH2 0x226B JUMPI POP POP SWAP1 DUP5 PUSH1 0x1 SWAP6 SWAP5 SWAP4 SWAP3 LT PUSH2 0x2252 JUMPI JUMPDEST POP POP POP DUP2 SHL ADD PUSH1 0x1 DUP3 ADD SSTORE PUSH2 0x1C83 JUMP JUMPDEST ADD MLOAD PUSH1 0x0 NOT PUSH1 0xF8 DUP5 PUSH1 0x3 SHL AND SHR NOT AND SWAP1 SSTORE DUP12 DUP1 DUP1 PUSH2 0x2242 JUMP JUMPDEST DUP1 PUSH1 0x1 DUP7 SWAP8 DUP3 SWAP5 SWAP8 DUP8 ADD MLOAD DUP2 SSTORE ADD SWAP7 ADD SWAP5 ADD SWAP1 PUSH2 0x222B JUMP JUMPDEST SWAP2 SWAP3 PUSH1 0x1F NOT DUP5 AND DUP7 DUP11 MSTORE DUP4 DUP11 KECCAK256 SWAP4 DUP11 SWAP1 JUMPDEST DUP3 DUP3 LT PUSH2 0x22D1 JUMPI POP POP SWAP1 DUP5 PUSH1 0x1 SWAP6 SWAP5 SWAP4 SWAP3 LT PUSH2 0x22B8 JUMPI JUMPDEST POP POP POP DUP2 SHL ADD DUP3 SSTORE PUSH2 0x1C23 JUMP JUMPDEST ADD MLOAD PUSH1 0x0 NOT PUSH1 0xF8 DUP5 PUSH1 0x3 SHL AND SHR NOT AND SWAP1 SSTORE DUP13 DUP1 DUP1 PUSH2 0x22AB JUMP JUMPDEST DUP1 PUSH1 0x1 DUP7 SWAP8 DUP3 SWAP5 SWAP8 DUP8 ADD MLOAD DUP2 SSTORE ADD SWAP7 ADD SWAP5 ADD SWAP1 PUSH2 0x2294 JUMP JUMPDEST PUSH1 0x40 MLOAD PUSH3 0x461BCD PUSH1 0xE5 SHL DUP2 MSTORE PUSH1 0x20 PUSH1 0x4 DUP3 ADD MSTORE PUSH1 0x1D PUSH1 0x24 DUP3 ADD MSTORE PUSH32 0x50726F706572747920747970652063616E6E6F7420626520656D707479000000 PUSH1 0x44 DUP3 ADD MSTORE PUSH1 0x64 SWAP1 REVERT JUMPDEST PUSH1 0x40 MLOAD PUSH3 0x461BCD PUSH1 0xE5 SHL DUP2 MSTORE PUSH1 0x20 PUSH1 0x4 DUP3 ADD MSTORE PUSH1 0x11 PUSH1 0x24 DUP3 ADD MSTORE PUSH17 0x496E76616C696420617265612073697A65 PUSH1 0x78 SHL PUSH1 0x44 DUP3 ADD MSTORE PUSH1 0x64 SWAP1 REVERT JUMPDEST POP PUSH3 0x989680 DUP4 GT ISZERO PUSH2 0x1AA5 JUMP JUMPDEST PUSH1 0x40 MLOAD PUSH3 0x461BCD PUSH1 0xE5 SHL DUP2 MSTORE PUSH1 0x20 PUSH1 0x4 DUP3 ADD MSTORE PUSH1 0x1D PUSH1 0x24 DUP3 ADD MSTORE PUSH32 0x537572766579206E756D6265722063616E6E6F7420626520656D707479000000 PUSH1 0x44 DUP3 ADD MSTORE PUSH1 0x64 SWAP1 REVERT JUMPDEST PUSH1 0x40 MLOAD PUSH3 0x461BCD PUSH1 0xE5 SHL DUP2 MSTORE PUSH1 0x20 PUSH1 0x4 DUP3 ADD MSTORE PUSH1 0x18 PUSH1 0x24 DUP3 ADD MSTORE PUSH24 0x4C6F636174696F6E2063616E6E6F7420626520656D707479 PUSH1 0x40 SHL PUSH1 0x44 DUP3 ADD MSTORE PUSH1 0x64 SWAP1 REVERT JUMPDEST PUSH1 0x40 MLOAD PUSH3 0x461BCD PUSH1 0xE5 SHL DUP2 MSTORE PUSH1 0x20 PUSH1 0x4 DUP3 ADD MSTORE PUSH1 0x19 PUSH1 0x24 DUP3 ADD MSTORE PUSH25 0x496E76616C696420726563697069656E742061646472657373 PUSH1 0x38 SHL PUSH1 0x44 DUP3 ADD MSTORE PUSH1 0x64 SWAP1 REVERT JUMPDEST CALLVALUE PUSH2 0x219 JUMPI PUSH1 0x0 CALLDATASIZE PUSH1 0x3 NOT ADD SLT PUSH2 0x219 JUMPI PUSH1 0x20 PUSH1 0x40 MLOAD PUSH32 0xD565E3FC066DF348A5CBC05A8D6323E00552838041CEA2D84CC59876BA37735D DUP2 MSTORE RETURN JUMPDEST CALLVALUE PUSH2 0x219 JUMPI PUSH2 0x549 PUSH2 0x2486 CALLDATASIZE PUSH2 0x2C43 JUMP JUMPDEST SWAP1 PUSH1 0x40 MLOAD SWAP3 PUSH2 0x2496 PUSH1 0x20 DUP6 PUSH2 0x2B7E JUMP JUMPDEST PUSH1 0x0 DUP5 MSTORE PUSH2 0x8C6 DUP4 DUP4 DUP4 PUSH2 0x2D7E JUMP JUMPDEST CALLVALUE PUSH2 0x219 JUMPI PUSH1 0x60 CALLDATASIZE PUSH1 0x3 NOT ADD SLT PUSH2 0x219 JUMPI PUSH1 0x4 CALLDATALOAD PUSH2 0x24C1 PUSH2 0x2C7D JUMP JUMPDEST SWAP1 PUSH1 0x44 CALLDATALOAD PUSH1 0x1 PUSH1 0x1 PUSH1 0x40 SHL SUB DUP2 GT PUSH2 0x219 JUMPI PUSH2 0x24E1 SWAP1 CALLDATASIZE SWAP1 PUSH1 0x4 ADD PUSH2 0x2C8C JUMP JUMPDEST SWAP1 SWAP3 PUSH2 0x24EB PUSH2 0x3621 JUMP JUMPDEST PUSH2 0x24FF PUSH1 0x1 PUSH1 0x1 PUSH1 0xA0 SHL SUB PUSH2 0x1DE DUP6 PUSH2 0x351C JUMP JUMPDEST DUP3 PUSH1 0x0 MSTORE PUSH1 0x9 PUSH1 0x20 MSTORE PUSH2 0x2525 DUP2 PUSH1 0x5 PUSH1 0x40 PUSH1 0x0 KECCAK256 ADD SWAP1 PUSH1 0xFF DUP1 NOT DUP4 SLOAD AND SWAP2 ISZERO ISZERO AND OR SWAP1 SSTORE JUMP JUMPDEST DUP3 PUSH1 0x0 MSTORE PUSH1 0x9 PUSH1 0x20 MSTORE PUSH1 0x6 PUSH1 0x40 PUSH1 0x0 KECCAK256 ADD PUSH1 0x1 PUSH1 0x1 PUSH1 0x40 SHL SUB DUP4 GT PUSH2 0x74B JUMPI PUSH2 0x2558 DUP4 PUSH2 0x2552 DUP4 SLOAD PUSH2 0x2B28 JUMP JUMPDEST DUP4 PUSH2 0x2F6D JUMP JUMPDEST PUSH1 0x0 PUSH1 0x1F DUP5 GT PUSH1 0x1 EQ PUSH2 0x25DC JUMPI SWAP5 PUSH2 0x25CC SWAP2 PUSH2 0x25AE DUP6 DUP1 PUSH32 0x98E3861FADAE44426BB5E7CF935F71A3A8910E85895FDC86FF0366E562A05CBB SWAP9 SWAP10 PUSH1 0x0 SWAP2 PUSH2 0x25D1 JUMPI JUMPDEST POP DUP2 PUSH1 0x1 SHL SWAP2 PUSH1 0x0 NOT SWAP1 PUSH1 0x3 SHL SHR NOT AND OR SWAP1 JUMP JUMPDEST SWAP1 SSTORE JUMPDEST PUSH1 0x40 MLOAD SWAP4 DUP5 SWAP4 ISZERO ISZERO DUP5 MSTORE PUSH1 0x40 PUSH1 0x20 DUP6 ADD MSTORE PUSH1 0x40 DUP5 ADD SWAP2 PUSH2 0x2FBF JUMP JUMPDEST SUB SWAP1 LOG2 STOP JUMPDEST SWAP1 POP DUP5 ADD CALLDATALOAD DUP11 PUSH2 0x259A JUMP JUMPDEST DUP2 DUP2 MSTORE PUSH1 0x20 DUP2 KECCAK256 SWAP1 PUSH1 0x1F NOT DUP6 AND DUP2 JUMPDEST DUP2 DUP2 LT PUSH2 0x264D JUMPI POP SWAP2 PUSH2 0x25CC SWAP4 SWAP2 DUP7 PUSH32 0x98E3861FADAE44426BB5E7CF935F71A3A8910E85895FDC86FF0366E562A05CBB SWAP9 SWAP10 SWAP5 LT PUSH2 0x2633 JUMPI JUMPDEST POP POP PUSH1 0x1 DUP6 DUP2 SHL ADD SWAP1 SSTORE PUSH2 0x25B1 JUMP JUMPDEST DUP4 ADD CALLDATALOAD PUSH1 0x0 NOT PUSH1 0x3 DUP9 SWAP1 SHL PUSH1 0xF8 AND SHR NOT AND SWAP1 SSTORE DUP8 DUP1 PUSH2 0x2624 JUMP JUMPDEST SWAP2 SWAP3 PUSH1 0x20 PUSH1 0x1 DUP2 SWAP3 DUP7 DUP13 ADD CALLDATALOAD DUP2 SSTORE ADD SWAP5 ADD SWAP3 ADD PUSH2 0x25EB JUMP JUMPDEST CALLVALUE PUSH2 0x219 JUMPI PUSH1 0x40 CALLDATASIZE PUSH1 0x3 NOT ADD SLT PUSH2 0x219 JUMPI PUSH2 0x267E PUSH2 0x2B12 JUMP JUMPDEST CALLER PUSH1 0x1 PUSH1 0x1 PUSH1 0xA0 SHL SUB DUP3 AND SUB PUSH2 0x269A JUMPI PUSH2 0x549 SWAP1 PUSH1 0x4 CALLDATALOAD PUSH2 0x375F JUMP JUMPDEST PUSH4 0x334BD919 PUSH1 0xE1 SHL PUSH1 0x0 MSTORE PUSH1 0x4 PUSH1 0x0 REVERT JUMPDEST CALLVALUE PUSH2 0x219 JUMPI PUSH1 0x40 CALLDATASIZE PUSH1 0x3 NOT ADD SLT PUSH2 0x219 JUMPI PUSH2 0x549 PUSH1 0x4 CALLDATALOAD PUSH2 0x26CA PUSH2 0x2B12 JUMP JUMPDEST SWAP1 PUSH2 0x26E6 PUSH2 0x53F DUP3 PUSH1 0x0 MSTORE PUSH1 0x7 PUSH1 0x20 MSTORE PUSH1 0x1 PUSH1 0x40 PUSH1 0x0 KECCAK256 ADD SLOAD SWAP1 JUMP JUMPDEST PUSH2 0x36D0 JUMP JUMPDEST CALLVALUE PUSH2 0x219 JUMPI PUSH1 0x20 CALLDATASIZE PUSH1 0x3 NOT ADD SLT PUSH2 0x219 JUMPI PUSH1 0x20 PUSH2 0x2718 PUSH1 0x4 CALLDATALOAD PUSH1 0x0 MSTORE PUSH1 0x7 PUSH1 0x20 MSTORE PUSH1 0x1 PUSH1 0x40 PUSH1 0x0 KECCAK256 ADD SLOAD SWAP1 JUMP JUMPDEST PUSH1 0x40 MLOAD SWAP1 DUP2 MSTORE RETURN JUMPDEST CALLVALUE PUSH2 0x219 JUMPI PUSH2 0x549 PUSH2 0x2731 CALLDATASIZE PUSH2 0x2C43 JUMP JUMPDEST SWAP2 PUSH2 0x2D7E JUMP JUMPDEST CALLVALUE PUSH2 0x219 JUMPI PUSH1 0x20 CALLDATASIZE PUSH1 0x3 NOT ADD SLT PUSH2 0x219 JUMPI PUSH1 0x4 CALLDATALOAD PUSH1 0x0 MSTORE PUSH1 0x9 PUSH1 0x20 MSTORE PUSH1 0x40 PUSH1 0x0 KECCAK256 PUSH2 0x2761 DUP2 PUSH2 0x2B9F JUMP JUMPDEST PUSH2 0x276D PUSH1 0x1 DUP4 ADD PUSH2 0x2B9F JUMP JUMPDEST PUSH1 0x2 DUP4 ADD SLOAD SWAP1 SWAP3 PUSH2 0x2780 PUSH1 0x3 DUP3 ADD PUSH2 0x2B9F JUMP JUMPDEST PUSH1 0x4 DUP3 ADD SLOAD PUSH1 0x5 DUP4 ADD SLOAD PUSH1 0xFF AND SWAP1 PUSH2 0x279A PUSH1 0x6 DUP6 ADD PUSH2 0x2B9F JUMP JUMPDEST SWAP2 PUSH1 0x7 DUP6 ADD SLOAD SWAP4 PUSH1 0x8 DUP7 ADD PUSH2 0x27AE SWAP1 PUSH2 0x2B9F JUMP JUMPDEST SWAP6 PUSH1 0x9 ADD PUSH2 0x27BB SWAP1 PUSH2 0x2B9F JUMP JUMPDEST SWAP7 PUSH1 0x40 MLOAD SWAP10 DUP11 SWAP10 PUSH2 0x140 DUP12 MSTORE PUSH2 0x140 DUP12 ADD PUSH2 0x27D5 SWAP2 PUSH2 0x2AD7 JUMP JUMPDEST DUP11 DUP2 SUB PUSH1 0x20 DUP13 ADD MSTORE PUSH2 0x27E6 SWAP2 PUSH2 0x2AD7 JUMP JUMPDEST SWAP1 PUSH1 0x40 DUP11 ADD MSTORE DUP9 DUP2 SUB PUSH1 0x60 DUP11 ADD MSTORE PUSH2 0x27FD SWAP2 PUSH2 0x2AD7 JUMP JUMPDEST SWAP2 PUSH1 0x80 DUP9 ADD MSTORE ISZERO ISZERO PUSH1 0xA0 DUP8 ADD MSTORE DUP6 DUP2 SUB PUSH1 0xC0 DUP8 ADD MSTORE PUSH2 0x281B SWAP2 PUSH2 0x2AD7 JUMP JUMPDEST SWAP1 PUSH1 0xE0 DUP6 ADD MSTORE DUP4 DUP2 SUB PUSH2 0x100 DUP6 ADD MSTORE PUSH2 0x2833 SWAP2 PUSH2 0x2AD7 JUMP JUMPDEST DUP3 DUP2 SUB PUSH2 0x120 DUP5 ADD MSTORE PUSH2 0x215 SWAP2 PUSH2 0x2AD7 JUMP JUMPDEST CALLVALUE PUSH2 0x219 JUMPI PUSH1 0x0 CALLDATASIZE PUSH1 0x3 NOT ADD SLT PUSH2 0x219 JUMPI PUSH1 0x20 PUSH1 0x40 MLOAD PUSH3 0x989680 DUP2 MSTORE RETURN JUMPDEST CALLVALUE PUSH2 0x219 JUMPI PUSH1 0x40 CALLDATASIZE PUSH1 0x3 NOT ADD SLT PUSH2 0x219 JUMPI PUSH2 0x287C PUSH2 0x2AFC JUMP JUMPDEST PUSH1 0x24 CALLDATALOAD PUSH2 0x2888 DUP2 PUSH2 0x351C JUMP JUMPDEST CALLER ISZERO ISZERO DUP1 PUSH2 0x293F JUMPI JUMPDEST DUP1 PUSH2 0x2911 JUMPI JUMPDEST PUSH2 0x28FC JUMPI DUP2 SWAP1 PUSH1 0x1 PUSH1 0x1 PUSH1 0xA0 SHL SUB DUP5 DUP2 AND SWAP2 AND PUSH32 0x8C5BE1E5EBEC7D5BD14F71427D1E84F3DD0314C0F7B2291E5B200AC8C7C3B925 PUSH1 0x0 DUP1 LOG4 PUSH1 0x0 SWAP1 DUP2 MSTORE PUSH1 0x4 PUSH1 0x20 MSTORE PUSH1 0x40 SWAP1 KECCAK256 DUP1 SLOAD PUSH1 0x1 PUSH1 0x1 PUSH1 0xA0 SHL SUB NOT AND PUSH1 0x1 PUSH1 0x1 PUSH1 0xA0 SHL SUB SWAP1 SWAP3 AND SWAP2 SWAP1 SWAP2 OR SWAP1 SSTORE STOP JUMPDEST PUSH4 0xA9FBF51F PUSH1 0xE0 SHL PUSH1 0x0 MSTORE CALLER PUSH1 0x4 MSTORE PUSH1 0x24 PUSH1 0x0 REVERT JUMPDEST POP PUSH1 0x1 PUSH1 0x1 PUSH1 0xA0 SHL SUB DUP2 AND PUSH1 0x0 SWAP1 DUP2 MSTORE PUSH1 0x5 PUSH1 0x20 SWAP1 DUP2 MSTORE PUSH1 0x40 DUP1 DUP4 KECCAK256 CALLER DUP5 MSTORE SWAP1 SWAP2 MSTORE SWAP1 KECCAK256 SLOAD PUSH1 0xFF AND ISZERO PUSH2 0x2897 JUMP JUMPDEST POP PUSH1 0x1 PUSH1 0x1 PUSH1 0xA0 SHL SUB DUP2 AND CALLER EQ ISZERO PUSH2 0x2891 JUMP JUMPDEST CALLVALUE PUSH2 0x219 JUMPI PUSH1 0x20 CALLDATASIZE PUSH1 0x3 NOT ADD SLT PUSH2 0x219 JUMPI PUSH1 0x20 PUSH2 0x19DE PUSH1 0x4 CALLDATALOAD PUSH2 0x2D59 JUMP JUMPDEST CALLVALUE PUSH2 0x219 JUMPI PUSH1 0x0 CALLDATASIZE PUSH1 0x3 NOT ADD SLT PUSH2 0x219 JUMPI PUSH1 0x40 MLOAD PUSH1 0x0 DUP1 SLOAD PUSH2 0x2991 DUP2 PUSH2 0x2B28 JUMP JUMPDEST DUP1 DUP5 MSTORE SWAP1 PUSH1 0x1 DUP2 AND SWAP1 DUP2 ISZERO PUSH2 0x18DD JUMPI POP PUSH1 0x1 EQ PUSH2 0x29B8 JUMPI PUSH2 0x215 DUP4 PUSH2 0x201 DUP2 DUP6 SUB DUP3 PUSH2 0x2B7E JUMP JUMPDEST PUSH1 0x0 DUP1 DUP1 MSTORE PUSH32 0x290DECD9548B62A8D60345A988386FC84BA6BC95484008F6362F93160EF3E563 SWAP4 SWAP3 POP SWAP1 JUMPDEST DUP1 DUP3 LT PUSH2 0x29FB JUMPI POP SWAP1 SWAP2 POP DUP2 ADD PUSH1 0x20 ADD PUSH2 0x201 PUSH2 0x186E JUMP JUMPDEST SWAP2 SWAP3 PUSH1 0x1 DUP2 PUSH1 0x20 SWAP3 SLOAD DUP4 DUP6 DUP9 ADD ADD MSTORE ADD SWAP2 ADD SWAP1 SWAP3 SWAP2 PUSH2 0x29E3 JUMP JUMPDEST CALLVALUE PUSH2 0x219 JUMPI PUSH1 0x20 CALLDATASIZE PUSH1 0x3 NOT ADD SLT PUSH2 0x219 JUMPI PUSH1 0x4 CALLDATALOAD SWAP1 PUSH4 0xFFFFFFFF PUSH1 0xE0 SHL DUP3 AND DUP1 SWAP3 SUB PUSH2 0x219 JUMPI PUSH1 0x20 SWAP2 PUSH4 0x7965DB0B PUSH1 0xE0 SHL DUP2 EQ SWAP1 DUP2 ISZERO PUSH2 0x2A57 JUMPI JUMPDEST POP ISZERO ISZERO DUP2 MSTORE RETURN JUMPDEST PUSH4 0x24832483 PUSH1 0xE1 SHL DUP2 EQ SWAP2 POP DUP2 ISZERO PUSH2 0x2A71 JUMPI JUMPDEST POP DUP4 PUSH2 0x2A50 JUMP JUMPDEST PUSH4 0x80AC58CD PUSH1 0xE0 SHL DUP2 EQ SWAP2 POP DUP2 ISZERO PUSH2 0x2AA3 JUMPI JUMPDEST DUP2 ISZERO PUSH2 0x2A92 JUMPI JUMPDEST POP DUP4 PUSH2 0x2A6A JUMP JUMPDEST PUSH4 0x1FFC9A7 PUSH1 0xE0 SHL EQ SWAP1 POP DUP4 PUSH2 0x2A8B JUMP JUMPDEST PUSH4 0x5B5E139F PUSH1 0xE0 SHL DUP2 EQ SWAP2 POP PUSH2 0x2A84 JUMP JUMPDEST PUSH1 0x0 JUMPDEST DUP4 DUP2 LT PUSH2 0x2AC7 JUMPI POP POP PUSH1 0x0 SWAP2 ADD MSTORE JUMP JUMPDEST DUP2 DUP2 ADD MLOAD DUP4 DUP3 ADD MSTORE PUSH1 0x20 ADD PUSH2 0x2AB7 JUMP JUMPDEST SWAP1 PUSH1 0x20 SWAP2 PUSH2 0x2AF0 DUP2 MLOAD DUP1 SWAP3 DUP2 DUP6 MSTORE DUP6 DUP1 DUP7 ADD SWAP2 ADD PUSH2 0x2AB4 JUMP JUMPDEST PUSH1 0x1F ADD PUSH1 0x1F NOT AND ADD ADD SWAP1 JUMP JUMPDEST PUSH1 0x4 CALLDATALOAD SWAP1 PUSH1 0x1 PUSH1 0x1 PUSH1 0xA0 SHL SUB DUP3 AND DUP3 SUB PUSH2 0x219 JUMPI JUMP JUMPDEST PUSH1 0x24 CALLDATALOAD SWAP1 PUSH1 0x1 PUSH1 0x1 PUSH1 0xA0 SHL SUB DUP3 AND DUP3 SUB PUSH2 0x219 JUMPI JUMP JUMPDEST SWAP1 PUSH1 0x1 DUP3 DUP2 SHR SWAP3 AND DUP1 ISZERO PUSH2 0x2B58 JUMPI JUMPDEST PUSH1 0x20 DUP4 LT EQ PUSH2 0x2B42 JUMPI JUMP JUMPDEST PUSH4 0x4E487B71 PUSH1 0xE0 SHL PUSH1 0x0 MSTORE PUSH1 0x22 PUSH1 0x4 MSTORE PUSH1 0x24 PUSH1 0x0 REVERT JUMPDEST SWAP2 PUSH1 0x7F AND SWAP2 PUSH2 0x2B37 JUMP JUMPDEST PUSH2 0x140 DUP2 ADD SWAP1 DUP2 LT PUSH1 0x1 PUSH1 0x1 PUSH1 0x40 SHL SUB DUP3 GT OR PUSH2 0x74B JUMPI PUSH1 0x40 MSTORE JUMP JUMPDEST SWAP1 PUSH1 0x1F DUP1 NOT SWAP2 ADD AND DUP2 ADD SWAP1 DUP2 LT PUSH1 0x1 PUSH1 0x1 PUSH1 0x40 SHL SUB DUP3 GT OR PUSH2 0x74B JUMPI PUSH1 0x40 MSTORE JUMP JUMPDEST SWAP1 PUSH1 0x40 MLOAD SWAP2 DUP3 PUSH1 0x0 DUP3 SLOAD SWAP3 PUSH2 0x2BB3 DUP5 PUSH2 0x2B28 JUMP JUMPDEST DUP1 DUP5 MSTORE SWAP4 PUSH1 0x1 DUP2 AND SWAP1 DUP2 ISZERO PUSH2 0x2C21 JUMPI POP PUSH1 0x1 EQ PUSH2 0x2BDA JUMPI JUMPDEST POP PUSH2 0x2BD8 SWAP3 POP SUB DUP4 PUSH2 0x2B7E JUMP JUMPDEST JUMP JUMPDEST SWAP1 POP PUSH1 0x0 SWAP3 SWAP2 SWAP3 MSTORE PUSH1 0x20 PUSH1 0x0 KECCAK256 SWAP1 PUSH1 0x0 SWAP2 JUMPDEST DUP2 DUP4 LT PUSH2 0x2C05 JUMPI POP POP SWAP1 PUSH1 0x20 PUSH2 0x2BD8 SWAP3 DUP3 ADD ADD CODESIZE PUSH2 0x2BCB JUMP JUMPDEST PUSH1 0x20 SWAP2 SWAP4 POP DUP1 PUSH1 0x1 SWAP2 SLOAD DUP4 DUP6 DUP10 ADD ADD MSTORE ADD SWAP2 ADD SWAP1 SWAP2 DUP5 SWAP3 PUSH2 0x2BEC JUMP JUMPDEST SWAP1 POP PUSH1 0x20 SWAP3 POP PUSH2 0x2BD8 SWAP5 SWAP2 POP PUSH1 0xFF NOT AND DUP3 DUP5 ADD MSTORE ISZERO ISZERO PUSH1 0x5 SHL DUP3 ADD ADD CODESIZE PUSH2 0x2BCB JUMP JUMPDEST PUSH1 0x60 SWAP1 PUSH1 0x3 NOT ADD SLT PUSH2 0x219 JUMPI PUSH1 0x4 CALLDATALOAD PUSH1 0x1 PUSH1 0x1 PUSH1 0xA0 SHL SUB DUP2 AND DUP2 SUB PUSH2 0x219 JUMPI SWAP1 PUSH1 0x24 CALLDATALOAD PUSH1 0x1 PUSH1 0x1 PUSH1 0xA0 SHL SUB DUP2 AND DUP2 SUB PUSH2 0x219 JUMPI SWAP1 PUSH1 0x44 CALLDATALOAD SWAP1 JUMP JUMPDEST PUSH1 0x24 CALLDATALOAD SWAP1 DUP2 ISZERO ISZERO DUP3 SUB PUSH2 0x219 JUMPI JUMP JUMPDEST SWAP2 DUP2 PUSH1 0x1F DUP5 ADD SLT ISZERO PUSH2 0x219 JUMPI DUP3 CALLDATALOAD SWAP2 PUSH1 0x1 PUSH1 0x1 PUSH1 0x40 SHL SUB DUP4 GT PUSH2 0x219 JUMPI PUSH1 0x20 DUP4 DUP2 DUP7 ADD SWAP6 ADD ADD GT PUSH2 0x219 JUMPI JUMP JUMPDEST CALLVALUE PUSH2 0x219 JUMPI PUSH1 0x0 CALLDATASIZE PUSH1 0x3 NOT ADD SLT PUSH2 0x219 JUMPI PUSH1 0x20 PUSH1 0x8 SLOAD PUSH1 0x40 MLOAD SWAP1 DUP2 MSTORE RETURN JUMPDEST SWAP2 DUP2 PUSH1 0x1F DUP5 ADD SLT ISZERO PUSH2 0x219 JUMPI DUP3 CALLDATALOAD SWAP2 PUSH1 0x1 PUSH1 0x1 PUSH1 0x40 SHL SUB DUP4 GT PUSH2 0x219 JUMPI PUSH1 0x20 DUP1 DUP6 ADD SWAP5 DUP5 PUSH1 0x5 SHL ADD ADD GT PUSH2 0x219 JUMPI JUMP JUMPDEST PUSH1 0x1 PUSH1 0x1 PUSH1 0x40 SHL SUB DUP2 GT PUSH2 0x74B JUMPI PUSH1 0x1F ADD PUSH1 0x1F NOT AND PUSH1 0x20 ADD SWAP1 JUMP JUMPDEST SWAP3 SWAP2 SWAP3 PUSH2 0x2D2E DUP3 PUSH2 0x2D07 JUMP JUMPDEST SWAP2 PUSH2 0x2D3C PUSH1 0x40 MLOAD SWAP4 DUP5 PUSH2 0x2B7E JUMP JUMPDEST DUP3 SWAP5 DUP2 DUP5 MSTORE DUP2 DUP4 ADD GT PUSH2 0x219 JUMPI DUP3 DUP2 PUSH1 0x20 SWAP4 DUP5 PUSH1 0x0 SWAP7 ADD CALLDATACOPY ADD ADD MSTORE JUMP JUMPDEST PUSH2 0x2D62 DUP2 PUSH2 0x351C JUMP JUMPDEST POP PUSH1 0x0 SWAP1 DUP2 MSTORE PUSH1 0x4 PUSH1 0x20 MSTORE PUSH1 0x40 SWAP1 KECCAK256 SLOAD PUSH1 0x1 PUSH1 0x1 PUSH1 0xA0 SHL SUB AND SWAP1 JUMP JUMPDEST PUSH1 0x1 PUSH1 0x1 PUSH1 0xA0 SHL SUB SWAP1 SWAP2 AND SWAP2 SWAP1 DUP3 ISZERO PUSH2 0x2F14 JUMPI PUSH1 0x0 DUP3 DUP2 MSTORE PUSH1 0x2 PUSH1 0x20 MSTORE PUSH1 0x40 DUP2 KECCAK256 SLOAD PUSH1 0x1 PUSH1 0x1 PUSH1 0xA0 SHL SUB AND SWAP4 DUP4 SWAP2 DUP6 SWAP1 CALLER ISZERO ISZERO DUP1 PUSH2 0x2E7C JUMPI JUMPDEST POP PUSH32 0xDDF252AD1BE2C89B69C2B068FC378DAA952BA7F163C4A11628F55A4DF523B3EF SWAP1 DUP3 PUSH2 0x2E47 JUMPI JUMPDEST DUP4 DUP2 MSTORE PUSH1 0x3 PUSH1 0x20 MSTORE PUSH1 0x40 DUP2 KECCAK256 PUSH1 0x1 DUP2 SLOAD ADD SWAP1 SSTORE DUP5 DUP2 MSTORE PUSH1 0x2 PUSH1 0x20 MSTORE PUSH1 0x40 DUP2 KECCAK256 DUP5 PUSH12 0xFFFFFFFFFFFFFFFFFFFFFFFF PUSH1 0xA0 SHL DUP3 SLOAD AND OR SWAP1 SSTORE DUP1 LOG4 PUSH1 0x1 PUSH1 0x1 PUSH1 0xA0 SHL SUB AND DUP1 DUP4 SUB PUSH2 0x2E2D JUMPI POP POP POP JUMP JUMPDEST PUSH4 0x64283D7B PUSH1 0xE0 SHL PUSH1 0x0 MSTORE PUSH1 0x4 MSTORE PUSH1 0x24 MSTORE PUSH1 0x44 MSTORE PUSH1 0x64 PUSH1 0x0 REVERT JUMPDEST PUSH1 0x0 DUP6 DUP2 MSTORE PUSH1 0x4 PUSH1 0x20 MSTORE PUSH1 0x40 SWAP1 KECCAK256 DUP1 SLOAD PUSH1 0x1 PUSH1 0x1 PUSH1 0xA0 SHL SUB NOT AND SWAP1 SSTORE DUP3 DUP2 MSTORE PUSH1 0x3 PUSH1 0x20 MSTORE PUSH1 0x40 DUP2 KECCAK256 DUP1 SLOAD PUSH1 0x0 NOT ADD SWAP1 SSTORE PUSH2 0x2DE0 JUMP JUMPDEST SWAP2 POP SWAP2 SWAP3 POP DUP1 PUSH2 0x2EC5 JUMPI JUMPDEST ISZERO PUSH2 0x2E96 JUMPI SWAP1 DUP5 DUP5 SWAP3 CODESIZE PUSH2 0x2DB7 JUMP JUMPDEST DUP4 SWAP1 DUP6 PUSH2 0x2EAF JUMPI PUSH1 0x24 SWAP2 PUSH4 0x7E273289 PUSH1 0xE0 SHL DUP3 MSTORE PUSH1 0x4 MSTORE REVERT JUMPDEST PUSH1 0x44 SWAP2 PUSH4 0x177E802F PUSH1 0xE0 SHL DUP3 MSTORE CALLER PUSH1 0x4 MSTORE PUSH1 0x24 MSTORE REVERT JUMPDEST POP CALLER DUP6 EQ DUP1 ISZERO PUSH2 0x2EF3 JUMPI JUMPDEST DUP1 PUSH2 0x2E87 JUMPI POP DUP4 DUP2 MSTORE PUSH1 0x4 PUSH1 0x20 MSTORE PUSH1 0x40 DUP2 KECCAK256 SLOAD PUSH1 0x1 PUSH1 0x1 PUSH1 0xA0 SHL SUB AND CALLER EQ PUSH2 0x2E87 JUMP JUMPDEST POP DUP5 DUP2 MSTORE PUSH1 0x5 PUSH1 0x20 SWAP1 DUP2 MSTORE PUSH1 0x40 DUP1 DUP4 KECCAK256 CALLER DUP5 MSTORE SWAP1 SWAP2 MSTORE DUP2 KECCAK256 SLOAD PUSH1 0xFF AND PUSH2 0x2ED0 JUMP JUMPDEST PUSH4 0x32505749 PUSH1 0xE1 SHL PUSH1 0x0 MSTORE PUSH1 0x0 PUSH1 0x4 MSTORE PUSH1 0x24 PUSH1 0x0 REVERT JUMPDEST ISZERO PUSH2 0x2F31 JUMPI JUMP JUMPDEST PUSH1 0x40 MLOAD PUSH3 0x461BCD PUSH1 0xE5 SHL DUP2 MSTORE PUSH1 0x20 PUSH1 0x4 DUP3 ADD MSTORE PUSH1 0x14 PUSH1 0x24 DUP3 ADD MSTORE PUSH20 0x151BDAD95B88191BD95CC81B9BDD08195E1A5CDD PUSH1 0x62 SHL PUSH1 0x44 DUP3 ADD MSTORE PUSH1 0x64 SWAP1 REVERT JUMPDEST PUSH1 0x1F DUP3 GT PUSH2 0x2F7A JUMPI POP POP POP JUMP JUMPDEST PUSH1 0x0 MSTORE PUSH1 0x20 PUSH1 0x0 KECCAK256 SWAP1 PUSH1 0x20 PUSH1 0x1F DUP5 ADD PUSH1 0x5 SHR DUP4 ADD SWAP4 LT PUSH2 0x2FB5 JUMPI JUMPDEST PUSH1 0x1F ADD PUSH1 0x5 SHR ADD SWAP1 JUMPDEST DUP2 DUP2 LT PUSH2 0x2FA9 JUMPI POP POP JUMP JUMPDEST PUSH1 0x0 DUP2 SSTORE PUSH1 0x1 ADD PUSH2 0x2F9E JUMP JUMPDEST SWAP1 SWAP2 POP DUP2 SWAP1 PUSH2 0x2F95 JUMP JUMPDEST SWAP1 DUP1 PUSH1 0x20 SWAP4 SWAP3 DUP2 DUP5 MSTORE DUP5 DUP5 ADD CALLDATACOPY PUSH1 0x0 DUP3 DUP3 ADD DUP5 ADD MSTORE PUSH1 0x1F ADD PUSH1 0x1F NOT AND ADD ADD SWAP1 JUMP JUMPDEST ISZERO PUSH2 0x2FE7 JUMPI JUMP JUMPDEST PUSH1 0x40 MLOAD PUSH3 0x461BCD PUSH1 0xE5 SHL DUP2 MSTORE PUSH1 0x20 PUSH1 0x4 DUP3 ADD MSTORE PUSH1 0x1D PUSH1 0x24 DUP3 ADD MSTORE PUSH32 0x4D61726B65742076616C7565206D75737420626520706F736974697665000000 PUSH1 0x44 DUP3 ADD MSTORE PUSH1 0x64 SWAP1 REVERT JUMPDEST PUSH1 0x0 NOT DUP2 EQ PUSH2 0x303B JUMPI PUSH1 0x1 ADD SWAP1 JUMP JUMPDEST PUSH4 0x4E487B71 PUSH1 0xE0 SHL PUSH1 0x0 MSTORE PUSH1 0x11 PUSH1 0x4 MSTORE PUSH1 0x24 PUSH1 0x0 REVERT JUMPDEST PUSH1 0x0 SWAP3 SWAP2 DUP2 SLOAD SWAP2 PUSH2 0x3061 DUP4 PUSH2 0x2B28 JUMP JUMPDEST SWAP3 PUSH1 0x1 DUP2 AND SWAP1 DUP2 ISZERO PUSH2 0x30AC JUMPI POP PUSH1 0x1 EQ PUSH2 0x307A JUMPI POP POP POP JUMP JUMPDEST SWAP1 SWAP2 SWAP3 SWAP4 POP PUSH1 0x0 MSTORE PUSH1 0x20 PUSH1 0x0 KECCAK256 PUSH1 0x0 SWAP1 JUMPDEST DUP4 DUP3 LT PUSH2 0x3098 JUMPI POP POP ADD SWAP1 JUMP JUMPDEST PUSH1 0x1 DUP2 PUSH1 0x20 SWAP3 SLOAD DUP5 DUP7 ADD MSTORE ADD SWAP2 ADD SWAP1 PUSH2 0x308B JUMP JUMPDEST PUSH1 0xFF NOT AND DUP4 MSTORE POP POP DUP2 ISZERO ISZERO SWAP1 SWAP2 MUL ADD SWAP2 POP JUMP JUMPDEST DUP3 PUSH1 0x0 MSTORE PUSH1 0x9 PUSH1 0x20 MSTORE PUSH1 0xFF PUSH1 0x5 PUSH1 0x40 PUSH1 0x0 KECCAK256 ADD SLOAD AND PUSH2 0x3396 JUMPI PUSH2 0x30E1 DUP4 PUSH2 0x351C JUMP JUMPDEST PUSH1 0x1 PUSH1 0x1 PUSH1 0xA0 SHL SUB AND CALLER EQ DUP1 ISZERO PUSH2 0x337C JUMPI JUMPDEST ISZERO PUSH2 0x333F JUMPI PUSH1 0x1 PUSH1 0x1 PUSH1 0xA0 SHL SUB DUP3 AND SWAP2 DUP3 ISZERO PUSH2 0x2F14 JUMPI PUSH1 0x1 PUSH1 0x1 PUSH1 0xA0 SHL SUB PUSH2 0x311B DUP6 DUP4 PUSH2 0x3553 JUMP JUMPDEST AND DUP1 PUSH2 0x3136 JUMPI DUP5 PUSH4 0x7E273289 PUSH1 0xE0 SHL PUSH1 0x0 MSTORE PUSH1 0x4 MSTORE PUSH1 0x24 PUSH1 0x0 REVERT JUMPDEST PUSH1 0x1 PUSH1 0x1 PUSH1 0xA0 SHL SUB DUP4 AND DUP1 DUP3 SUB PUSH2 0x3323 JUMPI POP POP PUSH2 0x3228 PUSH1 0x34 PUSH2 0x320D SWAP3 DUP7 PUSH1 0x0 MSTORE PUSH1 0x9 PUSH1 0x20 MSTORE TIMESTAMP PUSH1 0x7 PUSH1 0x40 PUSH1 0x0 KECCAK256 ADD SSTORE PUSH2 0x31E8 PUSH1 0x5 PUSH2 0x317C PUSH2 0x3176 DUP9 PUSH2 0x38BA JUMP JUMPDEST SWAP4 PUSH2 0x38BA JUMP JUMPDEST PUSH1 0x40 MLOAD SWAP5 DUP6 SWAP2 PUSH1 0x20 DUP4 ADD SWAP6 PUSH20 0x16102A3930B739B332B93932B210333937B69D1 PUSH1 0x65 SHL DUP8 MSTORE PUSH2 0x31B4 DUP2 MLOAD DUP1 SWAP3 PUSH1 0x20 DUP7 DUP9 ADD SWAP2 ADD PUSH2 0x2AB4 JUMP JUMPDEST DUP4 ADD PUSH5 0x103A379D1 PUSH1 0xDD SHL DUP4 DUP3 ADD MSTORE PUSH2 0x31D7 DUP3 MLOAD DUP1 SWAP4 PUSH1 0x20 PUSH1 0x39 DUP6 ADD SWAP2 ADD PUSH2 0x2AB4 JUMP JUMPDEST ADD ADD SUB ADD PUSH1 0x1F NOT DUP2 ADD DUP5 MSTORE DUP4 PUSH2 0x2B7E JUMP JUMPDEST DUP7 PUSH1 0x0 MSTORE PUSH1 0x9 PUSH1 0x20 MSTORE PUSH1 0x8 PUSH1 0x40 PUSH1 0x0 KECCAK256 ADD SWAP2 PUSH2 0x3219 PUSH1 0x40 MLOAD SWAP6 DUP7 SWAP5 PUSH1 0x20 DUP7 ADD SWAP1 PUSH2 0x3051 JUMP JUMPDEST SWAP3 DUP4 SWAP3 MLOAD SWAP4 DUP5 SWAP2 PUSH2 0x2AB4 JUMP JUMPDEST ADD SUB PUSH1 0x1F NOT DUP2 ADD DUP4 MSTORE DUP3 PUSH2 0x2B7E JUMP JUMPDEST DUP4 PUSH1 0x0 MSTORE PUSH1 0x9 PUSH1 0x20 MSTORE PUSH1 0x8 PUSH1 0x40 PUSH1 0x0 KECCAK256 ADD SWAP1 DUP1 MLOAD SWAP1 PUSH1 0x1 PUSH1 0x1 PUSH1 0x40 SHL SUB DUP3 GT PUSH2 0x74B JUMPI PUSH2 0x3259 DUP3 PUSH2 0x662 DUP6 SLOAD PUSH2 0x2B28 JUMP JUMPDEST PUSH1 0x20 SWAP1 PUSH1 0x1F DUP4 GT PUSH1 0x1 EQ PUSH2 0x32BC JUMPI PUSH2 0x3289 SWAP3 SWAP2 PUSH1 0x0 SWAP2 DUP4 PUSH2 0x13A0 JUMPI POP POP DUP2 PUSH1 0x1 SHL SWAP2 PUSH1 0x0 NOT SWAP1 PUSH1 0x3 SHL SHR NOT AND OR SWAP1 JUMP JUMPDEST SWAP1 SSTORE JUMPDEST PUSH1 0x1 PUSH1 0x1 PUSH1 0xA0 SHL SUB AND PUSH32 0x268AE1851D13F9CD87A82EE6FC73474B3694D779B7BF6F66D86FD346F09511ED PUSH1 0x0 DUP1 LOG4 JUMP JUMPDEST SWAP1 PUSH1 0x1F NOT DUP4 AND SWAP2 DUP5 PUSH1 0x0 MSTORE DUP2 PUSH1 0x0 KECCAK256 SWAP3 PUSH1 0x0 JUMPDEST DUP2 DUP2 LT PUSH2 0x330B JUMPI POP SWAP1 DUP5 PUSH1 0x1 SWAP6 SWAP5 SWAP4 SWAP3 LT PUSH2 0x32F2 JUMPI JUMPDEST POP POP POP DUP2 SHL ADD SWAP1 SSTORE PUSH2 0x328C JUMP JUMPDEST ADD MLOAD PUSH1 0x0 NOT PUSH1 0xF8 DUP5 PUSH1 0x3 SHL AND SHR NOT AND SWAP1 SSTORE CODESIZE DUP1 DUP1 PUSH2 0x32E5 JUMP JUMPDEST SWAP3 SWAP4 PUSH1 0x20 PUSH1 0x1 DUP2 SWAP3 DUP8 DUP7 ADD MLOAD DUP2 SSTORE ADD SWAP6 ADD SWAP4 ADD PUSH2 0x32CF JUMP JUMPDEST DUP6 SWAP1 PUSH4 0x64283D7B PUSH1 0xE0 SHL PUSH1 0x0 MSTORE PUSH1 0x4 MSTORE PUSH1 0x24 MSTORE PUSH1 0x44 MSTORE PUSH1 0x64 PUSH1 0x0 REVERT JUMPDEST PUSH1 0x40 MLOAD PUSH3 0x461BCD PUSH1 0xE5 SHL DUP2 MSTORE PUSH1 0x20 PUSH1 0x4 DUP3 ADD MSTORE PUSH1 0x15 PUSH1 0x24 DUP3 ADD MSTORE PUSH21 0x2737BA1030B8383937BB32B21037B91037BBB732B9 PUSH1 0x59 SHL PUSH1 0x44 DUP3 ADD MSTORE PUSH1 0x64 SWAP1 REVERT JUMPDEST POP CALLER PUSH1 0x1 PUSH1 0x1 PUSH1 0xA0 SHL SUB PUSH2 0x338F DUP6 PUSH2 0x2D59 JUMP JUMPDEST AND EQ PUSH2 0x30F3 JUMP JUMPDEST PUSH1 0x40 MLOAD PUSH3 0x461BCD PUSH1 0xE5 SHL DUP2 MSTORE PUSH1 0x20 PUSH1 0x4 DUP3 ADD MSTORE PUSH1 0x1A PUSH1 0x24 DUP3 ADD MSTORE PUSH32 0x4C616E642068617320616E206163746976652064697370757465000000000000 PUSH1 0x44 DUP3 ADD MSTORE PUSH1 0x64 SWAP1 REVERT JUMPDEST ISZERO PUSH2 0x33E2 JUMPI JUMP JUMPDEST PUSH1 0x40 MLOAD PUSH3 0x461BCD PUSH1 0xE5 SHL DUP2 MSTORE PUSH1 0x20 PUSH1 0x4 DUP3 ADD MSTORE PUSH1 0xB PUSH1 0x24 DUP3 ADD MSTORE PUSH11 0x8ADAE0E8F240C4C2E8C6D PUSH1 0xAB SHL PUSH1 0x44 DUP3 ADD MSTORE PUSH1 0x64 SWAP1 REVERT JUMPDEST PUSH1 0x1 PUSH1 0x1 PUSH1 0x40 SHL SUB DUP2 GT PUSH2 0x74B JUMPI PUSH1 0x5 SHL PUSH1 0x20 ADD SWAP1 JUMP JUMPDEST SWAP2 SWAP1 DUP2 LT ISZERO PUSH2 0x11FA JUMPI PUSH1 0x5 SHL DUP2 ADD CALLDATALOAD SWAP1 PUSH1 0xBE NOT DUP2 CALLDATASIZE SUB ADD DUP3 SLT ISZERO PUSH2 0x219 JUMPI ADD SWAP1 JUMP JUMPDEST CALLDATALOAD PUSH1 0x1 PUSH1 0x1 PUSH1 0xA0 SHL SUB DUP2 AND DUP2 SUB PUSH2 0x219 JUMPI SWAP1 JUMP JUMPDEST SWAP1 CALLDATALOAD SWAP1 PUSH1 0x1E NOT DUP2 CALLDATASIZE SUB ADD DUP3 SLT ISZERO PUSH2 0x219 JUMPI ADD DUP1 CALLDATALOAD SWAP1 PUSH1 0x1 PUSH1 0x1 PUSH1 0x40 SHL SUB DUP3 GT PUSH2 0x219 JUMPI PUSH1 0x20 ADD SWAP2 DUP2 CALLDATASIZE SUB DUP4 SGT PUSH2 0x219 JUMPI JUMP JUMPDEST ISZERO PUSH2 0x349B JUMPI JUMP JUMPDEST PUSH1 0x40 MLOAD PUSH3 0x461BCD PUSH1 0xE5 SHL DUP2 MSTORE PUSH1 0x20 PUSH1 0x4 DUP3 ADD MSTORE PUSH1 0x16 PUSH1 0x24 DUP3 ADD MSTORE PUSH22 0x82E4E4C2F240D8CADCCEE8D0E640DAD2E6DAC2E8C6D PUSH1 0x53 SHL PUSH1 0x44 DUP3 ADD MSTORE PUSH1 0x64 SWAP1 REVERT JUMPDEST SWAP2 SWAP1 DUP2 LT ISZERO PUSH2 0x11FA JUMPI PUSH1 0x5 SHL ADD SWAP1 JUMP JUMPDEST PUSH2 0x34F2 DUP2 PUSH2 0x351C JUMP JUMPDEST POP PUSH1 0x0 MSTORE PUSH1 0x6 PUSH1 0x20 MSTORE PUSH2 0x3508 PUSH1 0x40 PUSH1 0x0 KECCAK256 PUSH2 0x2B9F JUMP JUMPDEST PUSH1 0x0 PUSH1 0x40 MLOAD PUSH2 0x3518 PUSH1 0x20 DUP3 PUSH2 0x2B7E JUMP JUMPDEST MSTORE SWAP1 JUMP JUMPDEST PUSH1 0x0 DUP2 DUP2 MSTORE PUSH1 0x2 PUSH1 0x20 MSTORE PUSH1 0x40 SWAP1 KECCAK256 SLOAD PUSH1 0x1 PUSH1 0x1 PUSH1 0xA0 SHL SUB AND SWAP1 DUP2 ISZERO PUSH2 0x353F JUMPI POP SWAP1 JUMP JUMPDEST PUSH4 0x7E273289 PUSH1 0xE0 SHL PUSH1 0x0 MSTORE PUSH1 0x4 MSTORE PUSH1 0x24 PUSH1 0x0 REVERT JUMPDEST PUSH1 0x0 DUP3 DUP2 MSTORE PUSH1 0x2 PUSH1 0x20 MSTORE PUSH1 0x40 SWAP1 KECCAK256 SLOAD PUSH1 0x1 PUSH1 0x1 PUSH1 0xA0 SHL SUB AND SWAP2 SWAP1 DUP3 PUSH2 0x35EA JUMPI JUMPDEST PUSH1 0x1 PUSH1 0x1 PUSH1 0xA0 SHL SUB AND DUP1 PUSH2 0x35D0 JUMPI JUMPDEST DUP2 PUSH1 0x0 MSTORE PUSH1 0x2 PUSH1 0x20 MSTORE PUSH1 0x40 PUSH1 0x0 KECCAK256 DUP2 PUSH12 0xFFFFFFFFFFFFFFFFFFFFFFFF PUSH1 0xA0 SHL DUP3 SLOAD AND OR SWAP1 SSTORE DUP3 PUSH32 0xDDF252AD1BE2C89B69C2B068FC378DAA952BA7F163C4A11628F55A4DF523B3EF PUSH1 0x0 DUP1 LOG4 SWAP1 JUMP JUMPDEST DUP1 PUSH1 0x0 MSTORE PUSH1 0x3 PUSH1 0x20 MSTORE PUSH1 0x40 PUSH1 0x0 KECCAK256 PUSH1 0x1 DUP2 SLOAD ADD SWAP1 SSTORE PUSH2 0x3582 JUMP JUMPDEST PUSH1 0x0 DUP3 DUP2 MSTORE PUSH1 0x4 PUSH1 0x20 MSTORE PUSH1 0x40 SWAP1 KECCAK256 DUP1 SLOAD PUSH1 0x1 PUSH1 0x1 PUSH1 0xA0 SHL SUB NOT AND SWAP1 SSTORE DUP3 PUSH1 0x0 MSTORE PUSH1 0x3 PUSH1 0x20 MSTORE PUSH1 0x40 PUSH1 0x0 KECCAK256 PUSH1 0x0 NOT DUP2 SLOAD ADD SWAP1 SSTORE PUSH2 0x3573 JUMP JUMPDEST CALLER PUSH1 0x0 SWAP1 DUP2 MSTORE PUSH32 0x2B60F1D89544223E54444A02BCA21C7ECFE977AA3064FC5A5CE775922BE1F017 PUSH1 0x20 MSTORE PUSH1 0x40 SWAP1 KECCAK256 SLOAD PUSH1 0xFF AND ISZERO PUSH2 0x365A JUMPI JUMP JUMPDEST PUSH4 0xE2517D3F PUSH1 0xE0 SHL PUSH1 0x0 MSTORE CALLER PUSH1 0x4 MSTORE PUSH32 0xD565E3FC066DF348A5CBC05A8D6323E00552838041CEA2D84CC59876BA37735D PUSH1 0x24 MSTORE PUSH1 0x44 PUSH1 0x0 REVERT JUMPDEST PUSH1 0x0 DUP2 DUP2 MSTORE PUSH1 0x7 PUSH1 0x20 SWAP1 DUP2 MSTORE PUSH1 0x40 DUP1 DUP4 KECCAK256 CALLER DUP5 MSTORE SWAP1 SWAP2 MSTORE SWAP1 KECCAK256 SLOAD PUSH1 0xFF AND ISZERO PUSH2 0x36B8 JUMPI POP JUMP JUMPDEST PUSH4 0xE2517D3F PUSH1 0xE0 SHL PUSH1 0x0 MSTORE CALLER PUSH1 0x4 MSTORE PUSH1 0x24 MSTORE PUSH1 0x44 PUSH1 0x0 REVERT JUMPDEST PUSH1 0x0 DUP2 DUP2 MSTORE PUSH1 0x7 PUSH1 0x20 SWAP1 DUP2 MSTORE PUSH1 0x40 DUP1 DUP4 KECCAK256 PUSH1 0x1 PUSH1 0x1 PUSH1 0xA0 SHL SUB DUP7 AND DUP5 MSTORE SWAP1 SWAP2 MSTORE SWAP1 KECCAK256 SLOAD PUSH1 0xFF AND PUSH2 0x3758 JUMPI PUSH1 0x0 DUP2 DUP2 MSTORE PUSH1 0x7 PUSH1 0x20 SWAP1 DUP2 MSTORE PUSH1 0x40 DUP1 DUP4 KECCAK256 PUSH1 0x1 PUSH1 0x1 PUSH1 0xA0 SHL SUB SWAP6 SWAP1 SWAP6 AND DUP1 DUP5 MSTORE SWAP5 SWAP1 SWAP2 MSTORE DUP2 KECCAK256 DUP1 SLOAD PUSH1 0xFF NOT AND PUSH1 0x1 OR SWAP1 SSTORE CALLER SWAP3 SWAP2 SWAP1 PUSH32 0x2F8788117E7EFF1D82E926EC794901D17C78024A50270940304540A733656F0D SWAP1 DUP1 LOG4 PUSH1 0x1 SWAP1 JUMP JUMPDEST POP POP PUSH1 0x0 SWAP1 JUMP JUMPDEST PUSH1 0x0 DUP2 DUP2 MSTORE PUSH1 0x7 PUSH1 0x20 SWAP1 DUP2 MSTORE PUSH1 0x40 DUP1 DUP4 KECCAK256 PUSH1 0x1 PUSH1 0x1 PUSH1 0xA0 SHL SUB DUP7 AND DUP5 MSTORE SWAP1 SWAP2 MSTORE SWAP1 KECCAK256 SLOAD PUSH1 0xFF AND ISZERO PUSH2 0x3758 JUMPI PUSH1 0x0 DUP2 DUP2 MSTORE PUSH1 0x7 PUSH1 0x20 SWAP1 DUP2 MSTORE PUSH1 0x40 DUP1 DUP4 KECCAK256 PUSH1 0x1 PUSH1 0x1 PUSH1 0xA0 SHL SUB SWAP6 SWAP1 SWAP6 AND DUP1 DUP5 MSTORE SWAP5 SWAP1 SWAP2 MSTORE DUP2 KECCAK256 DUP1 SLOAD PUSH1 0xFF NOT AND SWAP1 SSTORE CALLER SWAP3 SWAP2 SWAP1 PUSH32 0xF6391F5C32D9C69D2A47EA670B442974B53935D1EDC7FD64EB21E047A839171B SWAP1 DUP1 LOG4 PUSH1 0x1 SWAP1 JUMP JUMPDEST SWAP1 DUP2 MLOAD DUP2 LT ISZERO PUSH2 0x11FA JUMPI ADD PUSH1 0x20 ADD SWAP1 JUMP JUMPDEST DUP1 ISZERO PUSH2 0x389A JUMPI DUP1 DUP2 PUSH1 0x0 SWAP3 JUMPDEST PUSH2 0x3884 JUMPI POP PUSH2 0x3810 DUP3 PUSH2 0x2D07 JUMP JUMPDEST SWAP2 PUSH2 0x381E PUSH1 0x40 MLOAD SWAP4 DUP5 PUSH2 0x2B7E JUMP JUMPDEST DUP1 DUP4 MSTORE DUP2 PUSH1 0x1F NOT PUSH2 0x382E DUP4 PUSH2 0x2D07 JUMP JUMPDEST ADD CALLDATASIZE PUSH1 0x20 DUP7 ADD CALLDATACOPY JUMPDEST PUSH2 0x383F JUMPI POP POP SWAP1 JUMP JUMPDEST PUSH1 0x0 NOT DUP2 ADD SWAP1 DUP2 GT PUSH2 0x303B JUMPI DUP1 SWAP2 PUSH1 0xA DUP2 MOD PUSH1 0x30 ADD SWAP2 DUP3 PUSH1 0x30 GT PUSH2 0x303B JUMPI PUSH1 0xA SWAP3 PUSH1 0xF8 SHL PUSH1 0x1 PUSH1 0x1 PUSH1 0xF8 SHL SUB NOT AND PUSH1 0x0 BYTE SWAP1 PUSH2 0x387B SWAP1 DUP7 PUSH2 0x37E5 JUMP JUMPDEST MSTORE8 DIV SWAP1 DUP2 PUSH2 0x3836 JUMP JUMPDEST SWAP1 SWAP2 PUSH2 0x3891 PUSH1 0xA SWAP2 PUSH2 0x302C JUMP JUMPDEST SWAP3 SWAP2 DIV DUP1 PUSH2 0x3802 JUMP JUMPDEST POP PUSH1 0x40 MLOAD PUSH2 0x38A9 PUSH1 0x40 DUP3 PUSH2 0x2B7E JUMP JUMPDEST PUSH1 0x1 DUP2 MSTORE PUSH1 0x3 PUSH1 0xFC SHL PUSH1 0x20 DUP3 ADD MSTORE SWAP1 JUMP JUMPDEST PUSH1 0x1 DUP1 PUSH1 0xA0 SHL SUB AND PUSH1 0x40 DUP1 MLOAD SWAP1 PUSH2 0x38D1 DUP2 DUP4 PUSH2 0x2B7E JUMP JUMPDEST PUSH1 0x10 DUP3 MSTORE PUSH16 0x181899199A1A9B1B9C1CB0B131B232B3 PUSH1 0x81 SHL PUSH1 0x20 DUP4 ADD MSTORE MLOAD SWAP2 PUSH2 0x38FB PUSH1 0x60 DUP5 PUSH2 0x2B7E JUMP JUMPDEST PUSH1 0x2A DUP4 MSTORE PUSH1 0x20 DUP4 ADD PUSH1 0x40 CALLDATASIZE DUP3 CALLDATACOPY DUP4 MLOAD ISZERO PUSH2 0x11FA JUMPI PUSH1 0x30 SWAP1 MSTORE8 DUP3 MLOAD PUSH1 0x1 LT ISZERO PUSH2 0x11FA JUMPI PUSH1 0x78 PUSH1 0x21 DUP5 ADD MSTORE8 PUSH1 0x0 JUMPDEST PUSH1 0x14 DUP2 LT PUSH2 0x3935 JUMPI POP POP POP SWAP1 JUMP JUMPDEST PUSH1 0xC DUP2 ADD DUP1 DUP3 GT PUSH2 0x303B JUMPI PUSH1 0x20 DUP2 LT ISZERO PUSH2 0x11FA JUMPI DUP3 SWAP1 BYTE PUSH1 0x1 PUSH1 0x1 PUSH1 0xF8 SHL SUB NOT PUSH2 0x3966 PUSH1 0x4 DUP4 SWAP1 SHR PUSH1 0xF AND DUP7 PUSH2 0x37E5 JUMP JUMPDEST MLOAD AND DUP3 PUSH1 0x1 SHL SWAP1 DUP4 DUP3 DIV PUSH1 0x2 EQ DUP5 ISZERO OR ISZERO PUSH2 0x303B JUMPI DUP2 PUSH1 0x2 ADD SWAP1 DUP2 PUSH1 0x2 GT PUSH2 0x303B JUMPI PUSH2 0x3996 SWAP1 PUSH1 0x0 BYTE SWAP2 DUP9 PUSH2 0x37E5 JUMP JUMPDEST MSTORE8 PUSH1 0x0 SWAP2 PUSH1 0x1 PUSH1 0x1 PUSH1 0xF8 SHL SUB NOT SWAP1 PUSH2 0x39B1 SWAP1 PUSH1 0xF AND DUP8 PUSH2 0x37E5 JUMP JUMPDEST MLOAD AND SWAP1 PUSH1 0x3 ADD SWAP2 DUP3 PUSH1 0x3 GT PUSH2 0x39D8 JUMPI PUSH1 0x1 SWAP4 SWAP3 SWAP2 PUSH2 0x39D1 SWAP2 BYTE SWAP2 DUP8 PUSH2 0x37E5 JUMP JUMPDEST MSTORE8 ADD PUSH2 0x3927 JUMP JUMPDEST PUSH4 0x4E487B71 PUSH1 0xE0 SHL DUP2 MSTORE PUSH1 0x11 PUSH1 0x4 MSTORE PUSH1 0x24 SWAP1 REVERT JUMPDEST SWAP3 SWAP2 DUP2 EXTCODESIZE PUSH2 0x39FB JUMPI JUMPDEST POP POP POP POP JUMP JUMPDEST PUSH1 0x40 MLOAD PUSH4 0xA85BD01 PUSH1 0xE1 SHL DUP2 MSTORE PUSH1 0x1 PUSH1 0x1 PUSH1 0xA0 SHL SUB SWAP5 DUP6 AND PUSH1 0x4 DUP3 ADD MSTORE PUSH1 0x0 PUSH1 0x24 DUP3 ADD MSTORE PUSH1 0x44 DUP2 ADD SWAP2 SWAP1 SWAP2 MSTORE PUSH1 0x80 PUSH1 0x64 DUP3 ADD MSTORE SWAP3 AND SWAP2 SWAP1 PUSH1 0x20 SWAP1 DUP3 SWAP1 DUP2 SWAP1 PUSH2 0x3A47 SWAP1 PUSH1 0x84 DUP4 ADD SWAP1 PUSH2 0x2AD7 JUMP JUMPDEST SUB DUP2 PUSH1 0x0 DUP7 GAS CALL DUP1 SWAP2 PUSH1 0x0 SWAP2 PUSH2 0x3AE6 JUMPI JUMPDEST POP SWAP1 PUSH2 0x3AB1 JUMPI POP RETURNDATASIZE ISZERO PUSH2 0x3AAA JUMPI RETURNDATASIZE PUSH2 0x3A6F DUP2 PUSH2 0x2D07 JUMP JUMPDEST SWAP1 PUSH2 0x3A7D PUSH1 0x40 MLOAD SWAP3 DUP4 PUSH2 0x2B7E JUMP JUMPDEST DUP2 MSTORE RETURNDATASIZE PUSH1 0x0 PUSH1 0x20 DUP4 ADD RETURNDATACOPY JUMPDEST DUP1 MLOAD SWAP1 DUP2 PUSH2 0x3AA5 JUMPI DUP3 PUSH4 0x32505749 PUSH1 0xE1 SHL PUSH1 0x0 MSTORE PUSH1 0x4 MSTORE PUSH1 0x24 PUSH1 0x0 REVERT JUMPDEST PUSH1 0x20 ADD REVERT JUMPDEST PUSH1 0x60 PUSH2 0x3A88 JUMP JUMPDEST PUSH1 0x1 PUSH1 0x1 PUSH1 0xE0 SHL SUB NOT AND PUSH4 0x757A42FF PUSH1 0xE1 SHL ADD PUSH2 0x3AD2 JUMPI POP CODESIZE DUP1 DUP1 DUP1 PUSH2 0x39F5 JUMP JUMPDEST PUSH4 0x32505749 PUSH1 0xE1 SHL PUSH1 0x0 MSTORE PUSH1 0x4 MSTORE PUSH1 0x24 PUSH1 0x0 REVERT JUMPDEST PUSH1 0x20 DUP2 RETURNDATASIZE PUSH1 0x20 GT PUSH2 0x3B28 JUMPI JUMPDEST DUP2 PUSH2 0x3AFF PUSH1 0x20 SWAP4 DUP4 PUSH2 0x2B7E JUMP JUMPDEST DUP2 ADD SUB SLT PUSH2 0x3B24 JUMPI MLOAD SWAP1 PUSH1 0x1 PUSH1 0x1 PUSH1 0xE0 SHL SUB NOT DUP3 AND DUP3 SUB PUSH2 0x3B21 JUMPI POP CODESIZE PUSH2 0x3A58 JUMP JUMPDEST DUP1 REVERT JUMPDEST POP DUP1 REVERT JUMPDEST RETURNDATASIZE SWAP2 POP PUSH2 0x3AF2 JUMP JUMPDEST DUP3 EXTCODESIZE PUSH2 0x3B3E JUMPI JUMPDEST POP POP POP POP POP JUMP JUMPDEST PUSH1 0x40 MLOAD PUSH4 0xA85BD01 PUSH1 0xE1 SHL DUP2 MSTORE PUSH1 0x1 PUSH1 0x1 PUSH1 0xA0 SHL SUB SWAP2 DUP3 AND PUSH1 0x4 DUP3 ADD MSTORE SWAP2 DUP2 AND PUSH1 0x24 DUP4 ADD MSTORE PUSH1 0x44 DUP3 ADD SWAP4 SWAP1 SWAP4 MSTORE PUSH1 0x80 PUSH1 0x64 DUP3 ADD MSTORE SWAP2 AND SWAP2 PUSH1 0x20 SWAP1 DUP3 SWAP1 DUP2 SWAP1 PUSH2 0x3B8A SWAP1 PUSH1 0x84 DUP4 ADD SWAP1 PUSH2 0x2AD7 JUMP JUMPDEST SUB DUP2 PUSH1 0x0 DUP7 GAS CALL DUP1 SWAP2 PUSH1 0x0 SWAP2 PUSH2 0x3BD4 JUMPI JUMPDEST POP SWAP1 PUSH2 0x3BB2 JUMPI POP RETURNDATASIZE ISZERO PUSH2 0x3AAA JUMPI RETURNDATASIZE PUSH2 0x3A6F DUP2 PUSH2 0x2D07 JUMP JUMPDEST PUSH1 0x1 PUSH1 0x1 PUSH1 0xE0 SHL SUB NOT AND PUSH4 0x757A42FF PUSH1 0xE1 SHL ADD PUSH2 0x3AD2 JUMPI POP CODESIZE DUP1 DUP1 DUP1 DUP1 PUSH2 0x3B37 JUMP JUMPDEST PUSH1 0x20 DUP2 RETURNDATASIZE PUSH1 0x20 GT PUSH2 0x3C0F JUMPI JUMPDEST DUP2 PUSH2 0x3BED PUSH1 0x20 SWAP4 DUP4 PUSH2 0x2B7E JUMP JUMPDEST DUP2 ADD SUB SLT PUSH2 0x3B24 JUMPI MLOAD SWAP1 PUSH1 0x1 PUSH1 0x1 PUSH1 0xE0 SHL SUB NOT DUP3 AND DUP3 SUB PUSH2 0x3B21 JUMPI POP CODESIZE PUSH2 0x3B9B JUMP JUMPDEST RETURNDATASIZE SWAP2 POP PUSH2 0x3BE0 JUMP INVALID 0xB1 GASLIMIT 0xEB PC 0xC4 0xCE SWAP6 0xEA DUP15 0xBB PUSH5 0xF9EC4C2C5F CREATE SWAP13 0x2A 0xEB BLOCKHASH 0xAF 0xCA DUP13 0xEE POP CALLDATASIZE PUSH30 0xFEC496E67568AFFEAB53E08D035C844DB6A2A63EC1F609D48A48ABEA4FBA PUSH30 0xC04817E402A2646970667358221220F93FF687BA221DFCC1C526EB429700 SLT EXP 0xE1 0x23 SDIV DUP10 0xA6 PUSH1 0x9F 0xAF 0x26 PUSH11 0xF9664674BA64736F6C6343 STOP ADDMOD SHR STOP CALLER 0x2F DUP8 DUP9 GT PUSH31 0x7EFF1D82E926EC794901D17C78024A50270940304540A733656F0D2B60F1D8 SWAP6 PREVRANDAO 0x22 RETURNDATACOPY SLOAD PREVRANDAO BLOBBASEFEE MUL 0xBC LOG2 SHR PUSH31 0xCFE977AA3064FC5A5CE775922BE1F0176D5257204EBE7D88FD91AE87941CB2 0xDD SWAP14 DUP1 PUSH3 0xB64AE5 LOG2 0xBD 0x2D 0x28 0xEC BLOCKHASH 0xB9 0xFB 0xF6 0xDF "},"methodIdentifiers":{"AUTHORITY_ROLE()":"4a3fba0e","DEFAULT_ADMIN_ROLE()":"a217fddf","MAX_AREA()":"168fc898","MIN_AREA()":"8388e2ba","approve(address,uint256)":"095ea7b3","balanceOf(address)":"70a08231","batchMintLand((address,string,string,uint256,string,uint256)[])":"aa023ed8","batchTransferLand(address[],address[],uint256[])":"c4b1c735","batchUpdateMarketValue(uint256[],uint256[])":"b4e63495","getApproved(uint256)":"081812fc","getCurrentMarketValue(uint256)":"dd6055c8","getLandParcel(uint256)":"e7feff2e","getOwnershipHistory(uint256)":"f1dbaccb","getRoleAdmin(bytes32)":"248a9ca3","getTokenIdCounter()":"dbfd4b98","getTotalLands()":"842e7dba","getValueHistory(uint256)":"ab279a8e","grantRole(bytes32,address)":"2f2ff15d","hasActiveDispute(uint256)":"f1bd7439","hasRole(bytes32,address)":"91d14854","isApprovedForAll(address,address)":"e985e9c5","landParcels(uint256)":"20e7c6d4","mintLand(address,string,string,uint256,string,uint256)":"54768693","name()":"06fdde03","ownerOf(uint256)":"6352211e","renounceRole(bytes32,address)":"36568abe","revokeRole(bytes32,address)":"d547741f","safeTransferFrom(address,address,uint256)":"42842e0e","safeTransferFrom(address,address,uint256,bytes)":"b88d4fde","setApprovalForAll(address,bool)":"a22cb465","supportsInterface(bytes4)":"01ffc9a7","symbol()":"95d89b41","tokenURI(uint256)":"c87b56dd","transferFrom(address,address,uint256)":"23b872dd","transferLand(address,address,uint256)":"a762c342","updateDisputeStatus(uint256,bool,string)":"38fe1850","updateMarketValue(uint256,uint256)":"cf62664a"}}}}}